S0160000456C656374726F6E69634C6F61642E7372656386
S21400000080360020090100000501000005010000FF
S21400001000000000000000000000000000000000DB
S21400002000000000000000000000000005010000C5
S21400003000000000000000000501000005010000AF
S2140000400501000005010000050100008D0F0000FD
S214000050710D00000501000005010000050100000B
S214000060050100000501000005010000F113000075
S2140000700501000005010000050100000501000063
S2140000800501000005010000050100001D1B000021
S214000090311B0000050100000501000005010000FD
S2140000A00501000010B5064C2378002B07D1054B40
S2140000B0002B02D0044800E000BF0123237010BDCF
S2140000C0180A002000000000A0440100084B10B5EC
S2140000D0002B03D00749084800E000BF0748036824
S2140000E0002B00D110BD064B002BFBD09847F9E73C
S2140000F0000000001C0A0020A0440100A0440100EB
S21400010000000000FEE7000010B5124A124B9A42AB
S21400011009D0114B0F4A03E011681960043304320A
S2140001200E498B42F8D30E4B02E000221A600433CD
S2140001300C4A9342F9D30C4AFF210C4B8B43936035
S2140001400B4A516880230B4353600A4B98470A4B6F
S2140001509847FEE7A044010000000020180A00208F
S214000160180A00207C16002000ED00E000000000C9
S21400017000400041156C0000C1430000EFF31083FF
S214000180036072B6BFF35F8F7047BFF35F8F03687D
S21400019083F310887047000010B5044B1C68044BAE
S2140001A0984701002000034B984710BD340A0020F2
S2140001B0390C0000550C000070B50125002407E03E
S2140001C00D4AB358002B00D0984770BD013AD5B2FF
S2140001D0AC42FAD82B195B10DAB2002AF5D1FF210F
S2140001E00B40DE000449891949688142E8D0EDD207
S2140001F00132D4B2ECE7C046380A002010B500231E
S214000200002B03D00748084B984710BD074AD90073
S21400021050180124644244600020885001339BB289
S214000220EEE7C046B9010000950C0000380A002031
S214000230F0B5C64600B584B001900023002B10D060
S2140002400023984600291BD04346002B46D1002B9E
S21400025024D1DA002A4C1259002A18D00133DBB216
S214000260F5E7DC00264A121952680198824202D04D
S2140002700133DBB2E2E7224BE15001239846E1E787
S2140002804346002B35D001981E4B98472DE0DD00E5
S21400029029516519019A6A6001229046002201E000
S2140002A00132D2B21900114318D11549DC000C19DD
S2140002B06768D400091949688F42F1D24C1CEFD008
S2140002C002A98C460E4FD1007918644641C941C434
S2140002D0DD007D19614611C911C5E1E74346002BD3
S2140002E00AD001210198074B984704B004BC9046F9
S2140002F0F0BD0D204042F8E70D204042F5E7C0462D
S214000300380A0020250D000010B584B01438848B00
S21400031001AB1C8014000292064A5A800391190011
S214000320054B9847002802D1200004B010BD0400F9
S214000330FAE7C0460080FFFF2915000010B584B01C
S2140003401438848B01AB1C8014000292064A5A8033
S21400035003911900054B9847002802D1200004B0ED
S21400036010BD0400FAE7C0460180FFFF2915000013
S21400037070B504000D00431E9841C0B25E220749C6
S214000380074B984729002000064B9847002803D1C2
S214000390054BA361054B636170BDC046900F01001D
S2140003A0990A0000051400003D0300000903000040
S2140003B010B5014B984710BDB11400008905890D92
S2140003C08023DB001A400A43828310007047000037
S2140003D070B586B0040016001D006B46D971073351
S2140003E0828B03A90A8001224A6000224A808B6021
S2140003F0074B9847002801D006B070BD03A9054BEF
S2140004004B808E604D602000014B9847F4E7C04655
S214000410291500000180FFFF143008600020704797
S21400042010B50368984710BD70B504000D0016009F
S21400043000280ED000290AD001203D220649074B8D
S21400044098476368320029002000984770BD002056
S214000450F3E70020F1E7C046AC0F0100990A000060
S21400046070B504000D00002817D0002913D0012015
S21400047040220B490B4B98476560201D29000A4B0C
S2140004809847002806DB094BA382094B2361094BDA
S214000490E360002070BD0020EAE70020E8E7C046E1
S2140004A0C00F0100990A0000451700000080FFFFFA
S2140004B0650500002905000010B50400431E98419C
S2140004C0C0B257220349044B9847201D034B984758
S2140004D010BDC046C00F0100990A000001190000B7
S2140004E030B587B004000D00002815D0002911D0C3
S2140004F00120B32209490A4B98472B6803936B687F
S2140005000493AB6801930593201D03A9054B9847F8
S21400051007B030BD0020ECE70020EAE7C00F01007E
S214000520990A00003919000070B584B004000E0066
S2140005301500431E9841C0B2A3220749074B9847AF
S21400054020000C38002302930196039501A9044B62
S214000550984704B070BDC046C00F0100990A00005D
S214000560E104000070B584B004000E001500431EC0
S2140005709841C0B287220749074B984720000C389D
S214000580029600230193039501A9044B984704B0F3
S21400059070BDC046C00F0100990A0000E1040000CB
S2140005A070B504000D0000280CD0002908D00120EA
S2140005B0BD220549054B98470C342C60002070BDC1
S2140005C00020F5E70020F3E7C00F0100990A0000BD
S2140005D0F8B50668002E02D0330000250CE0104B5C
S2140005E0984718E09F68BC466444A41A01348F6894
S2140005F0BC420BD21D001B68002B07D05C689442DF
S214000600F0D8A41A9F68BC466444F0E7B34203D00F
S2140006102800044B9847F8BD014B9847FBE7C046B7
S214000620B90A0000E50A0000F8B505004469036948
S2140006305E1C0661037EDB0702D4037E9B070AD599
S2140006402B7E02221343DBB22B76F8BD6F69E3687C
S214000650200098473C00002CF7D06368F31AA26885
S2140006609342F2D32F0014373800064B9847237C6A
S214000670012BEBD16660320021003800024B984710
S214000680E4E7C046ED0A0000D105000070B504009E
S2140006900D00002812D000290ED001203B22084968
S2140006A0084B984729002000074B984700232361F2
S2140006B0064B2360002070BD0020EFE70020EDE72A
S2140006C0DC0F0100990A0000C10E00002906000098
S2140006D010B50400431E9841C0B253220749084B88
S2140006E098472000074B9847002804D12000064B67
S2140006F09847002010BD11204042FBE7DC0F0100A8
S214000700990A0000750F00001D0F000070B582B03A
S21400071004000D00002826D0002922D001207A22CD
S2140007201F49204B9847237E01221343DBB22376D2
S21400073026001436290030001B4B9847002814D199
S21400074023696B60226929003000184B9847237E86
S214000750012293432376237E9B0712D4002002B007
S21400076070BD0020DBE70020D9E7237E01229343FB
S21400077023767E320A4900200A4B984712204042D0
S214000780EDE701A80A4B9847237E0222934323767F
S2140007902000084B984701A8074B98470020DEE743
S2140007A0DC0F0100990A0000A10A0000D105000034
S2140007B07D010000870F00008B01000010B508388F
S2140007C000230363436A002B00D0984710BD10B582
S2140007D0083800230363C36A002B00D0984710BD77
S2140007E010B504002C30044B9847236A083C002BB5
S2140007F001D02000984710BD990B000070B504008A
S2140008000E00150000281DD000291DD0002A1DD17D
S21400081000203C22FF321049104B98474423E25AEE
S2140008200833E35A9A4213D1A6644C23E5520022B9
S214000830083BE252433B236320000830084B9847AE
S214000840280070BD0020E4E70020E2E70120E0E792
S2140008501C204042F5E7C046F40F0100990A00004C
S2140008607F13000070B504000200083A4423D35AF0
S2140008704C21525A93420DD00200016C083A5D1C7E
S21400088044201552C95C2000044B98472000044BB6
S214000890984770BD034B9847FBE7C04677130000A8
S2140008A07F13000087130000F0B585B004000D002C
S2140008B01600002817D0002917D0002A17D10020CC
S2140008C0AC2252001249134B984703A8124B984784
S2140008D0343420000194114B9847070003A8104BAE
S2140008E0984700240BE00020EAE70020E8E7012014
S2140008F0E6E70134A4B2691801980A4B984721002C
S214000900A74201D9B442F4D3200005B0F0BDC046DA
S214000910F40F0100990A00007D010000D90B0000C9
S2140009208B0100004D0B0000F8B504000D0016000A
S2140009301F00002826D0002926D0002A26D0002B0B
S21400094026D100203A221549154B9847200034300E
S2140009503A003100134B984700281BD1200008307E
S2140009602900114B984700280BD1104B6360104BA1
S2140009702360104BA360104BE360104B2361104BB9
S2140009806361F8BD0020DDE70020DBE70020D9E743
S2140009900120D7E70D204042F3E7C046F40F0100E0
S2140009A0990A0000010B0000D9120000A9080000F7
S2140009B0FD07000065080000E1070000BD07000015
S2140009C0CF07000010B50400431E9841C0B2612254
S2140009D00449054B984720000830044B98470020F0
S2140009E010BDC046F40F0100990A00006513000010
S2140009F070B504000D0000280BD0002907D0012098
S214000A0077220549054B98472C60002070BD0020D2
S214000A10F6E70020F4E7C046F40F0100990A00004C
S214000A2070B505000E001400431E9841C0B2832224
S214000A301649174B9847012E11D0002E04D0022ECF
S214000A4018D00D20404209E0AC62621E9441E2B22A
S214000A502800083001210F4B9847002070BD6C62BB
S214000A60621E9441E2B2280008300221094B9847E2
S214000A700020F3E7EC62621E9441E2B228000830E0
S214000A800321044B98470020E8E7C046F40F010016
S214000A90990A000091130000002800D100BE70479C
S214000AA00368002B03D08B4203D01B68F9E70020B5
S214000AB070470120FCE7000070B504000D00064BEF
S214000AC0984701235840C0B239220449044B98473E
S214000AD023682B60256070BDA10A00001410010079
S214000AE0990A000003680B60016070470368002BDA
S214000AF003D01A680260180070470020FCE7000068
S214000B0070B504000E001500002812D0002912D07F
S214000B10002A12D1002028220A490B4B98476B1E48
S214000B202B420CD163600023A360E36026600020A4
S214000B3070BD0020EFE70020EDE70120EBE70D2079
S214000B404042F5E734100100990A000070B5040031
S214000B500D00002816D0002912D0012040220C4992
S214000B600C4B9847A368E2689A420DD0626813401F
S214000B702268D35C2B70A3680133A360002070BD8D
S214000B800020EBE70020E9E70A204042F7E7C046EE
S214000B9034100100990A000070B504000D00431ED1
S214000BA09841C0B251220A490A4B98476368E268E6
S214000BB013402268D554E368A2689A1A61688A428C
S214000BC001D9591AA1600133E360002070BDC04608
S214000BD034100100990A000010B50400431E984125
S214000BE0C0B267220349044B9847E068A368C01A5E
S214000BF010BDC04634100100990A00000300064AE2
S214000C001268002A04D0044A1068C318136070479C
S214000C100249014A1160F6E7400A002080360020AB
S214000C2001204042704780239B014B6000207047A4
S214000C30012070470020704710B503011B1A5801A9
S214000C4002300321024B98476423584310BDC04628
S214000C50C14600000139FDD87047000010B5084AAB
S214000C60536806210B435360064B9847064B98473C
S214000C700820064CA047064B9847F720A04710BD13
S214000C8000400041850E0000211A0000290E0000D9
S214000C906D1A0000204B5B78DB09FBD11E4B5B789E
S214000CA0DB09FBD11C4B1B789B070AD500221A4B8D
S214000CB01A70194B5B78DB09FBD1174B5B78DB09A5
S214000CC0FBD10122144B1A70134B5B78DB09FBD166
S214000CD0114B5B78DB09FBD10F4B00229A705A60F0
S214000CE05A619A61DA611A7802210A43D2B21A70FE
S214000CF0094B5B78DB09FBD1084B102280215A5048
S214000D00BFF34F8FBFF36F8F0131FF315A501A6018
S214000D10034B1860002070470018004000E100E018
S214000D20440A00200023002B0BD0FF22FF2A17D0F6
S214000D3000290FD1012393400B4A936013610020D2
S214000D407047282802D00133DBB2ECE7DA00074B05
S214000D50D25CEBE701239340034AD3600020EFE721
S214000D600D204042ECE7C04600180040701001001D
S214000D7070B582B0264B1A69D9680A400192019A6A
S214000D801A61244B1868431E9841C0B2D2222249E9
S214000D90224B984701256D422EE00139CEB2B04273
S214000DA00ED832185210D1B2FF231340DB001C4A73
S214000DB09B5CA34203D0F0DA0131C8B2EFE72825E6
S214000DC06B1C03D0134B1B68280098470122A240D7
S214000DD0019B934301930198124B9847013844B204
S214000DE0631C02D001260020D9E7094B1A69D9688E
S214000DF00A400192019A1A61019B002B05D00198C6
S214000E00084B9847013844B2EAE702B070BDC046C6
S214000E1000180040440A002058100100990A0000FB
S214000E2070100100B54A0000C30709D5114B802297
S214000E3052009A60104A5A600E4B5B78DB09FBD171
S214000E40830709D50B4B0222FF329A600B4A5A6081
S214000E50084B5B78DB09FBD1030709D5054B042259
S214000E60FF329A60064A5A60024B5B78DB09FBD178
S214000E707047C046000C0040000701000106010054
S214000E8003030100064B1A7AD2B21A725A7AD2B209
S214000E905A729A7AD2B29A72DA7AD2B2DA72704702
S214000EA00004004010B50400C3681B7ADB0706D5B3
S214000EB00368002B00D09847E36801221A7210BD21
S214000EC070B504000D00431E9841C0B23022104990
S214000ED0104B9847E56001232B80AB7ADB09FCD1E9
S214000EE0E268937ADB09FCD180331380937ADB09BE
S214000EF0FCD1E26893690A239361937ADB09FCD1FB
S214000F000133E268D371044B1C60002070BDC046FC
S214000F1078100100990A0000480A002010B5041E47
S214000F2020D0C368002B1BD0012067220E490F4B30
S214000F30984708220E4B1A60E26813690023136173
S214000F40937ADB09FCD1E268937ADB09FCD113883B
S214000F5002210B439BB21380937ADB09FCD110BDB0
S214000F600020E2E70020E0E778100100990A000080
S214000F7000E100E0C268937ADB09FCD113885B08C5
S214000F8001201840704770470020704710B5024B8C
S214000F901868024B984710BD480A0020A50E0000AE
S214000FA0024B9C466044800AC0B2704700F8FFBD02
S214000FB010B583699A7BD20702D55A7BD2070ED426
S214000FC09A7B920702D55A7B92070DD49A7B5207DA
S214000FD004D51A8A52070CD0084A1A8210BD01227C
S214000FE01A7303689847F9E702221A7383689847CA
S214000FF0F4E74268198BC9B29047EFE70780FFFF16
S21400100010B5024B98470730C0B210BDA10F0000C4
S214001010034B984200D07047024B1960FBE7C0466E
S214001020001800424C0A0020038ADB0B08D1036834
S214001030022213430360038ADB0BFCD100207047B7
S21400104004204042FBE7000010B50A4B9847030017
S2140010500020002806D0084A08490020084B984778
S214001060002010BD02010749525C9342F9D00130BE
S214001070C0B2EEE7A10F00004E0200009010010083
S214001080990A0000C410010010B50400194B9847D7
S214001090238ADB0BFCD1238ADB0BFCD123689B075E
S2140010A007D500232360238ADB0BFCD1238ADB0BC6
S2140010B0FCD101232360238ADB0BFCD1238ADB0BC4
S2140010C0FCD102010C4B9B185B682360238ADB0B68
S2140010D0FCD10201084B9B189B686360238ADB0BDC
S2140010E0FCD10001044B181883896381837B23722B
S2140010F0002010BD49100000C410010010B50B4BB5
S214001100984702000020002806D0094A0949002016
S214001110094B9847002010BD43001B18D900074B09
S214001120CB5C9A42F7D00130C0B2ECE7A10F0000CA
S2140011308A03000090100100990A0000AC1001001C
S21400114070B505000469431E9841C0B25C4A5D490B
S2140011505D4B984763685D4A13406360238ADB0BE8
S214001160FCD12A8852006B8801210B401343DBB266
S2140011702375238ADB0BFCD12E69554AB37BDBB281
S2140011801800511E002A02D00A009B07F6D0238AB8
S214001190DB0BFCD1238A9BB2C20750D59A0710D529
S2140011A00122A2736A88802149010A436A806A88FC
S2140011B048490A406A80DB0700D47CE005204042AC
S2140011C063E05B070BD4686800282DD16B881BB2E0
S2140011D0002B20DB6B883F4A13406B8055E06B6822
S2140011E0002B04DD6B888022520113436B806B88D2
S2140011F01BB2002B06DB6B88364A13406B8002203E
S214001200404242E06268C0239B0213436360238A25
S214001210DB0BFCD1EFE76268C0239B0213436360DD
S214001220238ADB0BFCD1D5E7AB681B782376AB684B
S2140012300133AB606B68013B6B60002025E08207E2
S2140012403CD56A68002A31D05B072FD4013A6A6021
S214001250002A07D162688023DB0213436360238A77
S214001260DB0BFCD16B68002B07D16B881BB2002B05
S2140012700CDB6B88174A13406B80AB685A1CAA605D
S214001280227E1A700223A373002070BD6368114A81
S21400129013406360238ADB0BFCD16268C0239B0289
S2140012A013436360238ADB0BFCD1E2E70223A373BC
S2140012B002204042E9E704204042E6E70020E4E757
S2140012C0A905000090100100990A0000FFFFFBFF2F
S2140012D0FFFF0000FFFEFFFF70B506000C00431E78
S2140012E09841C0B2B1221949194B98472000194BB2
S2140012F09847051E01D0280070BDB461310020005B
S214001300154B98472000154B984743B2002B0ADB35
S2140013101F21014001228A408021114C6250BFF3F8
S2140013204F8FBFF36F8F002B07DB1F210140012279
S2140013308A40C02149000A4C6250002BDBDB1F2389
S21400134018401E3B8340064A1360D4E79010010005
S214001350990A00008910000011100000011000001A
S21400136000E100E08269136802210B431360138AD0
S214001370DB0BFCD17047836989B219837047836998
S21400138001225A737047836902225A73704700001D
S21400139070B504000D001600431E9841C0B28422AA
S2140013A092001149114B9847002D09D0022D07D005
S2140013B0012D0FD1A369002E13D004225A7309E021
S2140013C0A369002E07D101221A73A369002E05D146
S2140013D002221A7370BD01225A73F6E702225A736C
S2140013E0F8E704221A73F5E790100100990A000046
S2140013F010B5024B1868024B984710BD4C0A0020E7
S214001400B10F000070B506000C000800234B98478B
S21400141005003000431E9841C0B2214A2149224BA4
S21400142098473461238ADB0BFCD1238ADB0BFCD183
S21400143023689B0707D500232360238ADB0BFCD198
S214001440238ADB0BFCD101232360238ADB0BFCD130
S214001450238ADB0BFCD16B005B19DA00134B9B185D
S2140014605B68022293432360238ADB0BFCD16B006C
S2140014705B19DA000D4B9B189B686360238ADB0BB5
S214001480FCD10A4A6B005819C10008005118898916
S21400149061811218138AF381002070BDFD100000D0
S2140014A0FF04000090100100990A0000AC10010033
S2140014B0F8B506000469184D431E9841C0B2A6222E
S2140014C0D2002900154FB8473069431E9841C0B274
S2140014D0134A2900B8472368022213432360238A4D
S2140014E0DB0BFCD104200F49238ADB0BFCD1228ABC
S2140014F0120903331340012B08D001390029F3DC0D
S2140015000138002804D010232382ECE70020F8BD21
S21400151006204042FBE7C04690100100990A0000F2
S21400152031050000FFFF0000F8B505000E00046955
S214001530431E9841C0B27B4A7B497C4FB847286916
S214001540431E9841C0B27A4A7749B8473000431ED6
S2140015509841C0B2774A7449B8476B88DB0500D516
S214001560DCE0728880235B009C461A4372802A0067
S214001570310089C989C26268634613436360238A5F
S214001580DB0BFCD128006C4B9847002800D17DE08F
S2140015906B886A4A13406B80F8BD0520404286E09F
S2140015A073881BB2002B04DB6B88644A13406B8085
S2140015B0F2E76268C0239B0213436360238ADB0B57
S2140015C0FCD1F1E75B070BD4686800282DD16B8847
S2140015D01BB2002B20DB6B88584A13406B8055E00B
S2140015E06B68002B04DD6B888022520113436B80EE
S2140015F06B881BB2002B06DB6B88504A13406B804F
S2140016000220404242E06268C0239B0213436360AC
S214001610238ADB0BFCD1EFE76268C0239B021343EF
S2140016206360238ADB0BFCD1D5E7AB681B78237697
S214001630AB680133AB606B68013B6B60002025E054
S2140016408A0769D56A68002A5ED05B075CD4013ACF
S2140016506A60002A07D162688023DB021343636056
S214001660238ADB0BFCD16B68002B07D16B881BB27F
S214001670002B39DB6B88314A13406B80AB685A1CF1
S214001680AA60227E1A700223A37300206B88DB05F3
S21400169000D481E72F692A4ABB7BDBB21900501EB3
S2140016A0002A00D179E702009B07F5D00020002829
S2140016B000D075E7238ADB0BFCD1238A9BB2CA07CE
S2140016C0BED59A0700D47DE70122A2736A888021DE
S2140016D049010A436A806A8818490A406A80DB071B
S2140016E017D505204042D1E76368144A134063606B
S2140016F0238ADB0BFCD16268C0239B021343636022
S214001700238ADB0BFCD1B5E70223A37302204042F9
S214001710BCE704204042B9E70020B7E70620404275
S2140017203AE7C046C305000090100100990A000081
S214001730C4050000C505000041110000FFFEFFFFC4
S214001740FFFF000070B506000C000800624B9847CB
S2140017500023012B0BD81901604A5218D27B904205
S21400176002D00133DBB2F4E75C4B5D1800E00025E5
S214001770002E00D16AE0002C00D165E00120584A16
S2140017805849594B9847002D00D1A2E0238ADB0B1D
S214001790FCD1238ADB0BFCD123689B0707D50023EB
S2140017A02360238ADB0BFCD1238ADB0BFCD10123CD
S2140017B02360238ADB0BFCD1238ADB0BFCD134604D
S2140017C02B786A7812021A43AB781B041A43EB781C
S2140017D01B0613431C221340082B39D0002C00D1C3
S2140017E073E0002D00D16EE00120404A3D493E4B9B
S2140017F098472B786A7812021A43AB781B041A4370
S214001800EB781B0613433A4A13402360238ADB0B0C
S214001810FCD12B796A7912021A43AB791B041A435E
S214001820EB791B061343334A13408022920213437C
S21400183063602B7BA3726B7B23722B795B0746D18D
S21400184001233371002070BD002098E7002096E742
S214001850002C36D0002D32D00120274A2149224BB9
S21400186098472B786A7812021A43AB781B041A43FF
S214001870EB781B0613431E4A13402360238ADB0BB8
S214001880FCD12B796A7912021A43AB791B041A43EE
S214001890EB791B061343194A134363602B7A6A7A63
S2140018A012021A43AB7A1B041A43EB7A1B06134345
S2140018B063616B7B2372238ADB0BFCD1BDE70020C0
S2140018C0CBE70020C9E700208FE700208DE7022342
S2140018D0B7E70D204042B6E7A10F0000D410010084
S2140018E0CB08000090100100990A00009A0800003A
S2140018F0FCFEFFFFBF3FFDFFAB08000040000200FC
S21400190010B5041E0DD00368002B08D00120064A2F
S2140019100649074B98472068064B984710BD00209D
S214001920F5E70020F3E7C0463209000090100100FA
S214001930990A00002910000070B588B00D000468F0
S2140019400B6803934B68049300230593069306796C
S214001950002814D0002C10D001202D4A2D492E4BE3
S2140019609847238ADB0B4FD1238ADB0BFCD12368F5
S2140019709B0718D41420404244E00020EDE70020E6
S214001980EBE7002226E05878000201430233039377
S2140019900132059289B221830598AB68984202D33A
S2140019A0069A934229D9A37BDBB25A07E9D5228B44
S2140019B092B20499002908D0481C04900A70012E9F
S2140019C003D9881C0490120A4A70069A01920132C2
S2140019D006920122002ADFD10699059A9142DBD3AE
S2140019E0DB07D9D5039B002B05D0591C039119782A
S2140019F0012EC8D8CCE70949CAE7A37B9B07FCD0D1
S214001A000323A37308B070BD04204042FAE7C04623
S214001A10290A000090100100990A0000FF0100004A
S214001A200F4B196A090C1A6A920F920709040D489F
S214001A3001400A430C490A431A629A6902210A4382
S214001A409A611A7F1D310A401A77054BDB681B071F
S214001A50FBD5034A136A80210B4313627047C046C6
S214001A60000800400000FF0F0203000002221B4B8C
S214001A709A841A4BDB68DB06FBD5194A174BDA62E9
S214001A80184B1B689B0E3F2B20D09B028022920097
S214001A901343124A936202239384938C5B0718D5F0
S214001AA00E4BDA68D0231340D02BF9D10B4A938C17
S214001AB080210B439BB293840B4B5B78DB09FBD1F5
S214001AC0064A936902218B4393617047FC23DB012E
S214001AD0DFE7024BDB68DB06FBD5E7E700080040E4
S214001AE00000010424608000000C004070B5050072
S214001AF00469A37BDB0705D50123A3730368002BCA
S214001B0000D09847637B9B0706D50223A3736B68B8
S214001B10002B01D02800984770BD000010B5024B7E
S214001B201868024B984710BD500A0020ED1A0000B6
S214001B3010B5024B1868024B984710BD540A002097
S214001B40ED1A000000B583B001AB1970110A597088
S214001B509A7003221900024B984703B000BDC04696
S214001B60BD25000030B583B001AC02232200044D31
S214001B70A847207800026378184303B030BDC046FB
S214001B80F125000010B5428840780121014B9847A6
S214001B9010BDC046451B000010B50400407800216B
S214001BA0034B984700B22378022B00D8001110BDD3
S214001BB0651B000010B50A000378022B01D80A0145
S214001BC092B240780221014B984710BD451B000099
S214001BD010B50A000378022B01D80A0192B24078A9
S214001BE00321014B984710BD451B000043889343D3
S214001BF0114019434180704710B580221202014BF4
S214001C00984710BDED1B000010B5E022D201014B35
S214001C10984710BDED1B000010B5E0221201014BE5
S214001C20984710BDED1B000010B580225200014BF6
S214001C30984710BDED1B000010B589B2E022014B9D
S214001C40984710BDED1B000010B589B21022014B5D
S214001C50984710BDED1B000010B589B20822014B55
S214001C60984710BDED1B000010B589B20422014B49
S214001C70984710BDED1B000010B589B20322014B3A
S214001C80984710BDED1B000070B504001E0004ABA5
S214001C901D88002832D001704270002343808021C6
S214001CA00902174B984731002000164B9847290029
S214001CB02000154B9847802149002000134B984779
S214001CC02378022B15D880212000114B984700213D
S214001CD02000104B9847002120000F4B984700210A
S214001CE020000E4B9847032120000D4B98470120FB
S214001CF070BD80212000064B9847E8E70020F7E7F4
S214001D00F91B0000091C0000191C0000291C00001B
S214001D10391C0000491C0000591C0000691C00000A
S214001D20791C0000704700000022014B1A707047B3
S214001D30860A00200122014B1A707047800A002094
S214001D4080221204C023DB05DA61704770B5134A9F
S214001D50936920210B439361114A124B5A80124B10
S214001D6098470200114C12492000124B984712491E
S214001D70802212018A60114BCB6001230B74104D38
S214001D80AA60104AEA602B7420000F4EB047290064
S214001D902000B04720000D4B984770BD000400405F
S214001DA002430000000C0040890F00000C0E0020CB
S214001DB0001400408D060000580A0020351D000063
S214001DC06C0A0020411D00000D070000D10600002F
S214001DD030B5A1B0802269462148224B984700289A
S214001DE03CDD00230BE0204A1278D2B200211F4CC3
S214001DF0A15401241E4A14701E4A117001338342F6
S214001E002CDA6A46D25C1B490978002909D10D2ACA
S214001E1007D00A2A05D0012416490C70002412495E
S214001E200C70144909780029E8D00D2ADBD00A2A5C
S214001E30D9D00D490978C9B27E2908D80A4D297823
S214001E40C9B24C1CE4B22C70084C6254D6E7002190
S214001E50084A11700131084A1170CFE721B030BD31
S214001E60BC0D002029040000840A0020000D00207C
S214001E70830A0020850A0020820A002070B5C0244C
S214001E80E4058025AD04A561014B9847656170BDEA
S214001E909901000010B50220034B9847034A1378B7
S214001EA00133DBB2137010BD7D1E0000810A0020D6
S214001EB0F0B5DE4657464E464546E0B5C022D2054A
S214001EC080239B0353619360A74B8021C9059962C9
S214001ED0A64999625525585D0121884358558020AA
S214001EE080023F35505188241051A8208024E405F4
S214001EF01C509F4D1D50D1269D5D8D439D558024C1
S214001F00A146946194609B4D9D62C02424069C6209
S214001F108A3E9D5D8D439D5580256D00556195607B
S214001F20954D9D629C6201369D5D8D439D55802436
S214001F30A400A44654619460904C9C62C02424067D
S214001F409C6201369D5D8D439D558024E400A2462B
S214001F50546194608A4D9D62C02424069C620136BA
S214001F609D5D8D439D55802424015460854C9C6264
S214001F70854E9E624B24A0461C5D0425AC43A346BA
S214001F8044465F461F551C5D8C43A34644465F4649
S214001F901F5580242402946194607C4C9C62C0246B
S214001FA024069C624F24A3461C5D8C43A0465C46D8
S214001FB047461F5580242404546194608024E40519
S214001FC09C62734C9C625724A3461C5D8C43A046BF
S214001FD05C4647461F55413467461751103C17511B
S214001FE0664C1C50C02424061C50C9241F5D8F4319
S214001FF01F55453CA34654465F46D451654C1C507D
S2140020001E50CA24A4461C5DAC43A0466446474600
S2140020101F551C5D8C43A046644647461F558024CA
S21400202024015F46D451574C1C501E50CB24A44666
S2140020301C5DAC43A046644647461F551C5D8C435A
S214002040A046644647461F558024E40354619460C6
S2140020508024E4059C62504C9C625624A0461C5D7D
S2140020608C43A446444667461F5580246404546146
S21400207094608024E4059C62484C9C625824A046E8
S2140020801C5D8C43A446444667461F558024A40422
S214002090546194608024E4059C62414C9C625924FF
S2140020A0A0461C5D8C43A446444667461F55193C13
S2140020B05F46D4513B4C1C501E50C624A4461C5DA3
S2140020C0AC43A046644647461F551C5D8C43A0465D
S2140020D0644647461F55A63C5F46D451324C1C50BA
S2140020E01E50C524A4461C5DAC43A0466446474625
S2140020F01F551C5D8C43A046644647461F55B53C9D
S2140021005F46D451294C1C501E50C424A4461C5D66
S214002110AC43A046644647461F551C5D8C43A0460C
S214002120644647461F554C465F46D451204F1F50C5
S2140021301E501F301E5CAE431E541D5C8D431D5446
S21400214080200003906190608022D2059A62194A2E
S2140021509A6253201A5C8A431A543CBC90469946AD
S214002160A246AB46F0BDC04600440041200000C079
S214002170020000C080000040000100400002004055
S2140021800004004000080240000002C0008000403A
S214002190800000C000040240400000C0000100C0F3
S2140021A0000200C040000240200002401000024032
S2140021B080000240080000C010B5114A114B5A803A
S2140021C0802149008423C022D205D1500E4BA8227C
S2140021D00E4999500E499950C8215A5C04208243F2
S2140021E05A545A5C033882430243D2B25A541439C2
S2140021F05A5C0F2082435A54064B984710BDC0467F
S21400220003410000000C0040004400410001024071
S214002210000002C0FD010000F0B5DE4657464E46FF
S214002220C0B53B4A136A04218A460B431362394AF7
S214002230394B5A8039493A483A4B99469847C0250F
S214002240ED0510236B61AB60374C384BA362C0239F
S2140022501B069B46A3624422A35C0127BB430126C0
S2140022603343DBB2A354123AA35C0F20834303210B
S2140022708C4661460B43DBB2A35420236B61AB60F4
S2140022802B4BA3625B46A36245239B46E35CBB43A2
S2140022903343DBB259466354A35C36390B403021D6
S2140022A08B4659460B43DBB2A35440236B60214B4D
S2140022B0A362214BA3624623E25C51468A43E25462
S2140022C0E25CBA433243D2B2E2543322A35C834385
S2140022D061460B43DBB2A35410491148C84717495F
S2140022E00F48174B98470E48164B984780231B03FA
S2140022F0AB61AB608023DB05A362134BA362532262
S214002300A35CBB43A3541CBC91469A46A346F0BDAF
S214002310000400400D400000000C00400008004291
S2140023209C0D0020610400000044004110000040A5
S2140023302000004040000240000002C0FC0C0020CC
S214002340A1050000B9040000080000C0002804D160
S2140023508022C023DB055A6170478022C023DB053C
S2140023609A61F9E710B50020014B984710BDC046AA
S2140023704D23000010B50120014B984710BDC04604
S2140023804D23000010B503000A0003490868190031
S214002390024B984710BDC046FC0C002029040000E4
S2140023A010B503000A00034908681900024B984755
S2140023B010BDC046FC0C00202104000010B582B001
S2140023C06B46DC1D00232370044B18680122210095
S2140023D0034B9847207802B010BDC046FC0C002086
S2140023E02904000000B583B06B46D91D0870034B66
S2140023F018680122024B984703B000BDFC0C002071
S21400240021040000F8B5D6464F4680B5334A136A15
S21400241020210B431362324A324B5A8032493348EA
S214002420334EB047C022D20580235B0253619360CF
S214002430304B8021C9058A4699622F4999625020FF
S214002440195C0124A1432143C9B219543821585CB0
S2140024500F25AC46A84303273843C0B25854802003
S21400246080025061906050469862244898625120DD
S2140024708246185CA0432043C0B255465855585C67
S214002480423D28403025AA4655462843C0B25854F7
S2140024908021C90251601A4A9A621A4A9A625222E6
S2140024A0995C042081439954995CA1432143C9B2A5
S2140024B0995439215A5C604682433A43D2B25A5400
S2140024C009490A48B04710490848104B984707483A
S2140024D00F4B98470CBC91469A46F8BD0004004046
S2140024E010400000000C004000140042840D002044
S2140024F06104000000440041010000C0020000C06A
S21400250000000240040002C0800D0020A10500006B
S214002510B9040000F8B51E4A136A10210B43136273
S2140025201C4B1D4A5A801D4A5A801D4C1D492000CE
S2140025301D4B98471D4B4C20195C0422914319549F
S214002540195C0126B14301252943C9B2195416382E
S214002550195C0F27B94302273943C9B219544D21D4
S2140025605F5C97435F545A5CB2432A43D2B25A54D4
S2140025701A5C3E390A4020210A43D2B21A540C494A
S21400258020000C4B984720000B4B9847F8BDC046E0
S21400259000040040000C00400F4000000C43000008
S2140025A0280E002000100042710300000044004185
S2140025B0B80D002019040000B103000070B50D002E
S2140025C0140001B2802212010548064B9847A2B2B9
S2140025D0054B18682900054B9847C043C00F70BDCF
S2140025E0280E0020BD030000B80D002021040000C6
S2140025F0F8B50C0015001E0001B2074F802212012C
S2140026003800064B984733002A0021003800044C57
S214002610A0470120F8BDC046280E0020BD030000DC
S214002620D103000070B5144B1B78002B04D0002299
S214002630114B1A70022070BD104B1B78002B01D175
S2140026400020F8E70E4C227801320E4D29000E4B82
S21400265098478022002128000C4B98470023074A01
S214002660137023700A4AD36313640A4A1370024A2B
S21400267013700120DFE7C046820A0020830A00208C
S214002680840A0020000D0020A96C00002D6D0000BB
S214002690BC0D0020850A0020F0B585B0264A136AD6
S2140026A040210B431362254A254B5A80254C0023B4
S2140026B000938033244A25492000254DA847254B02
S2140026C0CC215A5C01208446824301273A43D2B289
S2140026D05A54B622985C0F26B04302252843C0B24F
S2140026E098541832995C604681433943C9B299546C
S2140026F0B7215A5CB2432A43D2B25A541649200034
S214002700164B9847164A01212000164DA847164A30
S21400271000212000A847154A02212000A8470122D0
S2140027200F2169440748124B98470028F7D10548FF
S214002730104B984705B0F0BD000400401140000063
S214002740000C0040BC0D0020000D002000180042C8
S2140027502909000000440041B40D0020F1090000E2
S214002760291D0000210A0000D11D0000951E000052
S21400277029040000C509000010B50A4B98470A4B0B
S21400278098470A4B98470A4B98470A4B98470A4B74
S21400279098470A4928200A4B98470A4B98470A4BFD
S2140027A0984710BD5D0C0000B11E00001922000005
S2140027B0052400001525000099260000251D0000B0
S2140027C0310200004D1D0000B921000010B50400C4
S2140027D00B4B9847C0B2002800D110BD0122094B10
S2140027E01A7082B2084B18682100084B9847084BAD
S2140027F0044A1278002AF0D0013B002BF8D1ECE70F
S21400280009720000860A0020B40D00202104000092
S214002810A086010010B514000122064B1A70A2B261
S214002820054B1868054B9847024B1B78002BFBD1CD
S214002830200010BD860A0020B40D002021040000F0
S21400284000207047F0B5DE4657464E464546E0B592
S21400285087B005A8304B9B469847C025ED058026D7
S214002860AC592E4B9A46A023994653464A4698584A
S21400287090239846EB5843401C40444005A8284FF8
S214002880B8472020044023005C1EA341019304A8FF
S214002890D847AC5952464946525841466B58534061
S2140028A01C40544004A8B8473440601E8441E0B23F
S2140028B04000019B0343019303A8D847AC595246F6
S2140028C04946525841466B5853401C40544003A852
S2140028D0B84740200440631E9C41E4B2A400019B1C
S2140028E01C4302A8D847A85953464A469B58424616
S2140028F0AD585D4005405D4002A8B847102028400E
S214002900431E9841C0B2C000204307B03CBC90466E
S2140029109946A246AB46F0BD7D010000004400414A
S2140029208B010000024B187800221A707047C046D0
S214002930800A002010B50122224B1A702249234833
S214002940234B984723492448244B98472449254835
S214002950254B9847254B98476420254B9847254894
S2140029600100254B9847254B98475A30244C6072F7
S2140029702000244B984721000020234B9847FF2136
S214002980B0204001214CA047FF21C0204001A047B5
S214002990002198204001A0470121A0204001A04727
S2140029A000240BE0A0000130C000B0239B019C4631
S2140029B060440421154B98470134E4B2072CF1D942
S2140029C0012010BD140B00207523000065230000B5
S2140029D0893F0000E5230000BD230000B13F000052
S2140029E0A123000085230000E13F00002D410000E8
S2140029F099010000240000208D40000045280000BA
S214002A000C0000205D410000A1420000F93B0000E0
S214002A10F0B5D6464F4680B5DDB0CE4B1878800070
S214002A200130C000C0239B009C466044CA4B9847B8
S214002A3000280ED0C74B187880000130C0008023D5
S214002A409B009C466044C44B9847C3060DD10524A2
S214002A50A3E2C24B1A88BF4C207880230221C04DC7
S214002A60A8472078BF4B9847E4E7BA4B1878BE4B88
S214002A709847041EEBD080231B01984200D91C0007
S214002A80BA4D8022120100212800B94B9847B14B5D
S214002A901878462306AA94466344009318AB22008F
S214002AA02900B44CA04719AAB3492800B34B98474D
S214002AB0012827D000241CAAB149AC48AF4B984740
S214002AC0012843D0AF49A948AF4B9847002861D0AA
S214002AD0002C66D0AD4E3288AD4F387801230221E7
S214002AE09F4CA047AB4C2070AB4D2800AB4B984793
S214002AF082B2387833880093A94B2900A94DA8479D
S214002B002070A4E7A84919A89F4B9847002807D02B
S214002B10A64919A89C4B984700280CD00024CAE761
S214002B20A348A44B98479C4BA34A118819809278D7
S214002B309A700124BFE7A1489E4B9847964B9E4A41
S214002B401188198092789A700124B4E79C491CA8D1
S214002B508D4B9847002810D09A491CA88A4B984756
S214002B600028AFD19848934B98478B4B974A1168EB
S214002B70196092889A800124A4E795488D4B98475F
S214002B80854B944A116819609188998092799A7158
S214002B90012497E7804B884A1188198092789A70AA
S214002BA098E78D4A7C4B1A6094E718AA0421200007
S214002BB08A4B984720006C4B9847051E00D1FEE1D3
S214002BC080231B01984200D91D00684F8022120105
S214002BD000213800664B98472A0039002000804BB9
S214002BE0984780493800804B984700282ED07F4869
S214002BF0704B984700250FE001207D4B984720003A
S214002C007C4B98470700F8235B01F018524B984717
S214002C1080028742F0D14D44774B9D4228D8774BAF
S214002C205B1B994680231B01994500D999464B4664
S214002C306A464821521813806B4648229B181A8809
S214002C406F49491920006F4B9847D8E76E494748A7
S214002C50654B984700280FD06C48564B98472F2254
S214002C606B492000674FB8476A4A6B492000B8474F
S214002C7020006A4B984771E169493C485A4B98478F
S214002C8000283DD0674B1D68674B1B681293191CC4
S214002C90281C664B9847159001230F930E9300232C
S214002CA00D93634B1B780C93624B1B780B93624B14
S214002CB01B780A93614F1298B84708900991281C10
S214002CC0B847069007911598B847049005915C4B55
S214002CD01868B847029003915A4B1868B847009096
S214002CE00191594A802149001CA8584B98471CA8B6
S214002CF02A4B984782B21CA92000424B9847B7E758
S214002D0053491A48384B9847002800D1AAE00E309D
S214002D104B4B99464B4B9A464B4652464D49174F9E
S214002D20B847464F53461868B847129013914B461B
S214002D301868B84700900191129A139B4648474975
S214002D40884701223B4B1A704232454920002D4BE2
S214002D5098478DE706000020953B00000400002001
S214002D60FD3000007D320000BD3D0000480E002012
S214002D702D6D00007537000078160100616F0000A9
S214002D80B41601001817010051700000080000205A
S214002D90080B002048160020880A00200972000050
S214002DA000000020ED35000088160100A016010086
S214002DB08C160100856E00009C160100A41601000A
S214002DC0C0160100EC160100F416010010170100F1
S214002DD0C8160100E416010065727200093A000088
S214002DE0E1340000201701003175000028170100AB
S214002DF099010000513D0000AE1D0000AF1D00000F
S214002E0008190100953300003C1701005017010017
S214002E106417010082050000F4100100F93200007A
S214002E2094170100100B00201C0B0020054E00001C
S214002E30140B0020150B0020230000204D67000017
S214002E40180B00200C0B0020A4170100996E000040
S214002E50541801006418010074180100C16D0000C8
S214002E60801801006B496C486C4B9847002800D1CD
S214002E70FEE60D301CAB19AA69496A4FB8471CAA72
S214002E8019A96948694B9847694919A8694B984731
S214002E9000281BD0684919A8664B9847002840D0E0
S214002EA0664919A8634B9847002828D10330644B1D
S214002EB0984764491CA85F4B9847030058425841FE
S214002EC0614B18700122614B1A7018E003305C4B9E
S214002ED098475C491CA8574B9847002815D1802274
S214002EE05200C023DB059A6156491CA8514B9847EF
S214002EF0002810D180229200C023DB059A6141226F
S214002F0053492000534B9847B2E680225200C02314
S214002F10DB055A61E8E780229200C023DB055A6190
S214002F20EDE70330464B984746491CA8414B984767
S214002F3043424341DBB2454A1370002B05D0802242
S214002F40D200C023DB059A61D9E78022D200C023D5
S214002F50DB055A61D3E701203F4B984720003F4BE3
S214002F6098470700F8235B01F0183D4B984780020E
S214002F708742F0D120003B4B984720E08021890211
S214002F809733C022D205D15023E080229203C0237B
S214002F90DB059A6126E00134E4B2072C34D8149499
S214002FA0A3000133DE00C0239B009C46B444634666
S214002FB0119360462A4B9847172800D1F5E5224B17
S214002FC01B78012BDAD0802189029423C022D205F7
S214002FD0D1501E4B1B78012BD7D080229203C023E2
S214002FE0DB055A6111981E4B98470028D3D1149BD5
S214002FF05E001D4BF25A0023012120001B4DA847FE
S21400300020001B4B9847C6E75DB00CBC91469A461D
S214003010F0BDC046C4180100480E002031750000FF
S214003020D4180100616F0000EC180100C16D0000AB
S214003030F818010081710000001901000419010050
S2140030407D1E0000FC18010023000020150B002048
S214003050801801009533000099010000513D0000E2
S214003060953B0000753000002C000020FD3000006D
S2140030707D32000070B5060008282FD88400013481
S214003080E400651CFF3510212800164B98472800E1
S214003090154B98470028FAD180239B00E0181F2183
S2140030A0104B98470123B340DB431BB20F490A88F5
S2140030B01A400A800E490A8813400B8072000021CD
S2140030C00C4BD1520C4B00229A55C0239B00E018A3
S2140030D0054B98470028F8D1013070BD01204042CA
S2140030E0FBE7C046F93B0000953B0000240B0020A0
S2140030F0260B0020300B0020280B0020F0B5CE4613
S214003100474680B585B006000D0091461F0008288A
S21400311000D991E0012969D0002900D18FE0042967
S21400312000D98CE07B0700D58CE0002F04D0012D61
S21400313069D0022D00D16CE03000454B9847B400B2
S2140031400134E4000F233900994349B22943C9B238
S2140031502000404B98474B46002B08D13E4A138828
S214003160994601339BB213803C4A934260D0802339
S214003170DB00E0184B46190A364B984698474B46F4
S2140031806A46D371D179A023DB00E018C047651CDE
S214003190FF3501212800C0472800314B98470028FA
S2140031A0FAD10122B240D24312B22E48038813400D
S2140031B01BB201210F40B7403B4303802A490B88CE
S2140031C01A400A8073000021284A9952284B002290
S2140031D09A55C0239B00E018214B98470028F8D04A
S2140031E070B205B00CBC90469946F0BD042203A907
S2140031F0F02000011F4B9847039B002B00D091E75F
S21400320003204042EDE721233B4295D10620404271
S214003210E7E7BB0602D57BB2002B16DAFB0600D426
S2140032208AE77BB2002B00DA86E706204042D8E722
S214003230114A094B1A809AE701204042D1E705203F
S2140032404042CEE706204042CBE706204042C8E791
S21400325075300000F93B00003C000020F0FF000045
S214003260953B0000240B0020260B0020300B00208E
S214003270280B0020593C000000C0FFFF70B5060078
S214003280082829D884000134E4002000174B98470A
S2140032900F231840012822D1C0239B00E5182800E0
S2140032A0124B984713281DD10134FF340221200009
S2140032B00F4B984720000D4B98470028FAD128005E
S2140032C00A4B9847142801D1133870BD3000094BBB
S2140032D0984704204042F8E701204042F5E70520E1
S2140032E04042F2E703204042EFE7C046953B00002D
S2140032F0F93B00007530000070B50600082836D887
S21400330084000134E40020001D4B98470F2318402A
S21400331001282FD1651CFF3508212800194B984736
S2140033202800174B98470028FAD101221000B04019
S21400333015490B8883430B80144B1B8833411A4274
S2140033401BD1C0239B00E0180D4B984700280CD0DB
S21400335080239B00E0180A4B98470307F1D53000FE
S2140033600B4B98470D20404208E0013006E0012054
S214003370404203E00520404200E0002070BDC04609
S214003380953B0000F93B0000260B0020240B002094
S21400339075300000F0B5C64600B582B00400019155
S2140033A01700082800D980E0050083000133DB0001
S2140033B098461800434B98470F231840012800D022
S2140033C076E0002F00D176E0C0239B0043440093B4
S2140033D018003C4B9847172802D01C2800D06DE0F8
S2140033E0394B1B882341DB0718D58026B600464498
S2140033F03000344B9847C30606D403071AD400207F
S21400340002B004BC9046F0BD102130002F4B984708
S2140034100122A2402C490B8893430B80F8204001E0
S2140034204044284B984780B2800286B2B7420FD8F5
S2140034303E000DE02000264B98470D204042DFE777
S2140034402000234B984707204042D9E7BE4213D9B5
S2140034502000204B9847070000981A4B98471728DB
S21400346001D01C28ECD11C4B1B882B41DB07EDD56B
S214003470BE42EBD90020C3E7320001992000174B6B
S214003480984745460135FF35202128000F4B9847C1
S21400349028000C4B98470028FAD10122A2400A497E
S2140034A00B8813430B803000AAE701204042A7E7B1
S2140034B005204042A4E70E204042A1E707204042F4
S2140034C09EE7C046953B0000260B0020F93B000017
S2140034D075300000513D0000240B0020293E0000FE
S2140034E0F0B5C64600B582B00090019114000828D9
S2140034F064D8060087000137FF003800344B984731
S2140035000F23184001285CD1002C5DD0F0235B010E
S214003510F8182F4B984780B2800283B298469C4298
S2140035200FD8A0460DE000982A4B98470720404247
S21400353040E00098274B9847072040423AE0002C8E
S21400354024D1009D2800244B98470400C0239B00EC
S214003550F8181F4B984717280FD01C28E9D1002CC5
S21400356014D128001D4B98470500F8235B01F81876
S214003570174B984780028542D5D0194B1B8833419C
S214003580DB07DCD5002CDAD1002013E0A04500D8FC
S2140035904446220001990098124B98470137FF379E
S2140035A040213800104B98473800094B98470028B0
S2140035B0FAD1200002B004BC9046F0BD0120404283
S2140035C0F8E705204042F5E70E204042F2E7C04605
S2140035D0953B000075300000BD3D0000513D0000E9
S2140035E0240B0020A13E0000F93B0000F0B5DE46AB
S2140035F000B584B00190039193461C000AAB1F8867
S214003600082800D994E0050083000133DE0030006E
S214003610524B98470F230340023BDBB2022B00D9E4
S21400362089E05B46002B00D188E023781B02627895
S2140036309B181B02A2789B181B02E2789B18002B93
S21400364033D0002F04D13000444B9847430778D539
S214003650C0239B009C46B4446346029360463F4B9F
S2140036609847422803D0222801D032286CD1042261
S2140036702100C0231B01F018394B9847390A8023D4
S2140036805B01F018374CA047F9B288235B01F018AD
S214003690A047F8235B01F018304B984780B28002B1
S2140036A087B2BB450BD85F4609E030002B4B9847E6
S2140036B04307C6D40C2040424BE0A74211D90198DC
S2140036C0294B984704000298244B984700283ED080
S2140036D0264B1B882B41DB07EFD5A742EDD90020F0
S2140036E037E03A0003990198214B9847741CFF3441
S2140036F0202120001B4B98472000184B9847002895
S214003700FAD180239B00F4182000144B9847C30678
S21400371008D40307F5D508212000124B98470D2042
S214003720404216E0102120000E4B9847380010E06B
S214003730012040420DE0052040420AE00E204042B3
S21400374007E00B20404204E00720404201E004204E
S214003750404204B004BC9346F0BDC046953B000012
S214003760D93C0000F93B0000513D0000240B00202E
S214003770293E0000F0B5DE46474680B585B0050018
S214003780009190460193082800D91BE107008300AA
S2140037900133DE003000914B984783460F230340E9
S2140037A0023BDBB2022B00D90FE14346002B00D1CF
S2140037B00EE16B008A4A9B5A002B15D00024072383
S2140037C05A461340032B00D1BDE0042B00D181E004
S2140037D0022B1ED021002800824B98476B00804A9F
S2140037E09C5226E0002CEAD128007F4B9847040024
S2140037F0C0239B00F018794B9847002800D1EAE0D8
S2140038007A4B1B883B41DB07ECD5002CEAD1002025
S21400381029E06B00724A9B5A002B29D06B00704A35
S2140038209C5AA04500D24446220000992800704BBE
S21400383098470136FF36402130006E4B98473000DF
S214003840664B98470028FAD1654A69008B5A1B1BBD
S2140038509BB28B52002B00D1B0E0674A535D01212A
S2140038600B435355200005B00CBC90469B46F0BD5C
S214003870082202A928005E4B9847741CFF3440219A
S21400388020005C4B98472000544B98470028FAD1FC
S21400389002AB1B78019A137002AB5B78537002ABD5
S2140038A09B78937002ABDB78D37002AB1B791B025C
S2140038B002AA52799B180C9A138002AB9B791B02C2
S2140038C002AAD2799B186A0045498B5280224A4B3D
S2140038D05A55A3E76B00424A9B5A002B0BD06B004D
S2140038E03F4A9C5AA04500D2444622000099280030
S2140038F03F4B98479DE7022202A928003C4B984779
S214003900741CFF34402120003A4B98472000334B6C
S21400391098470028FAD102AB1B781B0202AA5278FD
S2140039209B189BB2023B9BB26A002D495352334A06
S214003930934203D88022304B5A55D0E72800304BAC
S214003940984730488FE76B00254A9B5A002B0BD0D0
S2140039506B00234A9C5AA04500D244462200009998
S2140039602800234B984764E7062202A92800204B2C
S2140039709847741CFF34402120001E4B98472000B7
S214003980164B98470028FAD102AB1B78019A1370A1
S21400399002AB5B78537002AB9B78937002ABDB781C
S2140039A0D37002AB1B791B0202AA52799B186A00DD
S2140039B00B498B528022104B5A55C9E700220E4BFA
S2140039C05A554FE7012040424DE7052040424AE75E
S2140039D00E20404247E70420404244E7953B000063
S2140039E0300B0020193F0000BD3D0000240B0020D6
S2140039F0A13E0000F93B0000280B0020EA0500006D
S214003A007530000017FCFFFFF8B504001500082805
S214003A1000D9A4E00C2900D9A4E08900564B5B58D5
S214003A209F4680000130C000544B98470F239843B0
S214003A3028700120F8BD80000130C000B0235B0173
S214003A409C4660444D4B984728700120F2E7800062
S214003A500130C000A8235B019C466044474B984752
S214003A6028700120E6E784000134E40090235B011F
S214003A70E018424FB84786B23602B6B298235B01CA
S214003A80E018B84780B236182E800120D2E78000B2
S214003A900130C000C0231B019C466044042229005C
S214003AA0374B98470120C5E784000134E4008023A3
S214003AB05B01E018314FB84786B23602B6B28823AB
S214003AC05B01E018B84780B236182E800120B1E7B7
S214003AD084000134E4002000284B98470F23184048
S214003AE0012842D1BC239B01E018244B984728802C
S214003AF001209FE7234B9847288001209AE7224B16
S214003B0098472880012095E780000130C000C02338
S214003B109B009C466044194B98472870012089E713
S214003B2080000130C000154B9847C30705D46400D9
S214003B30164BE35A2B8001207CE72000124B984757
S214003B402880012076E780000130C0000B4B9847A4
S214003B5001280DD00E4B1B5D2B7001206AE701205B
S214003B60404267E70220404264E70520404261E7A2
S214003B70052040425EE7C046B8360100953B00008F
S214003B80593C0000513D0000BD3D0000300B0020B8
S214003B90280B002030B583B00400164DEB6898471C
S214003BA06B6998476B6A002B16D0124B9B6A002BEA
S214003BB012D0220C01A80270220A427084700321DF
S214003BC098470C4CE36998470500A3699847236912
S214003BD09847280003B030BD064D200CC0B22B6AB3
S214003BE09847200AC0B22B6A98472B6AE0B29847DB
S214003BF0E7E7C0464000002070B582B004000E0023
S214003C00144DEB6898476B69984704200443AB6AE9
S214003C10002B0FD0220C01A80270220A427084707A
S214003C20C670042198470B4CA369984723699847A8
S214003C3002B070BD074D200CC0B22B6A9847200A10
S214003C40C0B22B6A9847E0B22B6A98472B6A3000BE
S214003C509847E8E740000020F0B583B004000F0066
S214003C6016001C4DEB6898476B6998476B6A002BEB
S214003C7017D0184B9B6A002B13D0220C01A8027099
S214003C80220A4270847003219847124B5B6A310007
S214003C90380098470F4CA36998472369984703B0A4
S214003CA0F0BD0C4D200CC0B22B6A9847200AC0B25B
S214003CB02B6A98472B6AE0B29847002406E03D1925
S214003CC0044BDB69984728700134A4B2B442F6D39B
S214003CD0E0E7C04640000020F0B583B004000F00C7
S214003CE016001A4DEB6898476B6998470420044302
S214003CF0AB6A002B13D0220C01A80270220A427075
S214003D00847003219847114B9B6A3100380098470E
S214003D100E4CA36998472369984703B0F0BD0B4D36
S214003D20200CC0B22B6A9847200AC0B22B6A98476C
S214003D302B6AE0B29847002405E0044B1B6A385D06
S214003D4098470134A4B2B442F7D3E1E7400000201C
S214003D50F8B5CE46474680B58046002601E0A64226
S214003D6024D043469D000135ED0080239B019946F3
S214003D70A9444846104FB84784B22402A4B284230C
S214003D809B019C4665442800B84780B22418A4B21C
S214003D90002CE4D04846084FB84780B2000286B2EE
S214003DA02800B84780B23618B6B2D8E730000CBC48
S214003DB090469946F8BDC046953B0000F8B5CE46FD
S214003DC0474680B58046002601E0A64224D04346FA
S214003DD09D000135ED0098239B019946A94448466D
S214003DE0104FB84784B22402A4B29C239B019C4681
S214003DF065442800B84780B22418A4B2002CE4D04A
S214003E004846084FB84780B2000286B22800B84736
S214003E1080B23618B6B2D8E730000CBC9046994649
S214003E20F8BDC046953B0000F0B5D64600B582B05A
S214003E300091141E03D102B004BC9246F0BD860069
S214003E40751CED0090239B019C46AC446346019391
S214003E506046104A9246904780B2000287B294228B
S214003E609201944665442800D04780B2381887B23D
S214003E703B02B01CC000181822000099064B984759
S214003E80E419A4B2210A0198044EB047E1B2280012
S214003E90B047D0E7953B0000D93C0000F93B000056
S214003EA0F0B5D64600B582B00091141E03D102B01C
S214003EB004BC9246F0BD8600751CED00A0239B0155
S214003EC09C46AC44634601936046104A924690472F
S214003ED080B2000287B2A42292019446654428006C
S214003EE0D04780B2381887B23B02F01CC0001818C2
S214003EF022000099064B9847E419A4B2210A0198BB
S214003F00044EB047E1B22800B047D0E7953B00002A
S214003F10593C0000F93B0000F0B583B00C00870068
S214003F200137FF00A0239B019C46BC4463460193D7
S214003F3060460C4EB04780B2000285B2A4229201C1
S214003F40944667443800B04780B22D18ADB22C199D
S214003F50A4B2210A0198044DA847E1B23800A84748
S214003F6003B0F0BD953B0000F93B0000704770477A
S214003F70704770470078C0B27047017070470020E5
S214003F807047704770477047002805D0002903D057
S214003F90044B586199617047024B034A5A61034AC1
S214003FA09A61F8E740000020713F0000733F000070
S214003FB0084B1B889B05FBD5002805D0002903D09D
S214003FC0044BD86119627047024B034ADA61034A10
S214003FD01A62F8E7400000207F3F0000833F0000A1
S214003FE0084B1B889B05FBD5002805D0002903D06D
S214003FF0044B586299627047024B034A5A62034A5E
S2140040009A62F8E740000020853F0000873F0000E6
S214004010F0B587B0062201A990200001174CA047F2
S21400402080277F00042205A93800A047A026F600B6
S214004030042204A93000A047F0252D01042203A97C
S2140040402800A047802100200D4B984700200D4BEC
S2140040509847062201A9902000010B4CA047042295
S21400406005A93800A047042204A93000A04704226E
S21400407003A92800A04707B0F0BDC046593C000081
S214004080F93B0000953B0000D93C000070B50600E7
S2140040900D00244B9847002E1BD000220023072B30
S2140040A007DCF15C8A1852B2102A34DC01335BB2AA
S2140040B0F5E700240BE0A0000130C000F8235B0108
S2140040C09C466044315D184B9847013464B2072C17
S2140040D0F1DD002D0BD000220023072B09DCE95C64
S2140040E08A1852B2102A19DC01335BB2F5E70020B9
S2140040F010E000240BE0A0000130C000F0235B01BC
S2140041009C466044295D084B9847013464B2072CEE
S214004110F1DD002070BD01204042FBE70120404257
S214004120F8E7C04611400000F93B000070B5B8241F
S214004130A4012000074EB0477F2101402000064D15
S214004140A8472000B047802149420143C9B2200059
S214004150A84770BD953B0000F93B000070B5040011
S21400416006220100902000010F4DA84721000E31C5
S214004170042280204000A84721000A310422A02003
S214004180C000A847A11D0422F0200001A847A27C79
S214004190064B1A70E27C5A70227D9A70627DDA7045
S2140041A0A27D034B1A7070BDD93C0000440B002062
S2140041B0400B002070B5040006220100902000018C
S2140041C00F4DA84721000E31042280204000A8474A
S2140041D021000A310422A020C000A847A11D042205
S2140041E0F0200001A847074B1A78A2745A78E274A8
S2140041F09A782275DB786375034B1B78A37570BDC0
S214004200593C0000440B0020400B002010B5040071
S2140042103A2302009A4309D10020064B98470443EC
S214004220E1B20020044B9847002010BD0120404218
S214004230FBE7C046953B0000F93B000010B50020A8
S214004240014B984710BDC046953B000070B5050071
S2140042500178D8204001064CA0476988090AC82082
S2140042604001A047A978D0204001A04770BDC046B5
S214004270F93B000070B50500D8204001074EB04756
S2140042802870C8204001B04780B2000284B2D02017
S2140042904001B04780B224186C8070BD953B00008A
S2140042A010B50C00052820D88000114B1B589F46DF
S2140042B00800104B9847002010BD08000E4B98478A
S2140042C00020F9E708780D4B9847F5E70C4B984720
S2140042D020700020F0E708000A4B98470020EBE724
S2140042E00800094B98470020E6E701204042E3E734
S2140042F0EC3601005D410000B54100000D420000B3
S2140043003D4200004D4200007542000000B583B0FB
S2140043101F236A461370053353709170D0700023C4
S21400432013716846034B98470520034B984703B024
S21400433000BDC046CD2700009901000000B583B03F
S214004340031C142800D914234A1E91411F226846D4
S2140043500270043242708170C37000230371034BF5
S21400436098470320024B984703B000BDCD270000B6
S2140043709901000010B51400054B98472000054C25
S214004380A04705480430A0470320044B984710BDBB
S2140043900D430000CD2700000437010099010000FE
S2140043A070B5054D2A0001210120044CA0472A00C3
S2140043B001210220A04770BD0C37010075430000A4
S2140043C0F0B5CE46474680B589B0874B9847C0259E
S2140043D0ED058023DB03AB6180235B00AB618026A9
S2140043E0B600AE61814B9847814C00968023DB0176
S2140043F04822052120007F4EB0477F4920007F4B92
S2140044009847002120007E4B9847002120007D4BD6
S2140044109847E02120007C4B9847002120007B4BEA
S214004420984780231B03AB61FA20C000784DA8474D
S214004430784B98470A20784B984701211420774BF1
S2140044409847774B984702005A32764C76492000B8
S214004450764B9847220001210120754CA047754AEB
S21400446001210220A0477448A847744D2A00012164
S2140044700120A0472A0001210220A04714E0802244
S214004480D203C023DB055A616D486E4B984701285E
S21400449024D06B486B4B9847022823D06A4B98472A
S2140044A0012823D0694B984707A8694B9847C02333
S2140044B0DB0580229C58203266498A5890215B583A
S2140044C053401C40544007A8634B9847E305D6D496
S2140044D08022D203C023DB059A61D5E758485F4B9C
S2140044E09847DBE75E485D4B9847D7E7404C80210E
S2140044F0C90120005B4B9946984720005A4B9846C6
S21400450098470A20424FB8472000584EB047584DAB
S2140045102880A021C9012000C8472000C0470A20E3
S214004520B8472000B047040068800023E85EC31741
S214004530C01858404F4B98474F4A504B504DA847CD
S214004540504B9847051C504B1860E317E01858402E
S2140045501C384E4B9847041C8221C9054C4B984783
S21400456000283ED0201C4B4B98474B4A4B4B444CA4
S214004570A047444B9847041C494B1C60291C201C30
S214004580484B9847484B1860484B984786B2414F6F
S214004590281CB84704900591224D0296201CB84767
S2140045A000900191049A059B414928001F4EB04790
S2140045B02A00012101201E4CA0473E4B1868B84730
S2140045C0049005913C4B1868B84700900191049AF6
S2140045D0059B3A492800B0472A0001210220A0473F
S2140045E060E70024C8E7C0467927000035290000A8
S2140045F04C160020891C0000FFFF0000D11B0000A5
S214004600B51B0000791C0000391C0000291C0000A6
S21400461099010000A14300007D1E00003D430000FC
S214004620452800003C0C0020243701001D6F0000C8
S214004630754300003C370100B80B00000C37010042
S2140046407C0B00202526000025290000112A0000EA
S2140046507D010000004400418B010000CD270000D2
S21400466054370100091C0000851B0000991B000040
S21400467050160020596600006BB24EAE8CBA543FFE
S214004680C55A0000F16700001C0B0020BD53000057
S2140046900D4A00004D670000966C7F26745C553FFF
S2140046A0100B0020054E0000200B0020C94A000019
S2140046B064370100180B00200C0B00207437010033
S2140046C0002243088B4274D303098B425FD3030A4C
S2140046D08B4244D3030B8B4228D3030C8B420DD35F
S2140046E0FF22090212BA030C8B4202D312120902ED
S2140046F065D0030B8B4219D300E0090AC30B8B422B
S21400470001D3CB03C01A5241830B8B4201D38B03D8
S214004710C01A5241430B8B4201D34B03C01A52417D
S214004720030B8B4201D30B03C01A5241C30A8B42C0
S21400473001D3CB02C01A5241830A8B4201D38B02AB
S214004740C01A5241430A8B4201D34B02C01A52414F
S214004750030A8B4201D30B02C01A5241CDD2C309C1
S2140047608B4201D3CB01C01A524183098B4201D33D
S2140047708B01C01A524143098B4201D34B01C01A28
S214004780524103098B4201D30B01C01A5241C308A0
S2140047908B4201D3CB00C01A524183088B4201D30F
S2140047A08B00C01A524143088B4201D34B00C01AFB
S2140047B05241411A00D20146524110467047FFE767
S2140047C001B5002000F0F0F802BDC0460029F7D081
S2140047D076E7704703460B437FD4002243088B429C
S2140047E074D303098B425FD3030A8B4244D3030B73
S2140047F08B4228D3030C8B420DD3FF22090212BA38
S214004800030C8B4202D31212090265D0030B8B42B3
S21400481019D300E0090AC30B8B4201D3CB03C01A9D
S2140048205241830B8B4201D38B03C01A5241430B78
S2140048308B4201D34B03C01A5241030B8B4201D368
S2140048400B03C01A5241C30A8B4201D3CB02C01AD3
S2140048505241830A8B4201D38B02C01A5241430A4B
S2140048608B4201D34B02C01A5241030A8B4201D33A
S2140048700B02C01A5241CDD2C3098B4201D3CB01E1
S214004880C01A524183098B4201D38B01C01A524190
S21400489043098B4201D34B01C01A524103098B4294
S2140048A001D30B01C01A5241C3088B4201D3CB007F
S2140048B0C01A524183088B4201D38B00C01A524162
S2140048C043088B4201D34B00C01A5241411A00D212
S2140048D001465241104670475DE0CA0F00D049427B
S2140048E0031000D34042534000229C4603098B42EB
S2140048F02DD3030A8B4212D3FC22890112BA030A73
S2140049008B420CD3890192118B4208D389019211F4
S2140049108B4204D389013AD0921100E08909C30979
S2140049208B4201D3CB01C01A524183098B4201D37B
S2140049308B01C01A524143098B4201D34B01C01A66
S214004940524103098B4201D30B01C01A5241C308DE
S2140049508B4201D3CB00C01A524183088B4201D34D
S2140049608B00C01A5241D9D243088B4201D34B0068
S214004970C01A5241411A00D20146634652415B10AA
S214004980104601D34042002B00D54942704763468B
S2140049905B1000D3404201B5002000F005F802BDD0
S2140049A00029F8D016E770477047C0468446081CB2
S2140049B06146FFE71FB500F0E3F9002801D40021A7
S2140049C0C8421FBD10B500F075F94042013010BD59
S2140049D010B500F0D5F9002801DB002010BD01203D
S2140049E010BDC04610B500F0CBF9002801DD002050
S2140049F010BD012010BDC04610B500F081F900289A
S214004A0001DC002010BD012010BDC04610B500F02E
S214004A1077F9002801DA002010BD012010BDC0463D
S214004A20002B11D1002A0FD1002900D1002802D076
S214004A300021C943081C07B4024802A1401802908E
S214004A4003BDC04665FFFFFF03B4684601B5029884
S214004A5000F070F8019B9E4602B00CBC7047C04642
S214004A60F0B5CE46474615042D0C2E0080B507043B
S214004A70140C3F0C9946030C7E435D436743634327
S214004A807F19340CE4199C46A54203D980235B02A7
S214004A909846C4444B46514343433604360C250CD3
S214004AA024046544A4195918491920000CBC9046E2
S214004AB09946F0BD10B50023002802D001F08AFF09
S214004AC0431C180010BDC0469E2110B5C905041C25
S214004AD0FFF79CFF002803D1201C00F04FFC10BD00
S214004AE09E21201CC90500F0ADFA00F047FC80238B
S214004AF01B069C466044F2E770B500220C4B04008F
S214004B000D0001F033FF002804D12000290001F039
S214004B106FFD70BD064B00222000290001F052FAFE
S214004B2001F066FD80231B069C466044F1E7C04604
S214004B300000E041F0B557464E464546DE46E0B535
S214004B40040083B00D00924699468B422FD82CD095
S214004B504946504601F032FF29000600200001F0C9
S214004B602DFF331A9846203B9B4600D574E05346EB
S214004B705A4693401F005346424693401E00AF429B
S214004B8029D826D05B46A41BBD41002B00DA79E06D
S214004B90002200230092019301235A46934001937A
S214004BA0012342469340009319E08242D0D9002266
S214004BB00023009201930C9B002B01D01C605D60CB
S214004BC00098019903B03CBC90469946A246AB4675
S214004BD0F0BDA342D6D9002200230092019343469B
S214004BE0002BE8D0FB0772081A4346467B080EE007
S214004BF0AB4201D1A2420CD8A41A9D41012024192F
S214004C006D410021013E24184D41002E06D0AB42D6
S214004C10EED9013E24196D41002EF8D15B4600986E
S214004C20019900196941002B22DB2B005A46D3401C
S214004C302A004446E2401C005B461500002B2CDB95
S214004C4026009E40330026004746BE403200801AAB
S214004C50994100900191AEE7424620239B1A5246A6
S214004C60DA40414613004A468A4017001F4382E74F
S214004C70424620239B1A2A0046469A402300F340C9
S214004C801343D5E74246202300219B1A00220091B9
S214004C9001920122DA40019282E742462023260052
S214004CA09B1ADE402F00B446974066463B003343CF
S214004CB0C9E7C04670B5420045024E024C00C30F1D
S214004CC06D0A120E760A240EC90F0120FF2A06D09E
S214004CD0FF2C03D0A24201D1B54206D070BD002DF4
S214004CE0FCD1FF2CFAD1002EF8D18B4206D0012041
S214004CF0002AF3D12800451EA841EFE70020EDE783
S214004D00F0B5420045024C02C30F48006D0A120E71
S214004D10640A000EC90FFF2A1ED0FF2821D0002AE1
S214004D200AD16E426E41F6B200280FD1002C0DD18A
S214004D300020002D09D005E0002801D1002C01D06C
S214004D408B4211D0012158420843F0BD002EF7D007
S214004D50012001390843F8E7002DDED0022040424A
S214004D60F3E7002CDBD0F9E78242EBDC04DBA5425C
S214004D70E8D80020A542E8D20121581E0843E4E7FF
S214004D80F0B542004D024C004602760A120EC30FE2
S214004D906D0A240EC90FFF2A16D0FF2C18D0002A41
S214004DA00AD170427041C0B2002C15D0002805D040
S214004DB0012001390843F0BD002C13D0994214D0CD
S214004DC001205B421843F6E70220002EF3D1E4E709
S214004DD00220002DEFD1E2E7002DE7D10020002EC3
S214004DE0E9D0EDE7002DE9D1EAE7A24206DCDFDBF9
S214004DF0AE4203D80020AE42DAD3DCE701204942B7
S214004E000843D8E7F8B557464E464546DE46E0B571
S214004E104702460088467F0A360EC40F002E47D04B
S214004E20FF2E24D0FB008027FF041F430023994653
S214004E309A467F3E43465D025800DB0F6D0A000E21
S214004E40984643D0FF283BD0EB0080250022ED0497
S214004E501D437F383618731C41469B464B466140BF
S214004E6013430F2B64D875489B00C3589F46002FEA
S214004E7042D108239946063BFF269A46DAE7414682
S214004E80022A28D0032A00D1CEE0012A00D0ACE0C6
S214004E90114000200022CCB24002D205400AE407AE
S214004EA0104320433CBC90469946A246AB46F8BD0C
S214004EB0002F15D104239946033B00269A46B9E7EE
S214004EC0FF200222002DC5D00322C3E7002D19D1F2
S214004ED000200122BEE70124FF220C400020DBE771
S214004EE0380001F04DFD7626431F9F400023764292
S214004EF0361A99469A469DE70C239946093BFF26A3
S214004F009A4697E7280001F03BFD431F9D40762315
S214004F105B42181A00229DE780200024C003FF226F
S214004F20BAE73D005246ABE73D0021005246A7E7F0
S214004F303B0C9C462A04120C2B0C1400604665465B
S214004F403F043F0C7C4342435D437B43270C9B1846
S214004F50FF18BA4203D980235B029C4665442404AA
S214004F603A04240C121993015C1EA3413F0C920EC6
S214004F707D191A43AD0115432B0104D501235E4666
S214004F806A081D40154332007F32002A25DD6B0774
S214004F9004D00F232B40042B00D004352B0103D55F
S214004FA03200274B80321D40FE2A94DC0124A801E3
S214004FB0400AD2B20C406FE78020C003074207D0F9
S214004FC0054205D128434002400A4446FF2263E7D3
S214004FD038434002400AFF225EE70124A31A1B2B37
S214004FE005DD0C400022002056E75E46CBE72A008F
S214004FF02020DA40C31A9D402B005D1EAB411343B0
S2140050005A0704D00F221A40042A00D004335A014B
S21400501004D5012401220C4000203DE701249B0119
S214005020580A0C40002237E780200124C00328439A
S2140050304002400A0C40FF222EE7C0468837010097
S214005040FFFFFFF7F0B54F46D64646464400C0B5CC
S214005050C20F47024802400A844666467B0A48005A
S214005060C90F9A46240E1500DB00000E8946F6008E
S214005070FF2800D18FE001214F464F403900914272
S21400508066D0221A002A00DC9DE000283DD1002EC2
S21400509000D18BE0511E002900D0B5E001249B1BF7
S2140050A05A0144D59B019F09380001F069FC053878
S2140050B08740844200DD96E0041B3A00202001343D
S2140050C0E240041BA7403B005F1EBB410024134385
S2140050D05A0704D00F221A40042A00D004335A017B
S2140050E027D50134FF2C00D179E001229B015B0A11
S2140050F0E4B22A405B02E405580AD2072043104374
S2140051001CBC90469946A246F0BDFF2CE0D08021FC
S214005110C9040E431B2A7BDC31002020D140821AB2
S2140051209640721E96410E439B1B5A01BAD45A07EC
S214005130D0D10122DF082A40FF2C33D1002F00D126
S214005140A8E08023DB033B435B025B0AFF24D1E736
S214005150211A00294CDD00282AD0FF2CB8D0802048
S214005160C00406431B2900DDAFE030002027C840FE
S214005170791A8E40711E8E4106439B195901D6D569
S2140051800134FF2C00D185E001227A491A405B08E1
S2140051900B4013439CE7002E00D070E76BE73B1EE6
S2140051A0C5D100227B025B0AE4B2A3E714008FE7B6
S2140051B0002E4DD0481E002857D19B1901245A01B5
S2140051C0B5D50224E0E7002A25D1621CD2B2012A16
S2140051D072DD9F1B7A0135D5F71A0D0064E70122B0
S2140051E000232A4086E73B00634A241A13406FE7F1
S2140051F000296CD1611CC8B201284EDDFF2949D0B8
S2140052009B195B080C0063E7FF2A41D00A0081E780
S21400521001269B1B89E7002C1CD0FF2821D0802468
S214005220E404524223431B2A00DD96E01C0020259E
S214005230D440AA1A93405A1E93412343F31A0400FB
S2140052400D002DE7002F00D02EE700220024A9E74E
S2140052500C003DE7002B58D0D243002AEED0FF28A2
S214005260E1D13300FF240D0032E7FF2910D0010002
S21400527078E7002B6ED0FF24002E00D128E780228E
S2140052805146D203114203D06146114200D1330089
S214005290FF241DE7FF2400232CE7002CE9D1002B78
S2140052A063D0002E00D113E79B195A0100D43EE7C5
S2140052B0314A0C0013400BE7002C1ED1002B2FD1D7
S2140052C0002E4FD033000D0002E7012655E7002CD4
S2140052D01FD1002B43D0C94300290BD0FF2839D05B
S2140052E01B2944DC1C002027CC40791A8B40591E11
S2140052F08B4123439B19040040E7002B1AD1002E54
S21400530024D180270022FF031BE7330004000D0092
S214005310DEE6FF281ED08024E40449422343DFE76C
S214005320002E00D1D4E69F1B7A0100D437E7F31A8B
S2140053300D00CDE6FF24002E00D1C9E6802250469F
S214005340D2031042A4D060461042A1D133000D0013
S214005350FF24BDE63300FF24BAE601236EE73300E0
S2140053600400B5E6002700221CE73300B0E6012360
S214005370C0E7C046FFFFFF7DFFFFFFFB4102430083
S214005380C20F490A1B0E00207E2B0DDD9D2B0CDC68
S214005390802000040143952B0ADC9620C31AD940CE
S2140053A04842002A00D108007047034BD018FBE79C
S2140053B0963B9940F4E7C046FFFFFF7F70B5002894
S2140053C030D0C317C4185C40C50F200001F0D8FACF
S2140053D09E231B1A962B0DDC9622D21A94402A0086
S2140053E06402640ADBB26402DB05600AD207184373
S2140053F0104370BD992B19DC9922D21A002A29DD98
S21400540094402200144C1440510704D00F210A4047
S214005410042A00D00434620113D4A401640ADBB267
S2140054202A00E0E7002200230024DCE70522210012
S214005430121AD140B922D21A9440621E94410C43EB
S214005440DAE7054B2A001C409F23A4011B1A640AB6
S214005450DBB2C8E72200D5E7FFFFFFFBF0B55746F3
S2140054604546DE464E46E0B54C000E0387B0834602
S21400547092461D008046360B640DCF0F002C4FD091
S2140054806F4B9C4235D08023420F1B04F60013431B
S21400549033439946C30098466A4B00269C46002331
S2140054A0644403932B031B0B9B466B00ED0F504687
S2140054B05B0D01955ED0624A934253D05A46D100A6
S2140054C08022400F120402430A4393465246D100FC
S2140054D05C4A944600226344380068408446029042
S2140054E0E41A16430F2E00D9B4E0574BB6009B596A
S2140054F09F460300334399466CD1002398460233F7
S21400550008260393CEE7CB464146039A0197022A24
S21400551065D1019B4A4C9C460023002298466BE0CE
S2140055200300334399464ED0002E00D1BCE1300034
S21400553001F026FA03000B3B1C2B00DDACE11D221C
S214005540D31A5A460100DA4008398E401300334316
S21400555099465B468B40984600233C4C0026241A0E
S21400556003939FE751465A46114329D1002293469A
S2140055700232B1E7594601431ED05B46002B00D1EC
S2140055809EE1584601F0FCF903000B3B1C2B00DDA6
S2140055908FE102005946083A91408B461D21CB1AEE
S2140055A05146D9400B0059460B4351469B46914005
S2140055B0264B00221B1A8FE7002301229B468BE70F
S2140055C05146032288E70023984601330426002428
S2140055D0039367E70323B14603930C2662E7032A87
S2140055E000D15CE2019B012A00D0E4E113409C4616
S2140055F0002300240022984600211203130B0A0DF4
S21400560012051A432305124C4046224013436246B5
S2140056105B00D2075B081343190007B03CBC9046FA
S2140056209946A246AB46F0BD002380229C46120354
S2140056309846034CE0E70023014C00229846DBE73F
S214005640FF07000001FCFFFFC83701000DFCFFFF4D
S214005650FFFF0F80D94500D939E100D134E100239E
S21400566046464D469A46013C5B460A0E1B021A43C6
S2140056700B02170C039313041B0C390028009046EA
S2140056800193FFF71DF80200019B83465A4328004A
S21400569039009146FFF79AF8350C09040D43A945E1
S2140056A00DD95B464544013BA84500D93AE1A945DA
S2140056B000D837E102235B429C464544E3444B4610
S2140056C0EB1A390018000493FEF7FAFF019B050059
S2140056D04343390004989946FFF778F833040904E1
S2140056E01B0C0B43994509D943446A1E984500D9BB
S2140056F01AE1994500D817E1023D43444A469B1AF1
S2140057005A4612042A4303999346100C0A0C9146F3
S21400571009045A46090C4E460D001204120C454365
S214005720059151437243704352190E0CB2189542BC
S21400573003D980256D02AC466044150C090412049A
S214005740090C28185218834200D2CEE000D1C8E0D7
S2140057501D1A53469E1AB24592415242AB1A9A46B9
S214005760984500D117E139001800FEF7A9FF019B04
S21400577005004343390050460493FFF727F8049882
S2140057800B04310C1943884209D941446B1E8845E5
S21400579000D907E1884200D804E1023D4144049B59
S2140057A0CB1A180039000493FEF78AFF019B824645
S2140057B04343390004980193FFF708F801980B0457
S2140057C03104090C194388420DD953464144013B24
S2140057D0884500D9E8E0884200D8E5E002235B422D
S2140057E09C464144E244019B2D04CE1A514629436F
S2140057F0059D4F462A000B04080C1B0C5A434543D4
S2140058007B4378435B19170CFB189D4203D9802510
S2140058106D02AC4660441D0C12041B04120C2818C2
S2140058209B18864200D293E000D18EE001231943F4
S214005830A04BE318002B00DC99E04A0700D09EE05E
S2140058405A46D20106D55A469B4B1A4080239346A9
S214005850DB00E318994A934268DD0123029A984CCC
S2140058601A400023944698460022C5E680224B46FE
S214005870120313420AD05B46134206D11A431203A0
S214005880120BAC4688468E4CB6E64B461A431203BD
S214005890120BBC468A4CAFE603005A46283B9A4099
S2140058A000239146984657E6584601F069F820309E
S2140058B040E603005246283B9A400021934677E68E
S2140058C001F05EF820305FE6884500D2C7E64B461A
