:100000000C94B5000C94D2000C94D2000C94D20045
:100010000C94D2000C94D2000C94D2000C94D20018
:100020000C94D2000C94D2000C94D2000C94D20008
:100030000C94D2000C94D2000C94D2000C94D200F8
:100040000C94D2000C94D2000C9430010C94D20089
:100050000C9467010C94D2000C94D2000C94D20042
:100060000C94D2000C94D2006E616E00696E660032
:1000700000407A10F35A00A0724E18090010A5D45F
:10008000E80000E87648170000E40B54020000CABC
:100090009A3B000000E1F505000080969800000002
:1000A00040420F000000A086010000001027000061
:1000B0000000E803000000006400000000000A00E7
:1000C000000000000100000000002C76D888DC67EA
:1000D0004F0823DFC1DFAE59E1B1B796E5E3E45342
:1000E000C63AE651997696E8E6C28426EB898C9B5F
:1000F00062ED407C6FFCEFBC9C9F40F2BAA56FA5FF
:10010000F490055A2AF75C936B6CF9676DC11BFC80
:10011000E0E40D47FEF520E6B500D0ED902E03009B
:10012000943577050080841E080000204E0A0000E8
:1001300000C80C333333330F986E12831141EF8DA7
:100140002114893BE65516CFFEE6DB18D1844B38E7
:100150001BF77C1D901DA4BBE424203284725E2218
:100160008100C9F124ECA1E53D2711241FBECFEF8A
:10017000D8E0DEBFCDBF11E0A0E0B1E0E0E7F0E104
:1001800002C005900D92A633B107D9F721E0A6E38E
:10019000B1E001C01D92AE3BB207E1F70E94BE0183
:1001A0000C9436080C940000DC01ED91FC91119741
:1001B00021E030E0A90112960C9002C0440F551FB7
:1001C0000A94E2F7CA01611105C0809590818923E4
:1001D000808308959081892B80830895FC0190810C
:1001E0008181613079F1F8F06230E1F4A92FB82F04
:1001F00081E090E09C01028002C0220F331F0A942C
:10020000E2F720953E9123232C93A081B1810280B7
:1002100002C0880F991F0A94E2F780959C91892368
:100220008C9308950895A92FB82F81E090E0028063
:1002300002C0880F991F0A94E2F780959E91892346
:100240008C930895A92FB82F81E090E0028002C01E
:10025000880F991F0A94E2F79E91892B8C93089539
:100260001F920F920FB60F9211248F939F93EF93CB
:10027000FF93E091B601F091B7018091C600EA5C6E
:10028000FE4F8083E091B601F091B701EA5CFE4F2A
:1002900080818D3051F481E080930001E091B601BE
:1002A000F091B701EA5CFE4F11828091B601909106
:1002B000B70101969093B7018093B601FF91EF913A
:1002C0009F918F910F900FBE0F901F9018951F92C6
:1002D0000F920FB60F9211248F9381E0809301014A
:1002E0008F910F900FBE0F901F9018950F931F9333
:1002F0008B019C014423A1F18091C0008260809316
:10030000C00068E070E080E090E0A90198010E94E0
:1003100015069B01AC0160E072E18AE790E00E9463
:100320002506BA01A9014150510961097109DB0192
:10033000CA0188279F70AA27BB27892F9A2FAB2F26
:10034000BB278093C5004093C4008091C100886D95
:100350008093C10086E88093C2001F910F91089599
:1003600060E170E080E090E0D0CF909101019923AE
:10037000E1F3109201018093C600089561E080E2EC
:1003800091E00E94EE0060E080E291E00E94D400E3
:1003900001E111E0C2E0D1E061E0888199810E9431
:1003A000EE0061E0888199810E94D40023960C17A9
:1003B0001D0791F740E060E07BE480E090E00E9460
:1003C000760183E291E09093BB018093BA01789427
:1003D000B12CA12C40E050E0E12CF12C1FEF88243F
:1003E0008394912C71E3C72E71E0D72EE2E0F1E007
:1003F00000E060817181EB01A881B98112978C9135
:10040000282F30E0C4010A8002C0880F991F0A9487
:10041000E2F782239323892B11F10F5F3396053086
:1004200041F71F3F39F161E080E291E00E94D40082
:10043000A11002C0B11063C060E080E291E00E94B0
:10044000D400B12CA12C40E050E0E12CF12C1FEFA6
:100450008FE19EE40197F1F700C00000C7CF1017AD
:1004600081F0102FBB24B394A12C40E050E0E12C8C
:10047000F12CEECFB12CA12C40E050E0E12CF12C7E
:10048000E7CFA11009C0D4EFED16D1E0FD0620F4AE
:100490009AE0E90EF11CDCCF4115510551F0465FA1
:1004A0005F4FAA24A3944436510590F240E050E0F7
:1004B000CFCF61E080E291E00E94D400812F012E35
:1004C000000C990BFC01EE0FFF1F8E0F9F1FFC010C
:1004D000EE5FFE4F82811F928F93DF92CF920E9438
:1004E000C20760E080E291E00E94D4000F900F907C
:1004F0000F900F90AA24A3944AE050E0A9CF812F37
:10050000110F990BFC01EE0FFF1F8E0F9F1FFC01B7
:10051000EE5FFE4F828190E080969F938F93DF92F3
:10052000CF920E94C2070F900F900F900F9084CF30
:10053000A0E1B0E0EEE9F2E00C9452067C011B0170
:100540006A01FC0117821682838181FF44C39E01E8
:100550002F5F3F4F3901F7019381F10193FD8591A1
:1005600093FF81911F01882309F431C3853239F447
:1005700093FD859193FF81911F01853239F4B70175
:1005800090E00E94860756016501E5CF10E0512CEE
:10059000912CFFE1F915D8F08B3279F038F48032E4
:1005A00079F08332A1F4F92DF0612EC08D3261F023
:1005B000803369F4292D21602DC0392D3260932EAE
:1005C000892D8460982E2AC0E92DE86015C097FC1B
:1005D0002DC020ED280F2A3088F496FE06C03AE0A0
:1005E000139F200D1124122F19C08AE0589E200D50
:1005F0001124522EE92DE0629E2E10C08E3231F46D
:1006000096FCE5C2F92DF0649F2E08C08C3621F4CB
:10061000292D2068922E02C0883641F4F10193FD05
:10062000859193FF81911F018111B3CF9BEB980FAF
:10063000933020F4992D9061805E07C09BE9980F5C
:10064000933008F066C1992D9F7E96FF16E09F7348
:10065000992E853619F49064992E08C0863621F4B7
:10066000392F3068932E02C01111115097FE07C028
:100670001C3350F444244394410E27E00BC018303F
:1006800038F027E017E005C027E09CE3492E02C0C0
:10069000212F412C560184E0A80EB11CF601608187
:1006A000718182819381042DA3010E9498066C01BF
:1006B000F981FC87F0FF02C0F3FF06C091FC06C081
:1006C00092FE06C000E205C00DE203C00BE201C0CD
:1006D00000E08C858C7019F001115AC29BC297FE04
:1006E00010C04C0CFC85F4FF04C08A81813309F4EE
:1006F0004A94141474F528E0241578F588E0482EFF
:100700002CC096FC2AC0812F90E08C159D059CF092
:100710003CEFC3163FEFD30674F0892D8068982E06
:100720000AC0E2E0F0E0EC0FFD1FE10FF11D808157
:10073000803319F411501111F4CF97FE0EC04424E8
:100740004394410E812F90E0C816D9062CF41C1951
:1007500004C04424439401C010E097FE06C01C145A
:100760001D0434F4C601019605C085E090E002C086
:1007700081E090E001110196112331F0212F30E04A
:100780002F5F3F4F820F931F252D30E08217930775
:1007900014F4581A01C0512C892D897049F4552040
:1007A00039F0B70180E290E00E9486075A94F7CFB3
:1007B000002329F0B701802F90E00E94860793FC68
:1007C00009C0552039F0B70180E390E00E94860708
:1007D0005A94F7CF97FE4CC04601D7FE02C0812C39
:1007E000912CC60188199909F301E80FF91FFE87BA
:1007F000ED87960124193109388B2F87012F10E0DE
:100800001195019511093FEF8316930629F4B7015D
:100810008EE290E00E948607C814D9044CF08F85C0
:1008200098898815990524F4ED85FE85818101C09C
:1008300080E3F1E08F1A91082D853E852F5F3F4FB1
:100840003E872D87801691062CF0B70190E00E941C
:100850008607D9CFC814D90441F49A81963320F47D
:10086000953319F43C8534FF81E3B70190E04EC025
:100870008A81813319F09C859F7E9C87B70190E027
:100880000E948607111105C094FC18C085E690E00F
:1008900017C0B7018EE290E00E9486071E5F82E0DB
:1008A00001E0080FF301E80FF11D8081B70190E02E
:1008B0000E948607802F0113F3CFE6CF85E490E0F6
:1008C000B7010E948607D7FC06C0C114D10441F4C9
:1008D000EC85E4FF05C0D194C194D1088DE201C03C
:1008E0008BE2B70190E00E94860780E32AE0C216FF
:1008F000D1042CF08F5FFAE0CF1AD108F7CFB701FF
:1009000090E00E948607B701C601C0960E94860744
:1009100054C1833631F0833779F0833509F056C0FE
:1009200020C0560132E0A30EB11CF60180818983FC
:1009300001E010E0630112C05601F2E0AF0EB11CFD
:10094000F601C080D18096FE03C0612F70E002C026
:100950006FEF7FEFC6010E947B078C01F92DFF77B7
:1009600014C0560122E0A20EB11CF601C080D18055
:1009700096FE03C0612F70E002C06FEF7FEFC601EB
:100980000E9470078C01F92DF0689F2EF3FD1AC0AC
:10099000852D90E008171907A8F4B70180E290E0D0
:1009A0000E9486075A94F4CFF60197FC859197FE32
:1009B00081916F01B70190E00E94860751105A940F
:1009C000015011090115110579F7F7C0843611F0AE
:1009D000893661F5560197FE09C024E0A20EB11CCC
:1009E000F60160817181828193810AC0F2E0AF0ECD
:1009F000B11CF60160817181072E000C880B990BE8
:100A0000F92DFF769F2E97FF09C0909580957095E0
:100A100061957F4F8F4F9F4FF0689F2E2AE030E007
:100A2000A3010E94D807C82EC6183FC0092D8537DC
:100A300021F40F7E2AE030E01DC0097F8F3691F04F
:100A400018F4883559F0C3C0803719F0883711F091
:100A5000BEC0006104FF09C0046007C094FE08C066
:100A6000066006C028E030E005C020E130E002C0AA
:100A700020E132E0560107FF09C084E0A80EB11C56
:100A8000F601608171818281938108C0F2E0AF0E2E
:100A9000B11CF6016081718180E090E0A3010E94A9
:100AA000D807C82EC6180F77902E96FE0BC0092DBA
:100AB0000E7FC11650F494FE0AC092FC08C0092DA6
:100AC0000E7E05C0DC2C092D03C0DC2C01C0D12E0C
:100AD00004FF0DC0FE01EC0DF11D8081803311F487
:100AE000097E09C002FF06C0D394D39404C0802FAE
:100AF000867809F0D39403FD11C000FF06C01C2DB9
:100B0000D51480F4150D1D190DC0D51458F4B70176
:100B100080E290E00E948607D394F7CFD51410F4BA
:100B20005D1801C0512C04FF10C0B70180E390E0B4
:100B30000E94860702FF17C001FD03C088E790E00E
:100B400002C088E590E0B7010CC0802F867859F08C
:100B500001FF02C08BE201C080E207FD8DE2B70118
:100B600090E00E948607C11638F4B70180E390E058
:100B70000E9486071150F7CFCA94F301EC0DF11DC6
:100B80008081B70190E00E948607C110F5CF15C0A3
:100B9000F4E0F51560F584E0581A93FE1FC00111CA
:100BA00027C02C8523FF2AC008E610E0392D3071BC
:100BB000932EF8018491811124C0552009F4E4CCCE
:100BC000B70180E290E00E9486075A94F6CFF701C1
:100BD0008681978126C08FEF9FEF23C0B70180E207
:100BE00090E00E9486075A945110F8CFD8CF512C2C
:100BF000B701802F90E00E948607D3CF0CE610E06B
:100C0000D5CF91108052B70190E00E9486070F5F08
:100C10001F4FCFCF23E0251510F483E0BDCF512C1B
:100C2000C0CF6096E2E10C946E06DB018F939F9338
:100C30000E944706BF91AF91A29F800D911DA39F77
:100C4000900DB29F900D11240895A1E21A2EAA1BB7
:100C5000BB1BFD010DC0AA1FBB1FEE1FFF1FA2176C
:100C6000B307E407F50720F0A21BB30BE40BF50B69
:100C7000661F771F881F991F1A9469F760957095F2
:100C8000809590959B01AC01BD01CF0108950E9414
:100C90008906A59F900DB49F900DA49F800D911D76
:100CA000112408952F923F924F925F926F927F92FC
:100CB0008F929F92AF92BF92CF92DF92EF92FF926C
:100CC0000F931F93CF93DF93CDB7DEB7CA1BDB0B18
:100CD0000FB6F894DEBF0FBECDBF09942A883988BD
:100CE00048885F846E847D848C849B84AA84B984C4
:100CF000C884DF80EE80FD800C811B81AA81B981D0
:100D0000CE0FD11D0FB6F894DEBF0FBECDBFED01E3
:100D10000895A29FB001B39FC001A39F700D811DD4
:100D20001124911DB29F700D811D1124911D0895F4
:100D3000283008F027E03327DA01990F311D87FDAD
:100D4000916000966105710539F432602E5F3D9324
:100D500030E32A95E1F708959F3F30F08038710520
:100D6000610509F03C5F3C5F3D93913008F080687D
:100D7000911DDF93CF931F930F93FF92EF92192F43
:100D8000987F9695E92F96959695E90FFF27E6535C
:100D9000FF4F99273327EE24FF24A701E701059091
:100DA0000894079428F4360FE71EF81E491F511DBA
:100DB000660F771F881F991F0694A1F70590079467
:100DC00028F4E70EF81E491F561FC11D770F881F14
:100DD000991F661F0694A1F70590079428F4F80E52
:100DE000491F561FC71FD11D880F991F661F771FE8
:100DF0000694A1F70590079420F4490F561FC71FCA
:100E0000D81F990F661F771F881F0694A9F7849132
:100E10001095177041F0D695C79557954795F7945B
:100E2000E7941A95C1F7E0E7F0E068941590159102
:100E300035916591959105907FE27395E118F10ADE
:100E4000430B560BC90BD009C0F7E10CF11E431F31
:100E5000561FC91FD01D7EF4703311F48A95E6CF5A
:100E6000E894015030F0080F0AF40027021708F444
:100E7000202F2395022F7A3328F079E37D932A954A
:100E8000E9F710C07D932A9589F6069497956795A2
:100E9000379517951794E118F10A430B560BC90BB8
:100EA000D00998F023957E9173957A3308F070E31A
:100EB0007C932013B8F77E9170617D9330F0839519
:100EC00071E37D9370E32A95E1F71124EF90FF9091
:100ED0000F911F91CF91DF91992787FD90950895EC
:100EE000FC010590615070400110D8F780959095F5
:100EF0008E0F9F1F0895FC016150704001900110FA
:100F0000D8F7809590958E0F9F1F08950F931F938C
:100F1000CF93DF93FB01238121FD03C08FEF9FEF70
:100F20002CC022FF16C0468157812481358142178B
:100F3000530744F4A081B1819D012F5F3F4F31835E
:100F400020838C93268137812F5F3F4F3783268301
:100F500014C08B01EC01FB010084F185E02D0995A3
:100F6000892BE1F6D80116968D919C9117970196E1
:100F700017969C938E931697CE01DF91CF911F9178
:100F80000F910895A0E0B0E0E8ECF7E00C94620661
:100F9000AE014B5F5F4FFA0161917191AF0180919A
:100FA000BA019091BB010E949802E2E00C947E0687
:100FB000FA01AA27283051F1203181F1E8946F938A
:100FC0006E7F6E5F7F4F8F4F9F4FAF4FB1E03ED030
:100FD000B4E03CD0670F781F891F9A1FA11D680FCE
:100FE000791F8A1F911DA11D6A0F711D811D911D01
:100FF000A11D20D009F468943F912AE0269F112476
:101000003019305D3193DEF6CF010895462F4770D9
:10101000405D4193B3E00FD0C9F7F6CF462F4F7034
:10102000405D4A3318F0495D31FD4052419302D092
:10103000A9F7EACFB4E0A695979587957795679538
:10104000BA95C9F700976105710508959B01AC0138
:101050000A2E06945795479537952795BA95C9F75F
:10106000620F731F841F951FA01D0895F894FFCF72
:1010700001011101531D01551A01441701521401B8
:101080004C2B00022B00052B00062B00032B000429
:101090002500050000000200000000B5010000006E
:0610A0000025630A0D00AB
:00000001FF
