:10000000382B002009010000050100000501000057
:1000100000000000000000000000000000000000E0
:1000200000000000000000000000000005010000CA
:1000300000000000000000000501000005010000B4
:10004000050100000501000005010000C50D0000CC
:10005000A90B0000050100000501000005010000DA
:100060000501000005010000050100000501000078
:100070000501000005010000050100000501000068
:10008000050100000501000005010000151A00002F
:10009000291A00000501000005010000050100000B
:1000A0000501000010B5064C2378002B07D1054B45
:1000B000002B02D0044800E000BF0123237010BDD4
:1000C000F8000020000000000C4D0000084B10B5A7
:1000D000002B03D00749084800E000BF0748036829
:1000E000002B00D110BD064B002BFBD09847F9E741
:1000F00000000000FC0000200C4D00000C4D000032
:1001000000000000FEE7000010B5124A124B9A42B0
:1001100009D0114B0F4A03E011681960043304320F
:100120000E498B42F8D30E4B02E000221A600433D2
:100130000C4A9342F9D30C4AFF210C4B8B4393603A
:100140000B4A516880230B4353600A4B98470A4B74
:100150009847FEE70C4D000000000020F80000204A
:10016000F8000020380B002000ED00E00000000047
:100170000040004101400000393B0000EFF31083D4
:10018000036072B6BFF35F8F7047BFF35F8F036882
:1001900083F310887047000010B5044B1C68044BB3
:1001A000984701002000034B984710BD1401002020
:1001B000710A00008D0A000070B50125002407E0D7
:1001C0000D4AB358002B00D0984770BD013AD5B204
:1001D000AC42FAD82B195B10DAB2002AF5D1FF2114
:1001E0000B40DE000449891949688142E8D0EDD20C
:1001F0000132D4B2ECE7C0461801002010B500234C
:10020000002B03D00748084B984710BD074AD90078
:1002100050180124644244600020885001339BB28E
:10022000EEE7C046B9010000CD0A00001801002029
:10023000F0B5C64600B584B001900023002B10D065
:100240000023984600291BD04346002B46D1002BA3
:1002500024D1DA002A4C1259002A18D00133DBB21B
:10026000F5E7DC00264A121952680198824202D052
:100270000133DBB2E2E7224BE15001239846E1E78C
:100280004346002B35D001981E4B98472DE0DD00EA
:1002900029516519019A6A6001229046002201E005
:1002A0000132D2B21900114318D11549DC000C19E2
:1002B0006768D400091949688F42F1D24C1CEFD00D
:1002C00002A98C460E4FD1007918644641C941C439
:1002D000DD007D19614611C911C5E1E74346002BD8
:1002E0000AD001210198074B984704B004BC9046FE
:1002F000F0BD0D204042F8E70D204042F5E7C04632
:10030000180100205D0B000010B584B01438848BF8
:1003100001AB1C8014000292064A5A800391190016
:10032000054B9847002802D1200004B010BD0400FE
:10033000FAE7C0460080FFFF3112000010B584B01C
:100340001438848B01AB1C8014000292064A5A8038
:1003500003911900054B9847002802D1200004B0F2
:1003600010BD0400FAE7C0460180FFFF3112000013
:1003700070B504000D00431E9841C0B25E220749CB
:10038000074B984729002000064B9847002803D1C7
:10039000054BA361054B636170BDC0466C4900000D
:1003A000E50900000D1100003D03000009030000F5
:1003B00010B5014B984710BDB9110000143008600A
:1003C0000020704770B504000D00160000280ED004
:1003D00000290AD0012034220649074B9847236898
:1003E000320029002000984770BD0020F3E700206C
:1003F000F1E7C04688490000E509000070B5040037
:100400000D00160000280ED000290AD001203D2240
:100410000649074B98476368320029002000984737
:1004200070BD0020F3E70020F1E7C04688490000D6
:10043000E509000010B54369002B00D0984710BDB6
:1004400010B58369002B00D0984710BD70B504002B
:100450000D00002812D000290ED0012033220849B7
:10046000084B984729002000074B9847074B23600B
:10047000074B6360002070BD0020EFE70020EDE730
:100480009C490000E5090000A9180000350400009F
:100490004104000010B50400431E9841C0B24A2236
:1004A0000749084B98472000074B9847002804D17C
:1004B0002000064B9847002010BD11204042FBE76A
:1004C0009C490000E5090000051A00009D19000084
:1004D00070B504000D001600431E9841C0B27C2286
:1004E0000449054B9847320029002000034B9847E8
:1004F000002070BD9C490000E5090000AD19000016
:1005000070B504000D00002817D0002913D0012079
:1005100040220B490B4B98476560201D29000A4B70
:100520009847002806DB094BA382094B2361094B3E
:10053000E360002070BD0020EAE70020E8E7C04645
:10054000B4490000E50900004D1400000080FFFFE1
:1005500005060000C905000010B50400431E9841BF
:10056000C0B257220349044B9847201D034B9847BC
:1005700010BDC046B4490000E50900000D1600009A
:1005800030B587B004000D00002815D0002911D027
:100590000120B32209490A4B98472B6803936B68E3
:1005A0000493AB6801930593201D03A9054B98475D
:1005B00007B030BD0020ECE70020EAE7B4490000B6
:1005C000E50900004516000070B584B004000E0077
:1005D0001500431E9841C0B2A3220749074B984714
:1005E00020000C38002302930196039501A9044BC7
:1005F000984704B070BDC046B4490000E50900004A
:100600008105000070B584B004000E001500431E83
:100610009841C0B287220749074B984720000C3801
:10062000029600230193039501A9044B984704B057
:1006300070BDC046B4490000E50900008105000016
:1006400070B504000D0000280CD0002908D001204E
:10065000BD220549054B98470C342C60002070BD25
:100660000020F5E70020F3E7B4490000E5090000A9
:10067000F8B50668002E02D0330000250CE0104BC0
:10068000984718E09F68BC466444A41A01348F68F8
:10069000BC420BD21D001B68002B07D05C68944243
:1006A000F0D8A41A9F68BC466444F0E7B34203D074
:1006B0002800044B9847F8BD014B9847FBE7C0461C
:1006C000050A0000310A0000F8B505004469036915
:1006D0005E1C0661037EDB0702D4037E9B070AD5FE
:1006E0002B7E02221343DBB22B76F8BD6F69E368E1
:1006F000200098473C00002CF7D06368F31AA268EA
:100700009342F2D32F0014373800064B9847237CCE
:10071000012BEBD16660320021003800024B984774
:10072000E4E7C046390A00007106000070B5040015
:100730000D00002812D000290ED001203B220849CC
:10074000084B984729002000074B98470023236156
:10075000064B2360002070BD0020EFE70020EDE78E
:10076000D0490000E5090000F90C0000C9060000AE
:1007700010B50400431E9841C0B253220749084BEC
:1007800098472000074B9847002804D12000064BCB
:100790009847002010BD11204042FBE7D0490000DF
:1007A000E5090000AD0D0000550D000070B582B0E8
:1007B00004000D00002826D0002922D001207A2232
:1007C0001F49204B9847237E01221343DBB2237637
:1007D00026001436290030001B4B9847002814D1FE
:1007E00023696B60226929003000184B9847237EEB
:1007F000012293432376237E9B0712D4002002B06C
:1008000070BD0020DBE70020D9E7237E012293435F
:1008100023767E320A4900200A4B98471220404234
:10082000EDE701A80A4B9847237E022293432376E3
:100830002000084B984701A8074B98470020DEE7A7
:10084000D0490000E5090000ED0900007106000034
:100850007D010000BF0D00008B010000F8B5050010
:100860000E001700002823D0002923D0002A23D10E
:100870000020F1221149124B98472C000834200027
:10088000104B98470028F8D00025715D20000E4BD2
:10089000984720000B4B98470028FAD00135BD42FD
:1008A000F3D32000094B98470028FAD02800F8BD60
:1008B0000020DEE70020DCE70120DAE7E84900005D
:1008C000E5090000EB100000DB100000F51000004F
:1008D000F8B5CE46474680B5051E884691461FD0DE
:1008E00000291FD0002A1FD10020862252000F4964
:1008F0000F4B984700262C00083420000D4B9847DA
:100900000028F8D043469F1920000B4B98473870B9
:1009100001364E45EFD330000CBC90469946F8BDE9
:100920000020E2E70020E0E70120DEE7E8490000E0
:10093000E509000001110000E310000070B504009B
:100940000D00002814D0002910D0012034220949BC
:10095000094B9847200008302900084B9847002889
:1009600003D1074B6360074B236070BD0020EDE7A8
:100970000020EBE7E8490000E50900009D100000B9
:10098000D10800005D08000010B50400431E984126
:10099000C0B253220449054B984720000830044B4D
:1009A0009847002010BDC046E8490000E509000056
:1009B000C910000070B504000D0000280BD00029FC
:1009C00007D0012069220549054B98472C6000207B
:1009D00070BD0020F6E70020F4E7C046E8490000BB
:1009E000E5090000002800D100BE70470368002B15
:1009F00003D08B4203D01B68F9E700207047012029
:100A0000FCE7000070B504000D00064B9847012379
:100A10005840C0B239220449044B984723682B60E0
:100A2000256070BDED090000044A0000E5090000E2
:100A300003680B60016070470368002B03D01A68DD
:100A40000260180070470020FCE700000300064A1F
:100A50001268002A04D0044A1068C3181360704753
:100A60000249014A1160F6E720010020382B0020DE
:100A700010B503011B1A580102300321024B98479D
:100A80006423584310BDC046953E00000139FDD88F
:100A90007047000010B5084A536806210B435360A5
:100AA000064B9847064B98470820064CA047064B34
:100AB0009847F720A04710BD00400041BD0C000042
:100AC0002D170000610C000079170000204B5B78A7
:100AD000DB09FBD11E4B5B78DB09FBD11C4B1B7880
:100AE0009B070AD500221A4B1A70194B5B78DB0959
:100AF000FBD1174B5B78DB09FBD10122144B1A7039
:100B0000134B5B78DB09FBD1114B5B78DB09FBD125
:100B10000F4B00229A705A605A619A61DA611A7812
:100B200002210A43D2B21A70094B5B78DB09FBD170
:100B3000084B102280215A50BFF34F8FBFF36F8FA5
:100B40000131FF315A501A60034B18600020704782
:100B50000018004000E100E0240100200023002BE9
:100B60000BD0FF22FF2A17D000290FD10123934079
:100B70000B4A9360136100207047282802D001338C
:100B8000DBB2ECE7DA00074BD25CEBE701239340E2
:100B9000034AD3600020EFE70D204042ECE7C04657
:100BA00000180040244A000070B582B0264B1A6934
:100BB000D9680A400192019A1A61244B1868431EB1
:100BC0009841C0B2D2222249224B984701256D425A
:100BD0002EE00139CEB2B0420ED832185210D1B246
:100BE000FF231340DB001C4A9B5CA34203D0F0DAD6
:100BF0000131C8B2EFE728256B1C03D0134B1B68EB
:100C0000280098470122A240019B93430193019839
:100C1000124B9847013844B2631C02D001260020D1
:100C2000D9E7094B1A69D9680A400192019A1A61F9
:100C3000019B002B05D00198084B9847013844B21E
:100C4000EAE702B070BDC046001800402401002051
:100C50002C4A0000E5090000244A0000AD3F0000D6
:100C6000C30709D5114B802252009A60104A5A607E
:100C70000E4B5B78DB09FBD1830709D50B4B0222B6
:100C8000FF329A600B4A5A60084B5B78DB09FBD154
:100C9000030709D5054B0422FF329A60064A5A60C1
:100CA000024B5B78DB09FBD17047C046000C00406B
:100CB000000701000106010003030100064B1A7A38
:100CC000D2B21A725A7AD2B25A729A7AD2B29A724C
:100CD000DA7AD2B2DA7270470004004010B504002C
:100CE000C3681B7ADB0706D50368002B00D0984742
:100CF000E36801221A7210BD70B504000D00431E96
:100D00009841C0B230221049104B9847E56001234A
:100D10002B80AB7ADB09FCD1E268937ADB09FCD14A
:100D200080331380937ADB09FCD1E2689369012355
:100D30009361937ADB09FCD10133E268D371044BF0
:100D40001C60002070BDC046444A0000E509000058
:100D50002801002010B5041E20D0C368002B1BD032
:100D6000012067220E490F4B984708220E4B1A604C
:100D7000E268136900231361937ADB09FCD1E2680E
:100D8000937ADB09FCD1138802210B439BB21380B9
:100D9000937ADB09FCD110BD0020E2E70020E0E7F8
:100DA000444A0000E509000000E100E0C268937ACF
:100DB000DB09FCD113885B0801201840704770479D
:100DC0000020704710B5024B1868024B984710BDC1
:100DD00028010020DD0C0000024B9C466044800A84
:100DE000C0B2704700F8FFBD038ADB0B08D103686F
:100DF000022213430360038ADB0BFCD100207047FF
:100E000004204042FBE7000010B50A4B984703005E
:100E10000020002806D0084A08490020084B9847BF
:100E2000002010BD02010749525C9342F9D0013005
:100E3000C0B2EEE7D90D00002A020000B44A00005B
:100E4000E50900005C4A000010B50400194B984702
:100E5000238ADB0BFCD1238ADB0BFCD123689B07A5
:100E600007D500232360238ADB0BFCD1238ADB0B0D
:100E7000FCD101232360238ADB0BFCD1238ADB0B0B
:100E8000FCD102010C4B9B185B682360238ADB0BAF
:100E9000FCD10201084B9B189B686360238ADB0B23
:100EA000FCD10001044B181883896381837B237272
:100EB000002010BD090E00005C4A000010B50C4B6C
:100EC000984702000020002806D00A4A0A4900205C
:100ED0000A4B9847002010BD43001B18D900084B4F
:100EE0005B181B7C9A42F6D00130C0B2EBE7C046DB
:100EF000D90D000066030000B44A0000E5090000B7
:100F00005C4A000070B505000469431E9841C0B2F8
:100F10005C4A5D495D4B984763685D4A1340636076
:100F2000238ADB0BFCD12A8852006B8801210B40FD
:100F30001343DBB22375238ADB0BFCD12E69554AA0
:100F4000B37BDBB21800511E002A02D00A009B07B7
:100F5000F6D0238ADB0BFCD1238A9BB2C20750D583
:100F60009A0710D50122A2736A88802149010A4399
:100F70006A806A8848490A406A80DB0700D47CE0BE
:100F80000520404263E05B070BD4686800282DD140
:100F90006B881BB2002B20DB6B883F4A13406B80B1
:100FA00055E06B68002B04DD6B88802252011343EF
:100FB0006B806B881BB2002B06DB6B88364A1340B4
:100FC0006B800220404242E06268C0239B021343D0
:100FD0006360238ADB0BFCD1EFE76268C0239B02CE
:100FE00013436360238ADB0BFCD1D5E7AB681B7826
:100FF0002376AB680133AB606B68013B6B6000200C
:1010000025E082073CD56A68002A31D05B072FD4DF
:10101000013A6A60002A07D162688023DB02134329
:101020006360238ADB0BFCD16B68002B07D16B88D4
:101030001BB2002B0CDB6B88174A13406B80AB682C
:101040005A1CAA60227E1A700223A373002070BD6E
:101050006368114A13406360238ADB0BFCD162682A
:10106000C0239B0213436360238ADB0BFCD1E2E7BE
:101070000223A37302204042E9E704204042E6E74E
:101080000020E4E781050000B44A0000E509000003
:10109000FFFFFBFFFFFF0000FFFEFFFF70B5050035
:1010A0000C00431E9841C0B2A1220449044B98474A
:1010B0002C602000034B984770BDC046B44A000026
:1010C000E5090000490E00000268136802210B4385
:1010D0001360138ADB0BFCD17047036889B2198354
:1010E00070470368188BC0B270470368987B012370
:1010F0001840704703689B7B5B08012018407047CD
:1011000003689B7B9B0801201840704770B5060060
:101110000C000800234B984705003000431E9841FF
:10112000C0B2214A2149224B98473461238ADB0B04
:10113000FCD1238ADB0BFCD123689B0707D5002356
:101140002360238ADB0BFCD1238ADB0BFCD1012338
:101150002360238ADB0BFCD1238ADB0BFCD16B00E1
:101160005B19DA00134B9B185B69022293432360DF
:10117000238ADB0BFCD16B005B19DA000D4B9B184B
:101180009B696360238ADB0BFCD10A4A6B00581908
:10119000C10008005118898B61811218138CF381EA
:1011A000002070BDBD0E0000D7040000B44A00004E
:1011B000E50900005C4A0000F8B506000469184D16
:1011C000431E9841C0B2A122D2002900154FB84752
:1011D0003069431E9841C0B2134A2900B8472368BA
:1011E000022213432360238ADB0BFCD104200F4926
:1011F000238ADB0BFCD1228A120903331340012B13
:1012000008D001390029F3DC0138002804D010236C
:101210002382ECE70020F8BD06204042FBE7C046F1
:10122000B44A0000E509000009050000FFFF0000C6
:10123000F8B505000E000469431E9841C0B27B4A10
:101240007B497C4FB8472869431E9841C0B27A4A0F
:101250007749B8473000431E9841C0B2774A744975
:10126000B8476B88DB0500D5DCE0728880235B0023
:101270009C461A4372802A00310089C989C262687B
:10128000634613436360238ADB0BFCD128006C4B5D
:101290009847002800D17DE06B886A4A13406B8034
:1012A000F8BD0520404286E073881BB2002B04DBAA
:1012B0006B88644A13406B80F2E76268C0239B022C
:1012C00013436360238ADB0BFCD1F1E75B070BD48C
:1012D000686800282DD16B881BB2002B20DB6B883F
:1012E000584A13406B8055E06B68002B04DD6B8817
:1012F0008022520113436B806B881BB2002B06DBEC
:101300006B88504A13406B800220404242E0626882
:10131000C0239B0213436360238ADB0BFCD1EFE7FE
:101320006268C0239B0213436360238ADB0BFCD1FA
:10133000D5E7AB681B782376AB680133AB606B688D
:10134000013B6B60002025E08A0769D56A68002AA6
:101350005ED05B075CD4013A6A60002A07D16268FC
:101360008023DB0213436360238ADB0BFCD16B68B1
:10137000002B07D16B881BB2002B39DB6B88314AFD
:1013800013406B80AB685A1CAA60227E1A7002233D
:10139000A37300206B88DB0500D481E72F692A4AFC
:1013A000BB7BDBB21900501E002A00D179E7020096
:1013B0009B07F5D00020002800D075E7238ADB0BBF
:1013C000FCD1238A9BB2CA07BED59A0700D47DE719
:1013D0000122A2736A88802149010A436A806A88CF
:1013E00018490A406A80DB0717D505204042D1E73B
:1013F0006368144A13406360238ADB0BFCD1626884
:10140000C0239B0213436360238ADB0BFCD1B5E747
:101410000223A37302204042BCE704204042B9E704
:101420000020B7E7062040423AE7C0469B0500008F
:10143000B44A0000E50900009C0500009D0500007D
:10144000050F0000FFFEFFFFFFFF000070B5060064
:101450000C000800634B98470023012B0DD819019D
:10146000614A38325218D27B904202D00133DBB24B
:10147000F3E75D4B38335D1800E00025002E00D106
:101480006AE0002C00D165E00120584A5849594BC8
:101490009847002D00D1A2E0238ADB0BFCD1238AE0
:1014A000DB0BFCD123689B0707D500232360238A2D
:1014B000DB0BFCD1238ADB0BFCD101232360238AC5
:1014C000DB0BFCD1238ADB0BFCD134602B786A78F0
:1014D00012021A43AB781B041A43EB781B06134322
:1014E0001C221340082B39D0002C00D173E0002DB2
:1014F00000D16EE00120404A3D493E4B98472B7891
:101500006A7812021A43AB781B041A43EB781B0665
:1015100013433A4A13402360238ADB0BFCD12B7917
:101520006A7912021A43AB791B041A43EB791B0642
:101530001343334A134080229202134363602B7B90
:10154000A3726B7B23722B795B0746D10123337126
:10155000002070BD002098E7002096E7002C36D0D0
:10156000002D32D00120274A2149224B98472B7861
:101570006A7812021A43AB781B041A43EB781B06F5
:1015800013431E4A13402360238ADB0BFCD12B79C3
:101590006A7912021A43AB791B041A43EB791B06D2
:1015A0001343194A134363602B7A6A7A12021A436F
:1015B000AB7A1B041A43EB7A1B06134363616B7B04
:1015C0002372238ADB0BFCD1BDE70020CBE7002090
:1015D000C9E700208FE700208DE70223B7E70D2041
:1015E0004042B6E7D90D00005C4A0000A3080000A5
:1015F000B44A0000E509000072080000FCFEFFFF8D
:10160000BF3FFDFF830800004000020010B5041E2C
:101610000DD00368002B08D00120064A0649074B6D
:1016200098472068064B984710BD0020F5E700203A
:10163000F3E7C0460A090000B44A0000E5090000CB
:10164000E90D000070B588B00D0004680B680393C5
:101650004B6804930023059306930679002814D061
:10166000002C10D001202D4A2D492E4B9847238A5B
:10167000DB0B4FD1238ADB0BFCD123689B0718D4EB
:101680001420404244E00020EDE70020EBE7002278
:1016900026E0587800020143023303930132059299
:1016A00089B221830598AB68984202D3069A934287
:1016B00029D9A37BDBB25A07E9D5228B92B20499D0
:1016C000002908D0481C04900A70012E03D9881CF8
:1016D0000490120A4A70069A01920132069201227F
:1016E000002ADFD10699059A9142DBD3DB07D9D5D1
:1016F000039B002B05D0591C03911978012EC8D8E3
:10170000CCE70949CAE7A37B9B07FCD00323A3735B
:1017100008B070BD04204042FAE7C046010A00004C
:10172000B44A0000E5090000FF0100000F4B196AF0
:10173000090C1A6A920F920709040D4801400A43E6
:101740000C490A431A629A6902210A439A611A7F74
:101750001D310A401A77054BDB681B07FBD5034A8E
:10176000136A80210B4313627047C0460008004093
:101770000000FF0F0203000002221B4B9A841A4B49
:10178000DB68DB06FBD5194A174BDA62184B1B687E
:101790009B0E3F2B20D09B02802292001343124AC3
:1017A000936202239384938C5B0718D50E4BDA68FF
:1017B000D0231340D02BF9D10B4A938C80210B43BB
:1017C0009BB293840B4B5B78DB09FBD1064A936990
:1017D00002218B4393617047FC23DB01DFE7024B5F
:1017E000DB68DB06FBD5E7E70008004000000104EA
:1017F00024608000000C004070B505000469A37BE4
:10180000DB0705D50123A3730368002B00D098479D
:10181000637B9B0706D50223A3736B68002B01D063
:101820002800984770BD0000024B9C466044800A27
:10183000C0B2704700E0FFBD064B984203D0064B94
:10184000984203D07047054B1960F8E7034B596085
:10185000F8E7C04600380042003C00422C0100205E
:1018600010B50D4B98470023012B0BD89A00D218C6
:1018700091000A4A8A5C904202D00133DBB2F3E75E
:1018800058B207E07622FF3205490020054B984701
:101890000120404210BDC046291800000000002071
:1018A000D04A0000E509000070B505000C000800F2
:1018B000354B98472C61E37BDB09FCD123889B07E0
:1018C00004D500232380E37BDB09FCD101232380A3
:1018D000E37BDB09FCD18200121891002B4B5B18D3
:1018E0005A88228019792172DB8863810C23134086
:1018F000082B37D0002B41D1244A83001E18B10099
:101900000E005118898921839219138A6383290053
:1019100020001F4B984720001E4B98470D30C0B247
:1019200043B2002B0ADB1F21014001228A408021A3
:10193000194C6250BFF34F8FBFF36F8F002B07DB43
:101940001F21014001228A40C0214900124C6250EF
:10195000002B16DB1F2318401E3B83400E4A1360EA
:10196000002070BD094A83001E18B1000E005118F6
:10197000C968A16192191369E361C8E70120404277
:10198000EFE70020EDE7C0466118000000000020EE
:10199000391800002918000000E100E002691388EE
:1019A00002210B439BB213807047000070B5040006
:1019B0000E0015000069114B984724698200121827
:1019C00091000F4B5B18DE601D615A880C23134099
:1019D000082B0BD00A4A83001D18A9000D005118CE
:1019E000898921835219138A638370BD044A0D00CB
:1019F000A66152191369E361F7E7C0466118000058
:101A00000000002003691B885B0801201840704714
:101A10000020704710B5024B1868024B984710BD64
:101A20002C010020F917000010B5024B5868024B3A
:101A3000984710BD2C010020F91700007047802244
:101A40001204C023DB05DA617047000010B50F4AAD
:101A5000936920210B4393610D4A0E4B5A800E4B24
:101A6000984702000D4C0E4920000E4B98470E4936
:101A70008023DB018B600D4BCB6001230B742000B6
:101A80000B4B984720000B4B984710BD00040040BB
:101A900002430000000C0040C10D0000F8020020CD
:101AA000001400402D070000340100203F1A000000
:101AB000AD07000071070000F0B5DE4657464E4600
:101AC0004546E0B5C022D20580239C4693619360D1
:101AD0007D4B7E499962C0252D069D624724185D85
:101AE000012188431855802040005061906078485B
:101AF00098629D620134185D884318558027BF00A5
:101B0000576197607348824698629D620134185D00
:101B1000884318558020C0008046506190606E4810
:101B200098629D620134185D884318558020000139
:101B300050606A4898626A4898624B26985D814670
:101B400004204C4684439C559C5D8C439C558026C8
:101B5000360296619660634E9E629D624F241E5DC2
:101B60008E431E5580263604566196608024E40517
:101B70009C625D4C9C625724A3461C5D8C43A1462D
:101B80005C464E461E5541341751103C1751593F83
:101B9000FF3F5446DC51DD51C9241D5D8D431D5569
:101BA000842544465451514CDC514D4CDC51CA24DF
:101BB000A0461C5D8443A14644464E461E551C5D0E
:101BC0008C43A14644464E461E5580242401545160
:101BD000424CDC51424CDC51CB24A0461C5D84437A
:101BE000A14644464E461E551C5D8C43A1464446C4
:101BF0004E461E558024E403546194608024E4051D
:101C00009C623B4C9C625624A1461C5D8C43A046C2
:101C10004C4646461E5580246404546194608024DA
:101C2000E4059C62334C9C625824A1461C5D8C43A5
:101C3000A0464C4646461E558024A4045461946038
:101C40008024E4059C622C4E9E6259241E5D8E43C6
:101C50001E5540265651294EDE51214CDC51C626D8
:101C60009C5D84439C559C5D8C439C55A63E56517F
:101C7000234EDE511A4CDC51C5269C5D84439C5595
:101C80009C5D8C439C55B53E56511E4EDE51144C06
:101C9000DC51C4269C5D84439C559C5D8C439C55C3
:101CA00064465451184ADA510D4ADA51C7229C5CF5
:101CB00084439C54985C884398543CBC9046994615
:101CC000A246AB46F0BDC046004400418000004043
:101CD00000010040000200400004004000080240F3
:101CE000000002C000800040800000C000040240EC
:101CF000400000C0000100C0000200C040000240DF
:101D000020000240100002408000024010B5114A3D
:101D1000114B5A80802149008423C022D205D15022
:101D20000E4BA8220E4999500E499950C8215A5C71
:101D3000042082435A545A5C033882430243D2B28D
:101D40005A5414395A5C0F2082435A54064B984710
:101D500010BDC04603410000000C0040004400419B
:101D600000010240000002C0FD010000F0B5DE46A7
:101D700057464646C0B5334A136A042188460B438A
:101D80001362314A314B5A8031493248324EB047A2
:101D9000C022D205102353619360304B30499962C1
:101DA000C02109068B4699624420195C0124A14395
:101DB0002143C9B219543221585C0F25AC46A843BF
:101DC00003273843C0B25854202050619060254802
:101DD00098625846986245208346185CA043204389
:101DE000C0B25D465855585C363D28403025AB465C
:101DF0005D462843C0B258540E3151601A4A9A6267
:101E00001A4A9A624622995C404681439954995CE9
:101E1000A1432143C9B2995433215A5C604682439D
:101E20003A43D2B25A540A490A48B04710490948BD
:101E3000104B98470748104B98471CBC90469A4651
:101E4000A346F0BD000400400D400000000C00401F
:101E500000080042CC0200200105000000440041BF
:101E6000100000402000004040000240000002C07E
:101E7000AC0200204106000059050000002804D1F2
:101E80008022C023DB055A6170478022C023DB0516
:101E90009A61F9E710B50020014B984710BDC04684
:101EA0007D1E000010B50120014B984710BDC046B3
:101EB0007D1E000010B503000A00034908681900E0
:101EC000024B984710BDC046AC020020FD03000045
:101ED00010B503000A00034908681900024B98472F
:101EE00010BDC046AC020020C503000010B582B092
:101EF0006B46DC1D00232370044B1868012221006F
:101F0000034B9847207802B010BDC046AC020020B9
:101F1000FD03000000B583B06B46D91D0870034B6C
:101F200018680122024B984703B000BDAC020020A4
:101F3000C5030000F8B5D6464F4680B5334A136A4C
:101F400020210B431362324A324B5A8032493348C4
:101F5000334EB047C022D20580235B0253619360A9
:101F6000304B8021C9058A4699622F4999625020D9
:101F7000195C0124A1432143C9B219543821585C8A
:101F80000F25AC46A84303273843C0B258548020DD
:101F900080025061906050469862244898625120B7
:101FA0008246185CA0432043C0B255465855585C41
:101FB000423D28403025AA4655462843C0B25854D1
:101FC0008021C90251601A4A9A621A4A9A625222C0
:101FD000995C042081439954995CA1432143C9B27F
:101FE000995439215A5C604682433A43D2B25A54DA
:101FF00009490A48B04710490848104B9847074814
:102000000F4B98470CBC91469A46F8BD000400401F
:1020100010400000000C004000140042B4020020F8
:102020000105000000440041010000C0020000C0A2
:1020300000000240040002C0B0020020410600007F
:1020400059050000F8B51E4A136A10210B431362AC
:102050001C4B1D4A5A801D4A5A801D4C1D492000A8
:102060001D4B98471D4B4C20195C04229143195479
:10207000195C0126B14301252943C9B21954163808
:10208000195C0F27B94302273943C9B219544D21AE
:102090005F5C97435F545A5CB2432A43D2B25A54AE
:1020A0001A5C3E390A4020210A43D2B21A540C4924
:1020B00020000C4B984720000B4B9847F8BDC046BA
:1020C00000040040000C00400F4000000C430000E2
:1020D000140300200010004271030000004400417E
:1020E000E8020020BD030000B1030000F8B5DE46A1
:1020F00057464E464546E0B52C4D2A6A8023DB0103
:1021000013432B622A4B9A462A4B9B4653465A4608
:102110005A80294CD122A35C012189468B438846F1
:1021200041460B43DBB2A354193AA35C0F210B4089
:1021300031310B43DBB2A354204FB8470200204992
:102140002048214EB0472A6A80231B0213432B628A
:1021500053465A465A805522A35C49468B43414612
:102160000B43DBB2A3541B3AA35C0F210B4031316C
:102170000B43DBB2A354B8470200144C14492000AF
:10218000B047144E002231000E48134DA8470022DC
:1021900031002000A8470B48104DA8472000A84751
:1021A0003CBC90469946A246AB46F8BD00040040B0
:1021B000000C00401640000000440041111A0000CD
:1021C00000380042F80100204D04000054020020B5
:1021D000003C004288130000D10400009504000078
:1021E000F8B5194A136A40210B431362174A184B7A
:1021F0005A80002217491848184B9847184BCC2191
:102200005A5C0124A24301273A43D2B25A54B6225F
:10221000985C0F26B04302252843C0B29854183268
:10222000995CA1433943C9B29954B7215A5CB2436E
:102230002A43D2B25A540B4907480B4B98470648D9
:102240000A4B9847F8BDC04600040040114000000A
:10225000000C004000180042EC0200203D09000084
:1022600000440041E4020020B50900008909000093
:1022700010B50B4B98470B4B98470B4B98470B4BA4
:1022800098470B4B98470B4B98470B4B98470B497C
:1022900028200B4B98470B4B98470B4B984710BD8A
:1022A000950A0000B91A00006D1D0000351F0000DE
:1022B00045200000ED200000E12100003D1A000053
:1022C000310200004D1A00000D1D000070B506001F
:1022D00008282ED884000134E400651CFF35102145
:1022E0002800154B98472800144B98470028FAD12E
:1022F00080239B00E0181F210F4B98470123B34018
:10230000DB431BB20E4802881A4002804288134009
:1023100043807300C31800229A808019002303753C
:10232000C0239B00E018054B98470028F8D10130E6
:1023300070BD01204042FBE7C9300000653000005D
:1023400048010020F0B5CE46474680B585B006006E
:102350000D0091461F00082800D990E0012968D09F
:10236000002900D18EE0042900D98BE07B0700D53D
:102370008BE0002F04D0012D68D0022D00D16BE03E
:102380003000454B9847B4000134E4000F23390076
:10239000994349B22943C9B22000404B98474B4664
:1023A000002B08D13E4A1388994601339BB2138013
:1023B0003C4A93425FD08023DB00E0184B46190A69
:1023C000364B984698474B466A46D371D179A0233D
:1023D000DB00E018C047651CFF3501212800C0471D
:1023E0002800314B98470028FAD10121B140C94358
:1023F00009B22E4A13880B401BB201300740B74088
:102400001F4317805388194051807300D31800214F
:102410009980921900231375C0239B00E018224B6A
:1024200098470028F8D070B205B00CBC9046994689
:10243000F0BD042203A9F02000011D4B9847039B27
:10244000002B00D092E703204042EDE721233B42DE
:1024500096D106204042E7E7BB0602D57BB2002BAF
:1024600016DAFB0600D48BE77BB2002B00DA87E795
:1024700006204042D8E70F4A094B1A809BE701200B
:102480004042D1E705204042CEE706204042CBE75C
:1024900006204042C8E7C046CD220000C9300000F7
:1024A00028000020F0FF00006530000048010020F7
:1024B0002931000000C0FFFF70B50600082829D8A8
:1024C00084000134E4002000174B98470F23184084
:1024D000012822D1C0239B00E5182800124B984701
:1024E00013281DD10134FF34022120000F4B9847DF
:1024F00020000D4B98470028FAD128000A4B984736
:10250000142801D1133870BD3000094B98470420BE
:102510004042F8E701204042F5E705204042F2E75B
:1025200003204042EFE7C04665300000C93000009C
:10253000CD22000070B50600082835D8840001348B
:10254000E40020001C4B98470F23184001282ED18F
:10255000651CFF3508212800184B98472800164BAA
:1025600098470028FAD101210800B040144B5A883E
:1025700082435A801B88334119421BD1C0239B00E0
:10258000E0180D4B984700280CD080239B00E018E2
:10259000094B98470307F1D530000A4B98470D20A7
:1025A000404208E0013006E00120404203E00520FF
:1025B000404200E0002070BD65300000C9300000DE
:1025C00048010020CD220000F0B5C64600B582B01B
:1025D000040001911700082800D980E0050083005D
:1025E0000133DB0098461800434B98470F231840EF
:1025F000012800D076E0002F00D176E0C0239B00B8
:102600004344009318003C4B9847172802D01C28DD
:1026100000D06DE0394B5B882341DB0718D580265D
:10262000B60046443000344B9847C30606D403072F
:102630001AD4002002B004BC9046F0BD1021300036
:102640002F4B98470122A2402C494B8893434B8043
:10265000F82040014044284B984780B2800286B25F
:10266000B7420FD83E000DE02000264B98470D20C2
:102670004042DFE72000234B984707204042D9E73C
:10268000BE4213D92000204B9847070000981A4BF0
:102690009847172801D01C28ECD1184B1B882B41D8
:1026A000DB07EDD5BE42EBD90020C3E7320001992C
:1026B0002000164B984745460135FF35202128005C
:1026C0000F4B984728000C4B98470028FAD101225D
:1026D000A2400A494B8813434B803000AAE70120EF
:1026E0004042A7E705204042A4E70E204042A1E770
:1026F000072040429EE7C0466530000048010020A8
:10270000C9300000CD22000021320000F932000063
:10271000F0B5C64600B582B00090019114000828BB
:1027200064D8060087000137FF003800344B984713
:102730000F23184001285CD1002C5DD0F0235B01F1
:10274000F8182F4B984780B2800283B298469C427B
:102750000FD8A0460DE000982A4B9847072040422A
:1027600040E00098274B9847072040423AE0002C71
:1027700024D1009D2800244B98470400C0239B00CF
:10278000F8181F4B984717280FD01C28E9D1002CA8
:1027900014D128001D4B98470500F8235B01F81859
:1027A000174B984780028542D5D0194B1B8833417F
:1027B000DB07DCD5002CDAD1002013E0A04500D8DF
:1027C0004446220001990098124B98470137FF3781
:1027D00040213800104B98473800094B9847002893
:1027E000FAD1200002B004BC9046F0BD0120404266
:1027F000F8E705204042F5E70E204042F2E7C046E8
:1028000065300000CD2200008D3200002132000032
:102810004801002071330000C9300000F0B5DE46E9
:1028200000B584B00190039193461C000AAB1F8849
:10283000082800D994E0050083000133DE00300051
:10284000524B98470F230340023BDBB2022B00D9C7
:1028500089E05B46002B00D188E023781B02627878
:102860009B181B02A2789B181B02E2789B18002B76
:1028700033D0002F04D13000444B9847430778D51C
:10288000C0239B009C46B4446346029360463F4B82
:102890009847422803D0222801D032286CD1042244
:1028A0002100C0231B01F018394B9847390A8023B7
:1028B0005B01F018374CA047F9B288235B01F01890
:1028C000A047F8235B01F018304B984780B2800294
:1028D00087B2BB450BD85F4609E030002B4B9847C9
:1028E0004307C6D40C2040424BE0A74211D90198BF
:1028F000294B984704000298244B984700283ED063
:10290000264B1B882B41DB07EFD5A742EDD90020D2
:1029100037E03A0003990198214B9847741CFF3423
:10292000202120001B4B98472000184B9847002877
:10293000FAD180239B00F4182000144B9847C3065B
:1029400008D40307F5D508212000124B98470D2025
:10295000404216E0102120000E4B9847380010E04E
:10296000012040420DE0052040420AE00E20404296
:1029700007E00B20404204E00720404201E0042031
:10298000404204B004BC9346F0BDC0466530000030
:10299000A9310000C93000002132000048010020A8
:1029A000F9320000F0B5DE46474680B585B0050037
:1029B000009190460193082800D92AE1070083007E
:1029C0000133DE003000994B984783460F230340C4
:1029D000023BDBB2022B00D91EE14346002B00D1A3
:1029E0001DE16A00924B9B189B88002B16D0002497
:1029F00007235A461340032B00D1C7E0042B00D114
:102A000087E0022B1FD0210028008A4B98476A00DC
:102A1000874B9B189C8028E0002CE9D12800864B2E
:102A200098470400C0239B00F018804B984700286B
:102A300000D1F7E07E4B1B883B41DB07ECD5002C37
:102A4000EAD100202DE06A00794B9B189B88002B6F
:102A50002CD06A00764B9B189C88A04500D2444637
:102A6000220000992800754B98470136FF36402117
:102A70003000734B984730006C4B98470028FAD1D0
:102A80006B006B4AD21893881B1B9BB29380002B60
:102A900000D1B9E0664B5D192B7D012213432B75E4
:102AA000200005B00CBC90469B46F0BD082202A950
:102AB0002800624B9847741CFF3440212000604B73
:102AC00098472000594B98470028FAD102AB1B7851
:102AD000019A137002AB5B78537002AB9B789370D2
:102AE00002ABDB78D37002AB1B791B0202AA5279CE
:102AF0009B180C9A138002AB9B791B0202AAD27915
:102B00009B184B4A690051188B805219802313750A
:102B10009FE76A00464B9B189B88002B0CD06A00ED
:102B2000434B9B189C88A04500D244462200009944
:102B30002800424B984798E7022202A928003F4B01
:102B40009847741CFF34402120003D4B98472000DB
:102B5000364B98470028FAD102AB1B781B0202AA19
:102B600052789B189BB2023B9BB26900304A5218C4
:102B70009380344A934204D82D4B5B1980221A75F6
:102B8000CDE72800304B984730488AE76A00284B49
:102B90009B189B88002B0CD06A00254B9B189C88A7
:102BA000A04500D24446220000992800234B9847B4
:102BB0005BE7062202A92800204B9847741CFF34CB
:102BC000402120001E4B98472000184B98470028B2
:102BD000FAD102AB1B78019A137002AB5B78537089
:102BE00002AB9B78937002ABDB78D37002AB1B799E
:102BF0001B0202AA52799B180D4A690051188B805A
:102C0000521980231375C7E7094B5D1900232B75F3
:102C100046E70120404244E70520404241E70E20BC
:102C200040423EE7042040423BE7C046653000009A
:102C300048010020E93300008D32000071330000AC
:102C4000C9300000EA050000CD22000017FCFFFF9C
:102C500010B51400082800D97CE0072900D97CE0D1
:102C60008900444B5B589F461378012B0AD0002BF8
:102C700000D075E0012282403F490B8893430B80CE
:102C800001200EE0012282403B490B8813430B8058
:102C9000012006E0384B1B880341012213402370BA
:102CA000012010BD80000130C000F8235B019C466C
:102CB0006044324B984780B2800220800120F0E7C8
:102CC00080000130C000F0235B019C4660442B4B28
:102CD000984780B2800220800120E2E713781F2B02
:102CE00041D880000130C0008022920094466044A8
:102CF0001F211940224B98470120D2E78000013064
:102D0000C00080239B009C4660441C4B98471F23B7
:102D1000184020700120C4E713781F2B26D88000AC
:102D20000130C000B0229201944660441F21194036
:102D3000134B98470120B4E780000130C000B02356
:102D40009B019C4660440D4B98471F231840207000
:102D50000120A6E701204042A3E70A204042A0E765
:102D60000A2040429DE70A2040429AE70A2040425A
:102D700097E7C046E44A00004801002065300000A3
:102D8000C930000070B51500082800D98CE007296B
:102D900000D98CE089004C4B5B589F468000013085
:102DA000C000B0235B019C4660441178474B9847B4
:102DB000012070BD80000130C000A8235B019C464B
:102DC00060441178414B98470120F2E784000134B8
:102DD000E40090235B01E0181188090A3B4EB047DC
:102DE00098235B01E0182978B0470120E1E78000D3
:102DF0000130C000C0231B019C466044042229000E
:102E0000334B98470120D4E784000134E400802349
:102E10005B01E0181188090A2C4EB04788235B013A
:102E2000E0182978B0470120C3E784000134E400AA
:102E30002000284B98470F23184001283AD1BC2383
:102E40009B01E018234B9847002836D1651CFF35BD
:102E5000222128001D4B984728001E4B9847002828
:102E60000ED080239B00E61830001A4B98470307CA
:102E7000F2D508213000154B98470D20404298E7C5
:102E8000013096E784000134E4002000114B98479C
:102E90000F231840012813D1BC239B01E018297887
:102EA0000A4B9847012084E70120404281E70A202D
:102EB00040427EE7052040427BE70220404278E71F
:102EC0000520404275E7C046044B0000C9300000B1
:102ED000A931000065300000F8B50400150008288D
:102EE00000D9A6E00C2900D9A6E08900574B5B5811
:102EF0009F4680000130C000554B98470F239843F0
:102F000028700120F8BD80000130C000B0235B01B3
:102F10009C4660444E4B984728700120F2E78000A1
:102F20000130C000A8235B019C466044484B984791
:102F300028700120E6E784000134E40090235B015F
:102F4000E018434FB84786B23602B6B298235B0109
:102F5000E018B84780B236182E800120D2E78000F2
:102F60000130C000C0231B019C466044042229009C
:102F7000384B98470120C5E784000134E4008023E2
:102F80005B01E018324FB84786B23602B6B28823EA
:102F90005B01E018B84780B236182E800120B1E7F7
:102FA00084000134E4002000294B98470F23184087
:102FB000012844D1BC239B01E018254B9847288069
:102FC00001209FE7244B9847288001209AE7234B54
:102FD00098472880012095E780000130C000C02379
:102FE0009B009C4660441A4B98472870012089E753
:102FF00080000130C000164B9847C30706D4640018
:10300000174B1C19A3882B8001207BE72000134B52
:1030100098472880012075E780000130C0000C4BE4
:10302000984701280ED00E480419237D2B700120EB
:1030300068E70120404265E70220404262E7052040
:1030400040425FE7052040425CE7C046244B000059
:103050006530000029310000213200008D3200006F
:103060004801002030B583B00400164DEB68984746
:103070006B6998476B6A002B16D0124B9B6A002B2A
:1030800012D0220C01A80270220A4270847003211F
:1030900098470C4CE36998470500A3699847236952
:1030A0009847280003B030BD064D200CC0B22B6AF3
:1030B0009847200AC0B22B6A98472B6AE0B298471B
:1030C000E7E7C0462C00002070B582B004000E0077
:1030D000144DEB6898476B69984704200443AB6A2A
:1030E000002B0FD0220C01A80270220A42708470BB
:1030F000C670042198470B4CA369984723699847E9
:1031000002B070BD074D200CC0B22B6A9847200A50
:10311000C0B22B6A9847E0B22B6A98472B6A3000FE
:103120009847E8E72C000020F0B583B004000F00BA
:1031300016001C4DEB6898476B6998476B6A002B2B
:1031400017D0184B9B6A002B13D0220C01A80270D9
:10315000220A4270847003219847124B5B6A310047
:10316000380098470F4CA36998472369984703B0E4
:10317000F0BD0C4D200CC0B22B6A9847200AC0B29B
:103180002B6A98472B6AE0B29847002406E03D1965
:10319000044BDB69984728700134A4B2B442F6D3DB
:1031A000E0E7C0462C000020F0B583B004000F001B
:1031B00016001A4DEB6898476B6998470420044342
:1031C000AB6A002B13D0220C01A80270220A4270B5
:1031D000847003219847114B9B6A3100380098474F
:1031E0000E4CA36998472369984703B0F0BD0B4D77
:1031F000200CC0B22B6A9847200AC0B22B6A9847AD
:103200002B6AE0B29847002405E0044B1B6A385D46
:1032100098470134A4B2B442F7D3E1E72C00002070
:10322000F8B5CE46474680B58046002601E0A64266
:1032300024D043469D000135ED0080239B01994633
:10324000A9444846104FB84784B22402A4B284234C
:103250009B019C4665442800B84780B22418A4B25C
:10326000002CE4D04846084FB84780B2000286B22E
:103270002800B84780B23618B6B2D8E730000CBC88
:1032800090469946F8BDC04665300000F8B5CE4678
:10329000474680B58046002601E0A64224D043463A
:1032A0009D000135ED0098239B019946A9444846AD
:1032B000104FB84784B22402A4B29C239B019C46C1
:1032C00065442800B84780B22418A4B2002CE4D08A
:1032D0004846084FB84780B2000286B22800B84777
:1032E00080B23618B6B2D8E730000CBC904699468A
:1032F000F8BDC04665300000F0B5D64600B582B0D6
:103300000091141E03D102B004BC9246F0BD8600A9
:10331000751CED0090239B019C46AC4463460193D1
:103320006046104A9246904780B2000287B29422CB
:103330009201944665442800D04780B2381887B27D
:103340003B02B01CC000181822000099064B984799
:10335000E419A4B2210A0198044EB047E1B2280052
:10336000B047D0E765300000A9310000C930000047
:10337000F0B5D64600B582B00091141E03D102B05C
:1033800004BC9246F0BD8600751CED00A0239B0195
:103390009C46AC44634601936046104A924690476F
:1033A00080B2000287B2A4229201944665442800AC
:1033B000D04780B2381887B23B02F01CC000181802
:1033C00022000099064B9847E419A4B2210A0198FB
:1033D000044EB047E1B22800B047D0E765300000A6
:1033E00029310000C9300000F0B583B00C0087001F
:1033F0000137FF00A0239B019C46BC446346019318
:1034000060460C4EB04780B2000285B2A422920101
:10341000944667443800B04780B22D18ADB22C19DD
:10342000A4B2210A0198044DA847E1B23800A84788
:1034300003B0F0BD65300000C93000007047704730
:10344000704770470078C0B2704701707047002025
:103450007047704770477047002805D0002903D097
:10346000044B586199617047024B034A5A61034A01
:103470009A61F8E72C00002041340000433400003A
:10348000084B1B889B05FBD5002805D0002903D0DD
:10349000044BD86119627047024B034ADA61034A50
:1034A0001A62F8E72C0000204F340000533400006B
:1034B000084B1B889B05FBD5002805D0002903D0AD
:1034C000044B586299627047024B034A5A62034A9E
:1034D0009A62F8E72C0000205534000057340000B1
:1034E000F0B587B0062201A990200001174CA04733
:1034F00080277F00042205A93800A047A026F600F7
:10350000042204A93000A047F0252D01042203A9BC
:103510002800A047802100200D4B984700200D4B2C
:103520009847062201A9902000010B4CA0470422D5
:1035300005A93800A047042204A93000A0470422AE
:1035400003A92800A04707B0F0BDC04629310000FC
:10355000C930000065300000A931000070B50600D8
:103560000D00244B9847002E1BD000220023072B70
:1035700007DCF15C8A1852B2102A34DC01335BB2EA
:10358000F5E700240BE0A0000130C000F8235B0148
:103590009C466044315D184B9847013464B2072C57
:1035A000F1DD002D0BD000220023072B09DCE95CA4
:1035B0008A1852B2102A19DC01335BB2F5E70020F9
:1035C00010E000240BE0A0000130C000F0235B01FC
:1035D0009C466044295D084B9847013464B2072C2F
:1035E000F1DD002070BD01204042FBE70120404298
:1035F000F8E7C046E1340000C930000070B5C1B240
:10360000050A0F239943A82040010C4B984700243A
:1036100001E00134E4B2072C0ED82B002341DB0774
:10362000F7D5A0000130C00080239B009C46604479
:103630001F21024B9847ECE770BDC046C93000001F
:1036400070B5A8204001074DA8470F239843C4B286
:10365000B8204001A84780B2000280B2201880B292
:1036600070BDC0466530000070B5C1B2040AB0201C
:103670004001034DA8472100C0204001A84770BD6C
:10368000C930000070B5B0204001064DA8470400C5
:10369000C0204001A84780B2000280B2A4B2001945
:1036A00080B270BD6530000010B5B8208001044BB9
:1036B0009847C30701D5012010BD0020FCE7C04694
:1036C0006530000010B5B8208001054B98473823BD
:1036D0001840302801D0002010BD2F38FCE7C0462C
:1036E0006530000070B5B824A4012000074EB04733
:1036F0007F2101402000064DA8472000B0478021CF
:1037000049420143C9B22000A84770BD653000009E
:10371000C930000010B50378012B10D00021437888
:10372000012B0ED0C378012B0FD08378012B17D03B
:10373000B82080010C4B98470C4B984710BD402196
:10374000EDE738231943C9B2F2E78378012B03D0A0
:1037500008231943C9B2EBE718231943C9B2E7E7B5
:1037600010231943C9B2E3E7C9300000E536000071
:1037700010B50400B8208001134B9847820901233B
:103780001340237038231840202804D0382802D052
:103790000023637001E001236370182806D02028FD
:1037A00004D0102802D00023A37001E00123A370ED
:1037B000182806D0202804D0082802D00023E3705F
:1037C00010BD0123E370FBE76530000070B5040015
:1037D000B8208001174B9847430627D538239843D4
:1037E000C0B2012C13D038210143C9B2B825AD01B4
:1037F0002800114B9847114B984728000D4B9847CC
:10380000012C08D0382303420DD0002070BD302198
:103810000143C9B2EAE73023034201D00020F5E7B3
:1038200001204042F2E701204042EFE70120404200
:10383000ECE7C04665300000C9300000E536000006
:1038400070B582B00C000023009301930F2803D8B9
:1038500080003F4B1B589F460120404270E03D4B8B
:10386000984700206CE0002902D0009108340194B0
:1038700001990098384B984762E00888374B984781
:1038800000205DE0364B98472080002058E00888F3
:10389000344B9847002053E0334B9847208000205A
:1038A0004EE00988090A98204001304DA847217848
:1038B000A0204001A847002042E0982040012C4E63
:1038C000B04780B2000285B2A0204001B04780B26C
:1038D0002D182580002033E0264B9A780A70DA787C
:1038E0004A701A798A705A79CA709A790A71DB79A2
:1038F0004B7100238B71002022E01F4B9847002062
:103900001EE008001D4B9847002019E008001C4BE2
:103910009847002014E008781A4B984710E01A4B9B
:103920009847C0B2FF280DD02070002008E0174B48
:103930009847C0B2FF2808D02070002000E0002087
:1039400002B070BD01204042FAE701204042F7E793
:10395000584B0000E13400005D350000FD350000EB
:10396000413600006936000085360000C93000008D
:10397000653000002C000020E536000015370000FF
:1039800071370000CD370000C5360000A9360000B1
:1039900070B5040006220100902000010F4DA847D9
:1039A00021000E31042280204000A84721000A3166
:1039B0000422A020C000A847A11D0422F02000017D
:1039C000A847A27C064B1A70E27C5A70227D9A703E
:1039D000627DDA70A27D1A7170BDC046A931000007
:1039E0006401002070B5040006220100902000014F
:1039F0000F4DA84721000E31042280204000A84727
:103A000021000A310422A020C000A847A11D0422E1
:103A1000F0200001A847074B1A78A2745A78E27484
:103A20009A782275DA7862751B79A37570BDC046E5
:103A3000293100006401002010B504003A2302007F
:103A40009A4309D10020064B98470443E1B2002075
:103A5000044B9847002010BD01204042FBE7C046C0
:103A600065300000C930000010B50020014B9847B8
:103A700010BDC0466530000070B505000178D82043
:103A80004001064CA0476988090AC8204001A047A8
:103A9000A978D0204001A04770BDC046C9300000C1
:103AA00070B50500D8204001074EB0472870C820E7
:103AB0004001B04780B2000284B2D0204001B0473C
:103AC00080B224186C8070BD6530000010B50C0009
:103AD000052820D88000114B1B589F460800104B2A
:103AE0009847002010BD08000E4B98470020F9E7CA
:103AF00008780D4B9847F5E70C4B9847207000204D
:103B0000F0E708000A4B98470020EBE70800094B54
:103B100098470020E6E701204042E3E7984B000089
:103B200091390000E5390000393A0000693A000097
:103B3000793A0000A13A0000F0B5DE4657464E46FD
:103B40004546E0B58BB0A94B9847A949A948AA4B6F
:103B50009847AA49AA48AB4B9847AB49AB48AC4BEE
:103B60009847AC4B98476420AB4B9847AB4C21002F
:103B70002000AB4B984708342000AA4B98472100FF
:103B80000020A94B9847C023DB058022D2039A610D
:103B9000802252009A610132FF329A61FF21B020E7
:103BA0004001A24CA047FF21C0204001A0470021B6
:103BB00098204001A0470121A0204001A0470024F7
:103BC000072C0CD8A0000130C000B0239B019C46FC
:103BD00060440421954B98470134E4B2F0E709A80A
:103BE000934B9847C023DB0580229C582032914993
:103BF0008A5890215B5853401C40544009A88E4B72
:103C00009847E30520D48022D203C023DB059A61C4
:103C1000824BD87F80000130C000C0239B009C46AF
:103C20006044864B9847002814D07C4BD87F800096
:103C30000130C00080239B009C4660447F4B984726
:103C4000C30612D10327AAE08022D203C023DB05DA
:103C50005A61DDE7714C228CE07F80230221784D90
:103C6000A847E07F774B9847DFE76C4BD87F764BD0
:103C70009847041EE6D0754B984200D99CB2734E0B
:103C80008022120100213000714B9847634DE87F7C
:103C9000162302AA94466344009308AB2200310025
:103CA0006C4FB8476A8C6C4B9946187801230221F7
:103CB000634FB8474B4618786B8C009308AB2200D3
:103CC0003100664CA047E87F80000130C0008023AF
:103CD0009B009C4660441F21544B9847B2E708AABA
:103CE000042138005E4B98473800574B984781466F
:103CF00080231B01984200D9994604220021534891
:103D0000534B9847544E331D1E004422554918000A
:103D1000554B98473000554B9B46984782B231002F
:103D20003800534B9A4698474A4648493800514B09
:103D300098474B460293192301930E3B009301339E
:103D40002A004D49059630004C4EB146B047059EBD
:103D50003000D84782B231003800D04708A90A782D
:103D60004B788878C9780191009045493000C84760
:103D70003000D84782B231003800D047414933483B
:103D8000414B98473800414B98473800404B984783
:103D900015E038003D4B984716E00137FFB2072F7A
:103DA00000D91CE73D00BC000134E400C0239B00A7
:103DB0009C4664442000214B984717288FD0200050
:103DC0001E4B98471C28E4D020001C4B9847002825
:103DD000E3D16D00114B5D19AA8C0023012138003D
:103DE000174CA0473800174B9847D6E771220000C0
:103DF000A51E0000951E000059340000151F00008C
:103E0000ED1E000081340000D11E0000B51E000030
:103E1000B1340000E5360000990100005800002090
:103E20005D35000091390000CD3A0000C930000036
:103E30007D010000004400418B010000653000005E
:103E400045230000B92400008D3200003403002017
:103E50005B400000A52900006C0100201D28000027
:103E6000D92E0000B04B000049400000B1400000D6
:103E7000C925000011270000F44B00006D40000030
:103E8000304C0000544C0000C140000035250000BB
:103E9000CD220000002243088B4274D303098B42D9
:103EA0005FD3030A8B4244D3030B8B4228D3030C0A
:103EB0008B420DD3FF22090212BA030C8B4202D3AC
:103EC0001212090265D0030B8B4219D300E0090AD4
:103ED000C30B8B4201D3CB03C01A5241830B8B42DD
:103EE00001D38B03C01A5241430B8B4201D34B03C6
:103EF000C01A5241030B8B4201D30B03C01A52412B
:103F0000C30A8B4201D3CB02C01A5241830A8B42AF
:103F100001D38B02C01A5241430A8B4201D34B0298
:103F2000C01A5241030A8B4201D30B02C01A5241FC
:103F3000CDD2C3098B4201D3CB01C01A52418309B0
:103F40008B4201D38B01C01A524143098B4201D3EA
:103F50004B01C01A524103098B4201D30B01C01A15
:103F60005241C3088B4201D3CB00C01A524183088F
:103F70008B4201D38B00C01A524143088B4201D3BC
:103F80004B00C01A5241411A00D20146524110461C
:103F90007047FFE701B5002000F006F802BDC046FB
:103FA0000029F7D076E770477047C04610B5002368
:103FB000002802D000F004F8431C180010BDC046D1
:103FC000414208401C2101231B04984201D3000CEC
:103FD00010391B0A984201D3000A08391B0998427C
:103FE00001D30009043902A2105C401A7047C04690
:103FF0001B1C1D1D1E1E1E1E1F1F1F1F1F1F1F1FE0
:1040000070B500260C4D0D4C641BA410A64209D1BE
:10401000002600F06BFE0A4D0A4C641BA410A64259
:1040200005D170BDB300EB5898470136EEE7B300F9
:10403000EB5898470136F2E7F84C0000F84C0000C6
:10404000F84C0000FC4C0000002310B59A4200D14F
:1040500010BDCC5CC4540133F8E7030082189342CE
:1040600000D1704719700133F9E700000EB410B5A4
:104070009DB002A9029008610B48822488604861C3
:10408000012040421FABC881084804CBA40000684F
:1040900001938C8100F07EF90023029A13701DB009
:1040A00010BC08BC03B01847FFFFFF7F940000203E
:1040B0000023C25C0133002AFBD1581E7047000068
:1040C000F8B5124B06001D680F00AC6D002C16D120
:1040D000502000F04BF8A865046044608460C46020
:1040E0000461446184618462C462046344638463E0
:1040F000C463046444648464C46404774462AA6D41
:1041000039003000012300F003F8F8BD94000020CE
:10411000F0B5002804D11068002801D1F0BD2000BE
:104120000E000578441C3778002F04D1002D10D1E3
:1041300015602800F2E70136BD42F4D1002BEED124
:1041400014600370EAE733000EE001351C00002F15
:1041500002D10D002678631C2F78BE42F5D1002EC7
:10416000F1D00024591E0C701360D7E710B5034B33
:104170000100186800F04EF810BDC0469400002001
:1041800070B50500002910D00C1F2368002B00DA41
:10419000E418280000F0B9FB1D4A1368002B05D174
:1041A00063601460280000F0B1FB70BDA34209D920
:1041B000216860188342F3D118685B684118216058
:1041C000EEE713005A68002A01D0A242F9D9196813
:1041D0005818A0420BD1206809185818196082425B
:1041E000E0D110685268411819605A60DAE7A042BD
:1041F00002D90C232B60D5E721686018824203D1D5
:10420000106852684118216062605C60CAE7C0466D
:10421000F0010020032370B5CD1C9D430835060036
:104220000C2D1ED20C25A9421DD8300000F06DFBCC
:10423000254A14682100002919D1244C2368002B39
:1042400003D1300000F032FB20602900300000F084
:104250002DFB431C2CD10C233000336000F056FBA7
:1042600003E0002DDFDA0C233360002070BD0B6803
:104270005B1B1AD40B2B03D90B60CC18256003E011
:104280008C420ED163681360300000F03FFB2000C9
:1042900007220B30231D9043C31AE7D05A42E25045
:1042A000E4E74B6863600C00EEE70C004968C2E786
:1042B0000323C41C9C43A042E0D0211A300000F02C
:1042C000F5FA431CDAD1C6E7F0010020F401002022
:1042D000F0B58E6885B007000C00039201939E42F2
:1042E00039D890238A89DB001A4234D00325096922
:1042F00023685B1A0293636902985D43EB0F5D19B3
:10430000019B6D1001331B18AB4200D91D005305F2
:1043100032D529003800FFF77DFF061E09D10C2396
:104320003B6040230120A28940421343A38105B092
:10433000F0BD029A2169FFF787FEA389144A1A404B
:1043400080231343A381029B2661F61826606561D2
:10435000019EED1AA560019BB34200D21E003200FF
:104360000399206800F0BFFAA36800209B1BA3609C
:1043700023689E192660DAE72A00380000F0C7FAA1
:10438000061EE0D121693800FFF7FAFEC7E7C046F4
:104390007FFBFFFFF0B59FB0029005938B890F0064
:1043A00016001B0611D50B69002B0ED14021FFF71B
:1043B00031FF38603861002805D10C23029A01389A
:1043C00013601FB0F0BD40237B61002306AD6B611D
:1043D00020336B761033AB7634002378002B47D133
:1043E000A31B04930DD0A31B320039000298FFF7E2
:1043F0006FFF431C00D1B5E06A69049B9446634497
:104400006B612378002B00D1ACE0012200235242E3
:104410006A6002A95432521801342B60EB60AB6021
:104420001370AB65584E05222178300000F050FA29
:10443000621C002820D12968CB0604D5532302AE84
:1044400020309B1918700B0704D553232B2002AE84
:104450009B19187023782A2B16D000200A21099B5B
:104460002278303A092A55D9002815D0099313E04B
:10447000252BB5D00134B0E70123801B8340296888
:1044800014000B432B60CDE7059B181D1B6805909E
:10449000002B39DB0993140023782E2B0BD1637882
:1044A000621C2A2B3ED1059B02341A1D1B68059203
:1044B000002B34DB0793354E21780322300000F0C7
:1044C00007FA002806D04023801B83402A68013465
:1044D00013432B60217806222D48661C297600F0B4
:1044E000F7F9002846D02B4B002B2FD12968059BCC
:1044F0000722C90528D59B189343083305936B6998
:10450000039A9B186B6167E75B42EB6002230B43E6
:104510002B60C0E74B4301349B180120A0E7012327
:104520005B42C7E7002314000A201A006B60217861
:104530003039092903D9002BBDD00792BBE742438C
:10454000013452180123F2E70733D5E705AB009396
:104550003A00114B2900029800E000BF0390039B32
:104560000133CCD1BB890B985B0600D429E701202D
:10457000404226E705AB00933A00074B290002981A
:1045800000F07AF8EAE7C046B84C0000BE4C0000E4
:10459000C24C000000000000D1420000F7B5150039
:1045A00001938A680B6900900C00934200DA1300B3
:1045B00022002B6043321278002A01D001332B6095
:1045C00023689B0602D52B6802332B6006272368DD
:1045D0001F4027D0230043331B785A1E9341226883
:1045E000920630D42200019943320098089EB047C9
:1045F000431C25D0062320682A68E1680340002573
:10460000042B03D18D1AEB43DB171D40A3682269ED
:10461000934201DD9B1AED180027BD4220D10020F6
:1046200010E00137E3682A689B1A9F42D2DA220021
:104630000123193201990098089EB047431CF0D11C
:1046400001204042FEBD3020E118433108702100B6
:104650005A1C45310978A218433202331170C1E760
:10466000220001231A3201990098089EB047431C8A
:10467000E6D00137D1E70000F0B58BB006920A0012
:1046800043320793059004920A7E0C00109B6E2A19
:1046900000D18FE017D8632A2CD008D8002A00D187
:1046A00099E0582A54D026004236327029E0642A14
:1046B00001D0692AF7D121681A68080623D5111D8F
:1046C0001960156825E0732A00D188E008D86F2AA0
:1046D00029D0702AE7D1202209680A43226003E02A
:1046E000752A20D0782ADED1220078214532117037
:1046F0006C4A30E00E001A684236111D19601368CA
:104700003370012379E04906D9D5111D19600023C2
:10471000D55E002D03DA2D23049A6D421370624B8F
:104720000A2703932FE020681968050603D5081DA2
:1047300018600D6805E04006F9D50D68081D186081
:10474000ADB2594B082703936F2A18D00A2716E0F9
:1047500045310A70544A03921A682168101D186086
:104760001568080622D5CB0702D5202319432160FE
:104770001027002D03D1202322689A4322602300B2
:10478000002243331A706368A360002B5CDB0422B1
:10479000216891432160002D58D1049E002B64D0E4
:1047A0002600039B42361B7833705EE04806DAD55C
:1047B000ADB2D8E709681A68080605D5111D196059
:1047C000136862691A6006E04906F7D5111D196081
:1047D0001368A28A1A800023049E236154E01A6899
:1047E000111D1960166800216268300000F070F831
:1047F000002801D0801B6060636823610023049A55
:10480000137041E02369320006990598079DA84777
:10481000431C43D0236800259B070FD4099BE06805
:1048200098423DDA18003BE0220001231932069934
:104830000598079EB047431C30D00135E368099ABC
:104840009B1A9D42F0DBE9E7002DA9D0049E2800C9
:104850003900FFF7A5FB039B013E5B5C280033702A
:104860003900FFF717FB051EF1D1082F09D1236886
:10487000DB0706D563682269934202DC3023013EE0
:104880003370049B9B1B2361079B09AA00932100A3
:10489000069B0598FFF782FE431CB3D101204042DE
:1048A0000BB0F0BDDA4C0000C94C0000002370B51D
:1048B000064C050008002360FCF7C8F8431C03D130
:1048C0002368002B00D02B6070BDC046340B002045
:1048D000C9B28218904201D10020704703788B4200
:1048E000FBD00130F6E710B5884202D98B18984208
:1048F00008D300239A4207D0CC5CC4540133F9E7B3
:104900008B5C8354013AFBD210BD70477047F8B5F9
:1049100007000D001600002905D11100FFF77AFCF1
:1049200004002000F8BD002A03D1FFF729FC340061
:10493000F7E700F012F82C008642F2D93100380077
:10494000FFF768FC041EECD029003200FFF77CFB67
:1049500029003800FFF714FCE3E70B1F1B68181F42
:10496000002B01DA0B58C018704700002E2E2F685C
:10497000616C2F7372632F68616C5F6932635F6D66
:104980005F73796E632E63002E2E2F68616C2F7318
:1049900072632F68616C5F696F2E63002E2E2F6823
:1049A000616C2F7372632F68616C5F70776D2E631B
:1049B000000000002E2E2F68616C2F7372632F6829
:1049C000616C5F7370695F6D5F73796E632E6300F6
:1049D0002E2E2F68616C2F7372632F68616C5F7469
:1049E000696D65722E6300002E2E2F68616C2F7327
:1049F00072632F68616C5F75736172745F73796E37
:104A0000632E63002E2E2F68616C2F7574696C7392
:104A10002F7372632F7574696C735F6C6973742E76
:104A20006300000008000000280000002E2E2F6800
:104A3000706C2F6569632F68706C5F6569632E63A6
:104A4000000000002E2E2F68706C2F7274632F6888
:104A5000706C5F7274632E6300000000040000003D
:104A600004000140000003002EFF000002000000CF
:104A70001400200000010000EA000000D700000040
:104A8000006CDC02000000000000000000000000DC
:104A9000000000000C0020000000020000000000E8
:104AA000FE0000000C0020000000020000000000DA
:104AB000FE0000032E2E2F68706C2F736572636FDB
:104AC0006D2F68706C5F736572636F6D2E6300008D
:104AD0002E2E2F68706C2F74632F68706C5F746358
:104AE0002E630000682C0000942C0000A42C000011
:104AF000C02C0000DC2C0000FC2C0000182D000055
:104B0000382D0000AE2E00009C2D0000B42D0000BA
:104B1000CC2D0000EE2D0000082E00002A2E0000F3
:104B2000842E0000F22E0000062F00001E2F000031
:104B3000362F00005E2F0000782F00003830000074
:104B4000A02F0000C42F0000CE2F0000D82F00009F
:104B5000F02F0000183000005E38000066380000BA
:104B6000843800007A3800008E3800009838000041
:104B7000A2380000BA380000D8380000FA38000027
:104B8000023900000C3900003E39000016390000DF
:104B90001E3900002E390000DC3A0000E63A000021
:104BA000F03A0000F83A0000023B00000C3B000025
:104BB0003C703E3C7370616E207374796C653D226D
:104BC000636F6C6F723A20233030666630303B2260
:104BD0003E3C7374726F6E673E646174613C2F7308
:104BE00074726F6E673E3C2F7370616E3E3C2F7027
:104BF0003E0A0D00534F434B4554204E554D3A202D
:104C000025643B3C62723E5254433A202530326464
:104C10003A253032643A253032643B200A526561CD
:104C2000642062797465733A2025643C62723E00A8
:104C300049503A25642E25642E25642E25643C6255
:104C4000723E000057697A6E657420536179732053
:104C50004869210A0D00000000000000000000006B
:104C60000000000000000000000000000000000044
:104C70000000000000000000000000000000000034
:104C80000000000000000000000000000000000024
:104C90000000000000000000000000000000000014
:104CA0000000000000000000000000000000000004
:104CB0000000000000000000232D302B2000686C55
:104CC0004C0065666745464700303132333435362F
:104CD0003738394142434445460030313233343568
:104CE000363738396162636465660000F8B5C046DE
:104CF000F8BC08BC9E467047CD000000F8B5C04621
:0C4D0000F8BC08BC9E467047A5000000EF
:104D0C000600600300000000320000006F17000076
:104D1C00B70B000007006003000000003200000029
:104D2C006F170000B70B000000C0000001025735E0
:104D3C0035303000000000003D3400003F340000EE
:104D4C004134000043340000453400004B34000073
:104D5C000000000000000000020202020202020237
:104D6C0020CFF0827600C0A80163FFFFFF00C0A82F
:104D7C000101080808080101B90BB80B5000170015
:104D8C0017005000901F901F901F8813C0A801FFA0
:104D9C00444C00009800002000000000784C0000FB
:104DAC00984C0000584C000000000000000000006F
:104DBC0000000000000000000000000000000000E7
:104DCC0000000000000000000000000000000000D7
:104DDC0000000000000000000000000000000000C7
:104DEC0000000000000000000000000000000000B7
:084DFC000000000000000000AF
:00000001FF
