:10000000D8370020090100000501000005010000AB
:1000100000000000000000000000000000000000E0
:1000200000000000000000000000000005010000CA
:1000300000000000000000000501000005010000B4
:10004000050100000501000005010000D90E0000B7
:10005000CD0C0000050100000501000005010000B5
:100060000501000005010000050100000501000078
:100070000501000005010000050100000501000068
:10008000050100000501000005010000F11A000053
:10009000011B000005010000050100000501000032
:1000A0000501000010B5064C2378002B07D1054B45
:1000B000002B02D0044800E000BF0123237010BDD4
:1000C000300A00200000000030280100084B10B565
:1000D000002B03D00749084800E000BF0748036829
:1000E000002B00D110BD064B002BFBD09847F9E741
:1000F00000000000340A00203028010030280100F0
:1001000000000000FEE7000010B5124A124B9A42B0
:1001100009D0114B0F4A03E011681960043304320F
:100120000E498B42F8D30E4B02E000221A600433D2
:100130000C4A9342F9D30C4AFF210C4B8B4393603A
:100140000B4A516880230B43536007F003FD04F012
:1001500035FFFEE73028010000000020300A0020B3
:10016000300A0020D417002000ED00E0000000005D
:1001700000400041EFF31083036072B6BFF35F8F5E
:100180007047BFF35F8F036883F3108870470000E8
:1001900010B5044B1C6800F0FDFC0100200000F0CD
:1001A0000DFD10BD4C0A002010B5044B1C6800F07A
:1001B000FAFC0100200000F001FD10BD4C0A0020F7
:1001C00070B50125002407E00D4AB358002B00D07C
:1001D000984770BD013AD5B2AC42FAD82B195B10E2
:1001E000DAB2002AF5D1FF210B40DE00044989195B
:1001F00049688142E8D0EDD20132D4B2ECE7C04682
:10020000500A002010B50023002B03D0074800F04F
:10021000EFFC10BD064AD900501801246442446026
:100220000020885001339BB2EEE7C046C1010000B8
:10023000500A0020F0B5C64600B584B001900023F6
:10024000002B10D00023984600291BD04346002BDA
:1002500046D1002B24D1DA002A4C1259002A18D09A
:100260000133DBB2F5E7DC00264A12195268019827
:10027000824202D00133DBB2E2E7224BE15001239C
:100280009846E1E74346002B35D0019800F0F8FC92
:100290002DE0DD0029516519019A6A60012290461E
:1002A000002201E00132D2B21900114318D11549E0
:1002B000DC000C196768D400091949688F42F1D233
:1002C0004C1CEFD002A98C460E4FD1007918644621
:1002D00041C941C4DD007D19614611C911C5E1E77D
:1002E0004346002B0AD00121019800F0C9FC04B05C
:1002F00004BC9046F0BD0D204042F8E70D2040427E
:10030000F5E7C046500A002010B584B01438848B3D
:1003100001AB1C8014000292064A5A800391190016
:1003200001F0F8F8002802D1200004B010BD04004C
:10033000FAE7C0460080FFFF10B584B01438848B04
:1003400001AB1C8014000292064A5A8003911900E6
:1003500001F0E0F8002802D1200004B010BD040034
:10036000FAE7C0460180FFFF70B504000D00431E90
:100370009841C0B25E22074900F054FB29002000DA
:1003800001F03CF8002803D1034BA361034B6361E8
:1003900070BDC04600F500003903000009030000ED
:1003A00010B501F07DF810BD8905890D8023DB00B3
:1003B0001A400A43828310007047143008600020FE
:1003C0007047000070B504000D00160000280ED024
:1003D00000290AD001203422064900F023FB2368BB
:1003E000320029002000984770BD0020F3E700206C
:1003F000F1E7C0461CF5000070B504000D001600C2
:1004000000280ED000290AD001203D22064900F024
:1004100009FB6368320029002000984770BD002066
:10042000F3E70020F1E7C0461CF5000070B50400BA
:100430000D00002817D0002913D0012040220B49BD
:1004400000F0F0FA6560201D290001F06FF9002826
:1004500006DB074BA382074B2361074BE3600020B9
:1004600070BD0020EAE70020E8E7C04630F5000054
:100470000080FFFF11050000DD04000010B504003E
:10048000431E9841C0B25722034900F0CBFA201D09
:1004900001F026FA10BDC04630F5000030B587B037
:1004A00004000D00002815D0002911D00120B3222E
:1004B000094900F0B7FA2B6803936B680493AB68A3
:1004C00001930593201D03A901F022FA07B030BD66
:1004D0000020ECE70020EAE730F5000070B584B0BA
:1004E00004000E001500431E9841C0B2A322074924
:1004F00000F098FA20000C3800230293019603952F
:1005000001A9FFF7CBFF04B070BDC04630F5000075
:1005100070B584B004000E001500431E9841C0B2AF
:100520008722074900F07EFA20000C38029600234B
:100530000193039501A9FFF7B1FF04B070BDC04658
:1005400030F5000070B504000D0000280CD0002923
:1005500008D00120BD22054900F064FA0C342C605B
:10056000002070BD0020F5E70020F3E730F5000023
:10057000F8B50668002E02D0330000250CE000F02C
:1005800061FA18E09F68BC466444A41A01348F687D
:10059000BC420BD21D001B68002B07D05C68944244
:1005A000F0D8A41A9F68BC466444F0E7B34203D075
:1005B000280000F059FAF8BD00F044FAFBE7F8B55E
:1005C0000500446903695E1C0661037EDB0702D4F3
:1005D000037E9B070AD52B7E02221343DBB22B76C8
:1005E000F8BD6F69E368200098473C00002CF7D005
:1005F0006368F31AA2689342F2D32F0014373800CD
:1006000000F036FA237C012BEBD16660320021002A
:100610003800FFF7ADFFE4E770B504000D000028D7
:1006200012D000290ED001203B22084900F0FAF92F
:100630002900200000F0EEFB00232361044B23601F
:10064000002070BD0020EFE70020EDE74CF5000032
:10065000BF05000010B50400431E9841C0B25322EC
:10066000074900F0DFF9200000F02AFC002804D13F
:10067000200000F0FBFB002010BD11204042FBE7F2
:100680004CF5000070B582B004000D00002826D0A3
:10069000002922D001207A221F4900F0C3F9237ECD
:1006A00001221343DBB223762600143629003000E2
:1006B00000F0BCF9002814D123696B60226929007D
:1006C0003000FFF755FF237E012293432376237EDC
:1006D0009B0712D4002002B070BD0020DBE7002091
:1006E000D9E7237E0122934323767E320A490020F4
:1006F00000F098F912204042EDE701A8FFF73AFD1B
:10070000237E022293432376200000F0E2FB01A81F
:10071000FFF737FD0020DEE74CF5000010B5083884
:1007200000230363436A002B00D0984710BD10B527
:10073000083800230363C36A002B00D0984710BD1C
:1007400010B504002C3000F0E5F9236A083C002BBA
:1007500001D02000984710BD70B504000E001500B0
:1007600000281DD000291DD0002A1DD100203C22C8
:10077000FF32104900F056F94423E25A0833E35A95
:100780009A4213D1A6644C23E5520022083BE25260
:10079000433B23632000083000F0F8FD280070BDC3
:1007A0000020E4E70020E2E70120E0E71C204042CF
:1007B000F5E7C04664F5000070B504000200083A91
:1007C0004423D35A4C21525A93420DD00200016C5B
:1007D000083A5D1C44201552C95C200000F0D2FD8F
:1007E000200000F0D3FD70BD00F0D4FDFBE7000059
:1007F000F0B585B004000D001600002817D00029C0
:1008000017D0002A17D10020AC225200124900F064
:1008100009F903A8FFF7AEFC34342000019400F07E
:1008200097F9070003A8FFF7ACFC00240BE00020B9
:10083000EAE70020E8E70120E6E70134A4B26918FE
:10084000019800F043F92100A74201D9B442F4D342
:10085000200005B0F0BDC04664F50000F8B5040006
:100860000D0016001F00002826D0002926D0002ADF
:1008700026D0002B26D100203A22154900F0D2F8CC
:10088000200034303A00310000F0FCF800281BD181
:1008900020000830290000F023FD00280BD10D4B6B
:1008A00063600D4B23600D4BA3600D4BE3600D4B5C
:1008B00023610D4B6361F8BD0020DDE70020DBE71D
:1008C0000020D9E70120D7E70D204042F3E7C046DA
:1008D00064F50000F107000059070000B9070000A7
:1008E000410700001D0700002F07000010B504009D
:1008F000431E9841C0B26122044900F093F82000E1
:10090000083000F027FD002010BDC04664F500004F
:1009100070B504000D0000280BD0002907D001207D
:100920007722054900F07EF82C60002070BD002081
:10093000F6E70020F4E7C04664F5000070B5050056
:100940000E001400431E9841C0B28322164900F0E5
:1009500069F8012E11D0002E04D0022E18D00D20DF
:10096000404209E0AC62621E9441E2B228000830C5
:10097000012100F013FD002070BD6C62621E9441E5
:10098000E2B228000830022100F008FD0020F3E761
:10099000EC62621E9441E2B228000830032100F0AC
:1009A000FDFC0020E8E7C04664F5000070B50400D7
:1009B0000D00431E9841C0B2AA22054900F032F84A
:1009C00020000830290000F0CEFC002070BDC04699
:1009D00064F5000070B504000D00431E9841C0B2DC
:1009E000CB22054900F01EF820000830290000F055
:1009F000BFFC002070BDC04664F5000070B5040067
:100A00000D00431E9841C0B2D622054900F00AF8F5
:100A100020000830290000F0B0FC002070BDC04666
:100A200064F50000002800D100BE70470368002B69
:100A300003D08B4203D01B68F9E7002070470120E8
:100A4000FCE7000070B504000D00FFF7EFFF012385
:100A50005840C0B239220349FFF7E4FF23682B60F6
:100A6000256070BD84F5000003680B60016070476D
:100A70000368002B03D01A6802601800704700203A
:100A8000FCE7000070B504000E001500002812D02D
:100A9000002912D0002A12D1002028220A49FFF78B
:100AA000C1FF6B1E2B420CD163600023A360E36087
:100AB0002660002070BD0020EFE70020EDE7012058
:100AC000EBE70D204042F5E7A4F5000070B5040007
:100AD0000D00002816D0002912D0012040220C4918
:100AE000FFF7A0FFA368E2689A420DD06268134046
:100AF0002268D35C2B70A3680133A360002070BD13
:100B00000020EBE70020E9E70A204042F7E7C04673
:100B1000A4F5000070B504000D00431E9841C0B25A
:100B200051220A49FFF77EFF6368E268134022689A
:100B3000D554E368A2689A1A61688A4201D9591AA1
:100B4000A1600133E360002070BDC046A4F5000041
:100B500010B50400431E9841C0B267220349FFF755
:100B600061FFE068A368C01A10BDC046A4F500008C
:100B70000300064A1268002A04D0044A1068C31809
:100B8000136070470249014A1160F6E7580A0020D5
:100B9000D837002010B503011B1A58011D301E2143
:100BA00004F0AEFD10BD10B503011B1A5801023050
:100BB000032104F0A5FD6423584310BD0139FDD87D
:100BC0007047000010B5094A536806210B43536073
:100BD00000F002F900F00EFF082000F0CFF800F05E
:100BE0002FFFF72000F0CAF810BDC04600400041BA
:100BF000204B5B78DB09FBD11E4B5B78DB09FBD11B
:100C00001C4B1B789B070AD500221A4B1A70194BF4
:100C10005B78DB09FBD1174B5B78DB09FBD1012249
:100C2000144B1A70134B5B78DB09FBD1114B5B78CB
:100C3000DB09FBD10F4B00229A705A605A619A610E
:100C4000DA611A7802210A43D2B21A70094B5B7832
:100C5000DB09FBD1084B102280215A50BFF34F8F84
:100C6000BFF36F8F0131FF315A501A60034B186088
:100C7000002070470018004000E100E05C0A0020FE
:100C80000023002B0BD0FF22FF2A17D000290FD101
:100C9000012393400B4A936013610020704728287A
:100CA00002D00133DBB2ECE7DA00074BD25CEBE7B2
:100CB00001239340034AD3600020EFE70D20404218
:100CC000ECE7C04600180040E0F5000070B582B0C7
:100CD000264B1A69D9680A400192019A1A61244B7D
:100CE0001868431E9841C0B2D2222249FFF79AFEEB
:100CF00001256D422EE00139CEB2B0420ED8321835
:100D00005210D1B2FF231340DB001B4A9B5CA3426D
:100D100003D0F0DA0131C8B2EFE728256B1C03D00D
:100D2000134B1B68280098470122A240019B934364
:100D30000193019804F0A4FE013844B2631C02D070
:100D400001260020D9E7094B1A69D9680A400192A7
:100D5000019A1A61019B002B05D0019804F090FEC6
:100D6000013844B2EAE702B070BDC0460018004046
:100D70005C0A0020C8F50000E0F50000C30709D5B3
:100D8000114B802252009A60104A5A600E4B5B78D9
:100D9000DB09FBD1830709D50B4B0222FF329A6096
:100DA0000B4A5A60084B5B78DB09FBD1030709D576
:100DB000054B0422FF329A60064A5A60024B5B7868
:100DC000DB09FBD17047C046000C00400007010062
:100DD0000106010003030100064B1A7AD2B21A720F
:100DE0005A7AD2B25A729A7AD2B29A72DA7AD2B263
:100DF000DA7270470004004010B50400C3681B7A23
:100E0000DB0706D50368002B00D09847E368012272
:100E10001A7210BD70B504000D00431E9841C0B297
:100E200030221049FFF7FEFDE56001232B80AB7AED
:100E3000DB09FCD1E268937ADB09FCD180331380B3
:100E4000937ADB09FCD1E268936901239361937A79
:100E5000DB09FCD10133E268D371034B1C60002035
:100E600070BDC046E8F50000600A002010B5041E01
:100E700020D0C368002B1BD0012067220E49FFF74A
:100E8000D1FD08220D4B1A60E2681369002313613B
:100E9000937ADB09FCD1E268937ADB09FCD11388F1
:100EA00002210B439BB21380937ADB09FCD110BD66
:100EB0000020E2E70020E0E7E8F5000000E100E0C4
:100EC000C268937ADB09FCD113885B0801201840C3
:100ED000704770470020704710B5024B1868FFF745
:100EE0008BFF10BD600A0020024B9C466044800AC4
:100EF000C0B2704700F8FFBD10B5FFF7F5FF07302F
:100F0000C0B210BD038ADB0B08D103680222134371
:100F10000360038ADB0BFCD10020704704204042B1
:100F2000FBE7000010B5FFF7DFFF030000200028FB
:100F300006D0074A07490020FFF774FD002010BDC6
:100F400002010549525C9342F9D00130C0B2EEE78C
:100F50002A02000000F6000034F6000010B504007C
:100F6000FFF7E0FF238ADB0BFCD1238ADB0BFCD1EC
:100F700023689B0707D500232360238ADB0BFCD162
:100F8000238ADB0BFCD101232360238ADB0BFCD1FA
:100F9000238ADB0BFCD102010B4B9B185B6823609F
:100FA000238ADB0BFCD10201074B9B189B68636013
:100FB000238ADB0BFCD10001034B18188389638162
:100FC000837B2372002010BD34F6000010B5FFF7BC
:100FD0008BFF02000020002806D0084A08490020A4
:100FE000FFF720FD002010BD43001B18D900054B62
:100FF000CB5C9A42F7D00130C0B2ECE76603000048
:1010000000F600001CF6000070B505000469431EE0
:101010009841C0B25C4A5D49FFF704FD63685C4AD1
:1010200013406360238ADB0BFCD12A8852006B8853
:1010300001210B401343DBB22375238ADB0BFCD168
:101040002E69544AB37BDBB21800511E002A02D02D
:101050000A009B07F6D0238ADB0BFCD1238A9BB2C4
:10106000C20750D59A0710D50122A2736A88802141
:1010700049010A436A806A8847490A406A80DB0757
:1010800000D47CE00520404263E05B070BD4686835
:1010900000282DD16B881BB2002B20DB6B883E4AC9
:1010A00013406B8055E06B68002B04DD6B88802259
:1010B000520113436B806B881BB2002B06DB6B88DD
:1010C000354A13406B800220404242E06268C023F0
:1010D0009B0213436360238ADB0BFCD1EFE762685A
:1010E000C0239B0213436360238ADB0BFCD1D5E74B
:1010F000AB681B782376AB680133AB606B68013B50
:101100006B60002025E082073CD56A68002A31D058
:101110005B072FD4013A6A60002A07D162688023F6
:10112000DB0213436360238ADB0BFCD16B68002B6B
:1011300007D16B881BB2002B0CDB6B88164A13405F
:101140006B80AB685A1CAA60227E1A700223A373BC
:10115000002070BD6368104A13406360238ADB0B74
:10116000FCD16268C0239B0213436360238ADB0BBC
:10117000FCD1E2E70223A37302204042E9E7042006
:101180004042E6E70020E4E78105000000F60000A9
:10119000FFFFFBFFFFFF0000FFFEFFFF70B582B007
:1011A00004000D00238ADB0BFCD12668760801338E
:1011B0001E402368022293432360238ADB0BFCD169
:1011C00001A8FEF7D7FF238ADB0BFCD1ADB2658106
:1011D00001A8FEF7D6FF236802229343760033432B
:1011E0002360238ADB0BFCD102B070BD70B582B0E6
:1011F00004000E00238ADB0BFCD125686D08013347
:101200001D402368022293432360238ADB0BFCD119
:1012100001A8FEF7AFFF238ADB0BFCD1022E21D001
:10122000226880235B0413432360238ADB0BFCD1F9
:10123000731E9E41F6B263680E4A134076031E4346
:101240006660238ADB0BFCD101A8FEF79AFF2368B6
:10125000022293436D001D432560238ADB0BFCD1E2
:1012600002B070BD2368044A13402360238ADB0B5D
:10127000FCD1DDE7FFDFFFFFFFFFFFFE70B582B0AF
:1012800004000E00238ADB0BFCD125686D080133B6
:101290001D402368022293432360238ADB0BFCD189
:1012A00001A8FEF767FF238ADB0BFCD1731E9E416A
:1012B000F6B2636840229343B6011E436660238AF8
:1012C000DB0BFCD101A8FEF75CFF236802229343ED
:1012D0006D001D432560238ADB0BFCD102B070BD7D
:1012E00070B506000C00431E9841C0B2AF221749EA
:1012F000FFF798FB2000FFF731FE051E23D1B461F4
:101300002000FFF7F9FD43B2002B0ADB1F2101404B
:1013100001228A4080210E4C6250BFF34F8FBFF3F1
:101320006F8F002B07DB1F21014001228A40C02163
:101330004900074C6250002B05DB1F2318401E3B61
:101340008340034A1360280070BDC04600F60000C9
:1013500000E100E08269136802210B431360138AE5
:10136000DB0BFCD1704710B58069FFF717FF10BD8C
:1013700010B58069FFF73AFF10BD10B58069FFF71F
:101380007DFF10BD836989B219837047836901228B
:101390005A737047836902225A73704770B504000C
:1013A0000D001600431E9841C0B2124A1249FFF7C1
:1013B00039FB002D09D0022D07D0012D0FD1A369D3
:1013C000002E13D004225A7309E0A369002E07D11E
:1013D00001221A73A369002E05D102221A7370BD6F
:1013E00001225A73F6E702225A73F8E704221A73AD
:1013F000F5E7C0460E02000000F6000070B50600DA
:101400000C000800FFF7E2FD05003000431E984184
:10141000C0B2204A2049FFF705FB3461238ADB0B69
:10142000FCD1238ADB0BFCD123689B0707D5002363
:101430002360238ADB0BFCD1238ADB0BFCD1012345
:101440002360238ADB0BFCD1238ADB0BFCD16B00EE
:101450005B19DA00114B9B185B68022293432360EF
:10146000238ADB0BFCD16B005B19DA000B4B9B185A
:101470009B686360238ADB0BFCD1084A6B00581918
:10148000C10008005118898961811218138AF381FB
:10149000002070BDD704000000F600001CF600001C
:1014A00070B506000469184D431E9841C0B2A122D0
:1014B000D2002900FFF7B6FA3069431E9841C0B246
:1014C000124A2900FFF7AEFA236802221343236071
:1014D000238ADB0BFCD104200D49238ADB0BFCD1D2
:1014E000228A120903331340012B08D00139002945
:1014F000F3DC0138002804D010232382ECE700201D
:1015000070BD06204042FBE700F600000905000020
:10151000FFFF0000F8B505000E0004697D4F431E73
:101520009841C0B27C4A3900FFF77CFA2869431E13
:101530009841C0B2794A3900FFF774FA3000431E6F
:101540009841C0B2764A3900FFF76CFA6B88DB0528
:1015500000D5DCE0728880235B009C461A437280D1
:101560002A00310089C989C26268634613436360F7
:10157000238ADB0BFCD12800FFF746FD002800D1B1
:101580007DE06B88674A13406B80F8BD05204042C0
:1015900086E073881BB2002B04DB6B88614A134022
:1015A0006B80F2E76268C0239B0213436360238A67
:1015B000DB0BFCD1F1E75B070BD4686800282DD169
:1015C0006B881BB2002B20DB6B88564A13406B8064
:1015D00055E06B68002B04DD6B88802252011343B9
:1015E0006B806B881BB2002B06DB6B884D4A134067
:1015F0006B800220404242E06268C0239B0213439A
:101600006360238ADB0BFCD1EFE76268C0239B0297
:1016100013436360238ADB0BFCD1D5E7AB681B78EF
:101620002376AB680133AB606B68013B6B600020D5
:1016300025E08A0769D56A68002A5ED05B075CD41A
:10164000013A6A60002A07D162688023DB021343F3
:101650006360238ADB0BFCD16B68002B07D16B889E
:101660001BB2002B39DB6B882E4A13406B80AB68B2
:101670005A1CAA60227E1A700223A37300206B8872
:10168000DB0500D481E72F69274ABB7BDBB2190059
:10169000501E002A00D179E702009B07F5D00020F8
:1016A000002800D075E7238ADB0BFCD1238A9BB28C
:1016B000CA07BED59A0700D47DE70122A2736A88C3
:1016C000802149010A436A806A8816490A406A8073
:1016D000DB0717D505204042D1E76368114A134064
:1016E0006360238ADB0BFCD16268C0239B02134337
:1016F0006360238ADB0BFCD1B5E70223A3730220CE
:101700004042BCE704204042B9E70020B7E706208A
:1017100040423AE700F600009B0500009C050000EF
:101720009D050000FFFEFFFFFFFF000070B50600F3
:101730000C000800FFF7D8FB0023012B0BD8190180
:101740005F4A5218D27B904202D00133DBB2F4E7F9
:101750005B4B5D1800E00025002E00D16AE0002CF4
:1017600000D165E00120574A5749FFF75BF9002D8A
:1017700000D1A2E0238ADB0BFCD1238ADB0BFCD156
:1017800023689B0707D500232360238ADB0BFCD14A
:10179000238ADB0BFCD101232360238ADB0BFCD1E2
:1017A000238ADB0BFCD134602B786A7812021A434F
:1017B000AB781B041A43EB781B0613431C2213401F
:1017C000082B39D0002C00D173E0002D00D16EE041
:1017D00001203E4A3C49FFF725F92B786A7812022E
:1017E0001A43AB781B041A43EB781B061343384AA1
:1017F00013402360238ADB0BFCD12B796A79120218
:101800001A43AB791B041A43EB791B061343314A85
:10181000134080229202134363602B7BA3726B7B85
:1018200023722B795B0746D101233371002070BDF1
:10183000002098E7002096E7002C36D0002D32D00B
:101840000120254A2049FFF7EDF82B786A7812022B
:101850001A43AB781B041A43EB781B0613431C4A4C
:1018600013402360238ADB0BFCD12B796A791202A7
:101870001A43AB791B041A43EB791B061343174A2F
:10188000134363602B7A6A7A12021A43AB7A1B0401
:101890001A43EB7A1B06134363616B7B2372238A23
:1018A000DB0BFCD1BDE70020CBE70020C9E700201F
:1018B0008FE700208DE70223B7E70D204042B6E70F
:1018C00044F60000A308000000F6000072080000C3
:1018D000FCFEFFFFBF3FFDFF830800004000020049
:1018E00010B5041E0DD00368002B08D00120064A55
:1018F0000649FFF797F82068FFF704FB10BD0020AA
:10190000F5E70020F3E7C0460A09000000F60000F2
:1019100070B588B00D0004680B6803934B6804939E
:101920000023059306930679002814D0002C10D0CC
:1019300001202D4A2D49FFF775F8238ADB0B4FD183
:10194000238ADB0BFCD123689B0718D41420404268
:1019500044E00020EDE70020EBE7002226E0587885
:1019600000020143023303930132059289B22183BD
:101970000598AB68984202D3069A934229D9A37B73
:10198000DBB25A07E9D5228B92B20499002908D01C
:10199000481C04900A70012E03D9881C0490120A76
:1019A0004A70069A0192013206920122002ADFD182
:1019B0000699059A9142DBD3DB07D9D5039B002B0F
:1019C00005D0591C03911978012EC8D8CCE70849D5
:1019D000CAE7A37B9B07FCD00323A37308B070BDA9
:1019E00004204042FAE7C046010A000000F6000069
:1019F000FF0100000F4B196A090C1A6A920F920737
:101A000009040D4801400A430C490A431A629A69C5
:101A100002210A439A611A7F1D310A401A77054B49
:101A2000DB681B07FBD5034A136A80210B43136253
:101A30007047C046000800400000FF0F020300008E
:101A400002221B4B9A841A4BDB68DB06FBD5194A32
:101A5000174BDA62184B1B689B0E3F2B20D09B0262
:101A6000802292001343124A936202239384938C40
:101A70005B0718D50E4BDA68D0231340D02BF9D171
:101A80000B4A938C80210B439BB293840B4B5B7866
:101A9000DB09FBD1064A936902218B4393617047AE
:101AA000FC23DB01DFE7024BDB68DB06FBD5E7E766
:101AB000000800400000010424608000000C004089
:101AC00070B505000469A37BDB0705D50123A3736B
:101AD0000368002B00D09847637B9B0706D5022341
:101AE000A3736B68002B01D02800984770BD0000DD
:101AF00010B5024B1868FFF7E3FF10BD640A002021
:101B000010B5024B1868FFF7DBFF10BD680A002014
:101B100000B583B001AB1970110A59709A70032295
:101B2000190000F059FC03B000BD10B50A0003789D
:101B3000022B01D80A0192B240780221FFF7E8FF98
:101B400010BD10B50A000378022B01D80A0192B229
:101B500040780321FFF7DCFF10BD43889343114019
:101B600019434180704710B580221202FFF7F5FF3C
:101B700010BD10B5E022D201FFF7EFFF10BD10B588
:101B8000E0221201FFF7E9FF10BD10B580225200DC
:101B9000FFF7E3FF10BD10B589B2E022FFF7DDFFCC
:101BA00010BD10B589B21022FFF7D7FF10BD10B5D8
:101BB00089B20822FFF7D1FF10BD10B589B2042207
:101BC000FFF7CBFF10BD10B589B20322FFF7C5FFA9
:101BD00010BD70B504001E0004AB1D88002832D073
:101BE000017042700023438080210902FFF7BBFF90
:101BF00031002000FFF7BDFF29002000FFF7BFFFE5
:101C0000802149002000FFF7C0FF2378022B15D860
:101C100080212000FFF7BFFF00212000FFF7C1FF58
:101C200000212000FFF7C3FF00212000FFF7C5FFC0
:101C300003212000FFF7C7FF012070BD8021200095
:101C4000FFF7A9FFE8E70020F7E770470122014B03
:101C50001A707047940A002080221204C023DB050A
:101C6000DA61704770B5154A936920210B4393617F
:101C7000134A144B5A80FFF72DF90200124C1349F6
:101C80002000FEF7C9FC124980239B018B60114B99
:101C9000CB6001230B74104D8022D201AA600F4A41
:101CA000EA602B742000FEF7EDFC29002000FEF70F
:101CB000E9FC2000FEF7CEFC70BDC04600040040E9
:101CC00002430000000C00408C0C00200014004077
:101CD0006C0A00204D1C0000800A0020591C0000E6
:101CE00070B5C024E4058025AD04A561FEF75CFA5B
:101CF000656170BD00B583B00A20FFF7F1FF0122D6
:101D00006B46D91D0B48FEF777FB012801D003B0C5
:101D100000BD094B1B889BB27F2BF8D806490B8866
:101D20009BB25A1C92B20A806A46D179034AD154B6
:101D3000EDE7C0463C0C0020960A0020800B0020F6
:101D4000F0B5DE4657464E464546E0B5C022D205C0
:101D500080239B0353619360904B8021C905996256
:101D60008F4999625524185D0121884318558020B8
:101D700080023F3410510C3C1051A8208024E4050F
:101D80001C50884C1C50D1255C5D8C435C558024D4
:101D9000A14694619460844C9C62C0273F069F6278
:101DA0008A3D5C5D8C435C55802464005461946082
:101DB0007E4C9C629F6201355C5D8C435C55802447
:101DC000A400A44654619460794C9C629F620135E2
:101DD0005C5D8C435C558024E400A24654619460B1
:101DE000744C9C629F6201355C5D8C435C55802421
:101DF00024015460704C9C62704C9C624B24A04641
:101E00001C5DA34604245D46A543AB4645465E469D
:101E10005E555D5D8D43AB4645465E465E5580250D
:101E20002D0295619560664D9D629F624F25AB4680
:101E30005D5D8D43A8465D4646465E5580252D0472
:101E4000556195608025ED059D625E4D9D6257252B
:101E5000AB465D5D8D43A8465D4646465E554135C1
:101E600066465651103D5651514D1D501F50C925C3
:101E70005F5D8F435F5584275546D551524D1D50A8
:101E80004E4D1D50CA25AC465D5DA543A84665462E
:101E900046465E555D5D8D43A846654646465E55A1
:101EA00080252D01D551444D1D50444D1D50CB254D
:101EB000AC465D5DA543A846654646465E555D5DFC
:101EC0008D43A846654646465E558025ED0355611F
:101ED00095608025ED059D623C4D9D625625A84686
:101EE0005D5D8D43AC46454666465E5580256D0476
:101EF000556195608025ED059D62354D9D625825A3
:101F0000A8465D5D8D43AC46454666465E558025D8
:101F1000AD04556195608025ED059D622D4E9E6254
:101F200059255E5D8E435E554026D6512A4E1E5081
:101F3000224D1D50C6269D5DA5439D559D5D8D433B
:101F40009D55A63ED651254E1E501C4D1D50C526F2
:101F50009D5DA5439D559D5D8D439D55B53ED651D7
:101F60001F4E1E50154D1D50C4269D5DA5439D5509
:101F70009D5D8D439D554D46D5511A4A1A500F4AC5
:101F80001A50C722985CA0439854985C8843985490
:101F90003CBC90469946A246AB46F0BD0044004189
:101FA000200000C0020000C080000040000100408E
:101FB000000200400004004000080240000002C08F
:101FC00000800040800000C000040240400000C0CB
:101FD000000100C0000200C040000240200002409A
:101FE000100002408000024010B5114A114B5A8087
:101FF000802149008423C022D205D1500E4BA82253
:102000000E4999500E499950C8215A5C04208243C8
:102010005A545A5C033882430243D2B25A54143998
:102020005A5C0F2082435A54FEF7ECF810BDC046AC
:1020300003410000000C0040004400410001024048
:10204000000002C0F8B5D6464F4680B53A4A136A3A
:10205000042189460B431362384A394B5A80394967
:102060003948FEF7E3F9C025ED0510236B61AB603D
:10207000364C374BA362C0231B069A46A362442208
:10208000A35C0127BB4301263343DBB2A354123ABE
:10209000A35C0F20834303218C4661460B43DBB2D4
:1020A000A35420236B61AB602A4BA3625346A36207
:1020B00045239A46E35CBB433343DBB2514663544A
:1020C000A35C36390B4030218A4651460B43DBB2C4
:1020D000A35440236B60204BA362204BA362462392
:1020E000E25C49468A43E254E25CBA433243D2B2EC
:1020F000E2543322A35C834361460B43DBB2A35417
:1021000010491148FEF792F915490F48FEF71AFADF
:102110000D48FEF7B3F980231B03AB61AB6080234E
:10212000DB05A3620F4BA3625322A35CBB43A35402
:102130000CBC91469A46F8BD000400400D400000DA
:10214000000C0040000800421C0C0020004400412C
:10215000100000402000004040000240000002C08B
:102160007C0B0020080000C0002804D18022C0237E
:10217000DB055A6170478022C023DB059A61F9E7CD
:1021800010B50020FFF7F0FF10BD10B50120FFF7DC
:10219000EBFF10BD10B503000A00034908681900E1
:1021A000FEF72AF910BDC0467C0B002010B50300D5
:1021B0000A00034908681900FEF704F910BDC0467B
:1021C0007C0B002010B582B06B46DC1D0023237011
:1021D000044B186801222100FEF70EF9207802B0A6
:1021E00010BDC0467C0B002000B583B06B46D91DE6
:1021F0000870034B18680122FEF7E4F803B000BD35
:102200007C0B0020F0B5CE4600B5354A136A20217C
:102210000B431362334A344B5A8034493448FEF737
:1022200005F9C022D20580235B0253619360314BD4
:102230008021C905894699622F4999625020195C0D
:102240000124A14301252943C9B219543821585CFE
:102250000F27B8430326B44666463043C0B25854ED
:1022600080208002506190604846986223489862BE
:1022700051208146185CA0432843C0B24E46985571
:10228000585C423E30403026B1464E463043C0B2E4
:1022900058548021C9025160194A9A62194A9A62B7
:1022A0005222995C042081439954995CA1432943AB
:1022B000C9B2995439215A5CBA4360460243D2B23A
:1022C0005A540A490A48FEF7B1F80F490848FEF780
:1022D00039F90748FEF7D2F804BC9146F0BDC04674
:1022E0000004004010400000000C004000140042B8
:1022F000040C002000440041010000C0020000C0A6
:1023000000000240040002C0000C002010B50300D1
:102310000A00034908681900FEF76EF810BDC046B0
:10232000000C002010B503000A00034908681900DA
:10233000FEF748F810BDC046000C0020F8B51E4A54
:10234000136A10210B4313621C4B1D4A5A801D4A0D
:102350005A801D4C1D492000FEF706F81C4B4C20EE
:10236000195C042291431954195C0126B1430125DB
:102370002943C9B219541638195C0F27B9430227EB
:102380003943C9B219544D215F5C97435F545A5C7D
:10239000B2432A43D2B25A541A5C3E390A40202131
:1023A0000A43D2B21A540B492000FEF706F8200067
:1023B000FDF7F6FFF8BDC04600040040000C0040E9
:1023C0000F4000000C430000A80C00200010004249
:1023D00000440041380C002070B50D00140001B21B
:1023E000802212010548FDF7DFFFA2B2044B1868F6
:1023F0002900FDF7E7FFC043C00F70BDA80C002007
:10240000380C0020F0B583B0264A136A40210B43F4
:102410001362254A254B5A80254C002300938033B4
:10242000244A25492000FEF719FA24492000FEF726
:10243000BDFA02212000FEF7CDFA00212000FEF7B0
:10244000DDFA1F4BCC215A5C0120844682430127D0
:102450003A43D2B25A54B622985C0F26B0430225B2
:102460002843C0B298541832995C6046814339437E
:10247000C9B29954B7215A5CB2432A43D2B25A54D2
:1024800010492000FEF744FA0F4A00212000FEF711
:1024900055FA802212010D4B1A602000FEF726FA31
:1024A00003B0F0BD0004004011400000000C0040EB
:1024B0003C0C0020800B00200018004220A10700E7
:1024C00000440041340C0020F51C000000E100E055
:1024D00010B5FEF777FBFFF733FCFFF7B3FDFFF70F
:1024E00091FEFFF72BFFFFF78DFF04492820FDF732
:1024F000A1FEFFF7B7FBFFF777FD10BD4B1C0000F7
:10250000F0B5DE4657464E464546E0B585B003A8D1
:10251000FDF730FEC026F6058027F4592F4B9A466A
:10252000A023994653464A46985890239846F35814
:1025300043401C40444003A8FDF723FE20200440F4
:1025400023005C1EA3419B4602A8FDF713FEF5592C
:1025500053464A469B584246B4585C4025405D402D
:1025600002A8FDF70EFE3D402C00651EAC41E4B212
:1025700064005B461C4301A8FDF7FCFDF05953467F
:102580004A469B584246B5585D4005405D4001A80B
:10259000FDF7F7FD40202840431E9841C0B280005F
:1025A00004436846FDF7E6FDF05953464A469B58FA
:1025B0004246B5585D4005405D406846FDF7E1FD87
:1025C00010202840431E9841C0B2C000204305B0EF
:1025D0003CBC90469946A246AB46F0BD0044004143
:1025E00070B5060008282FD884000134E400651C6B
:1025F000FF351021280000F06BFD280000F036FDAB
:102600000028FAD180239B00E0181F2100F060FD14
:102610000123B340DB431BB20D490A881A400A80EC
:102620000C490A8813400B80720000210A4BD152DA
:102630000A4B00229A55C0239B00E01800F016FDBB
:102640000028F8D1013070BD01204042FBE7C046B0
:10265000980A00209A0A0020A40A00209C0A002060
:10266000F0B5C64600B584B005000E0090461F00C8
:10267000082800D992E0012969D0002900D190E012
:10268000042900D98DE07B0700D58DE0002F04D010
:10269000012E69D0022E00D16DE02800FFF7A0FFC7
:1026A000AC000134E4000F233900994349B23143AF
:1026B000C9B2200000F00CFD4346002B08D13D4A72
:1026C0001388984601339BB213803B4A934261D0F2
:1026D0008023DB00E0184346190A00F0F9FC43466A
:1026E0006A46D371D179A023DB00E01800F0F0FC3A
:1026F000661CFF360121300000F0EAFC300000F0DB
:10270000B5FC0028FAD10122AA40D24312B22B48CC
:10271000038813401BB201210F40AF403B430380AD
:1027200027490B881A400A806B000021254A9952DC
:10273000254B00225A55C0239B00E01800F096FC60
:102740000028F8D068B204B004BC9046F0BD042262
:1027500003A9F020000100F0EBFC039B002B00D04C
:1027600091E703204042EEE721233B4200D094E76B
:1027700006204042E7E7BB0602D57BB2002B16DA03
:10278000FB0600D489E77BB2002B00DA85E7062040
:102790004042D8E70D4A074B1A8099E70120404292
:1027A000D1E705204042CEE706204042CBE7062095
:1027B0004042C8E700000020F0FF0000980A002017
:1027C0009A0A0020A40A00209C0A002000C0FFFFF3
:1027D00070B50600082829D884000134E4002000E0
:1027E00000F044FC0F231840012822D1C0239B0095
:1027F000E518280000F03AFC13281DD10134FF34FD
:102800000221200000F064FC200000F02FFC0028D2
:10281000FAD1280000F02AFC142801D1133870BD29
:102820003000FFF7DDFE04204042F8E7012040427F
:10283000F5E705204042F2E703204042EFE70000C1
:1028400070B50600082836D884000134E400200062
:1028500000F00CFC0F23184001282FD1651CFF3518
:102860000821280000F034FC280000F0FFFB0028BD
:10287000FAD101221000B04013490B8883430B802A
:10288000124B1B8833411A421BD1C0239B00E01816
:1028900000F0ECFB00280CD080239B00E01800F037
:1028A000E5FB0307F1D53000FFF79AFE0D2040420B
:1028B00008E0013006E00120404203E005204042EC
:1028C00000E0002070BDC0469A0A0020980A00204F
:1028D000F0B5C64600B582B0040001911700082883
:1028E00000D980E0050083000133DB009846180022
:1028F00000F0BCFB0F231840012800D076E0002F29
:1029000000D176E0C0239B0043440093180000F000
:10291000ADFB172802D01C2800D06DE0384B1B8877
:102920002341DB0718D58026B6004644300000F06E
:102930009DFBC30606D403071AD4002002B004BCD2
:102940009046F0BD1021300000F0C2FB0122A240F1
:102950002B490B8893430B80F8204001404400F042
:1029600085FB80B2800286B2B7420FD83E000DE0F0
:102970002000FFF735FE0D204042DFE72000FFF783
:102980002FFE07204042D9E7BE4213D9200000F0B5
:102990004BFC0700009800F069FB172801D01C28A9
:1029A000ECD1184B1B882B41DB07EDD5BE42EBD990
:1029B0000020C3E732000199200000F099FC454651
:1029C0000135FF352021280000F082FB280000F0AF
:1029D0004DFB0028FAD10122A24009490B8813437C
:1029E0000B803000AAE701204042A7E705204042C3
:1029F000A4E70E204042A1E7072040429EE7C046E0
:102A00009A0A0020980A0020F0B5C64600B582B0A8
:102A1000009001911400082864D80600870001374F
:102A2000FF00380000F022FB0F23184001285CD182
:102A3000002C5DD0F0235B01F81800F017FB80B28A
:102A4000800283B298469C420FD8A0460DE00098C1
:102A5000FFF7C6FD0720404240E00098FFF7C0FDA9
:102A6000072040423AE0002C24D1009D280000F0CD
:102A70000DFC0400C0239B00F81800F0F7FA17289B
:102A80000FD01C28E9D1002C14D1280000F0CCFB79
:102A90000500F8235B01F81800F0E8FA800285428F
:102AA000D5D0154B1B883341DB07DCD5002CDAD1A0
:102AB000002013E0A04500D8444622000199009868
:102AC00000F049FC0137FF374021380000F000FBDF
:102AD000380000F0CBFA0028FAD1200002B004BC84
:102AE0009046F0BD01204042F8E705204042F5E75E
:102AF0000E204042F2E7C046980A0020F0B5DE46BC
:102B000000B584B00190039193461C000AAB1F8866
:102B1000082800D995E0050083000133DE0030006D
:102B200000F0A4FA0F230340023BDBB2022B00D9D2
:102B30008AE05B46002B00D189E023781B02627893
:102B40009B181B02A2789B181B02E2789B18002B93
:102B500034D0002F04D1300000F088FA430779D533
:102B6000C0239B009C46B44463460293604600F039
:102B70007DFA422803D0222801D032286DD10422C8
:102B80002100C0231B01F01800F012FB390A80233A
:102B90005B01F01800F09CFAF9B288235B01F01891
:102BA00000F096FAF8235B01F01800F05FFA80B2AB
:102BB000800287B2BB450BD85F4609E0300000F0C9
:102BC00055FA4307C5D40C2040424BE0A74211D927
:102BD000019800F029FB0400029800F047FA002851
:102BE0003ED0224B1B882B41DB07EFD5A742EDD906
:102BF000002037E03A000399019800F079FB741C3B
:102C0000FF342021200000F063FA200000F02EFAAB
:102C10000028FAD180239B00F418200000F026FA47
:102C2000C30608D40307F5D50821200000F050FAA8
:102C30000D20404216E01021200000F049FA380033
:102C400010E0012040420DE0052040420AE00E2045
:102C5000404207E00B20404204E00720404201E0F0
:102C60000420404204B004BC9346F0BD980A002002
:102C7000F0B5DE46474680B585B005000091904628
:102C80000193082800D91BE1070083000133DE000F
:102C9000300000F0EBF983460F230340023BDBB228
:102CA000022B00D90FE14346002B00D10EE16B004F
:102CB000894A9B5A002B15D0002407235A461340FB
:102CC000032B00D1BDE0042B00D181E0022B1ED0EC
:102CD0002100280000F072FB6B007F4A9C5226E026
:102CE000002CEAD1280000F0D1FA0400C0239B0098
:102CF000F01800F0BBF9002800D1EAE0774B1B8800
:102D00003B41DB07ECD5002CEAD1002029E06B0029
:102D1000714A9B5A002B29D06B006F4A9C5AA045E0
:102D200000D2444622000099280000F014FB01362E
:102D3000FF364021300000F0CBF9300000F096F96A
:102D40000028FAD1644A69008B5A1B1B9BB28B5234
:102D5000002B00D1B0E0624A535D01210B43535573
:102D6000200005B00CBC90469B46F0BD082202A98D
:102D7000280000F0F0FA741CFF344021200000F01D
:102D8000A7F9200000F072F90028FAD102AB1B78F5
:102D9000019A137002AB5B78537002AB9B7893700F
:102DA00002ABDB78D37002AB1B791B0202AA52790B
:102DB0009B180C9A138002AB9B791B0202AAD27952
:102DC0009B186A0044498B528022454B5A55A3E711
:102DD0006B00414A9B5A002B0BD06B003E4A9C5A19
:102DE000A04500D2444622000099280000F0B3FA22
:102DF0009DE7022202A9280000F0ADFA741CFF34FE
:102E00004021200000F064F9200000F02FF9002894
:102E1000FAD102AB1B781B0202AA52789B189BB214
:102E2000023B9BB26A002C4953522E4A934203D86C
:102E300080222B4B5A55D0E72800FFF7D1FB2A48B8
:102E40008FE76B00244A9B5A002B0BD06B00224A61
:102E50009C5AA04500D2444622000099280000F068
:102E60007AFA64E7062202A9280000F074FA741CBA
:102E7000FF344021200000F02BF9200000F0F6F88C
:102E80000028FAD102AB1B78019A137002AB5B7871
:102E9000537002AB9B78937002ABDB78D37002ABBC
:102EA0001B791B0202AA52799B186A000A498B52AD
:102EB00080220B4B5A55C9E70022094B5A554FE760
:102EC000012040424DE7052040424AE70E204042A3
:102ED00047E70420404244E7A40A0020980A002063
:102EE0009C0A0020EA05000017FCFFFF70B50400F3
:102EF0001500082800D9A6E00C2900D9A6E0890011
:102F0000574B5B589F4680000130C00000F0AEF880
:102F10000F2398432870012070BD80000130C0004D
:102F2000B0235B019C46604400F0A0F828700120AB
:102F3000F2E780000130C000A8235B019C4660449A
:102F400000F094F828700120E6E784000134E400E2
:102F500090235B01E01800F089F886B23602B6B221
:102F600098235B01E01800F081F880B236182E80BB
:102F70000120D1E780000130C000C0231B019C4626
:102F800060440422290000F0D3F80120C4E7840043
:102F90000134E40080235B01E01800F067F886B29A
:102FA0003602B6B288235B01E01800F05FF880B209
:102FB00036182E800120AFE784000134E4002000A1
:102FC00000F054F80F231840012842D1BC239B0184
:102FD000E01800F04BF8288001209DE700F024F96C
:102FE0002880012098E700F051F92880012093E71C
:102FF00080000130C000C0239B009C46604400F06C
:1030000035F82870012087E780000130C00000F00B
:103010002DF8C30705D46400124BE35A2B8001201E
:103020007AE7200000F032F92880012074E7800060
:103030000130C00000F01AF801280DD00A4B1B5DCA
:103040002B70012068E70120404265E702204042E2
:1030500062E7052040425FE7052040425CE7C0464A
:1030600064F60000A40A00209C0A002030B583B05A
:103070000400164DEB6898476B6998476B6A002B04
:1030800016D0124B9B6A002B12D0220C01A80270A2
:10309000220A42708470032198470C4CE3699847D8
:1030A0000500A369984723699847280003B030BDFD
:1030B000064D200CC0B22B6A9847200AC0B22B6A7A
:1030C00098472B6AE0B29847E7E7C0460400002023
:1030D00070B582B004000E00144DEB6898476B6920
:1030E000984704200443AB6A002B0FD0220C01A8A0
:1030F0000270220A42708470C670042198470B4CFB
:10310000A36998472369984702B070BD074D200C0A
:10311000C0B22B6A9847200AC0B22B6A9847E0B227
:103120002B6A98472B6A30009847E8E70400002094
:10313000F0B583B004000F0016001C4DEB689847F3
:103140006B6998476B6A002B17D0184B9B6A002B52
:1031500013D0220C01A80270220A4270847003214D
:103160009847124B5B6A3100380098470F4CA369AF
:1031700098472369984703B0F0BD0C4D200CC0B2AE
:103180002B6A9847200AC0B22B6A98472B6AE0B294
:103190009847002406E03D19044BDB6998472870E6
:1031A0000134A4B2B442F6D3E0E7C04604000020E4
:1031B000F0B583B004000F0016001A4DEB68984775
:1031C0006B69984704200443AB6A002B13D0220C90
:1031D00001A80270220A4270847003219847114BA3
:1031E0009B6A3100380098470E4CA36998472369C1
:1031F000984703B0F0BD0B4D200CC0B22B6A984726
:10320000200AC0B22B6A98472B6AE0B29847002484
:1032100005E0044B1B6A385D98470134A4B2B44200
:10322000F7D3E1E704000020F0B5C64600B507007B
:10323000002501E0A54225D0BB000133DB00984604
:103240008026B60146443000FFF710FF84B2240206
:10325000A4B284239B019C46E0444046FFF706FF4E
:1032600080B22418A4B2002CE4D03000FFF7FEFE98
:1032700080B2000285B24046FFF7F8FE80B22D18FA
:10328000ADB2D7E7280004BC9046F0BDF0B5C64605
:1032900000B50700002501E0A54225D0BB000133A1
:1032A000DB0098469826B60146443000FFF7DEFE64
:1032B00084B22402A4B29C239B019C46E044404675
:1032C000FFF7D4FE80B22418A4B2002CE4D0300062
:1032D000FFF7CCFE80B2000285B24046FFF7C6FE83
:1032E00080B22D18ADB2D7E7280004BC9046F0BDDF
:1032F000F0B583B00091141E01D103B0F0BD86007B
:10330000751CED0090239B019C46AC4463460193E1
:103310006046FFF7ABFE80B2000287B294229201B2
:10332000944665442800FFF7A1FE80B2381887B2A2
:103330003B02B01CC000181822000099FFF738FFAC
:10334000E419A4B2210A0198FFF7C2FEE1B22800F5
:10335000FFF7BEFED1E7F0B583B00091141E01D196
:1033600003B0F0BD8600751CED00A0239B019C46B8
:10337000AC44634601936046FFF778FE80B20002DA
:1033800087B2A4229201944665442800FFF76EFE9E
:1033900080B2381887B23B02F01CC0001818220017
:1033A0000099FFF7C5FEE419A4B2210A0198FFF7BE
:1033B0008FFEE1B22800FFF78BFED1E7F8B50C00D5
:1033C00087000137FF00A0239B01FE183000FFF7A4
:1033D0004DFE80B2000285B2A4239B019C46674447
:1033E0003800FFF743FE80B22D18ADB22C19A4B2FD
:1033F000210A3000FFF76CFEE1B23800FFF768FEEB
:10340000F8BD70477047704770470078C0B270478A
:103410000170704700207047704770477047000088
:10342000002805D0002903D0044B586199617047EA
:10343000024B034A5A61034A9A61F8E704000020EC
:103440000734000009340000084B1B889B05FBD59E
:10345000002805D0002903D0044BD86119627047B9
:10346000024B034ADA61034A1A62F8E704000020BB
:103470001534000019340000084B1B889B05FBD550
:10348000002805D0002903D0044B58629962704788
:10349000024B034A5A62034A9A62F8E7040000208A
:1034A0001B3400001D340000F0B587B090273F01A9
:1034B000062201A93800FFF73BFE80267600042291
:1034C00005A93000FFF734FEA025ED00042204A971
:1034D0002800FFF72DFEF0242401042203A9200078
:1034E000FFF726FE80210020FFF7F2FD0020FFF706
:1034F000BDFD062201A93800FFF75AFE042205A9E6
:103500003000FFF755FE042204A92800FFF750FE03
:10351000042203A92000FFF74BFE07B0F0BD70B5F1
:1035200006000D00FFF7C0FF002E1BD00022002375
:10353000072B07DCF15C8A1852B2102A34DC013305
:103540005BB2F5E700240BE0A0000130C000F823D7
:103550005B019C466044315DFFF7BAFD013464B203
:10356000072CF1DD002D0BD000220023072B09DCF6
:10357000E95C8A1852B2102A19DC01335BB2F5E714
:10358000002010E000240BE0A0000130C000F02378
:103590005B019C466044295DFFF79AFD013464B2EB
:1035A000072CF1DD002070BD01204042FBE7012027
:1035B0004042F8E710B5B824A4012000FFF756FDFB
:1035C0007F2101402000FFF783FD2000FFF74EFD23
:1035D000802149420143C9B22000FFF779FD10BDA7
:1035E00010B504000622010090200001FFF7E0FD65
:1035F00021000E31042280204000FFF7D9FD210078
:103600000A310422A020C000FFF7D2FDA11D042230
:10361000F0200001FFF7CCFDA27C064B1A70E27C83
:103620005A70227D9A70627DDA70A27D024B1A7008
:1036300010BDC046B80A0020B40A002010B504002E
:103640000622010090200001FFF772FD21000E31DB
:10365000042280204000FFF76BFD21000A31042284
:10366000A020C000FFF764FDA11D0422F02000018E
:10367000FFF75EFD064B1A78A2745A78E2749A78C6
:103680002275DB786375034B1B78A37510BDC046AC
:10369000B80A0020B40A002010B504003A23020042
:1036A0009A4309D10020FFF7E1FC0443E1B2002076
:1036B000FFF70EFD002010BD01204042FBE710B5D2
:1036C0000020FFF7D3FC10BD10B504000178D8200E
:1036D0004001FFF7FDFC6188090AC8204001FFF79F
:1036E000F7FCA178D0204001FFF7F2FC10BD70B5C7
:1036F0000500D8204001FFF7B9FC2870C820400120
:10370000FFF7B4FC80B2000284B2D0204001FFF782
:10371000ADFC80B224186C8070BD000010B50C00A8
:10372000052820D88000114B1B589F460800FFF742
:1037300057FF002010BD0800FFF780FF0020F9E7C9
:103740000878FFF7A9FFF5E7FFF7B9FF2070002021
:10375000F0E70800FFF7B8FF0020EBE70800FFF7ED
:10376000C6FF0020E6E701204042E3E798F60000AC
:1037700043781B02007818437047C3781B02827895
:1037800013431B02427813431B020078184370470F
:103790000170090A4170704701700B0A43700B0CED
:1037A0008370090EC1707047002070470020704779
:1037B00002394369023B994204D2836A40894843F3
:1037C000181870470020FCE770B506000D000800CF
:1037D0001A30FFF7CDFF04003378032B00D070BD03
:1037E00028001430FFF7C4FF00042043F7E770B54A
:1037F00006000C00150091B220001A30FFF7C8FF38
:103800003378032B00D070BD290C20001430FFF753
:10381000BFFFF8E710B50468002C1ED02200511C31
:103820001378202B02D90A003A2BF8D13A2B02D078
:103830000023180010BD23781A00303AD2B2092AAA
:1038400006D80234A14201D0012302E0303B00E05F
:103850000123002B04DC0160EBE701235B42E8E776
:1038600001235B42E5E770B504000D00002818D085
:103870000368002B17D01A78002A05D109200028E8
:1038800015D123682B6070BD8188DA88914201D000
:103890000920F4E7587801F00FFAC30705D509208D
:1038A000EDE70920EBE70920E9E70020E7E700233F
:1038B000E8E770B504000379002B01D1002070BD4A
:1038C0000500303540780123E26A290001F0BEFA94
:1038D000002814D100232371E26A236AD31AA16954
:1038E0008B420ED2E378022B01D00020E7E752187A
:1038F0006078013B290001F0A9FA0020DFE70120F0
:10390000DDE70020DBE770B505000E00C36A8B42DF
:1039100013D0FFF7CEFF041E01D0200070BD290098
:10392000303168780123320001F058FA002802D0C3
:10393000013401267642EE62EFE70024EDE7000055
:1039400070B5040000230371013BC362FFF7DBFF86
:10395000002801D0042070BD2D4BE018FFF708FFB0
:1039600005003023E35CEB2B08D0E92B06D0E82BD5
:1039700004D0284B9D4248D00320ECE7254B9D42C4
:1039800039D020003B30FFF7F3FE3D23E15C431EBE
:103990000342EED1204B9842EBD901339842E8D84C
:1039A0000029E6D04B1E0B42E3D120003E30FFF74A
:1039B000DFFE0028DDD04023E35C013B012BD8D89B
:1039C00020004130FFF7D4FE0028D2D02000433041
:1039D000FFF7CEFE7F2806D820005030FFF7CDFE3F
:1039E0000E4B9842C5D920004630FFF7C1FE002893
:1039F000BFD00020AFE7082209492000823004F040
:103A0000CDF80028BDD10020A5E70220A3E7C046DD
:103A10002E02000055AA0000FF010000FFFF000079
:103A200030F7000070B584B005000E000021FFF7EC
:103A300087FF022816D02AD8002E28D000240BE0B9
:103A40002B0030332001C730FF301818FFF795FEE8
:103A5000A3006A4698500134032CF1D9002E03D0FC
:103A6000741E0DE00024F7E7340009E02800FFF79A
:103A700067FF002E0BD1012809D90134032C06D889
:103A8000A3006A4699580029F0D10320F1E704B059
:103A900070BD0000F0B5DE4657464E464546E0B5DF
:103AA00083B00E00150000230B60FFF7B3FE002863
:103AB00000DA1EE18000A04BC458002C00D120E1A8
:103AC000346001239D432378002B0DD0607801F0F2
:103AD000F3F8C30708D4002D00D114E1430701D542
:103AE0000A2007E1002005E100232370607801F03F
:103AF000EDF8C30701D50320FCE0002D03D04307F8
:103B000001D50A20F6E000212000FFF78BFF0428F2
:103B100000D1FAE0012801D90D20EBE0E66A20008F
:103B20003B30FFF725FE80239B00984201D00D20FB
:103B3000E0E020004630FFF71BFE8246002804D15B
:103B400020005430FFF719FE82465346A3614023FC
:103B5000E35CE3705A1ED2B2012A01D90D20C9E0FC
:103B600052465A4391463D23E35C98466381002BBD
:103B700000D1CCE0013B4246134201D00D20B9E018
:103B800020004130FFF7F4FD07000190208103077A
:103B900000D0BEE020004330FFF7EAFD051E04D14F
:103BA00020005030FFF7E9FD050020003E30FFF710
:103BB000DFFD8346002800D1ADE04B465B443F0962
:103BC000BFB2DF19BD4200D2A7E0E81B414601F0B9
:103BD00097FD002800D1A2E0584B984275D90023E8
:103BE0009846574B984201D802239846554B984225
:103BF00001D8012398464346002B00D191E0851C53
:103C00006561E6615B46F3182362F719A7624246D5
:103C1000032A5DD120005A30FFF7AAFD002800D00A
:103C200081E0019B002B00D07FE020005C30FFF79B
:103C3000A4FD6062AD00444B9C4665446D0AAA45F4
:103C400000D276E001235B422361E360813363713C
:103C50004346032B2FD120006030FFF789FD012858
:103C600029D1711C2000FFF74EFE002823D100232C
:103C70006371364BE018FFF77BFD354B98421AD144
:103C800020003030FFF779FD324B984213D1852365
:103C90009B00E018FFF771FD2F4B98420BD1862354
:103CA0009B00E018FFF769FD206187239B00E01867
:103CB000FFF763FDE06043462370284A1388013311
:103CC0009BB21380E380002014E00323984688E72A
:103CD000019A002A2BD04B4463624346022B01D148
:103CE0006D00A8E703236B435B08012215405D19B3
:103CF000A1E70B2003B03CBC90469946A246AB46D8
:103D0000F0BD0C20F6E70020F4E70120F2E70D20DB
:103D1000F0E70D20EEE70D20ECE70D20EAE70D209F
:103D2000E8E70D20E6E70D20E4E70D20E2E70D20AF
:103D3000E0E70D20DEE7C046BC0A0020F5FFFF0FDC
:103D4000F5FF0000F50F0000FF0100002E0200004B
:103D500055AA00005252614172724161C00A0020AE
:103D6000F0B5D6464F464646C0B506000C001700D3
:103D7000012900D888E04369994201D3022584E0F3
:103D80000378022B4ED0032B61D0012B01D00225EA
:103D90007BE04B08984688444346590A036A9C4690
:103DA0006144FFF7B0FD051E6FD130239A46B2443F
:103DB0002F3B434499464346DB05DB0D5344012228
:103DC000144022D0002159560E320A403901FF20FA
:103DD000000101400A43D2B21A70012333714B46ED
:103DE000590A336A9C4661443000FFF78CFD051E7A
:103DF0004BD14B46DB05DB0D5344002C07D03F096C
:103E0000FFB21F70012333713FE0FAB2E4E70022F2
:103E10009A560F218A433F0A79B20F270F40174362
:103E2000FFB2EEE7090A036A9C466144FFF76BFDA7
:103E3000051E2AD1300030306400FF235B001C4097
:103E4000B9B20019FFF7A4FC012333711DE0C909C1
:103E5000036A9C466144FFF756FD051E15D13F01DC
:103E60003F0933003033A400FE22520014401C19D5
:103E70002000FFF782FC010F090739432000FFF7FC
:103E80008BFC0123337100E0022528001CBC904606
:103E90009946A246F0BDF8B50C000568012967D91E
:103EA0006B69994266D22B78022B33D0032B47D013
:103EB000012B01D001205EE04E088E19710A2B6A99
:103EC0009C4661442800FFF71EFD002802D0012017
:103ED000404250E0771CF305DB0DEB1830331E78C1
:103EE000790A2B6A9C4661442800FFF70CFD0028E4
:103EF00002D0012040423EE0FF05FF0DED193035B4
:103F0000287800023043E30701D5000933E00005BB
:103F1000000D30E0090A2B6A9C4661442800FFF737
:103F2000F2FC002802D00120404224E0280030307A
:103F30006400FF256D002C400019FFF719FC1AE002
:103F4000C9092B6A9C4661442800FFF7DCFC002865
:103F500002D0012040420EE028003030A400FE23B1
:103F60005B001C400019FFF708FC0001000902E09B
:103F7000012000E00120F8BDF0B5C64600B50600FE
:103F80000C000768264B994203D9022004BC9046D6
:103F9000F0BDCB0601D00220F8E731618568002D25
:103FA00003D13B78022B00D97D6A002D0DD1630926
:103FB0003A89934201D30220E8E77B6AB3617561D5
:103FC000B369002B1DD10220E0E77B895B02984694
:103FD00001E04346E41A44450DD329003000FFF7C1
:103FE0005AFF0500431C16D0012816D97B69984258
:103FF000EFD30220CAE729003800FFF7D9FBB061F0
:10400000DDE7620A9B18B3613037E405E40D3C1923
:10401000F4610020BAE70120B8E70220B6E7C04605
:10402000FFFF1F00F8B5CE46474680B5060088461C
:104030000768002907D1FD68002D10D07B699D42DB
:104040000ED301250CE0FFF726FF012800D874E00D
:10405000431C62D07B6998425FD3454600E001254E
:104060003869002859D0454506D0002399464B466B
:10407000002B37D12C002CE06B1C99467B699945AD
:1040800001D30223994649463000FFF704FF012877
:1040900043D0431C41D00028E9D0FB68012B05D94F
:1040A0007A69934205D300239946E0E700239946B5
:1040B000DDE71D0000239946D9E721003000FFF716
:1040C000EAFE00280DD0012827D0431C25D0AC42A1
:1040D00037D001347B699C42EFD3012D2FD90224C4
:1040E000EBE7A1460122524249463800FFF738FE6D
:1040F000002802D14346002B13D1002817D14B468C
:10410000FB603A697B69023B9A4201D8013A3A6105
:104110007B79012213437B7148460CBC904699463B
:10412000F8BD4A4641463800FFF71AFEE5E7012888
:1041300001D00120F1E70238EFE70120EDE7484622
:10414000EBE74846E9E7F8B507000C001100056801
:10415000012C2ED96B699C4201D302202AE0002A4F
:104160000AD0012252422800FFF7FAFD002803D0AE
:1041700020E0340096421DD221003800FFF78BFE6C
:10418000061E18D0012818D0431C18D00022210088
:104190002800FFF7E5FD00280CD12B696A69911E04
:1041A0008B42E6D201332B616B7901210B436B719A
:1041B000DFE70220F8BD0020FCE70220FAE701203B
:1041C000F8E7F8B506000C00FFF773FB002801D0F4
:1041D0000120F8BD21003000FFF7EAFA0700F06285
:1041E00035003035802292000021280003F03EFD8A
:1041F000002400E0013473899C4207D2E2197078F0
:104200000123290000F022FE0028F3D07089241A2F
:10421000601E8441E0B2DCE7F0B5CE4600B582B066
:10422000040001910768056920352F4B9D4201D993
:1042300000238361A369002B04D1042002B004BCD5
:104240009146F0BDEE05F60D11D10133A361616910
:10425000002907D16B093A89934208D30023A3614F
:104260000420EBE76B0A7A89013A1A4205D02561EE
:104270003037BF19E7610020E0E72000FFF70BFEB1
:1042800081460300012825D9013325D07B69984256
:1042900018D3019B002B02D1A3610420CEE76169F2
:1042A0002000FFF7BFFE8146031E01D10720C5E7AE
:1042B000012813D0013313D001003800FFF781FF2C
:1042C00000280FD14B46636149463800FFF770FA6A
:1042D000A061CCE70220B1E70120AFE70220ADE703
:1042E0000120ABE70120A9E7FFFF1F0070B5050023
:1042F00006680021FFF740FE041E07D0200070BDB5
:1043000000212800FFF788FF041EF7D1A9693000BB
:10431000FFF7F9FA041EF1D1E8690378002B0ED0FB
:10432000C27A3F231340AB71C37A1B07E8D429003C
:1043300020310B2203F032FC0028E1D1DEE7042417
:10434000DCE7F8B505000E0004680021FFF714FE55
:10435000002818D1002708E00137B74213D0012107
:104360002800FFF759FF00280DD1A9692000FFF7A9
:10437000CAFA002807D1EB691B78E52BECD0002B9B
:10438000EAD00027EBE7042800D0F8BD0330FCE7B3
:10439000F0B5DE4657464E464546E0B583B001903F
:1043A0008A460B68984603002022944663449B4645
:1043B000153A2021180003F059FC00270026082395
:1043C0009946751C43469C5D202C1BD92F2C13D07D
:1043D0005C2C11D02E2C01D0B9451FD84B460B2B8D
:1043E00066D02E2C15D0062003B03CBC90469946D2
:1043F000A246AB46F0BD013543465B5D2F2BFAD09C
:104400005C2BF8D0454453461D60002F37D1062061
:10441000EAE72E0008270B239946D2E763B2002B68
:1044200016DB2000FFF7C0F9002816D002364346FD
:104430005D5D2800FFF7BAF900283BD04B46013BF1
:104440009F4239D27B1C5A46D455D5540237B8E71F
:104450007F231C401A4B1C5DE3E72100194803F041
:10446000E5FC00282AD12300613BDBB2192B01D8DF
:10447000203CE4B25B46DC5501372E00A1E7202347
:10448000019AD35CE52B06D0202C09D92B78202B60
:104490000CD8042205E00522C53B0199CA54F3E774
:1044A00004222B230199CA5400209DE70022F8E73B
:1044B000062099E7062097E7062095E7062093E770
:1044C000B0F600003CF7000030B583B00400019165
:1044D000056801E001330193019B1A782F2AF9D076
:1044E0005C2AF7D00022A2601B781F2B1CD901A9DF
:1044F0002000FFF74DFF00281DD12000FFF7F6FE3A
:104500002B23E35C002818D15B0714D4A379DB06C6
:1045100019D52B0030332269D105C90D591828004F
:10452000FFF752F9A060E2E780322B23E25400212A
:104530002000FFF721FD03B030BD0428FBD15B074D
:10454000F9D40520F7E70520F5E770B50500066802
:104550000121FFF7F6FE041E01D0200070BDA969FD
:104560003000FFF7D0F9041EF7D120220021E869BE
:1045700003F07CFBE869290020310B2203F034FBB7
:1045800001233371E9E7000070B50500FFF791F9E9
:10459000041E0AD12B78032B09D068780022002151
:1045A00000F09EFC002800D00124200070BD6B7933
:1045B000012BF2D12E0030368022920000213000F3
:1045C00003F054FB1249134BE818FFF7E1F81249C6
:1045D0003000FFF7E1F885239B00E8180F49FFF74B
:1045E000DBF886239B00E8182969FFF7D5F88723B5
:1045F0009B00E818E968FFF7CFF8EB695A1CEA62FC
:1046000068780123310000F021FC00236B71C4E7BE
:1046100055AA00002E02000052526141727241619F
:1046200030B585B0019000911400039103A8FFF705
:10463000F1F800281DDB83000F4A9A58002A03D0A6
:1046400000210D4D59511170019B002B07D058705E
:104650000023019A13708000074B019AC250002C6E
:1046600001D1002006E0002201A96846FFF712FAF6
:1046700000E00B2005B030BDBC0A0020F0B5CE46EE
:10468000474680B591B0070003911600002800D17D
:10469000E3E03F2515402A0004A903A8FFF7FAF933
:1046A000041E05D0002C00D1D8E000233B60D5E0EB
:1046B000049B0593039905A8FFF706FF041E04D188
:1046C0002B2305AAD356002B3EDB1C23334200D1FB
:1046D00089E0002C3FD0042C38D008231D43EDB2D4
:1046E000002C01D12B0741D4002C09D12B0702D576
:1046F00040231D43EDB2049BDB6A3B620C9B7B6253
:10470000002CCFD1049B99460C9B98461900484633
:10471000FFF75AF80600B86040461C30FFF72DF846
:104720008046F8604B463B60DB88BB803D740023CD
:104730007B74FB617B61AB06B4D50028B2D0786195
:104740004B465D896D0264E00634BEE705A8FFF7BD
:10475000FCFE0400C1E705AB9B7911221A4203D18C
:104760007307BDD50824BBE70724B9E70C9B019369
:104770003D4E18000E303100FFF70EF80C9B0193F0
:10478000180016303100FFF707F8049B0C9E31002B
:1047900001931800FFF718F881462023F3720C9A52
:1047A0000292002202990198FFF721F80C981C3020
:1047B0000021FEF7F1FF049B01221A714A46002AEC
:1047C00092D0DE6A0022494605A8FFF7BCFC041E11
:1047D0008AD131000498FFF796F804004B46013B5C
:1047E000049AD36080E7002C00D07DE705AB9B796D
:1047F000DA0607D4B20700D476E7DB0700D473E704
:10480000072471E704246FE702240DE043465B1B95
:104810009846002C0CD1A8450AD931003800FFF782
:104820003AFB06000128EFD9731CEFD10124EDE714
:10483000BE61002C00D035E74346DB0500D131E7EF
:1048400031000498FEF7B4FF002804D043465B0A09
:10485000C318FB6126E7022424E70924200011B0D5
:104860000CBC90469946F0BD00006655F0B5DE469A
:1048700057464E464546E0B585B005000C0017008A
:10488000994600234A461360009003A9FEF7EBFF08
:10489000061E06D16E7C002E03D12B7C9B0708D40C
:1048A0000726300005B03CBC90469946A246AB4670
:1048B000F0BD6B69DA19934200D9DF43A0465FE08F
:1048C00000210098FFF7AEFB6BE0A9690098FFF7A5
:1048D000A9FB66E002236B740226E2E701236B74F6
:1048E0000126DEE7FEF7E5FF00286AD001236B749E
:1048F0000126D6E702236B740226D2E701236B74EC
:104900000126CEE7504630304902414480229200D1
:1049100003F06AF900235246137178E06B69EA6884
:10492000934276D25B46EB616B69DC05E40D802334
:104930009B001C1BA74200D23C00E9690398FEF7CC
:10494000E2FF002872D1039830306B69DB05DB0D84
:10495000C0182200414603F047F90123039A13715E
:104960003F1B4B461B681B194A461360A0446B69EA
:104970009C4664446C61EB689C4200D21C00EC6075
:10498000002F57D06B69DA05CED15A0A03994989AD
:10499000013911408A460FD1002B96D1A868002812
:1049A0008ED0002846D0012894D0431C96D0A86110
:1049B000AB68002B00D1A8600398C36AEA699342F0
:1049C00090D0039B0193A9691800FEF7F1FE00281F
:1049D00090D0504483467C0AA0D053461B19019ABC
:1049E0005289934201D95346D41A019B5878230027
:1049F0005A46414600F02AFA002800D07EE7039B81
:104A00009A46DB6A5A46991A8C4200D97AE76402C0
:104A1000A6E70198FEF74DFF002803D1039B5A46F5
:104A2000DA627FE701236B7401263AE701236B7496
:104A3000012636E72B7C402213432B7431E700001C
:104A400030B583B0040001A9FEF70DFF002802D1A4
:104A5000237C5B0601D403B030BD216A0198FEF7C8
:104A600052FF0028F7D1656AEB7A20221343EB72DC
:104A7000A26829002068FEF7BAFE28001C30E16811
:104A8000FEF78AFE280016300949FEF785FE280049
:104A900012300021FEF77CFE0123019A13711000F1
:104AA000FFF772FD237C402293432374D3E7C04673
:104AB0000000665510B582B00400FFF7C1FF002862
:104AC00001D002B010BD01A92000FEF7CCFE0028E5
:104AD000F7D100232360F4E710B589B2FDF716FC87
:104AE00010BD00B583B080221203C023DB059A619C
:104AF00001216B46D81DFFF7EFFF03B000BD10B5D5
:104B0000040080B2FBF744FB013C002CFCD110BD3B
:104B100030B583B00A4C002C0DD06B46DD1D012151
:104B20002800FFF7D9FF2B78FF2B04D06420FFF774
:104B3000E6FF013CEFE72000441EA04103B030BD7A
:104B40008813000010B582B080221203C023DB0559
:104B50005A6101216B46D81DFFF7BEFFFFF7D8FF52
:104B6000041E03D00124200002B010BDFFF7B9FFDE
:104B7000F9E7F0B583B006000F00FA25AD00002D6F
:104B80000CD001AC01212000FFF7A6FF2378FF2BFA
:104B900004D16420FFF7B3FF013DF0E701AB1B78C0
:104BA000FE2B02D0002003B0F0BD39003000FFF72B
:104BB00093FF022101A8FFF78FFF0120F3E710B553
:104BC00089B2FDF7AFFB10BD30B583B004000D0016
:104BD00043B2002B09DB0C2C10D0FFF782FFFFF74C
:104BE000B1FF00280AD1FF202FE07F231C400021C5
:104BF0003720FFF7E9FF012827D8ECE740232343BC
:104C00006A4613702B0E53702B0C93702B0AD370C3
:104C10001571002C1BD00123082C1AD06A46537141
:104C200006216846FFF7CBFF0C2C14D00A246B46F4
:104C3000DD1D01212800FFF74FFF287843B2002B2C
:104C400003DA013CE4B2002CF1D103B030BD95236E
:104C5000E2E78723E2E701216B46D81DFFF73CFF1F
:104C6000E4E730B583B005000C00FFF751FF0028E2
:104C700001D103B030BD01A804700121FFF79FFFEF
:104C8000FD2C14D0802189002800FFF798FF01AC8B
:104C900002212000FFF720FF01212000FFF71CFF69
:104CA00022781F231340052B03D00020E1E70120C9
:104CB000DFE70120DDE70000002802D1024B187871
:104CC00070470120FCE7C04630000020F0B583B0FB
:104CD000002803D00324200003B0F0BD0A30FBF706
:104CE00063FA0A2405E0012101A8FFF7F5FE013C63
:104CF000E4B2002CF7D100210020FFF765FF060089
:104D00000700012809D0334B1C7063425C41E4B2B8
:104D1000314B1C70FFF7E5FEDDE7D5214900082087
:104D2000FFF752FF012815D00021A920FFF74CFF03
:104D300001283ED9FA25AD00002D3DD000213000DC
:104D4000FFF742FF002837D0FA208000FFF7D7FE98
:104D5000013DF1E701AD04212800FFF7BDFEAB786E
:104D6000012BD0D101ABDB78AA2BCCD1FA25AD0039
:104D7000002D0CD08021C905A920FFF725FF0028B0
:104D800005D0FA208000FFF7BAFE013DF0E7002DC4
:104D9000B9D000213A20FFF717FF0028B3D101ACAA
:104DA00004212000FFF798FE23785B060FD5182416
:104DB000A9E7A9260827BDE7002DA4D080218900F6
:104DC0001020FFF701FF00289DD13C009BE708243D
:104DD00099E7C046C20A002030000020F8B50D0057
:104DE00017001C00FFF768FFC30701D50320F8BDBB
:104DF000154B1B78DB0600D47F02012C1CD9122630
:104E000039003000FFF7E0FE00280FD18021890033
:104E10002800FFF7AEFE002806D080239B009C46AA
:104E20006544013C002CF1D1122E07D0FFF759FE4A
:104E3000601E8441E0B2DAE71126E1E700210C2090
:104E4000FFF7C2FEF2E7C046C20A002070B50D00AF
:104E500016001C00FFF730FFC30701D5032070BD0B
:104E60001E4B1B78DA0600D47602012C21D00C22CE
:104E70001A422CD131001920FFF7A6FE002812D1CA
:104E8000FC212800FFF7EDFE002806D080239B00C0
:104E90009C466544013C002CF2D1FD210020FFF727
:104EA000E0FE002818D0FFF71CFE601E8441E0B22F
:104EB000D5E731001820FFF787FE0028F3D1FE2147
:104EC0002800FFF7CEFE0028EDD00024EBE72100FC
:104ED0009720FFF779FECDE70124E4E7C20A00201E
:104EE00030B585B00C001500FFF7E6FEC30703D50B
:104EF0000324200005B030BD012C0BD0002C03D0C2
:104F0000032C51D0042452E0FFF71CFE002851D19D
:104F100001244CE000210920FFF756FE002801D0B3
:104F2000012444E010216846FFF723FE002843D007
:104F30006B461B789B09012B24D06B465A790F23B3
:104F400013406A46927AD2099B186A46517A490000
:104F500006220A409B18DBB20233DBB26A46127AA1
:104F600092096946C9798900521869468979890286
:104F7000C0200001014052180132093B9A402A60CA
:104F8000002414E06B465B7A6A46127A12029B1880
:104F90006A46D2791204FC2189030A409B18013326
:104FA0009B022B60002402E080232B600024FFF78B
:104FB00098FD9EE70024FAE70124F8E7F0B5C6461D
:104FC00000B5D8B0FDF784FAD849D948FEF728FAD9
:104FD000D849D948FEF738FAD849D948FEF74CFAEB
:104FE000FEF7E8FA6420FBF7DFF8D6480100FEF789
:104FF00096FAFDF785FA5A30D34C60722000FEF71E
:10500000EFFA21000020FEF789FBC023DB05802298
:10501000D2039A61802252009A610132FF329A6172
:10502000FF21B0204001FEF753F8FF21C0204001CE
:10503000FEF74EF8002198204001FEF749F80121C3
:10504000A0204001FEF744F800240BE0A00001304E
:10505000C000B0239B019C4660440421FEF738F851
:105060000134E4B2072CF1D9B84C80239B000093A3
:105070008023DB01482205212000FCF7AAFDB4496A
:105080002000FCF75EFD00212000FCF74EFD002112
:105090002000FCF798FDE0212000FCF77CFD0021BA
:1050A0002000FCF772FD0A20FCF71AFE0022A94935
:1050B000A948FFF7B5FA0A22A849A948FFF7DEFA7E
:1050C000002809D1A64C57AB0B22A6492000FFF7B8
:1050D000CDFB2000FFF7EEFC17AC11232370E33368
:1050E0006370022221003820FDF776F90023237037
:1050F00006336370022217A93820FDF76DF99A4B29
:105100001B882380022217A93820FDF765F913A810
:10511000FBF730F8C023DB0580229C5820329349EE
:105120008A5890215B5853401C40544013A8FBF709
:1051300028F8E30520D48022D203C023DB059A613E
:105140008B4B187880000130C000C0239B009C4628
:105150006044FDF78BFF002814D0854B1878800041
:105160000130C00080239B009C466044FDF77EFF19
:10517000C30613D1052459E28022D203C023DB05E4
:105180005A61DDE77B4B1A88794C20788023022115
:10519000FDF766FA2078FDF71BFBDEE7744B187805
:1051A000FEF774F8041EE5D080231B01984200D955
:1051B0001C00714D802212010021280002F056FDD2
:1051C0006B4B187814AB009317AB22002900FDF746
:1051D0004FFD6A49280002F0FFFD00281ED06849F3
:1051E000654802F0F9FD002836D06649624802F0B1
:1051F000F3FD002837D064495F4802F0EDFD002838
:1052000038D062495C4802F0E7FD00283BD1604B92
:10521000604A1188198092789A7005E05C4B5D4A6B
:105220001188198092789A705B4E32885B4F38787B
:1052300001230221FDF714FA594C2070544D280027
:1052400002F0A6FE82B2387833880093554B2900CD
:10525000FDF754FC20708DE74D4B4E4A11881980A4
:1052600092789A70E0E74A4B4F4A11681960928829
:105270009A80D9E7464B4D4A116819609188998008
:1052800092799A71D0E74A4A414B1A60CCE712AA48
:1052900004212000FDF72AFE2000FDF7F7FF06009D
:1052A00080231B01984200D91E00334F8022120137
:1052B0000021380002F0DAFC320039002000FDF74E
:1052C000A3FB3C49380002F0F7FF002816D0002766
:1052D00009E0B2B23849C9192000FDF7F9FA1420E3
:1052E000FAF762FFBF19354B9F4217D8344EF61BB1
:1052F0008023DB009E42ECD91E00EAE731491E48BC
:1053000002F0DAFF002865D02F222F492000FDF798
:10531000DFFA2E4A2E492000FDF7DAFA2000FDF7C9
:105320008FFA2000FDF75CF991E1C0468B21000067
:1053300081210000E9210000C5210000AD2100000D
:10534000952100006000002048000020F816002091
:10535000FFFF000038F70000C8140020D4FC000054
:1053600004170020DCFC00004CF700000044004162
:105370003A00002038000020C80C0020E8FC0000A3
:10538000FCFC00000CFD000020FD000034FD0000CE
:10539000C40A0020F8FC00003C000020440B002060
:1053A000001700203400002018FD00002CFD000034
:1053B000657272003CFD0000ECFE0000AE1D0000B6
:1053C000AF1D000044FD000058FD000082050000F4
:1053D00050F70000B049B14802F06EFF002849D0F4
:1053E0000E3006000A20FCF77BFCAD4FAD4B984613
:1053F0003B004246AC49300002F0C4FC386802F081
:10540000CFF9AA4AAA4B01F087FB0022A94B00F072
:105410003FFD00F03FFB80B2030A0F273B4017AE71
:1054200033707070022231003820FCF7D5FF4346FC
:10543000186802F0B5F900229F4B01F06DFB0022C5
:105440009E4B00F025FD00F025FB80B2030A1F40B3
:1054500010231F4337707070022217A93820FCF701
:10546000BBFF0122964B1A70423296492000FDF78D
:105470002FFA53E79449894802F01EFF002840D0D4
:10548000924B1E68924B1F68391C301C00F0E0FBE9
:10549000119001230F930E9300230D938D4B1B78D6
:1054A0000C93874B1B780B938B4B1B780A93381C00
:1054B00002F076F908900991301C02F071F906901B
:1054C0000791119802F06CF904900591744B1868DB
:1054D00002F066F902900391724B186802F060F9CD
:1054E000009001917D4A8021490017A802F008FC34
:1054F00017A802F04DFD82B217A92000FDF7E8F9C8
:105500000CE77749654802F0D7FE002800D105E78F
:105510000D3017AB14AA734902F034FC724914A879
:1055200002F0F2FC002820D10A30FCF7D9FB6F49C9
:1055300017A802F0E9FC002808D1C023DB0580226F
:1055400052009A610132FF329A611AE0684917A845
:1055500002F0DAFC002814D1C023DB0580225200BF
:105560005A610132FF325A610BE0624914A802F01D
:10557000CBFC00280BD0604914A802F0C5FC002821
:105580002BD041224F492000FDF7A2F9C6E60A3090
:10559000FCF7A6FB554917A802F0B6FC00280CD171
:1055A0000122474B1A70464B1B78002B0FD08022EC
:1055B000D200C023DB059A61E3E74D4917A802F04A
:1055C000A3FC0028EFD100223D4B1A70EBE78022AC
:1055D000D200C023DB055A61D3E70A30FCF780FB19
:1055E000424917A802F090FC002806D101223A4B4C
:1055F0001A700122324B1A70C3E73D4917A802F016
:1056000083FC0028F5D10022334B1A70F1E780218A
:1056100089029733C022D205D15022E08022920322
:10562000C023DB059A6125E00134E4B2072C00D9E0
:105630006DE51094A5000135ED00C0239B009C464C
:1056400065442800FDF712FD172800D11FE6224B04
:105650001B78012BDBD0802189029423C022D20544
:10566000D150174B1B78012BD8D080229203C02336
:10567000DB055A612800FDF7F9FC0028D4D1109B06
:105680005B001E4A9A5A002301212000FCF7E8FF24
:105690002000FDF79DF8C7E788FD0000C80C00203A
:1056A000780000204000002098FD00005F4A048F31
:1056B000F4D74F4000001A4000E8834000487F4084
:1056C000460B0020A8FD0000ECFD00004400002077
:1056D0007C000020450B00205F000020FCFD000046
:1056E000B0FE0000C0FE0000D8FE0000DCFE00009E
:1056F000E0FE0000E4FE0000E8FE0000680000207C
:10570000002243088B4274D303098B425FD3030A00
:105710008B4244D3030B8B4228D3030C8B420DD313
:10572000FF22090212BA030C8B4202D312120902A1
:1057300065D0030B8B4219D300E0090AC30B8B42DF
:1057400001D3CB03C01A5241830B8B4201D38B038D
:10575000C01A5241430B8B4201D34B03C01A524132
:10576000030B8B4201D30B03C01A5241C30A8B4275
:1057700001D3CB02C01A5241830A8B4201D38B0260
:10578000C01A5241430A8B4201D34B02C01A524104
:10579000030A8B4201D30B02C01A5241CDD2C30976
:1057A0008B4201D3CB01C01A524183098B4201D3F2
:1057B0008B01C01A524143098B4201D34B01C01ADD
:1057C000524103098B4201D30B01C01A5241C30855
:1057D0008B4201D3CB00C01A524183088B4201D3C4
:1057E0008B00C01A524143088B4201D34B00C01AB0
:1057F0005241411A00D20146524110467047FFE71C
:1058000001B5002000F0F0F802BDC0460029F7D035
:1058100076E7704703460B437FD4002243088B4250
:1058200074D303098B425FD3030A8B4244D3030B27
:105830008B4228D3030C8B420DD3FF22090212BAEC
:10584000030C8B4202D31212090265D0030B8B4268
:1058500019D300E0090AC30B8B4201D3CB03C01A52
:105860005241830B8B4201D38B03C01A5241430B2D
:105870008B4201D34B03C01A5241030B8B4201D31D
:105880000B03C01A5241C30A8B4201D3CB02C01A88
:105890005241830A8B4201D38B02C01A5241430A00
:1058A0008B4201D34B02C01A5241030A8B4201D3EF
:1058B0000B02C01A5241CDD2C3098B4201D3CB0196
:1058C000C01A524183098B4201D38B01C01A524145
:1058D00043098B4201D34B01C01A524103098B4249
:1058E00001D30B01C01A5241C3088B4201D3CB0034
:1058F000C01A524183088B4201D38B00C01A524117
:1059000043088B4201D34B00C01A5241411A00D2C6
:1059100001465241104670475DE0CA0F00D049422F
:10592000031000D34042534000229C4603098B429F
:105930002DD3030A8B4212D3FC22890112BA030A27
:105940008B420CD3890192118B4208D389019211A9
:105950008B4204D389013AD0921100E08909C3092E
:105960008B4201D3CB01C01A524183098B4201D330
:105970008B01C01A524143098B4201D34B01C01A1B
:10598000524103098B4201D30B01C01A5241C30893
:105990008B4201D3CB00C01A524183088B4201D302
:1059A0008B00C01A5241D9D243088B4201D34B001D
:1059B000C01A5241411A00D20146634652415B105F
:1059C000104601D34042002B00D549427047634640
:1059D0005B1000D3404201B5002000F005F802BD85
:1059E0000029F8D016E770477047C046002B11D148
:1059F000002A0FD1002900D1002802D00021C9437C
:105A0000081C07B4024802A14018029003BDC0461A
:105A1000D9FFFFFF03B4684601B5029800F058F8BB
:105A2000019B9E4602B00CBC7047C046F0B5CE4606
:105A3000474615042D0C2E0080B50704140C3F0CAE
:105A40009946030C7E435D43674363437F19340CDF
:105A5000E4199C46A54203D980235B029846C444BE
:105A60004B46514343433604360C250C240465440D
:105A7000A4195918491920000CBC90469946F0BD4C
:105A800010B50023002802D001F044FF431C180089
:105A900010BDC04670B500220C4B04000D0001F093
:105AA00005FF002804D12000290001F0CBFD70BDC6
:105AB000064B00222000290001F0AEFA01F0C2FDE1
:105AC00080231B069C466044F1E7C0460000E0418D
:105AD000F0B557464E464546DE46E0B5040083B075
