:100000004023002009010000050100000501000057
:1000100000000000000000000000000000000000E0
:1000200000000000000000000000000005010000CA
:1000300000000000000000000501000005010000B4
:100040000501000005010000050100000501000098
:10005000C50A0000050100000501000005010000BF
:100060000501000005010000050100000501000078
:100070000501000005010000050100000501000068
:100080000501000005010000050100003518000011
:1000900049180000050100000501000005010000ED
:1000A0000501000010B5064C2378002B07D1054B45
:1000B000002B02D0044800E000BF0123237010BDD4
:1000C000EC0000200000000080380000084B10B554
:1000D000002B03D00749084800E000BF0748036829
:1000E000002B00D110BD064B002BFBD09847F9E741
:1000F00000000000F0000020803800008038000080
:1001000000000000FEE7000010B5124A124B9A42B0
:1001100009D0114B0F4A03E011681960043304320F
:100120000E498B42F8D30E4B02E000221A600433D2
:100130000C4A9342F9D30C4AFF210C4B8B4393603A
:100140000B4A516880230B4353600A4B98470A4B74
:100150009847FEE78038000000000020EC000020F7
:10016000EC0000203C03002000ED00E00000000057
:10017000004000413D2D0000112A0000F0B5C026CE
:10018000F60504237360144B144A9A62C0221206C7
:100190009A624220195C0125A94301242143C9B276
:1001A00019541138195C0F27B9432143C9B21954A6
:1001B000082171600A4999629A6243215A5CAA43F4
:1001C0002243D2B25A541A5C34390A4010210A43ED
:1001D000D2B21A54F0BDC0460044004104000040B1
:1001E00008000040044A116A80235B020B4313623B
:1001F000024A034B5A807047000400401740000039
:10020000000C004010B5054B9847054B984700225D
:1002100004490548054B984710BDC046E50100005C
:100220007D01000000400042680100203102000012
:1002300070B504000D0000280DD0002909D0012060
:1002400039220649064B984729002000054B98475C
:1002500070BD0020F4E70020F2E7C046D43500006E
:100260006D080000E5090000EFF31083036072B62B
:10027000BFF35F8F7047BFF35F8F036883F310880E
:100280007047000010B5044B1C68044B98470100F0
:100290002000034B984710BD080100201D0A0000F4
:1002A000390A0000F0B5C64600B584B001900023BD
:1002B000002B10D00023984600291BD04346002B6A
:1002C00046D1002B24D1DA002A4C1259002A18D02A
:1002D0000133DBB2F5E7DC00264A121952680198B7
:1002E000824202D00133DBB2E2E7224BE15001232C
:1002F0009846E1E74346002B35D001981E4B9847BE
:100300002DE0DD0029516519019A6A6001229046AD
:10031000002201E00132D2B21900114318D115496F
:10032000DC000C196768D400091949688F42F1D2C2
:100330004C1CEFD002A98C460E4FD10079186446B0
:1003400041C941C4DD007D19614611C911C5E1E70C
:100350004346002B0AD001210198074B984704B06F
:1003600004BC9046F0BD0D204042F8E70D2040420D
:10037000F5E7C0460C010020790A000010B584B0F2
:100380001438848B01AB1C8014000292064A5A80F8
:1003900003911900054B9847002802D1200004B0B2
:1003A00010BD0400FAE7C0460080FFFF51100000B6
:1003B00010B584B01438848B01AB1C8014000292F9
:1003C000064A5A8003911900054B9847002802D12C
:1003D000200004B010BD0400FAE7C0460180FFFF12
:1003E0005110000070B504000D00431E9841C0B2CA
:1003F0005E220749074B984729002000064B984783
:10040000002803D1054BA361054B636170BDC04655
:10041000F03500006D0800002D0F0000B103000052
:100420007D03000010B5014B984710BDD90F0000A7
:10043000143008600020704770B504000D001600ED
:1004400000280ED000290AD0012034220649074B8B
:1004500098472368320029002000984770BD00208B
:10046000F3E70020F1E7C0460C3600006D080000FD
:1004700070B504000D00160000280ED000290AD027
:1004800001203D220649074B984763683200290046
:100490002000984770BD0020F3E70020F1E7C04638
:1004A0000C3600006D08000010B54369002B00D029
:1004B000984710BD10B58369002B00D0984710BD38
:1004C00070B504000D00002812D000290ED00120C4
:1004D00033220849084B984729002000074B9847CA
:1004E000074B2360074B6360002070BD0020EFE7DF
:1004F0000020EDE7203600006D080000C91600005E
:10050000A9040000B504000010B50400431E984182
:10051000C0B24A220749084B98472000074B98472A
:10052000002804D12000064B9847002010BD112060
:100530004042FBE7203600006D080000251800004F
:10054000BD17000070B504000D001600431E984151
:10055000C0B27C220449054B984732002900200094
:10056000034B9847002070BD203600006D08000046
:10057000CD17000070B504000D00002817D0002929
:1005800013D0012040220B490B4B98476560201D7A
:1005900029000A4B9847002806DB094BA382094B28
:1005A0002361094BE360002070BD0020EAE70020D2
:1005B000E8E7C046383600006D0800006D12000004
:1005C0000080FFFF790600003D06000010B5040022
:1005D000431E9841C0B257220349044B9847201D3F
:1005E000034B984710BDC046383600006D08000028
:1005F0002D14000030B587B004000D00002815D080
:10060000002911D00120B32209490A4B98472B68D1
:1006100003936B680493AB6801930593201D03A9B2
:10062000054B984707B030BD0020ECE70020EAE713
:10063000383600006D0800006514000070B584B005
:1006400004000E001500431E9841C0B2A3220749C2
:10065000074B984720000C3800230293019603951E
:1006600001A9044B984704B070BDC046383600005D
:100670006D080000F505000070B584B004000E00A0
:100680001500431E9841C0B287220749074B98477F
:1006900020000C38029600230193039501A9044B16
:1006A000984704B070BDC046383600006D080000A1
:1006B000F505000070B504000D0000280CD00029DD
:1006C00008D00120BD220549054B98470C342C6009
:1006D000002070BD0020F5E70020F3E73836000069
:1006E0006D080000F8B505000E001700002823D0A3
:1006F000002923D0002A23D10020F1221149124BD6
:1007000098472C0008342000104B98470028F8D058
:100710000025715D20000E4B984720000B4B984739
:100720000028FAD00135BD42F3D32000094B984789
:100730000028FAD02800F8BD0020DEE70020DCE722
:100740000120DAE7543600006D0800000B0F0000AE
:10075000FB0E0000150F0000F8B5CE46474680B5E9
:10076000051E884691461FD000291FD0002A1FD1A0
:100770000020862252000F490F4B984700262C007C
:10078000083420000D4B98470028F8D043469F19A5
:1007900020000B4B9847387001364E45EFD33000A0
:1007A0000CBC90469946F8BD0020E2E70020E0E747
:1007B0000120DEE7543600006D080000210F000024
:1007C000030F000070B504000D00002814D00029AC
:1007D00010D0012034220949094B984720000830E5
:1007E0002900084B9847002803D1074B6360074B4B
:1007F000236070BD0020EDE70020EBE754360000D9
:100800006D080000BD0E000059070000E50600005D
:1008100010B50400431E9841C0B253220449054B51
:10082000984720000830044B9847002010BDC04670
:10083000543600006D080000E90E000070B5040099
:100840000D0000280BD0002907D00120692205499E
:10085000054B98472C60002070BD0020F6E7002073
:10086000F4E7C046543600006D080000002800D1AF
:1008700000BE70470300064A1268002A04D0044AEA
:100880001068C318136070470249014A1160F6E707
:1008900014010020402300200020704710B50B4BAE
:1008A000984702000020002806D07F220849002037
:1008B000084B9847002010BDC3001B1A9900064B37
:1008C000CB5C9A42F7D00130C0B2ECE79908000047
:1008D0008C3600006D0800007036000070B5040012
:1008E0000D003A4BC01843425841C0B294223849D7
:1008F000384B9847384B1A68D2081202E023DB00C5
:100900001A4036490B6849684901DB0E0B43FF2149
:100910000B401A43637EDB09FCD123789B0704D587
:1009200000232370637EDB09FCD101232370637EE7
:10093000DB09FCD12285EA00521B9100284B5B1891
:100940009A786270DA78A2701A79E2701A7C22754D
:10095000DA8AA2841A8BE284997E2A22A154DB8847
:10096000A380637EDB09FCD1EB005B1B9A001C4B70
:100970009B18DB682361637EDB09FCD1EB005B1B0A
:100980009A00174B9B181B7A2372637EDB09FCD1FC
:10099000EB005B1B9A00124B9B185B8AA383637E60
:1009A000DB09FCD1EB005B1B9A000D4B9B189B8A6B
:1009B0002384637EDB09FCD1EB005D1BAA00084B9E
:1009C0009B185B782370002070BDC04600C0FFBD3F
:1009D0008C3600006D0800002460800020608000DC
:1009E0007036000070B505000C00431E9841C0B27F
:1009F000C5220649064B98472C602000054B9847B6
:100A000001002000044B984770BDC0468C360000A2
:100A10006D0800009D080000DD08000010B503010E
:100A20001B1A580102300321024B98476423584394
:100A300010BDC046D12B00000139FDD87047000021
:100A400010B5084A536806210B435360064B98477C
:100A5000064B98470820064CA047064B9847F720BE
:100A6000A04710BD00400041D90B00004D1500000B
:100A70007D0B0000991500000023002B0BD0FF22F6
:100A8000FF2A17D000290FD1012393400B4A93600E
:100A9000136100207047282802D00133DBB2ECE755
:100AA000DA00074BD25CEBE701239340034AD360A3
:100AB0000020EFE70D204042ECE7C0460018004060
:100AC000A436000070B582B0264B1A69D9680A4076
:100AD0000192019A1A61244B1868431E9841C0B2D2
:100AE000D2222249224B984701256D422EE001393E
:100AF000CEB2B0420ED832185210D1B2FF231340FA
:100B0000DB001C4A9B5CA34203D0F0DA0131C8B27F
:100B1000EFE728256B1C03D0134B1B682800984770
:100B20000122A240019B934301930198124B9847E5
:100B3000013844B2631C02D001260020D9E7094BDA
:100B40001A69D9680A400192019A1A61019B002B27
:100B500005D00198084B9847013844B2EAE702B043
:100B600070BDC0460018004018010020AC360000DF
:100B70006D080000A4360000E92C0000C30709D569
:100B8000114B802252009A60104A5A600E4B5B78DB
:100B9000DB09FBD1830709D50B4B0222FF329A6098
:100BA0000B4A5A60084B5B78DB09FBD1030709D578
:100BB000054B0422FF329A60064A5A60024B5B786A
:100BC000DB09FBD17047C046000C00400007010064
:100BD0000106010003030100064B1A7AD2B21A7211
:100BE0005A7AD2B25A729A7AD2B29A72DA7AD2B265
:100BF000DA72704700040040024B9C466044800A51
:100C0000C0B2704700F8FFBD038ADB0B08D1036850
:100C1000022213430360038ADB0BFCD100207047E0
:100C200004204042FBE7000010B50A4B9847030040
:100C30000020002806D0084A08490020084B9847A1
:100C4000002010BD02010749525C9342F9D00130E7
:100C5000C0B2EEE7F90B00002A0200001C370000CA
:100C60006D080000C436000010B50400194B984709
:100C7000238ADB0BFCD1238ADB0BFCD123689B0787
:100C800007D500232360238ADB0BFCD1238ADB0BEF
:100C9000FCD101232360238ADB0BFCD1238ADB0BED
:100CA000FCD102010C4B9B185B682360238ADB0B91
:100CB000FCD10201084B9B189B686360238ADB0B05
:100CC000FCD10001044B181883896381837B237254
:100CD000002010BD290C0000C436000010B50C4BDC
:100CE000984702000020002806D00A4A0A4900203E
:100CF0000A4B9847002010BD43001B18D900084B31
:100D00005B181B7C9A42F6D00130C0B2EBE7C046BC
:100D1000F90B0000660300001C3700006D0800009E
:100D2000C436000070B505000469431E9841C0B286
:100D30005C4A5D495D4B984763685D4A1340636058
:100D4000238ADB0BFCD12A8852006B8801210B40DF
:100D50001343DBB22375238ADB0BFCD12E69554A82
:100D6000B37BDBB21800511E002A02D00A009B0799
:100D7000F6D0238ADB0BFCD1238A9BB2C20750D565
:100D80009A0710D50122A2736A88802149010A437B
:100D90006A806A8848490A406A80DB0700D47CE0A0
:100DA0000520404263E05B070BD4686800282DD122
:100DB0006B881BB2002B20DB6B883F4A13406B8093
:100DC00055E06B68002B04DD6B88802252011343D1
:100DD0006B806B881BB2002B06DB6B88364A134096
:100DE0006B800220404242E06268C0239B021343B2
:100DF0006360238ADB0BFCD1EFE76268C0239B02B0
:100E000013436360238ADB0BFCD1D5E7AB681B7807
:100E10002376AB680133AB606B68013B6B600020ED
:100E200025E082073CD56A68002A31D05B072FD4C1
:100E3000013A6A60002A07D162688023DB0213430B
:100E40006360238ADB0BFCD16B68002B07D16B88B6
:100E50001BB2002B0CDB6B88174A13406B80AB680E
:100E60005A1CAA60227E1A700223A373002070BD50
:100E70006368114A13406360238ADB0BFCD162680C
:100E8000C0239B0213436360238ADB0BFCD1E2E7A0
:100E90000223A37302204042E9E704204042E6E730
:100EA0000020E4E7810500001C3700006D08000009
:100EB000FFFFFBFFFFFF0000FFFEFFFF70B5050017
:100EC0000C00431E9841C0B2A1220449044B98472C
:100ED0002C602000034B984770BDC0461C370000B3
:100EE0006D080000690C00000268136802210B43C2
:100EF0001360138ADB0BFCD17047036889B2198336
:100F000070470368188BC0B270470368987B012351
:100F10001840704703689B7B5B08012018407047AE
:100F200003689B7B9B0801201840704770B5060042
:100F30000C000800234B984705003000431E9841E1
:100F4000C0B2214A2149224B98473461238ADB0BE6
:100F5000FCD1238ADB0BFCD123689B0707D5002338
:100F60002360238ADB0BFCD1238ADB0BFCD101231A
:100F70002360238ADB0BFCD1238ADB0BFCD16B00C3
:100F80005B19DA00134B9B185B69022293432360C1
:100F9000238ADB0BFCD16B005B19DA000D4B9B182D
:100FA0009B696360238ADB0BFCD10A4A6B005819EA
:100FB000C10008005118898B61811218138CF381CC
:100FC000002070BDDD0C0000D70400001C370000BD
:100FD0006D080000C4360000F8B506000469184D1D
:100FE000431E9841C0B2A122D2002900154FB84734
:100FF0003069431E9841C0B2134A2900B84723689C
:10100000022213432360238ADB0BFCD104200F4907
:10101000238ADB0BFCD1228A120903331340012BF4
:1010200008D001390029F3DC0138002804D010234E
:101030002382ECE70020F8BD06204042FBE7C046D3
:101040001C3700006D08000009050000FFFF0000CC
:10105000F8B505000E000469431E9841C0B27B4AF2
:101060007B497C4FB8472869431E9841C0B27A4AF1
:101070007749B8473000431E9841C0B2774A744957
:10108000B8476B88DB0500D5DCE0728880235B0005
:101090009C461A4372802A00310089C989C262685D
:1010A000634613436360238ADB0BFCD128006C4B3F
:1010B0009847002800D17DE06B886A4A13406B8016
:1010C000F8BD0520404286E073881BB2002B04DB8C
:1010D0006B88644A13406B80F2E76268C0239B020E
:1010E00013436360238ADB0BFCD1F1E75B070BD46E
:1010F000686800282DD16B881BB2002B20DB6B8821
:10110000584A13406B8055E06B68002B04DD6B88F8
:101110008022520113436B806B881BB2002B06DBCD
:101120006B88504A13406B800220404242E0626864
:10113000C0239B0213436360238ADB0BFCD1EFE7E0
:101140006268C0239B0213436360238ADB0BFCD1DC
:10115000D5E7AB681B782376AB680133AB606B686F
:10116000013B6B60002025E08A0769D56A68002A88
:101170005ED05B075CD4013A6A60002A07D16268DE
:101180008023DB0213436360238ADB0BFCD16B6893
:10119000002B07D16B881BB2002B39DB6B88314ADF
:1011A00013406B80AB685A1CAA60227E1A7002231F
:1011B000A37300206B88DB0500D481E72F692A4ADE
:1011C000BB7BDBB21900501E002A00D179E7020078
:1011D0009B07F5D00020002800D075E7238ADB0BA1
:1011E000FCD1238A9BB2CA07BED59A0700D47DE7FB
:1011F0000122A2736A88802149010A436A806A88B1
:1012000018490A406A80DB0717D505204042D1E71C
:101210006368144A13406360238ADB0BFCD1626865
:10122000C0239B0213436360238ADB0BFCD1B5E729
:101230000223A37302204042BCE704204042B9E7E6
:101240000020B7E7062040423AE7C0469B05000071
:101250001C3700006D0800009C0500009D05000083
:10126000250D0000FFFEFFFFFFFF000070B5060028
:101270000C000800634B98470023012B0DD819017F
:10128000614A38325218D27B904202D00133DBB22D
:10129000F3E75D4B38335D1800E00025002E00D1E8
:1012A0006AE0002C00D165E00120584A5849594BAA
:1012B0009847002D00D1A2E0238ADB0BFCD1238AC2
:1012C000DB0BFCD123689B0707D500232360238A0F
:1012D000DB0BFCD1238ADB0BFCD101232360238AA7
:1012E000DB0BFCD1238ADB0BFCD134602B786A78D2
:1012F00012021A43AB781B041A43EB781B06134304
:101300001C221340082B39D0002C00D173E0002D93
:1013100000D16EE00120404A3D493E4B98472B7872
:101320006A7812021A43AB781B041A43EB781B0647
:1013300013433A4A13402360238ADB0BFCD12B79F9
:101340006A7912021A43AB791B041A43EB791B0624
:101350001343334A134080229202134363602B7B72
:10136000A3726B7B23722B795B0746D10123337108
:10137000002070BD002098E7002096E7002C36D0B2
:10138000002D32D00120274A2149224B98472B7843
:101390006A7812021A43AB781B041A43EB781B06D7
:1013A00013431E4A13402360238ADB0BFCD12B79A5
:1013B0006A7912021A43AB791B041A43EB791B06B4
:1013C0001343194A134363602B7A6A7A12021A4351
:1013D000AB7A1B041A43EB7A1B06134363616B7BE6
:1013E0002372238ADB0BFCD1BDE70020CBE7002072
:1013F000C9E700208FE700208DE70223B7E70D2023
:101400004042B6E7F90B0000C4360000A308000014
:101410001C3700006D08000072080000FCFEFFFF92
:10142000BF3FFDFF830800004000020010B5041E0E
:101430000DD00368002B08D00120064A0649074B4F
:1014400098472068064B984710BD0020F5E700201C
:10145000F3E7C0460A0900001C3700006D080000D1
:10146000090C000070B588B00D0004680B68039388
:101470004B6804930023059306930679002814D043
:10148000002C10D001202D4A2D492E4B9847238A3D
:10149000DB0B4FD1238ADB0BFCD123689B0718D4CD
:1014A0001420404244E00020EDE70020EBE700225A
:1014B00026E058780002014302330393013205927B
:1014C00089B221830598AB68984202D3069A934269
:1014D00029D9A37BDBB25A07E9D5228B92B20499B2
:1014E000002908D0481C04900A70012E03D9881CDA
:1014F0000490120A4A70069A019201320692012261
:10150000002ADFD10699059A9142DBD3DB07D9D5B2
:10151000039B002B05D0591C03911978012EC8D8C4
:10152000CCE70949CAE7A37B9B07FCD00323A3733D
:1015300008B070BD04204042FAE7C046010A00002E
:101540001C3700006D080000FF0100000F4B196AF6
:10155000090C1A6A920F920709040D4801400A43C8
:101560000C490A431A629A6902210A439A611A7F56
:101570001D310A401A77054BDB681B07FBD5034A70
:10158000136A80210B4313627047C0460008004075
:101590000000FF0F0203000002221B4B9A841A4B2B
:1015A000DB68DB06FBD5194A174BDA62184B1B6860
:1015B0009B0E3F2B20D09B02802292001343124AA5
:1015C000936202239384938C5B0718D50E4BDA68E1
:1015D000D0231340D02BF9D10B4A938C80210B439D
:1015E0009BB293840B4B5B78DB09FBD1064A936972
:1015F00002218B4393617047FC23DB01DFE7024B41
:10160000DB68DB06FBD5E7E70008004000000104CB
:1016100024608000000C004070B505000469A37BC5
:10162000DB0705D50123A3730368002B00D098477F
:10163000637B9B0706D50223A3736B68002B01D045
:101640002800984770BD0000024B9C466044800A09
:10165000C0B2704700E0FFBD064B984203D0064B76
:10166000984203D07047054B1960F8E7034B596067
:10167000F8E7C04600380042003C00421C01002050
:1016800010B50D4B98470023012B0BD89A00D218A8
:1016900091000A4A8A5C904202D00133DBB2F3E740
:1016A00058B207E07622FF3205490020054B9847E3
:1016B0000120404210BDC046491600000000002035
:1016C000383700006D08000070B505000C000800F8
:1016D000354B98472C61E37BDB09FCD123889B07C2
:1016E00004D500232380E37BDB09FCD10123238085
:1016F000E37BDB09FCD18200121891002B4B5B18B5
:101700005A88228019792172DB8863810C23134067
:10171000082B37D0002B41D1244A83001E18B1007A
:101720000E005118898921839219138A6383290035
:1017300020001F4B984720001E4B98470D30C0B229
:1017400043B2002B0ADB1F21014001228A40802185
:10175000194C6250BFF34F8FBFF36F8F002B07DB25
:101760001F21014001228A40C0214900124C6250D1
:10177000002B16DB1F2318401E3B83400E4A1360CC
:10178000002070BD094A83001E18B1000E005118D8
:10179000C968A16192191369E361C8E70120404259
:1017A000EFE70020EDE7C0468116000000000020B2
:1017B000591600004916000000E100E00269138894
:1017C00002210B439BB213807047000070B50400E8
:1017D0000E0015000069114B984724698200121809
:1017E00091000F4B5B18DE601D615A880C2313407B
:1017F000082B0BD00A4A83001D18A9000D005118B0
:10180000898921835219138A638370BD044A0D00AC
:10181000A66152191369E361F7E7C046811600001B
:101820000000002003691B885B08012018407047F6
:101830000020704710B5024B1868024B984710BD46
:101840001C0100201916000010B5024B5868024B0D
:10185000984710BD1C0100201916000070470000B9
:10186000F0B5DE4657464E464546E0B5C022D205A5
:1018700080239C46936193607D4B7E499962C0258D
:101880002D069D624724185D01218843185580204C
:10189000400050619060784898629D620134185D04
:1018A000884318558027BF00576197607348824668
:1018B00098629D620134185D884318558020C000ED
:1018C0008046506190606E4898629D620134185D58
:1018D000884318558020000150606A4898626A4821
:1018E00098624B26985D814604204C4684439C5563
:1018F0009C5D8C439C558026360296619660634EB3
:101900009E629D624F241E5D8E431E5580263604C6
:10191000566196608024E4059C625D4C9C6257246D
:10192000A3461C5D8C43A1465C464E461E55413481
:101930001751103C1751593FFF3F5446DC51DD51C0
:10194000C9241D5D8D431D55842544465451514C79
:10195000DC514D4CDC51CA24A0461C5D8443A14699
:1019600044464E461E551C5D8C43A14644464E4699
:101970001E55802424015451424CDC51424CDC5110
:10198000CB24A0461C5D8443A14644464E461E55CA
:101990001C5D8C43A14644464E461E558024E403FC
:1019A000546194608024E4059C623B4C9C62562404
:1019B000A1461C5D8C43A0464C4646461E558024DD
:1019C0006404546194608024E4059C62334C9C62FE
:1019D0005824A1461C5D8C43A0464C4646461E55E5
:1019E0008024A404546194608024E4059C622C4EFD
:1019F0009E6259241E5D8E431E5540265651294E27
:101A0000DE51214CDC51C6269C5D84439C559C5D77
:101A10008C439C55A63E5651234EDE511A4CDC5148
:101A2000C5269C5D84439C559C5D8C439C55B53E6E
:101A300056511E4EDE51144CDC51C4269C5D84432D
:101A40009C559C5D8C439C5564465451184ADA5110
:101A50000D4ADA51C7229C5C84439C54985C8843AD
:101A600098543CBC90469946A246AB46F0BDC04651
:101A7000004400418000004000010040000200409E
:101A80000004004000080240000002C00080004046
:101A9000800000C000040240400000C0000100C0FF
:101AA000000200C04000024020000240100002403E
:101AB00080000240F0B5DE4657464646C0B5334A80
:101AC000136A042188460B431362314A314B5A8012
:101AD00031493248324EB047C022D20510235361FB
:101AE0009360304B30499962C02109068B46996258
:101AF0004420195C0124A1432143C9B21954322165
:101B0000585C0F25AC46A84303273843C0B258544D
:101B10002020506190602548986258469862452080
:101B20008346185CA0432043C0B25D465855585CBC
:101B3000363D28403025AB465D462843C0B2585458
:101B40000E3151601A4A9A621A4A9A624622995C88
:101B5000404681439954995CA1432143C9B29954A9
:101B600033215A5C604682433A43D2B25A540A49FE
:101B70000A48B04710490948104B98470748104B8E
:101B800098471CBC90469A46A346F0BD000400400E
:101B90000D400000000C004000080042EC01002055
:101BA0007505000000440041100000402000004086
:101BB00040000240000002C0CC010020B506000039
:101BC000CD050000002804D18022C023DB055A6126
:101BD00070478022C023DB059A61F9E710B5002029
:101BE000014B984710BDC046C51B000010B5012031
:101BF000014B984710BDC046C51B000010B503003F
:101C00000A00034908681900024B984710BDC046F6
:101C1000CC0100207104000010B503000A00034944
:101C200008681900024B984710BDC046CC0100203F
:101C30003904000010B582B06B46DC1D0023237010
:101C4000044B186801222100034B9847207802B00A
:101C500010BDC046CC0100207104000000B583B067
:101C60006B46D91D0870034B18680122024B984738
:101C700003B000BDCC01002039040000F8B5D64601
:101C80004F4680B5334A136A20210B431362324A10
:101C9000324B5A8032493348334EB047C022D205C6
:101CA00080235B0253619360304B8021C9058A46D3
:101CB00099622F4999625020195C0124A143214364
:101CC000C9B219543821585C0F25AC46A8430327E4
:101CD0003843C0B258548020800250619060504612
:101CE00098622448986251208246185CA0432043A1
:101CF000C0B255465855585C423D28403025AA464A
:101D000055462843C0B258548021C90251601A4A2E
:101D10009A621A4A9A625222995C04208143995429
:101D2000995CA1432143C9B2995439215A5C604658
:101D300082433A43D2B25A5409490A48B04710493B
:101D40000848104B984707480F4B98470CBC9146E2
:101D50009A46F8BD0004004010400000000C00400E
:101D600000140042D4010020750500000044004129
:101D7000010000C0020000C000000240040002C0D8
:101D8000D0010020B5060000CD05000010B503000D
:101D90000A00034908681900024B984710BDC04665
:101DA000D001002039040000F8B51E4A136A102142
:101DB0000B4313621C4B1D4A5A801D4A5A801D4C0E
:101DC0001D4920001D4B98471D4B4C20195C0422D7
:101DD00091431954195C0126B14301252943C9B225
:101DE00019541638195C0F27B94302273943C9B271
:101DF00019544D215F5C97435F545A5CB2432A43A8
:101E0000D2B25A541A5C3E390A4020210A43D2B257
:101E10001A540C4920000C4B984720000B4B984754
:101E2000F8BDC04600040040000C00400F40000018
:101E30000C4300001802002000100042E5030000DF
:101E40000044004108020020310400002504000085
:101E5000F8B5DE4657464E464546E0B52C4D2A6A53
:101E60008023DB0113432B622A4B9A462A4B9B4665
:101E700053465A465A80294CD122A35C01218946F7
:101E80008B43884641460B43DBB2A354193AA35C0B
:101E90000F210B4031310B43DBB2A354204FB84725
:101EA000020020492048214EB0472A6A80231B02A5
:101EB00013432B6253465A465A805522A35C494627
:101EC0008B4341460B43DBB2A3541B3AA35C0F2167
:101ED0000B4031310B43DBB2A354B8470200144C22
:101EE00014492000B047144E002231000E48134D13
:101EF000A847002231002000A8470B48104DA847F2
:101F00002000A8473CBC90469946A246AB46F8BD87
:101F100000040040000C0040164000000044004156
:101F2000311800000038004234010020C1040000D4
:101F300090010020003C004288130000450500008D
:101F40000905000010B50A00002804D0044905481E
:101F5000054B984710BD02490448034B9847F9E7E1
:101F60008813000090010020450500003401002086
:101F7000F8B5194A136A40210B431362174A184BEC
:101F80005A80002217491848184B9847184BCC2103
:101F90005A5C0124A24301273A43D2B25A54B622D2
:101FA000985C0F26B04302252843C0B298541832DB
:101FB000995CA1433943C9B29954B7215A5CB243E1
:101FC0002A43D2B25A540B4907480B4B984706484C
:101FD0000A4B9847F8BDC04600040040114000007D
:101FE000000C0040001800420C020020C507000051
:101FF00000440041040200203D08000011080000D8
:1020000010B50A4B98470A4B98470A4B98470A4B1A
:1020100098470A4B98470A4B98470A4B98470A4BF0
:1020200098470A4928200A4B984710BD410A0000EA
:102030006118000005020000B51A00007D1C0000B8
:10204000A91D0000511E0000711F00005D18000056
:10205000A502000010B50400044B984782B2044B5F
:1020600018682100034B984710BDC046C92D0000D9
:102070000402002039040000F0B5DE4657464E4603
:102080004546E0B587B005A8304B9B469847C0252C
:10209000ED058026AC592E4B9A46A023994653460F
:1020A0004A46985890239846EB5843401C40444079
:1020B00005A8284FB8472020044023005C1EA341F8
:1020C000019304A8D847AC59524649465258414654
:1020D0006B5853401C40544004A8B8473440601E1D
:1020E0008441E0B24000019B0343019303A8D84719
:1020F000AC5952464946525841466B5853401C40D1
:10210000544003A8B84740200440631E9C41E4B2F9
:10211000A400019B1C4302A8D847A85953464A462D
:102120009B584246AD585D4005405D4002A8B84707
:1021300010202840431E9841C0B2C000204307B081
:102140003CBC90469946A246AB46F0BD69020000F1
:10215000004400417702000030B583B00400164D02
:10216000EB6898476B6998476B6A002B16D0124B47
:102170009B6A002B12D0220C01A80270220A427026
:102180008470032198470C4CE36998470500A369C4
:10219000984723699847280003B030BD064D200CAE
:1021A000C0B22B6A9847200AC0B22B6A98472B6AA4
:1021B000E0B29847E7E7C0462800002070B582B03B
:1021C00004000E00144DEB6898476B699847042093
:1021D0000443AB6A002B0FD0220C01A80270220A24
:1021E00042708470C670042198470B4CA3699847CD
:1021F0002369984702B070BD074D200CC0B22B6A0E
:102200009847200AC0B22B6A9847E0B22B6A9847D9
:102210002B6A30009847E8E728000020F0B583B02B
:1022200004000F0016001C4DEB6898476B69984737
:102230006B6A002B17D0184B9B6A002B13D0220C13
:1022400001A80270220A4270847003219847124B41
:102250005B6A3100380098470F4CA369984723699F
:10226000984703B0F0BD0C4D200CC0B22B6A9847C4
:10227000200AC0B22B6A98472B6AE0B29847002424
:1022800006E03D19044BDB69984728700134A4B27D
:10229000B442F6D3E0E7C04628000020F0B583B092
:1022A00004000F0016001A4DEB6898476B699847B9
:1022B00004200443AB6A002B13D0220C01A8027047
:1022C000220A4270847003219847114B9B6A3100A7
:1022D000380098470E4CA36998472369984703B084
:1022E000F0BD0B4D200CC0B22B6A9847200AC0B23B
:1022F0002B6A98472B6AE0B29847002405E0044B0C
:102300001B6A385D98470134A4B2B442F7D3E1E7C1
:102310002800002070477047704770470078C0B2AF
:1023200070470170704700207047704770477047D2
:10233000002805D0002903D0044B586199617047EB
:10234000024B034A5A61034A9A61F8E728000020C9
:10235000192300001B230000084B1B889B05FBD59D
:10236000002805D0002903D0044BD86119627047BA
:10237000024B034ADA61034A1A62F8E72800002098
:10238000272300002B230000084B1B889B05FBD54F
:10239000002805D0002903D0044B58629962704789
:1023A000024B034A5A62034A9A62F8E72800002067
:1023B0002D2300002F230000F0B587B0062201A9CD
:1023C00090200001174CA04780277F00042205A918
:1023D0003800A047A026F600042204A93000A04738
:1023E000F0252D01042203A92800A0478021002008
:1023F0000D4B984700200D4B9847062201A99020CD
:1024000000010B4CA047042205A93800A047042274
:1024100004A93000A047042203A92800A04707B060
:10242000F0BDC0461D220000BD2100005921000062
:102430009D22000070B506000D00244B9847002E29
:102440001BD000220023072B07DCF15C8A1852B254
:10245000102A34DC01335BB2F5E700240BE0A00066
:102460000130C000F8235B019C466044315D184B8D
:102470009847013464B2072CF1DD002D0BD0002207
:102480000023072B09DCE95C8A1852B2102A19DCF8
:1024900001335BB2F5E7002010E000240BE0A00060
:1024A0000130C000F0235B019C466044295D084B6D
:1024B0009847013464B2072CF1DD002070BD012083
:1024C0004042FBE701204042F8E7C046B923000044
:1024D000BD21000070B5C1B2050A0F239943A820A1
:1024E00040010C4B9847002401E00134E4B2072C72
:1024F0000ED82B002341DB07F7D5A0000130C00028
:1025000080239B009C4660441F21024B9847ECE7C8
:1025100070BDC046BD21000070B5A8204001074D28
:10252000A8470F239843C4B2B8204001A84780B2FF
:10253000000280B2201880B270BDC0465921000050
:1025400070B5C1B2040AB0204001034DA847210074
:10255000C0204001A84770BDBD21000070B5B0206B
:102560004001064DA8470400C0204001A84780B2A2
:10257000000280B2A4B2001980B270BD59210000DF
:1025800010B5B8208001044B9847C30701D501203E
:1025900010BD0020FCE7C0465921000010B5B8204E
:1025A0008001054B984738231840302801D000207F
:1025B00010BD2F38FCE7C0465921000070B5B82483
:1025C000A4012000074EB0477F2101402000064DA6
:1025D000A8472000B047802149420143C9B22000EA
:1025E000A84770BD59210000BD21000010B5037837
:1025F000012B10D000214378012B0ED0C378012B82
:102600000FD08378012B17D0B82080010C4B98474E
:102610000C4B984710BD4021EDE738231943C9B250
:10262000F2E78378012B03D008231943C9B2EBE703
:1026300018231943C9B2E7E710231943C9B2E3E7E6
:10264000BD210000BD25000010B50400B8208001A8
:10265000134B9847820901231340237038231840F5
:10266000202804D0382802D00023637001E0012321
:102670006370182806D0202804D0102802D0002328
:10268000A37001E00123A370182806D0202804D0ED
:10269000082802D00023E37010BD0123E370FBE79C
:1026A0005921000070B50400B8208001174B9847ED
:1026B000430627D538239843C0B2012C13D03821C4
:1026C0000143C9B2B825AD012800114B9847114B01
:1026D000984728000D4B9847012C08D03823034217
:1026E0000DD0002070BD30210143C9B2EAE730238C
:1026F000034201D00020F5E701204042F2E701202B
:102700004042EFE701204042ECE7C046592100007B
:10271000BD210000BD25000070B582B00C00002373
:10272000009301930F2803D880003F4B1B589F460E
:102730000120404270E03D4B984700206CE00029AA
:1027400002D000910834019401990098384B9847C1
:1027500062E00888374B984700205DE0364B984789
:102760002080002058E00888344B9847002053E030
:10277000334B9847208000204EE00988090A9820B2
:102780004001304DA8472178A0204001A8470020F3
:1027900042E0982040012C4EB04780B2000285B242
:1027A000A0204001B04780B22D182580002033E0E2
:1027B000264B9A780A70DA784A701A798A705A79B0
:1027C000CA709A790A71DB794B7100238B710020F2
:1027D00022E01F4B984700201EE008001D4B984741
:1027E000002019E008001C4B9847002014E00878EE
:1027F0001A4B984710E01A4B9847C0B2FF280DD0EB
:102800002070002008E0174B9847C0B2FF2808D07E
:102810002070002000E0002002B070BD0120404286
:10282000FAE701204042F7E74C370000B9230000E7
:1028300035240000D52400001925000041250000A2
:102840005D250000BD210000592100002800002066
:10285000BD250000ED25000049260000A52600004A
:102860009D2500008125000070B5040006220100AE
:10287000902000010F4DA84721000E310422802036
:102880004000A84721000A310422A020C000A84728
:10289000A11D0422F0200001A847A27C064B1A705B
:1028A000E27C5A70227D9A70627DDA70A27D1A7184
:1028B00070BDC0469D2200002401002070B50400B8
:1028C00006220100902000010F4DA84721000E3183
:1028D000042280204000A84721000A310422A020C1
:1028E000C000A847A11D0422F0200001A847074B03
:1028F0001A78A2745A78E2749A782275DA78627536
:102900001B79A37570BDC0461D2200002401002064
:1029100010B504003A2302009A4309D10020064B67
:1029200098470443E1B20020044B9847002010BDB3
:1029300001204042FBE7C04659210000BD210000B4
:1029400010B50020014B984710BDC046592100002A
:1029500070B505000178D8204001064CA047698871
:10296000090AC8204001A047A978D0204001A0470B
:1029700070BDC046BD21000070B50500D8204001E3
:10298000074EB0472870C8204001B04780B200020F
:1029900084B2D0204001B04780B224186C8070BD52
:1029A0005921000010B50C00052820D88000114BDB
:1029B0001B589F460800104B9847002010BD080088
:1029C0000E4B98470020F9E708780D4B9847F5E73C
:1029D0000C4B984720700020F0E708000A4B9847FE
:1029E0000020EBE70800094B98470020E6E70120AC
:1029F0004042E3E78C37000069280000BD28000052
:102A00001129000041290000512900007929000006
:102A1000F0B5DE4657464E464546E0B589B0504BC8
:102A2000984750495048514B984751495148524B4B
:102A3000984752495248534B9847534B9847642004
:102A4000524B9847524C21002000524B9847083473
:102A50002000514B984721000020504B984780227E
:102A6000D203C023DB059A616420484DA847C024E7
:102A7000E40580231B04E36180235B04E36180237E
:102A8000DB03E361FA2149000120454EB0473220C3
:102A9000A84744490120B0473220A8473C4B1D6A53
:102AA0002800414B984781B22800404B9847404B43
:102AB0009847039007AB18003E4FB84780239B46CA
:102AC000E3583D4EA0218A4671589025A946625987
:102AD0004A4013404B40029307A90800374DA847CE
:102AE000802109018846029B0B405A1E9341DBB2AC
:102AF000029306A90800B8475946635851467158D1
:102B00004A46A2584A4013404B40994606A908003D
:102B1000A8478023DB0049460B405A1E9341D9B297
:102B2000894605A90800B8472368326A24695440D9
:102B30001C40544005A90800A84741460C40631EAC
:102B40009C411F4D019449460091029B039A1D49E7
:102B500028001D4CA04728001C4B984784E7C0461E
:102B600001200000ED1B0000DD1B000031230000F0
:102B70005D1C0000351C000059230000191C0000DA
:102B8000FD1B000089230000BD2500008502000018
:102B9000540000203524000069280000A529000009
:102BA000451F0000AC0D0000C92D00008D1D000068
:102BB0007920000069020000004400417702000013
:102BC00038020020A4370000852D000055200000A9
:102BD000002243088B4274D303098B425FD3030A5C
:102BE0008B4244D3030B8B4228D3030C8B420DD36F
:102BF000FF22090212BA030C8B4202D312120902FD
:102C000065D0030B8B4219D300E0090AC30B8B423A
:102C100001D3CB03C01A5241830B8B4201D38B03E8
:102C2000C01A5241430B8B4201D34B03C01A52418D
:102C3000030B8B4201D30B03C01A5241C30A8B42D0
:102C400001D3CB02C01A5241830A8B4201D38B02BB
:102C5000C01A5241430A8B4201D34B02C01A52415F
:102C6000030A8B4201D30B02C01A5241CDD2C309D1
:102C70008B4201D3CB01C01A524183098B4201D34D
:102C80008B01C01A524143098B4201D34B01C01A38
:102C9000524103098B4201D30B01C01A5241C308B0
:102CA0008B4201D3CB00C01A524183088B4201D31F
:102CB0008B00C01A524143088B4201D34B00C01A0B
:102CC0005241411A00D20146524110467047FFE777
:102CD00001B5002000F006F802BDC0460029F7D07B
:102CE00076E770477047C04610B50023002802D031
:102CF00000F004F8431C180010BDC04641420840D3
:102D00001C2101231B04984201D3000C10391B0A1B
:102D1000984201D3000A08391B09984201D30009DF
:102D2000043902A2105C401A7047C0461B1C1D1DCE
:102D30001E1E1E1E1F1F1F1F1F1F1F1F70B50026D8
:102D40000C4D0D4C641BA410A64209D1002600F0C6
:102D500087FD0A4D0A4C641BA410A64205D170BD24
:102D6000B300EB5898470136EEE7B300EB589847AD
:102D70000136F2E76C3800006C3800006C38000057
:102D8000703800000EB410B59DB002A90290086121
:102D90000B48822488604861012040421FABC881F3
:102DA000084804CBA400006801938C8100F0D4F89B
:102DB0000023029A13701DB010BC08BC03B0184762
:102DC000FFFFFF7F880000200023C25C0133002A40
:102DD000FBD1581E70470000032370B5CD1C9D43E6
:102DE000083506000C2D1ED20C25A9421DD8300036
:102DF00000F076FB254A14682100002919D1244CE3
:102E00002368002B03D1300000F032FB2060290042
:102E1000300000F02DFB431C2CD10C23300033601C
:102E200000F05FFB03E0002DDFDA0C2333600020AD
:102E300070BD0B685B1B1AD40B2B03D90B60CC182D
:102E4000256003E08C420ED163681360300000F00F
:102E500048FB200007220B30231D9043C31AE7D004
:102E60005A42E250E4E74B6863600C00EEE70C0066
:102E70004968C2E70323C41C9C43A042E0D0211A46
:102E8000300000F0F5FA431CDAD1C6E72C0100202F
:102E900030010020F0B58E6885B007000C00039269
:102EA00001939E4239D890238A89DB001A4234D09C
:102EB0000325096923685B1A0293636902985D43DD
:102EC000EB0F5D19019B6D1001331B18AB4200D94C
:102ED0001D00530532D529003800FFF77DFF061E7F
:102EE00009D10C233B6040230120A28940421343B7
:102EF000A38105B0F0BD029A216900F0D6FAA3893A
:102F0000144A1A4080231343A381029B2661F618BA
:102F100026606561019EED1AA560019BB34200D257
:102F20001E0032000399206800F0C8FAA368002050
:102F30009B1BA36023689E192660DAE72A003800ED
:102F400000F01AFB061EE0D12169380000F0CAFA31
:102F5000C7E7C0467FFBFFFFF0B59FB00290059327
:102F60008B890F0016001B0611D50B69002B0ED1A3
:102F70004021FFF731FF38603861002805D10C236C
:102F8000029A013813601FB0F0BD40237B6100231B
:102F900006AD6B6120336B761033AB76340023784B
:102FA000002B47D1A31B04930DD0A31B3200390083
:102FB0000298FFF76FFF431C00D1B5E06A69049BDC
:102FC000944663446B612378002B00D1ACE001226E
:102FD000002352426A6002A95432521801342B6015
:102FE000EB60AB601370AB65584E05222178300062
:102FF00000F050FA621C002820D12968CB0604D5C5
:10300000532302AE20309B1918700B0704D55323AD
:103010002B2002AE9B19187023782A2B16D0002083
:103020000A21099B2278303A092A55D9002815D05F
:10303000099313E0252BB5D00134B0E70123801BA1
:103040008340296814000B432B60CDE7059B181DB6
:103050001B680590002B39DB0993140023782E2B75
:103060000BD16378621C2A2B3ED1059B02341A1DBA
:103070001B680592002B34DB0793354E2178032221
:10308000300000F007FA002806D04023801B834060
:103090002A68013413432B60217806222D48661CD0
:1030A000297600F0F7F9002846D02B4B002B2FD1C2
:1030B0002968059B0722C90528D59B189343083327
:1030C00005936B69039A9B186B6167E75B42EB6042
:1030D00002230B432B60C0E74B4301349B180120B4
:1030E000A0E701235B42C7E7002314000A201A006F
:1030F0006B6021783039092903D9002BBDD00792A4
:10310000BBE74243013452180123F2E70733D5E706
:1031100005AB00933A00114B2900029800E000BF74
:103120000390039B0133CCD1BB890B985B0600D481
:1031300029E70120404226E705AB00933A00074B00
:103140002900029800F07AF8EAE7C0462C3800001F
:10315000323800003638000000000000952E0000D4
:10316000F7B5150001938A680B6900900C00934233
:1031700000DA130022002B6043321278002A01D0BB
:1031800001332B6023689B0602D52B6802332B602A
:10319000062723681F4027D0230043331B785A1E7D
:1031A00093412268920630D422000199433200985C
:1031B000089EB047431C25D0062320682A68E16892
:1031C00003400025042B03D18D1AEB43DB171D4070
:1031D000A3682269934201DD9B1AED180027BD42C6
:1031E00020D1002010E00137E3682A689B1A9F4233
:1031F000D2DA22000123193201990098089EB047C3
:10320000431CF0D101204042FEBD3020E118433183
:10321000087021005A1C45310978A2184332023344
:103220001170C1E7220001231A3201990098089E0B
:10323000B047431CE6D00137D1E70000F0B58BB0B2
:1032400006920A0043320793059004920A7E0C000E
:10325000109B6E2A00D18FE017D8632A2CD008D893
:10326000002A00D199E0582A54D026004236327004
:1032700029E0642A01D0692AF7D121681A68080672
:1032800023D5111D1960156825E0732A00D188E047
:1032900008D86F2A29D0702AE7D1202209680A436A
:1032A000226003E0752A20D0782ADED1220078211E
:1032B000453211706C4A30E00E001A684236111D1A
:1032C000196013683370012379E04906D9D5111DBF
:1032D00019600023D55E002D03DA2D23049A6D4278
:1032E0001370624B0A2703932FE0206819680506C4
:1032F00003D5081D18600D6805E04006F9D50D6876
:10330000081D1860ADB2594B082703936F2A18D0D7
:103310000A2716E045310A70544A03921A68216858
:10332000101D18601568080622D5CB0702D520238A
:10333000194321601027002D03D1202322689A43CE
:1033400022602300002243331A706368A360002BBD
:103350005CDB0422216891432160002D58D1049E3A
:10336000002B64D02600039B42361B7833705EE04E
:103370004806DAD5ADB2D8E709681A68080605D557
:10338000111D1960136862691A6006E04906F7D5D5
:10339000111D19601368A28A1A800023049E2361FC
:1033A00054E01A68111D1960166800216268300027
:1033B00000F070F8002801D0801B60606368236112
:1033C0000023049A137041E023693200069905989E
:1033D000079DA847431C43D0236800259B070FD4B3
:1033E000099BE06898423DDA18003BE02200012387
:1033F000193206990598079EB047431C30D0013515
:10340000E368099A9B1A9D42F0DBE9E7002DA9D0F9
:10341000049E28003900FFF761FC039B013E5B5CC2
:10342000280033703900FFF7D3FB051EF1D1082FB8
:1034300009D12368DB0706D563682269934202DC61
:103440003023013E3370049B9B1B2361079B09AA19
:1034500000932100069B0598FFF782FE431CB3D121
:10346000012040420BB0F0BD4E3800003D38000056
:10347000002370B5064C050008002360FDF7FAF93B
:10348000431C03D12368002B00D02B6070BDC046C5
:1034900038030020C9B28218904201D10020704741
:1034A00003788B42FBD00130F6E7002310B59A4237
:1034B00000D110BDCC5CC4540133F8E710B588428C
:1034C00002D98B18984208D300239A4207D0CC5CCB
:1034D000C4540133F9E78B5C8354013AFBD210BD2D
:1034E0007047704770B50500002910D00C1F236885
:1034F000002B00DAE4182800FFF7F2FF1D4A1368DA
:10350000002B05D1636014602800FFF7EAFF70BD4F
:10351000A34209D9216860188342F3D118685B6817
:1035200041182160EEE713005A68002A01D0A24238
:10353000F9D919685818A0420BD1206809185818F1
:1035400019608242E0D110685268411819605A60CF
:10355000DAE7A04202D90C232B60D5E72168601876
:10356000824203D1106852684118216062605C6039
:10357000CAE7C0462C010020F8B507000D00160070
:10358000002905D11100FFF727FC04002000F8BD39
:10359000002A03D1FFF7A6FF3400F7E700F012F886
:1035A0002C008642F2D931003800FFF715FC041ECA
:1035B000ECD029003200FFF778FF29003800FFF730
:1035C00091FFE3E70B1F1B68181F002B01DA0B5854
:1035D000C01870472E2E2F68616C2F7372632F688E
:1035E000616C5F6164635F73796E632E63000000DA
:1035F0002E2E2F68616C2F7372632F68616C5F6968
:1036000032635F6D5F73796E632E63002E2E2F68B9
:10361000616C2F7372632F68616C5F696F2E63003A
:103620002E2E2F68616C2F7372632F68616C5F7030
:10363000776D2E63000000002E2E2F68616C2F73B3
:1036400072632F68616C5F7370695F6D5F73796E11
:10365000632E63002E2E2F68616C2F7372632F68A8
:10366000616C5F75736172745F73796E632E630052
:103670000002000000000000000000000000000048
:103680000000000000000000000000002E2E2F6847
:10369000706C2F6164632F68706C5F6164632E636C
:1036A0000000000008000000280000002E2E2F68F7
:1036B000706C2F6569632F68706C5F6569632E633A
:1036C00000000000040000000400014000000300AE
:1036D0002EFF000002000000140020000001000086
:1036E000EA000000D7000000006CDC0200000000CF
:1036F0000000000000000000000000000C0020009E
:103700000000020000000000FE0000000C0020008D
:103710000000020000000000FE0000032E2E2F68B3
:10372000706C2F736572636F6D2F68706C5F73655B
:1037300072636F6D2E6300002E2E2F68706C2F74D5
:10374000632F68706C5F74632E630000362700007F
:103750003E2700005C27000052270000662700007B
:10376000702700007A27000092270000B027000091
:10377000D2270000DA270000E42700001628000006
:10378000EE270000F627000006280000B4290000FC
:10379000BE290000C8290000D0290000DA29000055
:1037A000E4290000497053573D2025643B202564DF
:1037B000256425640A0D000057697A6E65742053EC
:1037C000617973204869210A0D00000000000000A3
:1037D00000000000000000000000000000000000E9
:1037E00000000000000000000000000000000000D9
:1037F00000000000000000000000000000000000C9
:1038000000000000000000000000000000000000B8
:1038100000000000000000000000000000000000A8
:10382000000000000000000000000000232D302BED
:103830002000686C4C0065666745464700303132B1
:103840003334353637383941424344454600303108
:103850003233343536373839616263646566000067
:10386000F8B5C046F8BC08BC9E467047CD000000C5
:10387000F8B5C046F8BC08BC9E467047A5000000DD
:103880000600600300000000320000006F17000017
:10389000B70B0000070060030000000032000000CA
:1038A0006F170000B70B00000102573535303000AC
:1038B000000000001523000017230000192300005A
:1038C0001B2300001D230000232300000000000034
:1038D00000000000020202020202020220CFF08277
:1038E0007600C0A80163FFFFFF00C0A8010108081F
:1038F00008080100B83700005000170017005000FA
:10390000901F901F901F88138C0000200000000063
:10391000EC3700000C380000CC370000000000003D
:103920000000000000000000000000000000000097
:103930000000000000000000000000000000000087
:103940000000000000000000000000000000000077
:103950000000000000000000000000000000000067
:0C3960000000000000000000000000005B
:00000001FF
