S01E00005053555F4554485F436F6E74726F6C6C65725F7332312E7372656316
S2140000006034002009010000050100000501000021
S21400001000000000000000000000000000000000DB
S21400002000000000000000000000000005010000C5
S21400003000000000000000000501000005010000AF
S214000040050100000501000005010000AD0C0000E0
S214000050A10A0000050100000501000005010000DE
S2140000600501000005010000050100000501000073
S2140000700501000005010000050100000501000063
S21400008005010000050100000501000099180000A8
S214000090A918000005010000050100000501000088
S2140000A00501000010B5064C2378002B07D1054B40
S2140000B0002B02D0044800E000BF0123237010BDCF
S2140000C0480A00200000000048F70000084B10B562
S2140000D0002B03D00749084800E000BF0748036824
S2140000E0002B00D110BD064B002BFBD09847F9E73C
S2140000F0000000004C0A002048F7000048F7000007
S21400010000000000FEE7000010B5124A124B9A42AB
S21400011009D0114B0F4A03E011681960043304320A
S2140001200E498B42F8D30E4B02E000221A600433CD
S2140001300C4A9342F9D30C4AFF210C4B8B43936035
S2140001400B4A516880230B43536005F0E7F903F030
S21400015087F8FEE748F7000000000020480A002065
S214000160480A00206014002000ED00E000000000B7
S21400017000400041EFF31083036072B6BFF35F8F59
S2140001807047BFF35F8F036883F3108870470000E3
S21400019010B5044B1C6800F0F1FB0100200000F0D5
S2140001A0F8FB10BD640A002070B50125002407E0A6
S2140001B00D4AB358002B00D0984770BD013AD5B20F
S2140001C0AC42FAD82B195B10DAB2002AF5D1FF211F
S2140001D00B40DE000449891949688142E8D0EDD217
S2140001E00132D4B2ECE7C046680A002010B50023FE
S2140001F0002B03D0074800F0E5FB10BD064AD900E7
S21400020050180124644244600020885001339BB299
S214000210EEE7C046A9010000680A0020F0B5C64611
S21400022000B584B001900023002B10D00023984620
S21400023000291BD04346002B46D1002B24D1DA00E0
S2140002402A4C1259002A18D00133DBB2F5E7DC003D
S214000250264A121952680198824202D00133DBB254
S214000260E2E7224BE15001239846E1E74346002BA4
S21400027035D0019800F0EEFB2DE0DD002951651920
S214000280019A6A6001229046002201E00132D2B251
S2140002901900114318D11549DC000C196768D40001
S2140002A0091949688F42F1D24C1CEFD002A98C463E
S2140002B00E4FD1007918644641C941C4DD007D194E
S2140002C0614611C911C5E1E74346002B0AD001215A
S2140002D0019800F0BFFB04B004BC9046F0BD0D20B2
S2140002E04042F8E70D204042F5E7C046680A002085
S2140002F010B584B01438848B01AB1C8014000292B5
S214000300064A5A800391190000F0ECFE002802D13C
S214000310200004B010BD0400FAE7C0460080FFFFCE
S21400032010B584B01438848B01AB1C801400029284
S214000330064A5A800391190000F0D4FE002802D124
S214000340200004B010BD0400FAE7C0460180FFFF9D
S21400035070B504000D00431E9841C0B25E220749E6
S21400036000F0CAFA2900200000F030FE002803D171
S214000370034BA361034B636170BDC04694D4000079
S21400038021030000F102000010B500F071FE10BD60
S214000390143008600020704770B504000D00160089
S2140003A000280ED000290AD001203422064900F089
S2140003B0A3FA2368320029002000984770BD002069
S2140003C0F3E70020F1E7C046B0D4000070B50400A3
S2140003D00D00160000280ED000290AD001203D226C
S2140003E0064900F089FA6368320029002000984721
S2140003F070BD0020F3E70020F1E7C046B0D400004F
S21400040010B54369002B00D0984710BD10B583691E
S214000410002B00D0984710BD70B504000D000028D2
S21400042012D000290ED001203322084900F064FAC9
S2140004302900200001F082F9054B2360054B63601C
S214000440002070BD0020EFE70020EDE7C4D40000D8
S214000450010400000D04000010B50400431E98417E
S214000460C0B24A22074900F047FA200001F00CFA11
S214000470002804D1200001F0D5F9002010BD11207D
S2140004804042FBE7C4D4000070B504000D0016001F
S214000490431E9841C0B27C22044900F02DFA320077
S2140004A02900200001F0C6F9002070BDC4D4000069
S2140004B070B504000D00002817D0002913D00120C5
S2140004C040220B4900F018FA6560201D290000F054
S2140004D015FF002806DB074BA382074B2361074B5B
S2140004E0E360002070BD0020EAE70020E8E7C04691
S2140004F0DCD400000080FFFF9505000061050000C9
S21400050010B50400431E9841C0B25722034900F0BC
S214000510F3F9201D00F0CCFF10BDC046DCD400006F
S21400052030B587B004000D00002815D0002911D082
S2140005300120B322094900F0DFF92B6803936B68AA
S2140005400493AB6801930593201D03A900F0C8FF30
S21400055007B030BD0020ECE70020EAE7DCD400005E
S21400056070B584B004000E001500431E9841C0B25A
S214000570A322074900F0C0F920000C38002302939C
S2140005800196039501A9FFF7CBFF04B070BDC046E6
S214000590DCD4000070B584B004000E001500431EC5
S2140005A09841C0B28722074900F0A6F920000C380F
S2140005B0029600230193039501A9FFF7B1FF04B04B
S2140005C070BDC046DCD4000070B504000D000028E5
S2140005D00CD0002908D00120BD22054900F08CF976
S2140005E00C342C60002070BD0020F5E70020F3E7F7
S2140005F0DCD40000F8B50668002E02D033000025D3
S2140006000CE000F089F918E09F68BC466444A41A20
S21400061001348F68BC420BD21D001B68002B07D02C
S2140006205C689442F0D8A41A9F68BC466444F0E71D
S214000630B34203D0280000F081F9F8BD00F06CF951
S214000640FBE7F8B50500446903695E1C0661037E96
S214000650DB0702D4037E9B070AD52B7E02221343B8
S214000660DBB22B76F8BD6F69E368200098473C0044
S214000670002CF7D06368F31AA2689342F2D32F00D7
S2140006801437380000F05EF9237C012BEBD166604E
S214000690320021003800FFF7ADFFE4E770B5040034
S2140006A00D00002812D000290ED001203B22084958
S2140006B000F022F92900200000F096FA00232361BA
S2140006C0044B2360002070BD0020EFE70020EDE71C
S2140006D0F8D400004306000010B50400431E9841FD
S2140006E0C0B25322074900F007F9200000F0D2FA02
S2140006F0002804D1200000F0A3FA002010BD11202D
S2140007004042FBE7F8D4000070B582B004000D004C
S214000710002826D0002922D001207A221F4900F086
S214000720EBF8237E01221343DBB223762600143631
S2140007302900300000F0E4F8002814D123696B602B
S214000740226929003000FFF755FF237E01229343DC
S2140007502376237E9B0712D4002002B070BD0020B3
S214000760DBE70020D9E7237E0122934323767E32FF
S2140007700A49002000F0C0F812204042EDE701A828
S214000780FFF7F8FC237E022293432376200000F036
S2140007908AFA01A8FFF7F5FC0020DEE7F8D400008F
S2140007A0F8B505000E001700002823D0002923D036
S2140007B0002A23D10020F122114900F09DF82C00D8
S2140007C00834200000F0F1FB0028F8D00025715D09
S2140007D0200000F0E2FB200000F0E7FB0028FAD043
S2140007E00135BD42F3D3200000F0E4FB0028FAD028
S2140007F02800F8BD0020DEE70020DCE70120DAE76D
S21400080010D50000F8B5CE46474680B5051E88468A
S21400081091461FD000291FD0002A1FD10020862213
S21400082052000F4900F068F800262C00083420001B
S21400083000F0C6FB0028F8D043469F19200000F0C1
S214000840B0FB387001364E45EFD330000CBC9046F6
S2140008509946F8BD0020E2E70020E0E70120DEE749
S21400086010D5000070B504000D00002814D0002933
S21400087010D001203422094900F03EF8200008304C
S214000880290000F06FFB002803D1054B6360054B81
S214000890236070BD0020EDE70020EBE710D50000D8
S2140008A005080000A107000010B50400431E98418B
S2140008B0C0B25322044900F01FF82000083000F0B0
S2140008C063FB002010BDC04610D5000070B50400C4
S2140008D00D0000280BD0002907D001206922054909
S2140008E000F00AF82C60002070BD0020F6E700201B
S2140008F0F4E7C04610D50000002800D100BE7047BF
S2140009000368002B03D08B4203D01B68F9E7002056
S21400091070470120FCE7000070B504000D00FFF7EB
S214000920EFFF01235840C0B239220349FFF7E4FF26
S21400093023682B60256070BD2CD5000003680B6013
S214000940016070470368002B03D01A680260180025
S21400095070470020FCE700000300064A1268002AE1
S21400096004D0044A1068C318136070470249014A4D
S2140009701160F6E7700A00206034002010B503010D
S2140009801B1A58010230032102F0AEFE64235843BE
S21400099010BD0139FDD8704710B5094A53680621C5
S2140009A00B43536000F002F900F00CFE082000F044
S2140009B0CFF800F02DFEF72000F0CAF810BDC046B4
S2140009C000400041204B5B78DB09FBD11E4B5B7877
S2140009D0DB09FBD11C4B1B789B070AD500221A4B60
S2140009E01A70194B5B78DB09FBD1174B5B78DB0978
S2140009F0FBD10122144B1A70134B5B78DB09FBD139
S214000A00114B5B78DB09FBD10F4B00229A705A60C2
S214000A105A619A61DA611A7802210A43D2B21A70D0
S214000A20094B5B78DB09FBD1084B102280215A501A
S214000A30BFF34F8FBFF36F8F0131FF315A501A60EB
S214000A40034B1860002070470018004000E100E0EB
S214000A50740A00200023002B0BD0FF22FF2A17D099
S214000A6000290FD1012393400B4A936013610020A5
S214000A707047282802D00133DBB2ECE7DA00074BD8
S214000A80D25CEBE701239340034AD3600020EFE7F4
S214000A900D204042ECE7C0460018004064D5000038
S214000AA070B582B0264B1A69D9680A400192019A3D
S214000AB01A61244B1868431E9841C0B2D2222249BC
S214000AC0FFF71AFF01256D422EE00139CEB2B04283
S214000AD00ED832185210D1B2FF231340DB001B4A47
S214000AE09B5CA34203D0F0DA0131C8B2EFE72825B9
S214000AF06B1C03D0134B1B68280098470122A240AA
S214000B00019B93430193019802F0AEFF013844B273
S214000B10631C02D001260020D9E7094B1A69D96860
S214000B200A400192019A1A61019B002B05D0019898
S214000B3002F09AFF013844B2EAE702B070BDC04640
S214000B4000180040740A00204CD5000064D5000050
S214000B50C30709D5114B802252009A60104A5A608A
S214000B600E4B5B78DB09FBD1830709D50B4B0222C2
S214000B70FF329A600B4A5A60084B5B78DB09FBD160
S214000B80030709D5054B0422FF329A60064A5A60CD
S214000B90024B5B78DB09FBD17047C046000C004077
S214000BA0000701000106010003030100064B1A7A44
S214000BB0D2B21A725A7AD2B25A729A7AD2B29A7258
S214000BC0DA7AD2B2DA7270470004004010B5040038
S214000BD0C3681B7ADB0706D50368002B00D098474E
S214000BE0E36801221A7210BD70B504000D00431EA2
S214000BF09841C0B230221049FFF77EFEE56001231F
S214000C002B80AB7ADB09FCD1E268937ADB09FCD156
S214000C1080331380937ADB09FCD1E2689369012361
S214000C209361937ADB09FCD10133E268D371034BFD
S214000C301C60002070BDC0466CD50000780A0020FD
S214000C4010B5041E20D0C368002B1BD001206722DD
S214000C500E49FFF751FE08220D4B1A60E268136931
S214000C6000231361937ADB09FCD1E268937ADB09EF
S214000C70FCD1138802210B439BB21380937ADB09C5
S214000C80FCD110BD0020E2E70020E0E76CD50000B4
S214000C9000E100E0C268937ADB09FCD113885B08A8
S214000CA001201840704770470020704710B5024B6F
S214000CB01868FFF78BFF10BD780A0020024B9C4691
S214000CC06044800AC0B2704700F8FFBD038ADB0BA1
S214000CD008D10368022213430360038ADB0BFCD1AE
S214000CE00020704704204042FBE7000010B5FFF7E5
S214000CF0E5FF03000020002806D0074A0749002029
S214000D00FFF7FAFD002010BD02010549525C934230
S214000D10F9D00130C0B2EEE72A02000084D5000008
S214000D20B8D5000010B50400FFF7E0FF238ADB0B00
S214000D30FCD1238ADB0BFCD123689B0707D5002355
S214000D402360238ADB0BFCD1238ADB0BFCD1012337
S214000D502360238ADB0BFCD1238ADB0BFCD1020148
S214000D600B4B9B185B682360238ADB0BFCD10201CC
S214000D70074B9B189B686360238ADB0BFCD1000142
S214000D80034B181883896381837B2372002010BD70
S214000D90B8D5000010B5FFF791FF0200002000282C
S214000DA006D0084A08490020FFF7A6FD002010BD1F
S214000DB043001B18D900054BCB5C9A42F7D0013094
S214000DC0C0B2ECE76603000084D50000A0D50000A2
S214000DD070B505000469431E9841C0B25C4A5D497F
S214000DE0FFF78AFD63685C4A13406360238ADB0B67
S214000DF0FCD12A8852006B8801210B401343DBB2DA
S214000E002375238ADB0BFCD12E69544AB37BDBB2F5
S214000E101800511E002A02D00A009B07F6D0238A2B
S214000E20DB0BFCD1238A9BB2C20750D59A0710D59C
S214000E300122A2736A88802149010A436A806A886F
S214000E4047490A406A80DB0700D47CE00520404220
S214000E5063E05B070BD4686800282DD16B881BB253
S214000E60002B20DB6B883E4A13406B8055E06B6896
S214000E70002B04DD6B888022520113436B806B8845
S214000E801BB2002B06DB6B88354A13406B800220B2
S214000E90404242E06268C0239B0213436360238A99
S214000EA0DB0BFCD1EFE76268C0239B021343636051
S214000EB0238ADB0BFCD1D5E7AB681B782376AB68BF
S214000EC00133AB606B68013B6B60002025E0820756
S214000ED03CD56A68002A31D05B072FD4013A6A6095
S214000EE0002A07D162688023DB0213436360238AEB
S214000EF0DB0BFCD16B68002B07D16B881BB2002B79
S214000F000CDB6B88164A13406B80AB685A1CAA60D1
S214000F10227E1A700223A373002070BD6368104AF5
S214000F2013406360238ADB0BFCD16268C0239B02FC
S214000F3013436360238ADB0BFCD1E2E70223A3732F
S214000F4002204042E9E704204042E6E70020E4E7CA
S214000F508105000084D50000FFFFFBFFFFFF0000B7
S214000F60FFFEFFFF70B505000C00431E9841C0B29F
S214000F70A1220449FFF7C0FC2C602000FFF7D2FE38
S214000F8070BDC04684D500000268136802210B437A
S214000F901360138ADB0BFCD17047036889B2198390
S214000FA070470368188BC0B270470368987B0123AC
S214000FB01840704703689B7B5B0801201840704709
S214000FC003689B7B9B0801201840704770B506009D
S214000FD00C000800FFF7DEFE05003000431E9841B7
S214000FE0C0B2204A2049FFF787FC3461238ADB0B16
S214000FF0FCD1238ADB0BFCD123689B0707D5002393
S2140010002360238ADB0BFCD1238ADB0BFCD1012374
S2140010102360238ADB0BFCD1238ADB0BFCD16B001D
S2140010205B19DA00114B9B185B680222934323601E
S214001030238ADB0BFCD16B005B19DA000B4B9B1889
S2140010409B686360238ADB0BFCD1084A6B00581947
S214001050C10008005118898961811218138AF3812A
S214001060002070BDD704000084D50000A0D5000085
S21400107070B506000469184D431E9841C0B2A122FF
S214001080D2002900FFF738FC3069431E9841C0B2F1
S214001090124A2900FFF730FC23680222134323601C
S2140010A0238ADB0BFCD104200D49238ADB0BFCD101
S2140010B0228A120903331340012B08D00139002974
S2140010C0F3DC0138002804D010232382ECE700204C
S2140010D070BD06204042FBE784D5000009050000ED
S2140010E0FFFF0000F8B505000E0004697D4F431EA3
S2140010F09841C0B27C4A3900FFF7FEFB2869431EC0
S2140011009841C0B2794A3900FFF7F6FB3000431E1B
S2140011109841C0B2764A3900FFF7EEFB6B88DB05D4
S21400112000D5DCE0728880235B009C461A43728000
S2140011302A00310089C989C2626863461343636026
S214001140238ADB0BFCD12800FFF742FE002800D1E3
S2140011507DE06B88674A13406B80F8BD05204042EF
S21400116086E073881BB2002B04DB6B88614A134051
S2140011706B80F2E76268C0239B0213436360238A96
S214001180DB0BFCD1F1E75B070BD4686800282DD198
S2140011906B881BB2002B20DB6B88564A13406B8093
S2140011A055E06B68002B04DD6B88802252011343E8
S2140011B06B806B881BB2002B06DB6B884D4A134096
S2140011C06B800220404242E06268C0239B021343C9
S2140011D06360238ADB0BFCD1EFE76268C0239B02C7
S2140011E013436360238ADB0BFCD1D5E7AB681B781F
S2140011F02376AB680133AB606B68013B6B60002005
S21400120025E08A0769D56A68002A5ED05B075CD449
S214001210013A6A60002A07D162688023DB02134322
S2140012206360238ADB0BFCD16B68002B07D16B88CD
S2140012301BB2002B39DB6B882E4A13406B80AB68E1
S2140012405A1CAA60227E1A700223A37300206B88A1
S214001250DB0500D481E72F69274ABB7BDBB2190088
S214001260501E002A00D179E702009B07F5D0002027
S214001270002800D075E7238ADB0BFCD1238A9BB2BB
S214001280CA07BED59A0700D47DE70122A2736A88F2
S214001290802149010A436A806A8816490A406A80A2
S2140012A0DB0717D505204042D1E76368114A134093
S2140012B06360238ADB0BFCD16268C0239B02134366
S2140012C06360238ADB0BFCD1B5E70223A3730220FD
S2140012D04042BCE704204042B9E70020B7E70620BA
S2140012E040423AE784D500009B0500009C050000BC
S2140012F09D050000FFFEFFFFFFFF000070B5060023
S2140013000C000800FFF7DAFC0023012B0BD81901AC
S2140013105F4A5218D27B904202D00133DBB2F4E728
S2140013205B4B5D1800E00025002E00D16AE0002C23
S21400133000D165E00120574A5749FFF7DDFA002D36
S21400134000D1A2E0238ADB0BFCD1238ADB0BFCD185
S21400135023689B0707D500232360238ADB0BFCD179
S214001360238ADB0BFCD101232360238ADB0BFCD111
S214001370238ADB0BFCD134602B786A7812021A437E
S214001380AB781B041A43EB781B0613431C2213404E
S214001390082B39D0002C00D173E0002D00D16EE070
S2140013A001203E4A3C49FFF7A7FA2B786A781202DA
S2140013B01A43AB781B041A43EB781B061343384AD0
S2140013C013402360238ADB0BFCD12B796A79120247
S2140013D01A43AB791B041A43EB791B061343314AB5
S2140013E0134080229202134363602B7BA3726B7BB5
S2140013F023722B795B0746D101233371002070BD21
S214001400002098E7002096E7002C36D0002D32D03A
S2140014100120254A2049FFF76FFA2B786A781202D6
S2140014201A43AB781B041A43EB781B0613431C4A7B
S21400143013402360238ADB0BFCD12B796A791202D6
S2140014401A43AB791B041A43EB791B061343174A5E
S214001450134363602B7A6A7A12021A43AB7A1B0430
S2140014601A43EB7A1B06134363616B7B2372238A52
S214001470DB0BFCD1BDE70020CBE70020C9E700204E
S2140014808FE700208DE70223B7E70D204042B6E73E
S214001490C8D50000A308000084D50000720800002C
S2140014A0FCFEFFFFBF3FFDFF830800004000020078
S2140014B010B5041E0DD00368002B08D00120064A84
S2140014C00649FFF719FA2068FFF700FC10BD002058
S2140014D0F5E70020F3E7C0460A09000084D50000BF
S2140014E070B588B00D0004680B6803934B680493CE
S2140014F00023059306930679002814D0002C10D0FC
S21400150001202D4A2D49FFF7F7F9238ADB0B4FD12F
S214001510238ADB0BFCD123689B0718D41420404297
S21400152044E00020EDE70020EBE7002226E05878B4
S21400153000020143023303930132059289B22183EC
S2140015400598AB68984202D3069A934229D9A37BA2
S214001550DBB25A07E9D5228B92B20499002908D04B
S214001560481C04900A70012E03D9881C0490120AA5
S2140015704A70069A0192013206920122002ADFD1B1
S2140015800699059A9142DBD3DB07D9D5039B002B3E
S21400159005D0591C03911978012EC8D8CCE7084904
S2140015A0CAE7A37B9B07FCD00323A37308B070BDD8
S2140015B004204042FAE7C046010A000084D5000035
S2140015C0FF0100000F4B196A090C1A6A920F920766
S2140015D009040D4801400A430C490A431A629A69F5
S2140015E002210A439A611A7F1D310A401A77054B79
S2140015F0DB681B07FBD5034A136A80210B43136283
S2140016007047C046000800400000FF0F02030000BD
S21400161002221B4B9A841A4BDB68DB06FBD5194A61
S214001620174BDA62184B1B689B0E3F2B20D09B0291
S214001630802292001343124A936202239384938C6F
S2140016405B0718D50E4BDA68D0231340D02BF9D1A0
S2140016500B4A938C80210B439BB293840B4B5B7895
S214001660DB09FBD1064A936902218B4393617047DD
S214001670FC23DB01DFE7024BDB68DB06FBD5E7E795
S214001680000800400000010424608000000C0040B8
S21400169070B505000469A37BDB0705D50123A3739A
S2140016A00368002B00D09847637B9B0706D5022370
S2140016B0A3736B68002B01D02800984770BD00000C
S2140016C0024B9C466044800AC0B2704700E0FFBDF3
S2140016D0064B984203D0064B984203D07047054B02
S2140016E01960F8E7044B1960F8E7C0460038004276
S2140016F0003C00427C0A0020800A002010B5FFF75C
S214001700DFFF0023012B0BD89A00D2189100094A5C
S2140017108A5C904202D00133DBB2F3E758B207E0AE
S2140017207622FF3204490020FFF7E6F80120404207
S21400173010BDC04600000020E8D5000070B50500CA
S2140017400C000800FFF7DAFF2C61E37BDB09FCD115
S21400175023889B0704D500232380E37BDB09FCD189
S21400176001232380E37BDB09FCD182001218910061
S2140017702A4B5B185A88228019792172DB8863818C
S2140017800C231340082B37D0002B41D1234A83006B
S2140017901E18B1000E005118898921839219138AE8
S2140017A0638329002000FFF793FF2000FFF788FFE0
S2140017B00D30C0B243B2002B0ADB1F2101400122CC
S2140017C08A408021164C6250BFF34F8FBFF36F8F55
S2140017D0002B07DB1F21014001228A40C02149005F
S2140017E00F4C6250002B16DB1F2318401E3B834015
S2140017F00B4A1360002070BD084A83001E18B10013
S2140018000E005118C968A16192191369E361C8E70F
S21400181001204042EFE70020EDE7C0460000002030
S21400182000E100E00269138802210B439BB213809B
S2140018307047000070B504000E0015000069FFF741
S2140018405DFF24698200121891000E4B5B18DE6063
S2140018501D615A880C231340082B0BD0094A8300BD
S2140018601D18A9000D005118898921835219138A61
S214001870638370BD034A0D00A66152191369E361C4
S214001880F7E7C0460000002003691B885B080120BC
S214001890184070470020704710B5024B1868FFF7D5
S2140018A0F7FE10BD7C0A002010B5024B1868FFF743
S2140018B0EFFE10BD800A0020704780221204C0236D
S2140018C0DB05DA617047000010B50F4A93692021E6
S2140018D00B4393610D4A0E4B5A80FFF7E5F9020061
S2140018E00C4C0D492000FEF7D9FE0C498023DB0185
S2140018F08B600B4BCB6001230B742000FEF704FFBC
S2140019002000FEF7E9FE10BD000400400243000080
S214001910000C0040FC0B002000140040840A00204D
S214001920BB18000070B5C024E4058025AD04A56191
S214001930FEF72EFC656170BDF0B5DE4657464E4696
S2140019404546E0B5C022D20580239C46936193604D
S2140019507D4B7E499962C0252D069D624724185D01
S21400196001218843185580204000506190607848D7
S21400197098629D620134185D884318558027BF0021
S214001980576197607348824698629D620134185D7D
S214001990884318558020C0008046506190606E488D
S2140019A098629D620134185D8843185580200001B6
S2140019B050606A4898626A4898624B26985D8146ED
S2140019C004204C4684439C559C5D8C439C55802645
S2140019D0360296619660634E9E629D624F241E5D3F
S2140019E08E431E5580263604566196608024E40594
S2140019F09C625D4C9C625724A3461C5D8C43A146AA
S214001A005C464E461E5541341751103C1751593FFF
S214001A10FF3F5446DC51DD51C9241D5D8D431D55E5
S214001A20842544465451514CDC514D4CDC51CA245B
S214001A30A0461C5D8443A14644464E461E551C5D8A
S214001A408C43A14644464E461E55802424015451DC
S214001A50424CDC51424CDC51CB24A0461C5D8443F6
S214001A60A14644464E461E551C5D8C43A146444640
S214001A704E461E558024E403546194608024E40599
S214001A809C623B4C9C625624A1461C5D8C43A0463F
S214001A904C4646461E558024640454619460802457
S214001AA0E4059C62334C9C625824A1461C5D8C4322
S214001AB0A0464C4646461E558024A40454619460B5
S214001AC08024E4059C622C4E9E6259241E5D8E4343
S214001AD01E5540265651294EDE51214CDC51C62655
S214001AE09C5D84439C559C5D8C439C55A63E5651FC
S214001AF0234EDE511A4CDC51C5269C5D84439C5512
S214001B009C5D8C439C55B53E56511E4EDE51144C82
S214001B10DC51C4269C5D84439C559C5D8C439C553F
S214001B2064465451184ADA510D4ADA51C7229C5C71
S214001B3084439C54985C884398543CBC9046994691
S214001B40A246AB46F0BDC0460044004180000040BF
S214001B50000100400002004000040040000802406F
S214001B60000002C000800040800000C00004024068
S214001B70400000C0000100C0000200C0400002405B
S214001B8020000240100002408000024010B5114ABA
S214001B90114B5A80802149008423C022D205D1509F
S214001BA00E4BA8220E4999500E499950C8215A5CEE
S214001BB0042082435A545A5C033882430243D2B20A
S214001BC05A5414395A5C0F2082435A54FEF70EFBBF
S214001BD010BDC04603410000000C00400044004118
S214001BE000010240000002C0F8B5D646474680B560
S214001BF0344A136A042188460B431362324A334B35
S214001C005A8033493348FEF753FCC022D2051023CE
S214001C1053619360304B31499962C02109068A4668
S214001C2099624420195C0124A14301252943C9B2C5
S214001C3019543221585C0F27B8430326B44666462B
S214001C403043C0B2585420205061906024489862B7
S214001C505046986245208246185CA0432843C0B28E
S214001C6056469855585C363E30403026B246564664
S214001C703043C0B258540E3151601A4A9A621A4A1A
S214001C809A624622995C404681439954995CA143E6
S214001C902943C9B2995433215A5CBA436046024379
S214001CA0D2B25A540A490B48FEF702FC0F490948BB
S214001CB0FEF78AFC0748FEF723FC0CBC90469A46C3
S214001CC0F8BDC046000400400D400000000C004077
S214001CD000080042D00B00200044004110000040E5
S214001CE02000004040000240000002C0B00B002070
S214001CF0002804D18022C023DB055A617047802269
S214001D00C023DB059A61F9E710B50020FFF7F0FF66
S214001D1010BD10B50120FFF7EBFF10BD10B5030096
S214001D200A00034908681900FEF750FB10BDC046BC
S214001D30B00B002010B503000A000349086819001C
S214001D40FEF72AFB10BDC046B00B002010B582B0CF
S214001D506B46DC1D00232370044B1868012221000B
S214001D60FEF734FB207802B010BDC046B00B002052
S214001D7000B583B06B46D91D0870034B1868012266
S214001D80FEF70AFB03B000BDB00B0020F0B5CE4650
S214001D9000B5354A136A20210B431362334A344B8D
S214001DA05A8034493448FEF783FBC022D20580238C
S214001DB05B0253619360314B8021C9058946996265
S214001DC02F4999625020195C0124A143012529431B
S214001DD0C9B219543821585C0F27B8430326B446B5
S214001DE066463043C0B258548020800250619060EE
S214001DF0484698622348986251208146185CA04362
S214001E002843C0B24E469855585C423E3040302675
S214001E10B1464E463043C0B258548021C902516084
S214001E20194A9A62194A9A625222995C042081439E
S214001E309954995CA1432943C9B2995439215A5CF3
S214001E40BA4360460243D2B25A540A490A48FEF7D9
S214001E502FFB0F490848FEF7B7FB0748FEF750FB75
S214001E6004BC9146F0BDC04600040040104000008F
S214001E70000C004000140042B80B00200044004153
S214001E80010000C0020000C000000240040002C0C2
S214001E90B40B0020F8B51E4A136A10210B431362D8
S214001EA01C4B1D4A5A801D4A5A801D4C1D49200055
S214001EB0FEF74EFA1C4B4C20195C04229143195431
S214001EC0195C0126B14301252943C9B219541638B5
S214001ED0195C0F27B94302273943C9B219544D215B
S214001EE05F5C97435F545A5CB2432A43D2B25A545B
S214001EF01A5C3E390A4020210A43D2B21A540B49D2
S214001F002000FEF745FA2000FEF73EFAF8BDC04670
S214001F1000040040000C00400F4000000C4300008E
S214001F20180C00200010004200440041EC0B00207A
S214001F30F8B5DE4657464E464546E0B52D4D2A6A6C
S214001F408023DB0113432B622B4B9A462B4B9B467D
S214001F5053465A465A802A4CD122A35C0121894610
S214001F608B43884641460B43DBB2A354193AA35C25
S214001F700F273B4040263343DBB2A354FFF78AFCCF
S214001F80020020492048FEF747FA2A6A80231B02EF
S214001F9013432B6253465A465A805522A35C494641
S214001FA08B4341460B43DBB2A3541B3AA35C1F4052
S214001FB03E43F6B2A654FFF76DFC0200134C1449DC
S214001FC02000FEF729FA134D002229000E48FEF7DE
S214001FD05BFA002229002000FEF756FA0A48FEF7B0
S214001FE03BFA2000FEF738FA3CBC90469946A246DB
S214001FF0AB46F8BD00040040000C00401640000050
S2140020000044004100380042FC0A0020580B002023
S214002010003C004288130000F8B5194A136A4021B4
S2140020200B431362174A184B5A8000221749184868
S214002030FEF718FC174BCC215A5C0124A24301275B
S2140020403A43D2B25A54B622985C0F26B0430225C1
S2140020502843C0B298541832995CA1433943C9B298
S2140020609954B7215A5CB2432A43D2B25A540A4909
S2140020700748FEF72BFC0648FEF716FCF8BDC046E0
S2140020800004004011400000000C00400018004210
S214002090F00B002000440041E80B002010B5FEF7CE
S2140020A07BFCFFF749FCFFF79FFDFFF76FFEFFF78E
S2140020B0F1FEFFF73DFFFFF7AFFF04492820FEF7CC
S2140020C0ADF8FFF701FCFFF761FD10BDB918000081
S2140020D070B5060008282FD884000134E400651C7B
S2140020E0FF351021280000F06BFD280000F036FDBB
S2140020F00028FAD180239B00E0181F2100F060FD25
S2140021000123B340DB431BB20D490A881A400A80FC
S2140021100C490A8813400B80720000210A4BD152EA
S2140021200A4B00229A55C0239B00E01800F016FDCB
S2140021300028F8D1013070BD01204042FBE7C046C0
S214002140980A00209A0A0020A40A00209C0A002070
S214002150F0B5C64600B584B005000E0090461F00D8
S214002160082800D992E0012969D0002900D190E022
S214002170042900D98DE07B0700D58DE0002F04D020
S214002180012E69D0022E00D16DE02800FFF7A0FFD7
S214002190AC000134E4000F233900994349B23143BF
S2140021A0C9B2200000F00CFD4346002B08D13D4A82
S2140021B01388984601339BB213803B4A934261D002
S2140021C08023DB00E0184346190A00F0F9FC43467A
S2140021D06A46D371D179A023DB00E01800F0F0FC4A
S2140021E0661CFF360121300000F0EAFC300000F0EB
S2140021F0B5FC0028FAD10122AA40D24312B22B48DD
S214002200038813401BB201210F40AF403B430380BD
S21400221027490B881A400A806B000021254A9952EC
S214002220254B00225A55C0239B00E01800F096FC70
S2140022300028F8D068B204B004BC9046F0BD042272
S21400224003A9F020000100F0EBFC039B002B00D05C
S21400225091E703204042EEE721233B4200D094E77B
S21400226006204042E7E7BB0602D57BB2002B16DA13
S214002270FB0600D489E77BB2002B00DA85E7062050
S2140022804042D8E70D4A074B1A8099E701204042A2
S214002290D1E705204042CEE706204042CBE70620A5
S2140022A04042C8E728000020F0FF0000980A0020FF
S2140022B09A0A0020A40A00209C0A002000C0FFFF03
S2140022C070B50600082829D884000134E4002000F0
S2140022D000F044FC0F231840012822D1C0239B00A5
S2140022E0E518280000F03AFC13281DD10134FF340D
S2140022F00221200000F064FC200000F02FFC0028E3
S214002300FAD1280000F02AFC142801D1133870BD39
S2140023103000FFF7DDFE04204042F8E7012040428F
S214002320F5E705204042F2E703204042EFE70000D1
S21400233070B50600082836D884000134E400200072
S21400234000F00CFC0F23184001282FD1651CFF3528
S2140023500821280000F034FC280000F0FFFB0028CD
S214002360FAD101221000B04013490B8883430B803A
S214002370124B1B8833411A421BD1C0239B00E01826
S21400238000F0ECFB00280CD080239B00E01800F047
S214002390E5FB0307F1D53000FFF79AFE0D2040421B
S2140023A008E0013006E00120404203E005204042FC
S2140023B000E0002070BDC0469A0A0020980A00205F
S2140023C0F0B5C64600B582B0040001911700082893
S2140023D000D980E0050083000133DB009846180032
S2140023E000F0BCFB0F231840012800D076E0002F39
S2140023F000D176E0C0239B0043440093180000F011
S214002400ADFB172802D01C2800D06DE0384B1B8887
S2140024102341DB0718D58026B6004644300000F07E
S2140024209DFBC30606D403071AD4002002B004BCE2
S2140024309046F0BD1021300000F0C2FB0122A24001
S2140024402B490B8893430B80F8204001404400F052
S21400245085FB80B2800286B2B7420FD83E000DE000
S2140024602000FFF735FE0D204042DFE72000FFF793
S2140024702FFE07204042D9E7BE4213D9200000F0C5
S2140024804BFC0700009800F069FB172801D01C28B9
S214002490ECD1184B1B882B41DB07EDD5BE42EBD9A0
S2140024A00020C3E732000199200000F099FC454661
S2140024B00135FF352021280000F082FB280000F0BF
S2140024C04DFB0028FAD10122A24009490B8813438C
S2140024D00B803000AAE701204042A7E705204042D3
S2140024E0A4E70E204042A1E7072040429EE7C046F0
S2140024F09A0A0020980A0020F0B5C64600B582B0B9
S214002500009001911400082864D80600870001375F
S214002510FF00380000F022FB0F23184001285CD192
S214002520002C5DD0F0235B01F81800F017FB80B29A
S214002530800283B298469C420FD8A0460DE00098D1
S214002540FFF7C6FD0720404240E00098FFF7C0FDB9
S214002550072040423AE0002C24D1009D280000F0DD
S2140025600DFC0400C0239B00F81800F0F7FA1728AB
S2140025700FD01C28E9D1002C14D1280000F0CCFB89
S2140025800500F8235B01F81800F0E8FA800285429F
S214002590D5D0154B1B883341DB07DCD5002CDAD1B0
S2140025A0002013E0A04500D8444622000199009878
S2140025B000F049FC0137FF374021380000F000FBEF
S2140025C0380000F0CBFA0028FAD1200002B004BC94
S2140025D09046F0BD01204042F8E705204042F5E76E
S2140025E00E204042F2E7C046980A0020F0B5DE46CC
S2140025F000B584B00190039193461C000AAB1F8877
S214002600082800D995E0050083000133DE0030007D
S21400261000F0A4FA0F230340023BDBB2022B00D9E2
S2140026208AE05B46002B00D189E023781B026278A3
S2140026309B181B02A2789B181B02E2789B18002BA3
S21400264034D0002F04D1300000F088FA430779D543
S214002650C0239B009C46B44463460293604600F049
S2140026607DFA422803D0222801D032286DD10422D8
S2140026702100C0231B01F01800F012FB390A80234A
S2140026805B01F01800F09CFAF9B288235B01F018A1
S21400269000F096FAF8235B01F01800F05FFA80B2BB
S2140026A0800287B2BB450BD85F4609E0300000F0D9
S2140026B055FA4307C5D40C2040424BE0A74211D937
S2140026C0019800F029FB0400029800F047FA002861
S2140026D03ED0224B1B882B41DB07EFD5A742EDD916
S2140026E0002037E03A000399019800F079FB741C4B
S2140026F0FF342021200000F063FA200000F02EFABC
S2140027000028FAD180239B00F418200000F026FA57
S214002710C30608D40307F5D50821200000F050FAB8
S2140027200D20404216E01021200000F049FA380043
S21400273010E0012040420DE0052040420AE00E2055
S214002740404207E00B20404204E00720404201E000
S2140027500420404204B004BC9346F0BD980A002012
S214002760F0B5DE46474680B585B005000091904638
S2140027700193082800D91BE1070083000133DE001F
S214002780300000F0EBF983460F230340023BDBB238
S214002790022B00D90FE14346002B00D10EE16B005F
S2140027A0894A9B5A002B15D0002407235A4613400B
S2140027B0032B00D1BDE0042B00D181E0022B1ED0FC
S2140027C02100280000F072FB6B007F4A9C5226E036
S2140027D0002CEAD1280000F0D1FA0400C0239B00A8
S2140027E0F01800F0BBF9002800D1EAE0774B1B8810
S2140027F03B41DB07ECD5002CEAD1002029E06B003A
S214002800714A9B5A002B29D06B006F4A9C5AA045F0
S21400281000D2444622000099280000F014FB01363E
S214002820FF364021300000F0CBF9300000F096F97A
S2140028300028FAD1644A69008B5A1B1B9BB28B5244
S214002840002B00D1B0E0624A535D01210B43535583
S214002850200005B00CBC90469B46F0BD082202A99D
S214002860280000F0F0FA741CFF344021200000F02D
S214002870A7F9200000F072F90028FAD102AB1B7805
S214002880019A137002AB5B78537002AB9B7893701F
S21400289002ABDB78D37002AB1B791B0202AA52791B
S2140028A09B180C9A138002AB9B791B0202AAD27962
S2140028B09B186A0044498B528022454B5A55A3E721
S2140028C06B00414A9B5A002B0BD06B003E4A9C5A29
S2140028D0A04500D2444622000099280000F0B3FA32
S2140028E09DE7022202A9280000F0ADFA741CFF340E
S2140028F04021200000F064F9200000F02FF90028A5
S214002900FAD102AB1B781B0202AA52789B189BB224
S214002910023B9BB26A002C4953522E4A934203D87C
S21400292080222B4B5A55D0E72800FFF7D1FB2A48C8
S2140029308FE76B00244A9B5A002B0BD06B00224A71
S2140029409C5AA04500D2444622000099280000F078
S2140029507AFA64E7062202A9280000F074FA741CCA
S214002960FF344021200000F02BF9200000F0F6F89C
S2140029700028FAD102AB1B78019A137002AB5B7881
S214002980537002AB9B78937002ABDB78D37002ABCC
S2140029901B791B0202AA52799B186A000A498B52BD
S2140029A080220B4B5A55C9E70022094B5A554FE770
S2140029B0012040424DE7052040424AE70E204042B3
S2140029C047E70420404244E7A40A0020980A002073
S2140029D09C0A0020EA05000017FCFFFF70B5040003
S2140029E01500082800D9A6E00C2900D9A6E0890021
S2140029F0574B5B589F4680000130C00000F0AEF891
S214002A000F2398432870012070BD80000130C0005D
S214002A10B0235B019C46604400F0A0F828700120BB
S214002A20F2E780000130C000A8235B019C466044AA
S214002A3000F094F828700120E6E784000134E400F2
S214002A4090235B01E01800F089F886B23602B6B231
S214002A5098235B01E01800F081F880B236182E80CB
S214002A600120D1E780000130C000C0231B019C4636
S214002A7060440422290000F0D3F80120C4E7840053
S214002A800134E40080235B01E01800F067F886B2AA
S214002A903602B6B288235B01E01800F05FF880B219
S214002AA036182E800120AFE784000134E4002000B1
S214002AB000F054F80F231840012842D1BC239B0194
S214002AC0E01800F04BF8288001209DE700F024F97C
S214002AD02880012098E700F051F92880012093E72C
S214002AE080000130C000C0239B009C46604400F07C
S214002AF035F82870012087E780000130C00000F01C
S214002B002DF8C30705D46400124BE35A2B8001202E
S214002B107AE7200000F032F92880012074E7800070
S214002B200130C00000F01AF801280DD00A4B1B5DDA
S214002B302B70012068E70120404265E702204042F2
S214002B4062E7052040425FE7052040425CE7C0465A
S214002B50FCD50000A40A00209C0A002030B583B0F3
S214002B600400164DEB6898476B6998476B6A002B14
S214002B7016D0124B9B6A002B12D0220C01A80270B2
S214002B80220A42708470032198470C4CE3699847E8
S214002B900500A369984723699847280003B030BD0D
S214002BA0064D200CC0B22B6A9847200AC0B22B6A8A
S214002BB098472B6AE0B29847E7E7C0462C0000200B
S214002BC070B582B004000E00144DEB6898476B6930
S214002BD0984704200443AB6A002B0FD0220C01A8B0
S214002BE00270220A42708470C670042198470B4C0B
S214002BF0A36998472369984702B070BD074D200C1B
S214002C00C0B22B6A9847200AC0B22B6A9847E0B237
S214002C102B6A98472B6A30009847E8E72C0000207C
S214002C20F0B583B004000F0016001C4DEB68984703
S214002C306B6998476B6A002B17D0184B9B6A002B62
S214002C4013D0220C01A80270220A4270847003215D
S214002C509847124B5B6A3100380098470F4CA369BF
S214002C6098472369984703B0F0BD0C4D200CC0B2BE
S214002C702B6A9847200AC0B22B6A98472B6AE0B2A4
S214002C809847002406E03D19044BDB6998472870F6
S214002C900134A4B2B442F6D3E0E7C0462C000020CC
S214002CA0F0B583B004000F0016001A4DEB68984785
S214002CB06B69984704200443AB6A002B13D0220CA0
S214002CC001A80270220A4270847003219847114BB3
S214002CD09B6A3100380098470E4CA36998472369D1
S214002CE0984703B0F0BD0B4D200CC0B22B6A984736
S214002CF0200AC0B22B6A98472B6AE0B29847002495
S214002D0005E0044B1B6A385D98470134A4B2B44210
S214002D10F7D3E1E72C000020F0B5C64600B5070063
S214002D20002501E0A54225D0BB000133DB00984614
S214002D308026B60146443000FFF710FF84B2240216
S214002D40A4B284239B019C46E0444046FFF706FF5E
S214002D5080B22418A4B2002CE4D03000FFF7FEFEA8
S214002D6080B2000285B24046FFF7F8FE80B22D180A
S214002D70ADB2D7E7280004BC9046F0BDF0B5C64615
S214002D8000B50700002501E0A54225D0BB000133B1
S214002D90DB0098469826B60146443000FFF7DEFE74
S214002DA084B22402A4B29C239B019C46E044404685
S214002DB0FFF7D4FE80B22418A4B2002CE4D0300072
S214002DC0FFF7CCFE80B2000285B24046FFF7C6FE93
S214002DD080B22D18ADB2D7E7280004BC9046F0BDEF
S214002DE0F0B583B00091141E01D103B0F0BD86008B
S214002DF0751CED0090239B019C46AC4463460193F2
S214002E006046FFF7ABFE80B2000287B294229201C2
S214002E10944665442800FFF7A1FE80B2381887B2B2
S214002E203B02B01CC000181822000099FFF738FFBC
S214002E30E419A4B2210A0198FFF7C2FEE1B2280005
S214002E40FFF7BEFED1E7F0B583B00091141E01D1A6
S214002E5003B0F0BD8600751CED00A0239B019C46C8
S214002E60AC44634601936046FFF778FE80B20002EA
S214002E7087B2A4229201944665442800FFF76EFEAE
S214002E8080B2381887B23B02F01CC0001818220027
S214002E900099FFF7C5FEE419A4B2210A0198FFF7CE
S214002EA08FFEE1B22800FFF78BFED1E7F8B50C00E5
S214002EB087000137FF00A0239B01FE183000FFF7B4
S214002EC04DFE80B2000285B2A4239B019C46674457
S214002ED03800FFF743FE80B22D18ADB22C19A4B20D
S214002EE0210A3000FFF76CFEE1B23800FFF768FEFB
S214002EF0F8BD70477047704770470078C0B270479B
S214002F000170704700207047704770477047000098
S214002F10002805D0002903D0044B586199617047FA
S214002F20024B034A5A61034A9A61F8E72C000020D4
S214002F30F72E0000F92E0000084B1B889B05FBD5DA
S214002F40002805D0002903D0044BD86119627047C9
S214002F50024B034ADA61034A1A62F8E72C000020A3
S214002F60052F0000092F0000084B1B889B05FBD58A
S214002F70002805D0002903D0044B58629962704798
S214002F80024B034A5A62034A9A62F8E72C00002072
S214002F900B2F00000D2F0000F0B587B090273F01E3
S214002FA0062201A93800FFF73BFE802676000422A1
S214002FB005A93000FFF734FEA025ED00042204A981
S214002FC02800FFF72DFEF0242401042203A9200088
S214002FD0FFF726FE80210020FFF7F2FD0020FFF716
S214002FE0BDFD062201A93800FFF75AFE042205A9F6
S214002FF03000FFF755FE042204A92800FFF750FE14
S214003000042203A92000FFF74BFE07B0F0BD70B501
S21400301006000D00FFF7C0FF002E1BD00022002385
S214003020072B07DCF15C8A1852B2102A34DC013315
S2140030305BB2F5E700240BE0A0000130C000F823E7
S2140030405B019C466044315DFFF7BAFD013464B213
S214003050072CF1DD002D0BD000220023072B09DC06
S214003060E95C8A1852B2102A19DC01335BB2F5E724
S214003070002010E000240BE0A0000130C000F02388
S2140030805B019C466044295DFFF79AFD013464B2FB
S214003090072CF1DD002070BD01204042FBE7012037
S2140030A04042F8E710B5B824A4012000FFF756FD0B
S2140030B07F2101402000FFF783FD2000FFF74EFD33
S2140030C0802149420143C9B22000FFF779FD10BDB7
S2140030D010B504000622010090200001FFF7E0FD75
S2140030E021000E31042280204000FFF7D9FD210088
S2140030F00A310422A020C000FFF7D2FDA11D042241
S214003100F0200001FFF7CCFDA27C064B1A70E27C93
S2140031105A70227D9A70627DDA70A27D024B1A7018
S21400312010BDC046B80A0020B40A002010B504003E
S2140031300622010090200001FFF772FD21000E31EB
S214003140042280204000FFF76BFD21000A31042294
S214003150A020C000FFF764FDA11D0422F02000019E
S214003160FFF75EFD064B1A78A2745A78E2749A78D6
S2140031702275DB786375034B1B78A37510BDC046BC
S214003180B80A0020B40A002010B504003A23020052
S2140031909A4309D10020FFF7E1FC0443E1B2002086
S2140031A0FFF70EFD002010BD01204042FBE710B5E2
S2140031B00020FFF7D3FC10BD10B504000178D8201E
S2140031C04001FFF7FDFC6188090AC8204001FFF7AF
S2140031D0F7FCA178D0204001FFF7F2FC10BD70B5D7
S2140031E00500D8204001FFF7B9FC2870C820400130
S2140031F0FFF7B4FC80B2000284B2D0204001FFF793
S214003200ADFC80B224186C8070BD000010B50C00B8
S214003210052820D88000114B1B589F460800FFF752
S21400322057FF002010BD0800FFF780FF0020F9E7D9
S2140032300878FFF7A9FFF5E7FFF7B9FF2070002031
S214003240F0E70800FFF7B8FF0020EBE70800FFF7FD
S214003250C6FF0020E6E701204042E3E730D6000044
S214003260F0B5DBB0FEF71AFFC949CA48FFF750FEB3
S214003270C949CA48FFF760FEC949CA48FFF774FE45
S214003280FFF710FF6420FCF783FFC7480100FFF735
S214003290BEFEC64C2000FFF71BFF21000020FFF7F4
S2140032A0B5FFC023DB058022D2039A61802252003C
S2140032B09A610132FF329A61FF21B0204001FFF788
S2140032C07FFCFF21C0204001FFF77AFC00219820F8
S2140032D04001FFF775FC0121A0204001FFF770FCBC
S2140032E00024072C37D90A20FEF71CFB16A8FCF78B
S2140032F041FFC023DB0580229C582032AC498A5807
S21400330090215B5853401C40544016A8FCF739FFE8
S214003310E3052DD48022D203C023DB059A61A54B9A
S214003320187880000130C000C0239B009C46604493
S214003330FFF714FC002821D09E4B1878800001303F
S214003340C00080239B009C466044FFF707FCC30632
S21400335020D1032492E0A0000130C000B0239B01DE
S2140033609C4660440421FFF72BFC0134E4B2B8E726
S2140033708022D203C023DB055A61D0E78E4B1A8821
S2140033808C4C207880230221FEF7E2FE2078FEF7A0
S21400339097FFD1E7874B1878FFF7F0FC041ED8D0CC
S2140033A0864B984200D99CB28022120100218348A5
S2140033B002F0D8F87F4E307817AB00931AAB220095
S2140033C07E49FFF7CDF97E4F3A887E4D2878012357
S2140033D00221FEF7BDFE28783B8800931AAB220038
S2140033E07649FFF703F9307880000130C00080236B
S2140033F09B009C4660441F21FFF7E2FBA9E7B2B2A0
S2140034007149C9192000FEF7DBFF1420FCF7C0FE47
S214003410BF196E4B9F421DD86D4EF61B8023DB00F6
S2140034209E42ECD91E00EAE76A49644802F096FB21
S214003430002855D00E3006000A20FEF773FA664BB9
S214003440664A6749300002F019F9412265492000B2
S214003450FEF7B6FF2000FEF76BFF2000FEF738FEF3
S2140034602800FFF77BFB1C2800D119E12800FFF796
S21400347075FB002800D117E10134E4B2072C00D90F
S21400348034E70C94A5000135ED00C0239B009C4654
S21400349065442800FFF762FB1728E1D115AA04212E
S2140034A02000FFF79BFA2000FFF768FC0600802349
S2140034B01B01984200D91E00404F802212010021B5
S2140034C0380002F04FF8320039002000FFF714F8F9
S2140034D04549380002F042FB0028A5D0002798E7AF
S2140034E04249364802F03AFB002800D18CE00D3005
S2140034F01AAB17AA3E4902F0C1F83E4917A802F0D7
S21400350055F900280BD03C4917A802F04FF90028BF
S21400351026D0412233492000FEF752FF9AE70A30B0
S214003520FEF700FA35491AA802F040F9002808D13B
S214003530C023DB05802252009A610132FF329A6175
S214003540E7E72F491AA802F031F90028E1D1C02395
S214003550DB05802252005A610132FF325A61D8E7F9
S2140035600A30FEF7DFF925491AA802F01FF90028ED
S21400357003D10122234B1A70CBE721491AA802F087
S21400358015F90028C5D100221E4B1A70C1E7C046A7
S214003590131D0000091D0000711D00004D1D0000D8
S2140035A0351D00001D1D00007C000020640000206A
S2140035B0004400415A00002058000020380C00202B
S2140035C05C000020BC0A002080D700002F140000FA
S2140035D03014000050D60000C40A0020C00A0020A4
S2140035E060D6000070D6000048D60000B4D60000B2
S2140035F0C4D60000DCD60000E8D60000E0D6000006
S214003600E4D600007B0000202E492F4802F0A6FAE0
S214003610002800D11EE72D4B1E682D4B1B680D930E
S214003620191C301C00F008FB071C2A4B186801F018
S2140036309BFD0E900F91284B186801F095FD109099
S2140036401191381C01F090FD12901391301C01F07E
S2140036508BFD06000F000D9801F086FD1F4B1B78B2
S2140036600A930890099106960797129A139B04925C
S2140036700593109A119B029203930E9A0F9B009249
S2140036800193174A802149001AA801F0B5FF1AA82D
S21400369002F0D0F882B21AA92000FEF791FED9E611
S2140036A02000FEF745FEE1E60C9B5B000D4A9A5AA9
S2140036B0002301212000FEF74BFD2000FEF700FE50
S2140036C0DAE6C046ECD60000380C00206000002089
S2140036D094000020C00A0020C40A00207B000020BE
S2140036E0FCD6000084000020002243088B4274D3DE
S2140036F003098B425FD3030A8B4244D3030B8B42EE
S21400370028D3030C8B420DD3FF22090212BA030CF6
S2140037108B4202D31212090265D0030B8B4219D3D7
S21400372000E0090AC30B8B4201D3CB03C01A5241F7
S214003730830B8B4201D38B03C01A5241430B8B423F
S21400374001D34B03C01A5241030B8B4201D30B0328
S214003750C01A5241C30A8B4201D3CB02C01A52414F
S214003760830A8B4201D38B02C01A5241430A8B4212
S21400377001D34B02C01A5241030A8B4201D30B02FB
S214003780C01A5241CDD2C3098B4201D3CB01C01A15
S214003790524183098B4201D38B01C01A524143091F
S2140037A08B4201D34B01C01A524103098B4201D30D
S2140037B00B01C01A5241C3088B4201D3CB00C01A7A
S2140037C0524183088B4201D38B00C01A52414308F2
S2140037D08B4201D34B00C01A5241411A00D2014617
S2140037E0524110467047FFE701B5002000F0F0F8A0
S2140037F002BDC0460029F7D076E7704703460B4364
S2140038007FD4002243088B4274D303098B425FD3D4
S214003810030A8B4244D3030B8B4228D3030C8B4200
S2140038200DD3FF22090212BA030C8B4202D31212E6
S214003830090265D0030B8B4219D300E0090AC30BBB
S2140038408B4201D3CB03C01A5241830B8B4201D368
S2140038508B03C01A5241430B8B4201D34B03C01A51
S2140038605241030B8B4201D30B03C01A5241C30AC9
S2140038708B4201D3CB02C01A5241830A8B4201D33A
S2140038808B02C01A5241430A8B4201D34B02C01A24
S2140038905241030A8B4201D30B02C01A5241CDD2C9
S2140038A0C3098B4201D3CB01C01A524183098B4214
S2140038B001D38B01C01A524143098B4201D34B01FD
S2140038C0C01A524103098B4201D30B01C01A524160
S2140038D0C3088B4201D3CB00C01A524183088B42E7
S2140038E001D38B00C01A524143088B4201D34B00D0
S2140038F0C01A5241411A00D2014652411046704742
S2140039005DE0CA0F00D04942031000D34042534046
S21400391000229C4603098B422DD3030A8B4212D306
S214003920FC22890112BA030A8B420CD38901921138
S2140039308B4208D3890192118B4204D389013AD075
S214003940921100E08909C3098B4201D3CB01C01A4A
S214003950524183098B4201D38B01C01A524143095D
S2140039608B4201D34B01C01A524103098B4201D34B
S2140039700B01C01A5241C3088B4201D3CB00C01AB8
S214003980524183088B4201D38B00C01A5241D9D2D0
S21400399043088B4201D34B00C01A5241411A00D251
S2140039A00146634652415B10104601D34042002B4D
S2140039B000D54942704763465B1000D3404201B5CC
S2140039C0002000F005F802BD0029F8D016E7704781
S2140039D07047C046002B11D1002A0FD1002900D114
S2140039E0002802D00021C943081C07B4024802A1DF
S2140039F04018029003BDC046D9FFFFFF03B46846D7
S214003A0001B5029800F058F8019B9E4602B00CBC27
S214003A107047C046F0B5CE46474615042D0C2E001E
S214003A2080B50704140C3F0C9946030C7E435D4397
S214003A30674363437F19340CE4199C46A54203D9B7
S214003A4080235B029846C4444B46514343433604A6
S214003A50360C250C24046544A4195918491920006D
S214003A600CBC90469946F0BD10B50023002802D045
S214003A7001F034FC431C180010BDC04670B500228F
S214003A800C4B04000D0001F0F5FB002804D12000CB
S214003A90290001F0BBFA70BD064B00222000290069
S214003AA000F09EFF01F0B2FA80231B069C4660449D
S214003AB0F1E7C0460000E041F0B557464E464546A1
S214003AC0DE46E0B5040083B00D00924699468B4270
S214003AD02FD82CD04946504601F0F4FB29000600AA
S214003AE0200001F0EFFB331A9846203B9B4600D59A
S214003AF074E053465A4693401F005346424693404E
S214003B001E00AF4229D826D05B46A41BBD41002B21
S214003B1000DA79E0002200230092019301235A463E
S214003B2093400193012342469340009319E082425A
S214003B30D0D900220023009201930C9B002B01D0C9
S214003B401C605D600098019903B03CBC90469946A5
S214003B50A246AB46F0BDA342D6D90022002300926F
S214003B6001934346002BE8D0FB0772081A434646EB
S214003B707B080EE0AB4201D1A2420CD8A41A9D41AC
S214003B80012024196D410021013E24184D41002ECC
S214003B9006D0AB42EED9013E24196D41002EF8D175
S214003BA05B460098019900196941002B22DB2B0027
S214003BB05A46D3402A004446E2401C005B461500A5
S214003BC0002B2CDB26009E40330026004746BE40D6
S214003BD03200801A994100900191AEE742462023B8
S214003BE09B1A5246DA40414613004A468A4017005E
S214003BF01F4382E7424620239B1A2A0046469A40E5
S214003C002300F3401343D5E74246202300219B1AA6
S214003C100022009101920122DA40019282E7424698
S214003C20202326009B1ADE402F00B44697406646A7
S214003C303B003343C9E7C046F8B557464E464546AF
S214003C40DE46E0B54702460088467F0A360EC40FB9
S214003C50002E47D0FF2E24D0FB008027FF041F43F2
S214003C60002399469A467F3E43465D025800DB0F86
S214003C706D0A000E984643D0FF283BD0EB00802507
S214003C800022ED041D437F383618731C41469B46C0
S214003C904B46614013430F2B64D875489B00C358AE
S214003CA09F46002F42D108239946063BFF269A4698
S214003CB0DAE74146022A28D0032A00D1CEE0012ABC
S214003CC000D0ACE0114000200022CCB24002D20569
S214003CD0400AE407104320433CBC90469946A2465F
S214003CE0AB46F8BD002F15D104239946033B0026AA
S214003CF09A46B9E7FF200222002DC5D00322C3E76B
S214003D00002D19D100200122BEE70124FF220C401D
S214003D100020DBE7380001F0B7FA7626431F9F4005
S214003D2000237642361A99469A469DE70C23994612
S214003D30093BFF269A4697E7280001F0A5FA431F9D
S214003D409D4076235B42181A00229DE780200024BF
S214003D50C003FF22BAE73D005246ABE73D00210014
S214003D605246A7E73B0C9C462A04120C2B0C140068
S214003D70604665463F043F0C7C4342435D437B43BD
S214003D80270C9B18FF18BA4203D980235B029C4677
S214003D90654424043A04240C121993015C1EA341C2
S214003DA03F0C920E7D191A43AD0115432B0104D525
S214003DB001235E466A081D40154332007F32002A02
S214003DC025DD6B0704D00F232B40042B00D00435D1
S214003DD02B0103D53200274B80321D40FE2A94DC8F
S214003DE00124A801400AD2B20C406FE78020C0032D
S214003DF0074207D0054205D128434002400A444600
S214003E00FF2263E738434002400AFF225EE70124B0
S214003E10A31A1B2B05DD0C400022002056E75E4649
S214003E20CBE72A002020DA40C31A9D402B005D1EF7
S214003E30AB4113435A0704D00F221A40042A00D07D
S214003E4004335A0104D5012401220C4000203DE72A
S214003E5001249B01580A0C40002237E780200124E9
S214003E60C00328434002400A0C40FF222EE7C0460B
S214003E70B4EB0000FFFFFFF7F0B557464546DE46B9
S214003E804E46E0B54C000E0387B0834692461D00B2
S214003E908046360B640DCF0F002C4FD06F4B9C42E4
S214003EA035D08023420F1B04F60013433343994654
S214003EB0C30098466A4B00269C460023644403933E
S214003EC02B031B0B9B466B00ED0F50465B0D0195BD
S214003ED05ED0624A934253D05A46D1008022400FA9
S214003EE0120402430A4393465246D1005C4A944663
S214003EF0002263443800684084460290E41A164361
S214003F000F2E00D9B4E0574BB6009B599F460300CE
S214003F10334399466CD10023984602330826039310
S214003F20CEE7CB464146039A0197022A65D1019B0C
S214003F304A4C9C460023002298466BE0030033431D
S214003F4099464ED0002E00D1BCE1300001F09CF91D
S214003F5003000B3B1C2B00DDACE11D22D31A5A4696
S214003F600100DA4008398E401300334399465B4619
S214003F708B40984600233C4C0026241A03939FE768
S214003F8051465A46114329D1002293460232B1E7E0
S214003F90594601431ED05B46002B00D19EE1584691
S214003FA001F072F903000B3B1C2B00DD8FE10200D1
S214003FB05946083A91408B461D21CB1A5146D940A6
S214003FC00B0059460B4351469B469140264B002218
S214003FD01B1A8FE7002301229B468BE751460322DC
S214003FE088E700239846013304260024039367E7F6
S214003FF00323B14603930C2662E7032A00D15CE252
S214004000019B012A00D0E4E113409C4600230024D3
S2140040100022984600211203130B0A0D12051A43BC
S2140040202305124C40462240134362465B00D207EB
S2140040305B081343190007B03CBC90469946A2465D
S214004040AB46F0BD002380229C4612039846034CE4
S214004050E0E70023014C00229846DBE7FF0700005C
S21400406001FCFFFFF4EB00000DFCFFFFFFFF0F80DD
S214004070D94500D939E100D134E1002346464D4602
S2140040809A46013C5B460A0E1B021A430B02170CAB
S214004090039313041B0C3900280090460193FFF786
S2140040A023FB0200019B83465A43280039009146B1
S2140040B0FFF7A0FB350C09040D43A9450DD95B4657
S2140040C04544013BA84500D93AE1A94500D837E167
S2140040D002235B429C464544E3444B46EB1A3900B8
S2140040E018000493FFF700FB019B050043433900CB
S2140040F004989946FFF77EFB330409041B0C0B4318
S214004100994509D943446A1E984500D91AE199454C
S21400411000D817E1023D43444A469B1A5A46120409
S2140041202A4303999346100C0A0C914609045A46F2
S214004130090C4E460D001204120C454305915143DE
S2140041407243704352190E0CB218954203D980255B
S2140041506D02AC466044150C09041204090C2818BC
S2140041605218834200D2CEE000D1C8E01D1A534652
S2140041709E1AB24592415242AB1A9A46984500D1D1
S21400418017E139001800FFF7AFFA019B050043431B
S214004190390050460493FFF72DFB04980B04310CAE
S2140041A01943884209D941446B1E884500D907E166
S2140041B0884200D804E1023D4144049BCB1A180013
S2140041C039000493FFF790FA019B82464343390077
S2140041D004980193FFF70EFB01980B043104090CB9
S2140041E0194388420DD953464144013B884500D9BE
S2140041F0E8E0884200D8E5E002235B429C46414462
S214004200E244019B2D04CE1A51462943059D4F4694
S2140042102A000B04080C1B0C5A4345437B43784387
S2140042205B19170CFB189D4203D980256D02AC461E
S21400423060441D0C12041B04120C28189B1886429E
S21400424000D293E000D18EE001231943A04BE3187F
S214004250002B00DC99E04A0700D09EE05A46D201C7
S21400426006D55A469B4B1A4080239346DB00E3183C
S214004270994A934268DD0123029A984C1A4000231B
S214004280944698460022C5E680224B461203134207
S2140042900AD05B46134206D11A431203120BAC46F1
S2140042A088468E4CB6E64B461A431203120BBC46A3
S2140042B08A4CAFE603005A46283B9A4000239146B4
S2140042C0984657E6584600F0DFFF203040E60300E9
S2140042D05246283B9A400021934677E600F0D4FFEA
S2140042E020305FE6884500D2C7E64B46DE075D080D
S2140042F043465B081E434346DB079A46C2E6002554
S214004300924500D333E7039E5946B446E244B2458D
S214004310AD416D424544EB180139984507D29842A5
S21400432000D97FE000D1BCE01D1A8B461FE79845F8
S214004330FAD1039D5545F2D943468B461D1A16E71A
S2140043409B46CAE61500E7E65A46C90852070A43DE
S2140043505B0590465C0D5A460123029952021940AD
S214004360120B8C4656E6002B00D16FE746444A1ED9
S214004370B04529D91100864200D065E7039A9342DA
S21400438000D061E762E7012149420120C21A382ABB
S21400439021DD029B03409C4638E60F220A40042A91
S2140043A000D15BE70A00111D9142924152429344AC
S2140043B054E7474BE318002BE5DD01225242F2E7B3
S2140043C01D00FAE69A461CE7B04239D86ED01100B6
S2140043D03AE702933AE71F2A3CDC20239B1A0C009C
S2140043E05846994098404B1E99415B46D440D3406E
S2140043F0204308431A00430709D00F230340042B29
S21400440005D00100081D88429B415B42D21813026A
S2140044103AD50123029A01241A400023944698466E
S2140044200022F7E5022149428C46039DE344AC4650
S214004430E244AA45AD416D424544ED182D1A96E674
S2140044408A1E03994D008D4289414942414476189F
S21400445003958FE71F204042C31A5846D8400300F2
S214004460202A28D040205D46821A954029434A1EBD
S21400447091411943072300220B4009D00F23002245
S2140044800B400800042BBDD1010053075202120B4B
S214004490C9081943012388460299002419408C460E
S2140044A0B8E55245BED88B46002560E6039D9D4282
S2140044B0C6D3110062E70025D8E780225B461203C8
S2140044C01A43019B1203120B9C468846034CA1E537
S2140044D0FF030000FFFFFFFEFE070000FF070000CF
S2140044E0F0B557464546DE464E46E0B50C039846C0
S2140044F04E00230B87B0070092469B46760DCD0FE5
S214004500002E6BD06D4B9E4235D080245B46420F0A
S2140045102404DB0014431C43C3009946684BA3469F
S2140045209C46002300276644029343461C035A0019
S214004530DB0F5046240B520D984600D176E05F4BB9
S2140045409A426DD08023410F1B040B435C49E40064
S2140045508C461C43C300002062444146B61869409E
S214004560721C0191944607430F2F00D9B0E0554ABC
S214004570BF00D25997465B460343994600D087E072
S21400458000239B46023308270293CEE74246019259
S214004590022867D0032800D10EE2012800D062E18D
S2140045A0002300240022994601990140CDB2002143
S2140045B012030B0D120B1B051343434A240513402D
S2140045C01C436400ED0764082C434846210007B0EE
S2140045D03CBC90469946A246AB46F0BD034399467E
S2140045E04FD05B46002B00D189E1584600F04CFEC8
S2140045F003000B3B1C2B00DD7AE11D22D31A3A0088
S21400460001005C46DA4008398C4013008F40234393
S2140046109B46B94600232D4E0027361A029384E7A0
S214004620534623432AD10024022096E753462343C9
S21400463020D0002C00D157E1200000F025FE03001A
S2140046400B3B1C2B00DD49E11D21CB1A5146020015
S214004650D9405346083A944093400C431B4A121ADA
S21400466000207AE70125019B144C1D400023002200
S21400467099469CE70024002201206EE7534603205B
S2140046806BE700239B4601330427002602934CE782
S214004690032381460C27029347E780220023002548
S2140046A012039946054C82E75C464B4602986FE734
S2140046B05C464B46019502986AE7C046FF07000035
S2140046C001FCFFFF34EC0000FFFF0F800DFCFFFF36
S2140046D04A464946170C1A0C1B041B0C0804190002
S2140046E0000C41431500884619007D437943039525
S2140046F089462900150045434D44029545462D0C34
S214004700AA46029D5544A94506D98A4680214902F3
S2140047108946CA4451460391290C0491414609042E
S2140047202D04090C88462900250C24044144240C39
S2140047300591210041438846210079438A46684313
S214004740414650448146080C48446F43824503D98D
S2140047508021490289464F44010C89463900494464
S214004760029141460F0404993F0C88460004C01984
S21400477080444146049159460F0C0904090C8846AA
S21400478059438A4639005143894641464A43514671
S214004790090C8B467B43D2185A44934203D9802394
S2140047A05B029B46D94451460904090C8A46414699
S2140047B061437C43130C12044B445244A1468A4680
S2140047C03C0041466C434D4351464D440F0C7D1909
S2140047D0A94503D98021490288464444049F039989
S2140047E0B84641448B4683458041414288465146FF
S2140047F008042F04000C3F185846029910188946E2
S214004800904292414F44BA46524299469346C24419
S214004810D144CB448F42BF41C245894199459B4113
S214004820934592417F4249422D0C52420F435B42D0
S21400483013437F19FF185B463C19DB0D059A64028B
S2140048401C43430213435D1EAB415A46C00D03434F
S21400485052021343E20156D501205A08034013437F
S214004860E207134364085A48604400284DDD5A079F
S21400487009D00F221A40042A05D01A1D9A429B41DD
S2140048805B42E4181300E20104D58020514AC000C0
S21400489014406044504A904200DDE3E60125DB0800
S2140048A062071A436402019B9146220B4405640D7D
S2140048B01D407CE6802259461203114208D014425D
S2140048C006D122431203120B45469946434C6EE628
S2140048D05B461A431203120B404C68E6030054462C
S2140048E0283B9C400023B9E600F0CEFC2030A6E62C
S2140048F00300283B9F400023BB4699468AE600F00B
S214004900C3FC203074E6B446ADE701252A1A382ADF
S21400491006DD019B00241D4000230022994646E642
S2140049201F2A21DC20252000AD1A1E00AB40A8401F
S214004930D6405D1EAB4130431843D440430709D0F0
S2140049400F230340042B05D00300181D98429B41FB
S2140049505B42E418230221D50125019B01241D405A
S21400496000230022994622E61F2521006D42281AC0
S214004970C1400800202A1DD05F35AA1A9440234360
S2140049805C1EA341072503431D400022002D09D0CD
S2140049900F2200241A401800042AD6D10300650707
S2140049A06402220BDB082B4301259946019B002459
S2140049B01D40FCE50024E2E7802201251203224385
S2140049C001991203120B0D409946044CEFE5C046C0
S2140049D0FF030000FFFFFFFEFE070000FF070000CA
S2140049E0F0B54646D6464F460C03C0B5CD0F4E0032
S2140049F0610A440F0C43C1005800400D84468A46A5
S214004A000F001903500F490A0143C648760DA84601
S214004A10DB0FD200844500D1D8E001204340AB42F2
S214004A2000D1A6E06046351A002D00DC05E100281E
S214004A3010D10B00134300D1D7E06B1E002B00D023
S214004A404BE153469F1ABA458041641A4042241AE5
S214004A5001261EE0B34B9E4248D080231B04194318
S214004A60382D00DD19E11F2D00DD4CE120230F005D
S214004A705B1B10009A409F40E840531E9A41E94055
S214004A80074317435346DF1B611ABA45A4416442E5
S214004A900C1B230200D4C5E06402650A002D00D179
S214004AA0F6E0280000F0F0FB0300083B1F2B00DDBB
S214004AB0E9E020223C00D21A9D40D4409F40254386
S214004AC09E4200DDDBE09E1B731C1F2B00DD0AE10F
S214004AD020223800D21A290097402C009140D84056
S214004AE07A1E9741DC40002601430F437B0709D01E
S214004AF00F233B40042B05D03B1DBB42BF417F42EA
S214004B00E4191F00230225D5864B01369E4200D1AC
S214004B10AFE0854B01251C4043466207FF08640250
S214004B2076051743240B760D1D4000212403230B26
S214004B300C0D7E4A24051C431440330523435B00BA
S214004B40ED075B082B43380019001CBC90469946BD
S214004B50A246F0BD012543466207FF081743E40856
S214004B601D40704B9E4236D024037605240B760DEE
S214004B70DBE76346F31A002B00DC94E0604600286F
S214004B8035D068488642B1D080273F043943382B59
S214004B9000DCFDE00A43170000217A1E97415744C7
S214004BA057458041091944420C1923023AD55D4BFA
S214004BB001369E4200D14BE101225B4B1C407B0834
S214004BC017401F43E207174364088FE708001043A7
S214004BD000D024E721E723003B4300D1B9E180223F
S214004BE0120314432403240B9FE72E007EE70800DD
S214004BF0104300D1CAE0581E8446002800D0E7E0E3
S214004C005244524580416418404224181700012639
S214004C10230207D50226CFE764462C4300D1B3E132
S214004C202C0067467B0700D062E76307FF081F4338
S214004C3001254346E4081D4093E7002D78D1751CF6
S214004C406D056D0D012D00DCF2E05046801A8245A0
S214004C50BF41651A7F42ED1B8446280200D48CE0D3
S214004C605046171ABA4292410C1B5542651B98468D
S214004C7014E70125434600241D40002755E72A4C2B
S214004C80F61A2C4032E73D0028388540002717E703
S214004C90380000F0F9FA203006E70A431700002132
S214004CA07A1E9741EEE6002B00D0E5E0731C9C468A
S214004CB05B055B0D012B00DC9FE01A4B9C4500D189
S214004CC0C5E0524452458041641840422418E70724
S214004CD0520817436408664608E71248854200D122
S214004CE085E01D00BCE629001F3EF140202B00D1C8
S214004CF07FE04022D31A9D402F437D1EAF41002403
S214004D000F4300268EE72B000F00203BDF40202DB0
S214004D1071D040235D1BA9400A43511E8A410021E1
S214004D201743AFE6FF070000FFFF7FFFFFFF0F8080
S214004D30002E3ED0B34EB44545D0802636046D4294
S214004D403443382D00DDA8E01F2D00DD1FE12026AE
S214004D5027005046761BB740E84007435046B04011
S214004D60461EB041EC403843171ABA4292410C1B1B
S214004D705242A41A664698468BE6644667462C431B
S214004D8000D08BE6002500260027EAE61E00ADE6EA
S214004D901F2B60DC2027F81A0F008446874010007F
S214004DA0D840074360468240501E8241D940174390
S214004DB0F5E626005046064305D0ED43002DD3D039
S214004DC0904EB445BDD10C001700664698468DE659
S214004DD08C4883420BD06346D9E6002D00D096E07F
S214004DE00800104300D1E2E00C0017009846854EFC
S214004DF07CE6002580E700218EE72300504603432B
S214004E00002E00D0A8E0002B00D1DEE00B001343FC
S214004E1000D16BE652445245804164184042241843
S214004E201700230200D4FDE6774B66461C405DE67D
S214004E30250050460543002ECFD1002D4FD10C0043
S214004E40144300D1A0E00C00170098464EE66646D4
S214004E500024002785E61F000800203FF8400700D2
S214004E60202B00D18EE04020C31A99400A43511EE1
S214004E708A410021174392E6002E14D126005046A0
S214004E80064362D0DB43002B5CD1871897429241E1
S214004E9064185242A418664687E650462043441ECD
S214004EA0A041002460E7574EB4454ED08026360415
S214004EB05B423443382B00DD7FE01F2B00DD8BE0A8
S214004EC0202627005046F61AB740D84007435046DB
S214004ED0B040461EB0410743DC40BF18D6E70D0081
S214004EE0154300D102E65046801A8245BF41651A36
S214004EF07F42ED1B8446280200D48DE65046171AE2
S214004F00BA4292410C1B5242A41A9846EEE50D0096
S214004F10154300D16BE750466707C008074380205B
S214004F20E4080003044207D0CD08054204D12C0053
S214004F309846D70849070F437B0FE4001C43FF0041
S214004F40304ED3E52F4EB445B4D10C00170066465C
S214004F50CCE500270024E8E5002B39D00B001343EE
S214004F6000D144E7C008670707438020E408000331
S214004F700442E1D0CB080342DED1D70849070F43ED
S214004F801C00D9E7002171E700250027E9E52E007F
S214004F902700203EF740202D2FD04026751BAC4022
S214004FA050462043441EA04100243843DCE68024BB
S214004FB000252403134E0027D3E550462043070060
S214004FC0781E87410024BF1860E70C0017008DE5A7
S214004FD00C0017000B4E89E51E002700203EF74008
S214004FE0202B0CD04026F31A9C4050462043441EEB
S214004FF0A04107430024BF1848E70024D0E7002458
S214005000F3E7C046FF070000FFFF7FFF30B5134DF4
S2140050100A034B00120B5B0DC90F0024AB4210DDD8
S2140050200F4CA3420FDC80240E4D64032243ED1A7E
S2140050301F2D0BDD0C48C31ADA405442002900D15C
S2140050401400200030BD094BCC18FAE7084CE840A5
S214005050A44663449A400243EFE7C046FE030000BE
S2140050601D0400003304000013040000FFFFFF7F50
S214005070EDFBFFFF70B5002830D0C317C4185C40A6
S214005080C50F200000F000F9174B184A1B1AD21A59
S2140050901F2A18DD164AD21A9440002224035B0504
S2140050A0240B5B0D0021100024030A0D240B1205AF
S2140050B02243104C1B05224013435B00ED075B08A0
S2140050C02B43190070BD210091400A000B21081ADD
S2140050D0C4405B052403240B5B0DE3E70025002397
S2140050E000240022DEE7C0461E0400003304000051
S2140050F013040000FFFF0F8010B5041E28D000F038
S214005100C3F8154B154A1B1AD21A1F2A15DD144A66
S214005110D21A9440002224035B05240B5B0D002169
S214005120100024030A0D240B120522430D4C1B0508
S214005130224013435B00590810BD210091400A002D
S2140051400B21081AC4405B052403240B5B0DE6E71D
S214005150002300240022E2E71E04000033040000BF
S21400516013040000FFFF0F804100090E4B1C70B5B2
S214005170DBB24602750AC40F012B14DDE0239B0048
S2140051806D07360BCB1800210A0D280012051C4DA2
S21400519032435B052A405B0813435B00E4075B0869
S2140051A02343190070BD002914D1002D1ED02800FD
S2140051B000F06AF80A281CDC0B232A001B1ADA40C7
S2140051C0030015339D400F4B12031B1A5B05160B8D
S2140051D05B0DD8E7002D06D0320B802636036D0710
S2140051E01643094BCFE7084B0026CCE700230026E2
S2140051F0C9E703002A000B3B9A400025E3E7C046B8
S214005200FFFF0F8089030000FF0700008446101C84
S21400521062468C46191C634600E0C0461FB500F087
S2140052201BF9002801D40021C8421FBD10B500F0AC
S21400523075F84042013010BD10B500F00DF9002899
S21400524001DB002010BD012010BDC04610B500F0E7
S21400525003F9002801DD002010BD012010BDC04666
S21400526010B500F095F8002801DC002010BD0120E4
S21400527010BDC04610B500F08BF8002801DA0020FB
S21400528010BD012010BDC0461C2101231B049842FE
S21400529001D3000C10391B0A984201D3000A0839C2
S2140052A01B09984201D30009043902A2105C401879
S2140052B07047C0460403020201010101000000001D
S2140052C00000000010B5002903D1FFF7DDFF2030F5
S2140052D002E0081CFFF7D8FF10BDC0464142084058
S2140052E01C2101231B04984201D3000C10391B0A11
S2140052F0984201D3000A08391B09984201D30009D5
S214005300043902A2105C401A7047C0461B1C1D1DC3
S2140053101E1E1E1E1F1F1F1F1F1F1F1FF0B54F46DE
S2140053204646D6465C00C0B51F03DB0F9A46174BB1
S2140053300E034D0084468046360B6D0DC90F914610
S2140053403F0B640D01209D4208D09C4201D0A5422F
S2140053500BD01CBC90469946A246F0BD634633432C
S214005360F7D1AC42F5D13A43F3D10120BE42F0D199
S214005370C845EED1514507D0002DEAD163461E43FD
S2140053803000461EB041E4E70020E2E7FF070000D9
S214005390F0B54546DE4657464E46E0B51F033D0B84
S2140053A02C4F0E034C00AB465D008446360B640D56
S2140053B0C90F90466D0DDB0FBC422AD0254FBD426B
S2140053C02DD0002C0FD1304307008146784278411B
S2140053D0C0B2002D17D15F463A4314D14B46002089
S2140053E0002B0AD006E0002D02D15846024301D019
S2140053F0994218D04842012108433CBC9046994641
S214005400A246AB46F0BD0028F2D00120013B18436F
S214005410F3E737000743D1D002204042EDE75F466E
S2140054201743CED0F8E7AC42E4DC03DA481E01218D
S2140054300843E2E75E45DDD806D000205E45DCD2B4
S2140054400123481E1843D8E7C445D3D80020C445D6
S214005450F6D3D2E7FF070000F0B54E464546DE46D7
S21400546057465C00E0B51F03DB0F99462A4B0E0338
S2140054704D00C90F8446360B6D0D8B4690463F0B8C
S214005480640D9D4220D0244B9C4222D0002D12D188
S214005490304343424341DBB2002C1FD0002B0CD0DC
S2140054A04B460120013B034318003CBC90469946FE
S2140054B0A246AB46F0BD002C16D0CB4517D05B46B7
S2140054C0594201230B43EFE7310002230143EBD19E
S2140054D0D9E7390002231143E6D1D7E73A43DDD1B5
S2140054E000230028E0D0EAE73A43E6D1E7E7A54202
S2140054F0E5DC05DBBE42E2D807D00023BE42D3D2AD
S2140055005946012301390B43CEE7C445D7D80023BB
S214005510C445F5D3C8E7C046FF07000070B50D4E7A
S2140055200D4D0024AD1BAD1005D0A300F35801347B
S2140055309847A542F9D10AF0F1F8084E084D002424
S214005540AD1BAD1005D0A300F35801349847A54213
S214005550F9D170BD28F7000028F7000028F70000F2
S21400556030F70000F0B5830743D0541E002A3FD022
S214005570CEB20200032502E01A00013C38D3531CC9
S21400558016702B42F8D1032C2AD9FF220A401502A6
S21400559015432A0415430F2C14D927001A00103F70
S2140055A03E09013636019E19156055609560D56036
S2140055B010329642F8D10F2297431037DB19144069
S2140055C0032C0DD91A00271FBE080136B6009E19F7
S2140055D020C2B242FCD1032297430437DB191440A1
S2140055E0002C05D0C9B21C19197001339C42FBD19E
S2140055F0F0BD14000300C6E70CB430B51E4B9DB0DA
S2140056001D68002933DB822302AC9B00A381029035
S2140056102061002912D0012301395B42A16061613B
S214005620E381209A21AB21002800019300F044FC7E
S214005630431C16DB0023029A13700DE001235B4225
S214005640A1606161E381209A21AB210028000193CB
S21400565000F032FC431C07DB1DB030BC08BC02B0B7
S21400566018478B232B60E5E78B232B60F4E78B230F
S21400567001202B604042EFE7980000200EB4812303
S21400568070B59DB002AC21AD9B0040CDA3810290C9
S214005690069000F0CFF80B4B606023620023236374
S2140056A06364013BE381084B6061320018682100A7
S2140056B02B00019501F004FF1DB070BC08BC03B0C0
S2140056C01847C046CD5600009800002000207047BE
S2140056D070B5CCB2002C3BD083070ED00378002BDD
S2140056E05BD09C4233D0032204E00378002B54D0D6
S2140056F09C422CD001301042F7D1FF2529400D02E4
S21400570029430D040D4329000268264B5140D31847
S2140057109343244A244E8A188A43134333420CD1B7
S2140057202900043002681F4B5140D31893431D4A8A
S2140057308A188A4313433342F2D00378002B04D1ED
S2140057402BE001300378002B27D09C42F9D170BDA6
S21400575083070AD00378002BF9D0032202E00378EF
S214005760002BF4D001301042F9D101680D4A030035
S2140057708A180D488A43024206D104331968094A3A
S2140057808A188A430242F8D01A781800002A06D0EF
S21400579001300378002BFBD1D9E70020D7E71800AB
S2140057A0D5E7C046FFFEFEFE80808080024670B5CC
S2140057B00A4392072AD11E4DEE0104C808C9541B9D
S2140057C09443344017D0D0B2D9B2401A21060143D0
S2140057D010D190B299B2401A210401430AD11002A6
S2140057E01902000A090A401A2102014302D1100ECA
S2140057F0190E401A70BD9A42DFD010BA19BA884204
S21400580001D9012070BD0020C04370BD02780B781E
S21400581001300131002A09D09A4207D102780B786C
S21400582001300131002A01D09A42EFD0D01A70BD63
S2140058300101010110B5830725D00378002B24D081
S2140058400300032102E01A78002A1AD001330B4223
S214005850F9D119680E4A0F4C8A188A43224206D19B
S214005860043319680A4A8A188A432242F8D01A0072
S2140058701B78002B03D0013211780029FBD1101AB7
S21400588010BD181AFCE70300E3E70020F8E7C0465F
S214005890FFFEFEFE808080800123F0B54746CE46A0
S2140058A09446012298460124002580B552422B19C1
S2140058B08B420BD28618C75C365DB7422DD29C1A37
