:10000000E0360020090100000501000005010000A4
:1000100000000000000000000000000000000000E0
:1000200000000000000000000000000005010000CA
:1000300000000000000000000501000005010000B4
:10004000050100000501000005010000750D00001C
:10005000690B00000501000005010000050100001A
:100060000501000005010000050100000501000078
:100070000501000005010000050100000501000068
:1000800005010000050100000501000061190000E4
:1000900071190000050100000501000005010000C4
:1000A0000501000010B5064C2378002B07D1054B45
:1000B000002B02D0044800E000BF0123237010BDD4
:1000C000500A00200000000018250100084B10B560
:1000D000002B03D00749084800E000BF0748036829
:1000E000002B00D110BD064B002BFBD09847F9E741
:1000F00000000000540A0020182501001825010006
:1001000000000000FEE7000010B5124A124B9A42B0
:1001100009D0114B0F4A03E011681960043304320F
:100120000E498B42F8D30E4B02E000221A600433D2
:100130000C4A9342F9D30C4AFF210C4B8B4393603A
:100140000B4A516880230B43536007F047F904F0D2
:1001500045FEFEE71825010000000020500A00209F
:10016000500A0020E016002000ED00E00000000032
:1001700000400041EFF31083036072B6BFF35F8F5E
:100180007047BFF35F8F036883F3108870470000E8
:1001900010B5044B1C6800F04BFC0100200000F07F
:1001A0005BFC10BD6C0A002010B5044B1C6800F00D
:1001B00048FC0100200000F04FFC10BD6C0A00203C
:1001C00070B50125002407E00D4AB358002B00D07C
:1001D000984770BD013AD5B2AC42FAD82B195B10E2
:1001E000DAB2002AF5D1FF210B40DE00044989195B
:1001F00049688142E8D0EDD20132D4B2ECE7C04682
:10020000700A002010B50023002B03D0074800F02F
:100210003DFC10BD064AD9005018012464424460D8
:100220000020885001339BB2EEE7C046C1010000B8
:10023000700A0020F0B5C64600B584B001900023D6
:10024000002B10D00023984600291BD04346002BDA
:1002500046D1002B24D1DA002A4C1259002A18D09A
:100260000133DBB2F5E7DC00264A12195268019827
:10027000824202D00133DBB2E2E7224BE15001239C
:100280009846E1E74346002B35D0019800F046FC44
:100290002DE0DD0029516519019A6A60012290461E
:1002A000002201E00132D2B21900114318D11549E0
:1002B000DC000C196768D400091949688F42F1D233
:1002C0004C1CEFD002A98C460E4FD1007918644621
:1002D00041C941C4DD007D19614611C911C5E1E77D
:1002E0004346002B0AD00121019800F017FC04B00E
:1002F00004BC9046F0BD0D204042F8E70D2040427E
:10030000F5E7C046700A002010B584B01438848B1D
:1003100001AB1C8014000292064A5A800391190016
:1003200000F044FF002802D1200004B010BD0400FA
:10033000FAE7C0460080FFFF10B584B01438848B04
:1003400001AB1C8014000292064A5A8003911900E6
:1003500000F02CFF002802D1200004B010BD0400E2
:10036000FAE7C0460180FFFF70B504000D00431E90
:100370009841C0B25E22074900F018FB2900200016
:1003800000F088FE002803D1034BA361034B636197
:1003900070BDC04640F200003903000009030000B0
:1003A00010B500F0C9FE10BD8905890D8023DB0062
:1003B0001A400A43828310007047000070B586B06F
:1003C000040016001D006B46D9710733828B03A908
:1003D0000A8001224A6000224A808B6000F0E6FE1B
:1003E000002801D006B070BD03A9044B4B808E607D
:1003F0004D60200000F0DAFEF4E7C0460080FFFF09
:1004000070B586B0040016001D006B46D971073325
:10041000828B03A90A8001224A6000224A808B60F5
:1004200000F0C4FE002801D006B070BD03A9044B43
:100430004B808E604D60200000F0B8FEF4E7C046AF
:100440000180FFFF143008600020704770B5040081
:100450000D00160000280ED000290AD001203422F9
:10046000064900F0A3FA23683200290020009847CB
:1004700070BD0020F3E70020F1E7C0465CF2000009
:1004800070B504000D00160000280ED000290AD017
:1004900001203D22064900F089FA636832002900F4
:1004A0002000984770BD0020F3E70020F1E7C04628
:1004B0005CF2000010B54369002B00D0984710BDD6
:1004C00010B58369002B00D0984710BD70B50400AB
:1004D0000D00002812D000290ED001203322084937
:1004E00000F064FA2900200001F08CF9054B23602C
:1004F000054B6360002070BD0020EFE70020EDE7B2
:1005000070F20000B5040000C104000010B5040042
:10051000431E9841C0B24A22074900F047FA200022
:1005200001F016FA002804D1200001F0DFF90020C4
:1005300010BD11204042FBE770F2000070B50400CE
:100540000D001600431E9841C0B27C22044900F001
:100550002DFA32002900200001F0D0F9002070BDF2
:1005600070F2000070B504000D00002817D00029BB
:1005700013D0012040220B4900F018FA6560201DBD
:10058000290000F01FFF002806DB074BA382074B62
:100590002361074BE360002070BD0020EAE70020E4
:1005A000E8E7C04688F200000080FFFF490600002F
:1005B0001506000010B50400431E9841C0B2572232
:1005C000034900F0F3F9201D00F0D6FF10BDC0462E
:1005D00088F2000030B587B004000D00002815D067
:1005E000002911D00120B322094900F0DFF92B685E
:1005F00003936B680493AB6801930593201D03A9D3
:1006000000F0D2FF07B030BD0020ECE70020EAE7A1
:1006100088F2000070B584B004000E001500431E7F
:100620009841C0B2A322074900F0C0F920000C385D
:10063000002302930196039501A9FFF7CBFF04B0B5
:1006400070BDC04688F2000070B584B004000E0092
:100650001500431E9841C0B28722074900F0A6F951
:1006600020000C38029600230193039501A9FFF79F
:10067000B1FF04B070BDC04688F2000070B5040040
:100680000D0000280CD0002908D00120BD2205490A
:1006900000F08CF90C342C60002070BD0020F5E7D0
:1006A0000020F3E788F20000F8B50668002E02D0BB
:1006B000330000250CE000F089F918E09F68BC4683
:1006C0006444A41A01348F68BC420BD21D001B681D
:1006D000002B07D05C689442F0D8A41A9F68BC46EF
:1006E0006444F0E7B34203D0280000F081F9F8BD7C
:1006F00000F06CF9FBE7F8B50500446903695E1C7E
:100700000661037EDB0702D4037E9B070AD52B7E9E
:1007100002221343DBB22B76F8BD6F69E368200039
:1007200098473C00002CF7D06368F31AA268934204
:10073000F2D32F001437380000F05EF9237C012B30
:10074000EBD16660320021003800FFF7ADFFE4E72F
:1007500070B504000D00002812D000290ED0012031
:100760003B22084900F022F92900200000F0A0FAFD
:1007700000232361044B2360002070BD0020EFE7BD
:100780000020EDE7A4F20000F706000010B5040019
:10079000431E9841C0B25322074900F007F92000D8
:1007A00000F0DCFA002804D1200000F0ADFA0020AF
:1007B00010BD11204042FBE7A4F2000070B582B0EA
:1007C00004000D00002826D0002922D001207A2222
:1007D0001F4900F0EBF8237E01221343DBB223769E
:1007E000260014362900300000F0E4F8002814D167
:1007F00023696B60226929003000FFF755FF237ED3
:10080000012293432376237E9B0712D4002002B05B
:1008100070BD0020DBE70020D9E7237E012293434F
:1008200023767E320A49002000F0C0F812204042B0
:10083000EDE701A8FFF79EFC237E02229343237677
:10084000200000F094FA01A8FFF79BFC0020DEE7EF
:10085000A4F20000F8B505000E001700002823D010
:10086000002923D0002A23D10020F122114900F0D1
:100870009DF82C000834200000F0FBFB0028F8D085
:100880000025715D200000F0ECFB200000F0F1FB82
:100890000028FAD00135BD42F3D3200000F0EEFB72
:1008A0000028FAD02800F8BD0020DEE70020DCE7B1
:1008B0000120DAE7BCF20000F8B5CE46474680B525
:1008C000051E884691461FD000291FD0002A1FD13F
:1008D0000020862252000F4900F068F800262C0004
:1008E0000834200000F0D0FB0028F8D043469F19C0
:1008F000200000F0BAFB387001364E45EFD33000CF
:100900000CBC90469946F8BD0020E2E70020E0E7E5
:100910000120DEE7BCF2000070B504000D000028E5
:1009200014D0002910D001203422094900F03EF8EB
:1009300020000830290000F079FB002803D1054B86
:100940006360054B236070BD0020EDE70020EBE7FE
:10095000BCF20000B90800005508000010B5040002
:10096000431E9841C0B25322044900F01FF82000F2
:10097000083000F06DFB002010BDC046BCF2000046
:1009800070B504000D0000280BD0002907D001200D
:100990006922054900F00AF82C60002070BD002093
:1009A000F6E70020F4E7C046BCF20000002800D1C2
:1009B00000BE70470368002B03D08B4203D01B6836
:1009C000F9E7002070470120FCE7000070B5040043
:1009D0000D00FFF7EFFF01235840C0B23922034951
:1009E000FFF7E4FF23682B60256070BDD8F200009C
:1009F00003680B60016070470368002B03D01A681E
:100A00000260180070470020FCE700000300064A5F
:100A10001268002A04D0044A1068C3181360704793
:100A20000249014A1160F6E7780A0020E03600200A
:100A300010B503011B1A58011D301E2104F0DAFC09
:100A400010BD10B503011B1A58010230032104F038
:100A5000D1FC6423584310BD0139FDD87047000014
:100A600010B5094A536806210B43536000F002F9A0
:100A700000F00CFE082000F0CFF800F02DFEF7206B
:100A800000F0CAF810BDC04600400041204B5B7822
:100A9000DB09FBD11E4B5B78DB09FBD11C4B1B78C0
:100AA0009B070AD500221A4B1A70194B5B78DB0999
:100AB000FBD1174B5B78DB09FBD10122144B1A7079
:100AC000134B5B78DB09FBD1114B5B78DB09FBD166
:100AD0000F4B00229A705A605A619A61DA611A7853
:100AE00002210A43D2B21A70094B5B78DB09FBD1B1
:100AF000084B102280215A50BFF34F8FBFF36F8FE6
:100B00000131FF315A501A60034B186000207047C2
:100B10000018004000E100E07C0A00200023002BC8
:100B20000BD0FF22FF2A17D000290FD101239340B9
:100B30000B4A9360136100207047282802D00133CC
:100B4000DBB2ECE7DA00074BD25CEBE70123934022
:100B5000034AD3600020EFE70D204042ECE7C04697
:100B60000018004010F3000070B582B0264B1A69DF
:100B7000D9680A400192019A1A61244B1868431EF1
:100B80009841C0B2D2222249FFF710FF01256D42E1
:100B90002EE00139CEB2B0420ED832185210D1B286
:100BA000FF231340DB001B4A9B5CA34203D0F0DA17
:100BB0000131C8B2EFE728256B1C03D0134B1B682B
:100BC000280098470122A240019B9343019301987A
:100BD00004F0D0FD013844B2631C02D0012600208D
:100BE000D9E7094B1A69D9680A400192019A1A613A
:100BF000019B002B05D0019804F0BCFD013844B2E4
:100C0000EAE702B070BDC046001800407C0A002030
:100C1000F8F2000010F30000C30709D5114B802241
:100C200052009A60104A5A600E4B5B78DB09FBD188
:100C3000830709D50B4B0222FF329A600B4A5A6098
:100C4000084B5B78DB09FBD1030709D5054B042270
:100C5000FF329A60064A5A60024B5B78DB09FBD18F
:100C60007047C046000C004000070100010601006B
:100C700003030100064B1A7AD2B21A725A7AD2B220
:100C80005A729A7AD2B29A72DA7AD2B2DA72704719
:100C90000004004010B50400C3681B7ADB0706D5CA
:100CA0000368002B00D09847E36801221A7210BD38
:100CB00070B504000D00431E9841C0B230221049A7
:100CC000FFF774FEE56001232B80AB7ADB09FCD1D2
:100CD000E268937ADB09FCD180331380937ADB09D5
:100CE000FCD1E268936901239361937ADB09FCD11B
:100CF0000133E268D371034B1C60002070BDC04615
:100D000018F30000800A002010B5041E20D0C3682C
:100D1000002B1BD0012067220E49FFF747FE082257
:100D20000D4B1A60E268136900231361937ADB09A3
:100D3000FCD1E268937ADB09FCD1138802210B43D2
:100D40009BB21380937ADB09FCD110BD0020E2E74F
:100D50000020E0E718F3000000E100E0C268937AA9
:100D6000DB09FCD113885B080120184070477047ED
:100D70000020704710B5024B1868FFF78BFF10BDBD
:100D8000800A0020024B9C466044800AC0B2704733
:100D900000F8FFBD038ADB0B08D10368022213436E
:100DA0000360038ADB0BFCD1002070470420404223
:100DB000FBE7000010B5FFF7E5FF03000020002867
:100DC00006D0074A07490020FFF7F0FD002010BDBC
:100DD00002010549525C9342F9D00130C0B2EEE7FE
:100DE0002A02000030F3000064F3000010B5040094
:100DF000FFF7E0FF238ADB0BFCD1238ADB0BFCD15E
:100E000023689B0707D500232360238ADB0BFCD1D3
:100E1000238ADB0BFCD101232360238ADB0BFCD16B
:100E2000238ADB0BFCD102010B4B9B185B68236010
:100E3000238ADB0BFCD10201074B9B189B68636084
:100E4000238ADB0BFCD10001034B181883896381D3
:100E5000837B2372002010BD64F3000010B5FFF700
:100E600091FF02000020002806D0084A084900200F
:100E7000FFF79CFD002010BD43001B18D900054B57
:100E8000CB5C9A42F7D00130C0B2ECE766030000B9
:100E900030F300004CF3000070B505000469431EF8
:100EA0009841C0B25C4A5D49FFF780FD63685C4AC7
:100EB00013406360238ADB0BFCD12A8852006B88C5
:100EC00001210B401343DBB22375238ADB0BFCD1DA
:100ED0002E69544AB37BDBB21800511E002A02D09F
:100EE0000A009B07F6D0238ADB0BFCD1238A9BB236
:100EF000C20750D59A0710D50122A2736A888021B3
:100F000049010A436A806A8847490A406A80DB07C8
:100F100000D47CE00520404263E05B070BD46868A6
:100F200000282DD16B881BB2002B20DB6B883E4A3A
:100F300013406B8055E06B68002B04DD6B888022CA
:100F4000520113436B806B881BB2002B06DB6B884E
:100F5000354A13406B800220404242E06268C02361
:100F60009B0213436360238ADB0BFCD1EFE76268CB
:100F7000C0239B0213436360238ADB0BFCD1D5E7BC
:100F8000AB681B782376AB680133AB606B68013BC1
:100F90006B60002025E082073CD56A68002A31D0CA
:100FA0005B072FD4013A6A60002A07D16268802368
:100FB000DB0213436360238ADB0BFCD16B68002BDD
:100FC00007D16B881BB2002B0CDB6B88164A1340D1
:100FD0006B80AB685A1CAA60227E1A700223A3732E
:100FE000002070BD6368104A13406360238ADB0BE6
:100FF000FCD16268C0239B0213436360238ADB0B2E
:10100000FCD1E2E70223A37302204042E9E7042077
:101010004042E6E70020E4E78105000030F30000ED
:10102000FFFFFBFFFFFF0000FFFEFFFF70B50500A5
:101030000C00431E9841C0B2A1220449FFF7B6FC40
:101040002C602000FFF7D2FE70BDC04630F30000D8
:101050000268136802210B431360138ADB0BFCD177
:101060007047036889B2198370470368188BC0B250
:1010700070470368987B01231840704703689B7B87
:101080005B0801201840704703689B7B9B08012088
:101090001840704770B506000C000800FFF7DEFE30
:1010A00005003000431E9841C0B2204A2049FFF796
:1010B0007DFC3461238ADB0BFCD1238ADB0BFCD162
:1010C00023689B0707D500232360238ADB0BFCD111
:1010D000238ADB0BFCD101232360238ADB0BFCD1A9
:1010E000238ADB0BFCD16B005B19DA00114B9B18D8
:1010F0005B68022293432360238ADB0BFCD16B00E5
:101100005B19DA000B4B9B189B686360238ADB0B2F
:10111000FCD1084A6B005819C10008005118898990
:1011200061811218138AF381002070BDD70400007A
:1011300030F300004CF3000070B506000469184D50
:10114000431E9841C0B2A122D2002900FFF72EFC15
:101150003069431E9841C0B2124A2900FFF726FCAD
:101160002368022213432360238ADB0BFCD1042073
:101170000D49238ADB0BFCD1228A12090333134069
:10118000012B08D001390029F3DC0138002804D0F4
:1011900010232382ECE7002070BD06204042FBE7CD
:1011A00030F3000009050000FFFF0000F8B505005E
:1011B0000E0004697D4F431E9841C0B27C4A39003D
:1011C000FFF7F4FB2869431E9841C0B2794A390001
:1011D000FFF7ECFB3000431E9841C0B2764A39005D
:1011E000FFF7E4FB6B88DB0500D5DCE07288802329
:1011F0005B009C461A4372802A00310089C989C26B
:101200006268634613436360238ADB0BFCD12800CA
:10121000FFF742FE002800D17DE06B88674A13404B
:101220006B80F8BD0520404286E073881BB2002B1E
:1012300004DB6B88614A13406B80F2E76268C0236D
:101240009B0213436360238ADB0BFCD1F1E75B074E
:101250000BD4686800282DD16B881BB2002B20DBD3
:101260006B88564A13406B8055E06B68002B04DD99
:101270006B888022520113436B806B881BB2002B5A
:1012800006DB6B884D4A13406B800220404242E0EF
:101290006268C0239B0213436360238ADB0BFCD18B
:1012A000EFE76268C0239B0213436360238ADB0B72
:1012B000FCD1D5E7AB681B782376AB680133AB6014
:1012C0006B68013B6B60002025E08A0769D56A687E
:1012D000002A5ED05B075CD4013A6A60002A07D11D
:1012E00062688023DB0213436360238ADB0BFCD13B
:1012F0006B68002B07D16B881BB2002B39DB6B8826
:101300002E4A13406B80AB685A1CAA60227E1A706A
:101310000223A37300206B88DB0500D481E72F69CB
:10132000274ABB7BDBB21900501E002A00D179E7A7
:1013300002009B07F5D00020002800D075E7238A23
:10134000DB0BFCD1238A9BB2CA07BED59A0700D417
:101350007DE70122A2736A88802149010A436A80DD
:101360006A8816490A406A80DB0717D50520404283
:10137000D1E76368114A13406360238ADB0BFCD119
:101380006268C0239B0213436360238ADB0BFCD19A
:10139000B5E70223A37302204042BCE70420404289
:1013A000B9E70020B7E7062040423AE730F30000F3
:1013B0009B0500009C0500009D050000FFFEFFFF4F
:1013C000FFFF000070B506000C000800FFF7DAFC14
:1013D0000023012B0BD819015F4A5218D27B90428F
:1013E00002D00133DBB2F4E75B4B5D1800E000256F
:1013F000002E00D16AE0002C00D165E00120574AA0
:101400005749FFF7D3FA002D00D1A2E0238ADB0B66
:10141000FCD1238ADB0BFCD123689B0707D5002373
:101420002360238ADB0BFCD1238ADB0BFCD1012355
:101430002360238ADB0BFCD1238ADB0BFCD13460D5
:101440002B786A7812021A43AB781B041A43EB78A4
:101450001B0613431C221340082B39D0002C00D14B
:1014600073E0002D00D16EE001203E4A3C49FFF7B9
:101470009DFA2B786A7812021A43AB781B041A4340
:10148000EB781B061343384A13402360238ADB0B97
:10149000FCD12B796A7912021A43AB791B041A43E7
:1014A000EB791B061343314A134080229202134307
:1014B00063602B7BA3726B7B23722B795B0746D116
:1014C00001233371002070BD002098E7002096E7CB
:1014D000002C36D0002D32D00120254A2049FFF7BC
:1014E00065FA2B786A7812021A43AB781B041A4308
:1014F000EB781B0613431C4A13402360238ADB0B43
:10150000FCD12B796A7912021A43AB791B041A4376
:10151000EB791B061343174A134363602B7A6A7AED
:1015200012021A43AB7A1B041A43EB7A1B061343CD
:1015300063616B7B2372238ADB0BFCD1BDE7002048
:10154000CBE70020C9E700208FE700208DE70223CA
:10155000B7E70D204042B6E774F30000A30800008F
:1015600030F3000072080000FCFEFFFFBF3FFDFFEC
:10157000830800004000020010B5041E0DD003686F
:10158000002B08D00120064A0649FFF70FFA206811
:10159000FFF700FC10BD0020F5E70020F3E7C04690
:1015A0000A09000030F3000070B588B00D0004682F
:1015B0000B6803934B680493002305930693067905
:1015C000002814D0002C10D001202D4A2D49FFF7FF
:1015D000EDF9238ADB0B4FD1238ADB0BFCD1236887
:1015E0009B0718D41420404244E00020EDE700207F
:1015F000EBE7002226E05878000201430233039310
:101600000132059289B221830598AB68984202D3D2
:10161000069A934229D9A37BDBB25A07E9D5228BDC
:1016200092B20499002908D0481C04900A70012E37
:1016300003D9881C0490120A4A70069A019201325A
:1016400006920122002ADFD10699059A9142DBD346
:10165000DB07D9D5039B002B05D0591C03911978C2
:10166000012EC8D8CCE70849CAE7A37B9B07FCD06A
:101670000323A37308B070BD04204042FAE7C046BC
:10168000010A000030F30000FF0100000F4B196A4F
:10169000090C1A6A920F920709040D4801400A4387
:1016A0000C490A431A629A6902210A439A611A7F15
:1016B0001D310A401A77054BDB681B07FBD5034A2F
:1016C000136A80210B4313627047C0460008004034
:1016D0000000FF0F0203000002221B4B9A841A4BEA
:1016E000DB68DB06FBD5194A174BDA62184B1B681F
:1016F0009B0E3F2B20D09B02802292001343124A64
:10170000936202239384938C5B0718D50E4BDA689F
:10171000D0231340D02BF9D10B4A938C80210B435B
:101720009BB293840B4B5B78DB09FBD1064A936930
:1017300002218B4393617047FC23DB01DFE7024BFF
:10174000DB68DB06FBD5E7E700080040000001048A
:1017500024608000000C004070B505000469A37B84
:10176000DB0705D50123A3730368002B00D098473E
:10177000637B9B0706D50223A3736B68002B01D004
:101780002800984770BD0000024B9C466044800AC8
:10179000C0B2704700E0FFBD064B984203D0064B35
:1017A000984203D07047054B1960F8E7044B196065
:1017B000F8E7C04600380042003C0042840A00209E
:1017C000880A002010B5FFF7DFFF0023012B0BD89C
:1017D0009A00D2189100094A8A5C904202D00133E3
:1017E000DBB2F3E758B207E07622FF32044900206B
:1017F000FFF7DCF80120404210BDC0460000002089
:1018000094F3000070B505000C000800FFF7DAFF44
:101810002C61E37BDB09FCD123889B0704D50023E3
:101820002380E37BDB09FCD101232380E37BDB09FD
:10183000FCD18200121891002A4B5B185A88228032
:1018400019792172DB8863810C231340082B37D070
:10185000002B41D1234A83001E18B1000E005118FD
:10186000898921839219138A638329002000FFF755
:1018700093FF2000FFF788FF0D30C0B243B2002B6A
:101880000ADB1F21014001228A408021164C625050
:10189000BFF34F8FBFF36F8F002B07DB1F2101407A
:1018A00001228A40C02149000F4C6250002B16DBF8
:1018B0001F2318401E3B83400B4A1360002070BD5D
:1018C000084A83001E18B1000E005118C968A161B2
:1018D00092191369E361C8E701204042EFE7002055
:1018E000EDE7C0460000002000E100E00269138837
:1018F00002210B439BB213807047000070B50400B7
:101900000E0015000069FFF75DFF246982001218C0
:1019100091000E4B5B18DE601D615A880C2313404A
:10192000082B0BD0094A83001D18A9000D0051187F
:10193000898921835219138A638370BD034A0D007C
:10194000A66152191369E361F7E7C0460000002061
:1019500003691B885B08012018407047002070470E
:1019600010B5024B1868FFF7F7FE10BD840A00207F
:1019700010B5024B1868FFF7EFFE10BD880A002073
:1019800000B583B001AB1970110A59709A70032227
:10199000190000F029FC03B000BD10B582B001AC05
:1019A0000223220000F03EFC2078000263781843F6
:1019B00002B010BD10B5428840780121FFF7E0FF6A
:1019C00010BD10B5040040780021FFF7E6FF00B21B
:1019D0002378022B00D8001110BD10B50A0003783F
:1019E000022B01D80A0192B240780221FFF7C8FF0A
:1019F00010BD10B50A000378022B01D80A0192B27B
:101A000040780321FFF7BCFF10BD4388934311408A
:101A100019434180704710B580221202FFF7F5FF8D
:101A200010BD10B5E022D201FFF7EFFF10BD10B5D9
:101A3000E0221201FFF7E9FF10BD10B5802252002D
:101A4000FFF7E3FF10BD10B589B2E022FFF7DDFF1D
:101A500010BD10B589B21022FFF7D7FF10BD10B529
:101A600089B20822FFF7D1FF10BD10B589B2042258
:101A7000FFF7CBFF10BD10B589B20322FFF7C5FFFA
:101A800010BD70B504001E0004AB1D88002832D0C4
:101A9000017042700023438080210902FFF7BBFFE1
:101AA00031002000FFF7BDFF29002000FFF7BFFF36
:101AB000802149002000FFF7C0FF2378022B15D8B2
:101AC00080212000FFF7BFFF00212000FFF7C1FFAA
:101AD00000212000FFF7C3FF00212000FFF7C5FF12
:101AE00003212000FFF7C7FF012070BD80212000E7
:101AF000FFF7A9FFE8E70020F7E770470122014B55
:101B00001A707047B40A002080221204C023DB053B
:101B1000DA61704770B5154A936920210B439361D0
:101B2000134A144B5A80FFF723F90200124C134951
:101B30002000FEF70DFE124980239B018B60114BA4
:101B4000CB6001230B74104D8022D201AA600F4A92
:101B5000EA602B742000FEF731FE29002000FEF71A
:101B60002DFE2000FEF712FE70BDC04600040040AE
:101B700002430000000C00401C0C00200014004038
:101B80008C0A0020FD1A0000A00A0020091B00009A
:101B900070B5C024E4058025AD04A561FEF704FB03
:101BA000656170BDF0B5DE4657464E464546E0B528
:101BB000C022D20580239C46936193607D4B7E4971
:101BC0009962C0252D069D624724185D0121884336
:101BD00018558020400050619060784898629D625E
:101BE0000134185D884318558027BF0057619760FE
:101BF0007348824698629D620134185D8843185587
:101C00008020C0008046506190606E4898629D625E
:101C10000134185D884318558020000150606A48DF
:101C200098626A4898624B26985D814604204C462B
:101C300084439C559C5D8C439C558026360296615E
:101C40009660634E9E629D624F241E5D8E431E55BC
:101C500080263604566196608024E4059C625D4CC3
:101C60009C625724A3461C5D8C43A1465C464E46AD
:101C70001E5541341751103C1751593FFF3F5446F0
:101C8000DC51DD51C9241D5D8D431D55842544461D
:101C90005451514CDC514D4CDC51CA24A0461C5DC2
:101CA0008443A14644464E461E551C5D8C43A146C6
:101CB00044464E461E55802424015451424CDC516A
:101CC000424CDC51CB24A0461C5D8443A1464446D3
:101CD0004E461E551C5D8C43A14644464E461E553D
:101CE0008024E403546194608024E4059C623B4CAE
:101CF0009C625624A1461C5D8C43A0464C46464639
:101D00001E5580246404546194608024E4059C6220
:101D1000334C9C625824A1461C5D8C43A0464C4623
:101D200046461E558024A404546194608024E40532
:101D30009C622C4E9E6259241E5D8E431E55402689
:101D40005651294EDE51214CDC51C6269C5D844300
:101D50009C559C5D8C439C55A63E5651234EDE51AE
:101D60001A4CDC51C5269C5D84439C559C5D8C437C
:101D70009C55B53E56511E4EDE51144CDC51C426C6
:101D80009C5D84439C559C5D8C439C55644654519A
:101D9000184ADA510D4ADA51C7229C5C84439C549C
:101DA000985C884398543CBC90469946A246AB4602
:101DB000F0BDC046004400418000004000010040EA
:101DC000000200400004004000080240000002C081
:101DD00000800040800000C000040240400000C0BD
:101DE000000100C0000200C040000240200002408C
:101DF000100002408000024010B5114A114B5A8079
:101E0000802149008423C022D205D1500E4BA82244
:101E10000E4999500E499950C8215A5C04208243BA
:101E20005A545A5C033882430243D2B25A5414398A
:101E30005A5C0F2082435A54FEF7E4F910BDC046A5
:101E400003410000000C004000440041000102403A
:101E5000000002C0F8B5D6464F4680B53A4A136A2C
:101E6000042189460B431362384A394B5A80394959
:101E70003948FEF777FBC025ED0510236B61AB6099
:101E8000364C374BA362C0231B069A46A3624422FA
:101E9000A35C0127BB4301263343DBB2A354123AB0
:101EA000A35C0F20834303218C4661460B43DBB2C6
:101EB000A35420236B61AB602A4BA3625346A362F9
:101EC00045239A46E35CBB433343DBB2514663543C
:101ED000A35C36390B4030218A4651460B43DBB2B6
:101EE000A35440236B60204BA362204BA362462384
:101EF000E25C49468A43E254E25CBA433243D2B2DE
:101F0000E2543322A35C834361460B43DBB2A35408
:101F100010491148FEF726FB15490F48FEF7AEFBA6
:101F20000D48FEF747FB80231B03AB61AB608023AA
:101F3000DB05A3620F4BA3625322A35CBB43A354F4
:101F40000CBC91469A46F8BD000400400D400000CC
:101F5000000C004000080042F00B0020004400414B
:101F6000100000402000004040000240000002C07D
:101F7000D00B0020080000C0002804D18022C0231C
:101F8000DB055A6170478022C023DB059A61F9E7BF
:101F900010B50020FFF7F0FF10BD10B50120FFF7CE
:101FA000EBFF10BD10B503000A00034908681900D3
:101FB000FEF766FA10BDC046D00B002010B5030036
:101FC0000A00034908681900FEF740FA10BDC04630
:101FD000D00B002010B582B06B46DC1D00232370AF
:101FE000044B186801222100FEF74AFA207802B05B
:101FF00010BDC046D00B002000B583B06B46D91D84
:102000000870034B18680122FEF720FA03B000BDE8
:10201000D00B0020F0B5CE4600B5354A136A20211A
:102020000B431362334A344B5A8034493448FEF729
:1020300099FAC022D20580235B0253619360314B31
:102040008021C905894699622F4999625020195CFF
:102050000124A14301252943C9B219543821585CF0
:102060000F27B8430326B44666463043C0B25854DF
:1020700080208002506190604846986223489862B0
:1020800051208146185CA0432843C0B24E46985563
:10209000585C423E30403026B1464E463043C0B2D6
:1020A00058548021C9025160194A9A62194A9A62A9
:1020B0005222995C042081439954995CA14329439D
:1020C000C9B2995439215A5CBA4360460243D2B22C
:1020D0005A540A490A48FEF745FA0F490848FEF7DC
:1020E000CDFA0748FEF766FA04BC9146F0BDC0463B
:1020F0000004004010400000000C004000140042AA
:10210000D80B002000440041010000C0020000C0C4
:1021100000000240040002C0D40B002010B50300F0
:102120000A00034908681900FEF7AAF910BDC04665
:10213000D40B002010B503000A00034908681900F9
:10214000FEF784F910BDC046D40B0020F8B51E4A36
:10215000136A10210B4313621C4B1D4A5A801D4AFF
:102160005A801D4C1D492000FEF7FEF81C4B4C20E8
:10217000195C042291431954195C0126B1430125CD
:102180002943C9B219541638195C0F27B9430227DD
:102190003943C9B219544D215F5C97435F545A5C6F
:1021A000B2432A43D2B25A541A5C3E390A40202123
:1021B0000A43D2B21A540B492000FEF743F920001B
:1021C000FEF7EEF8F8BDC04600040040000C0040E9
:1021D0000F4000000C430000380C002000100042AB
:1021E000004400410C0C002070B50D00140001B239
:1021F0000A4E802212013000FEF7D6F823002A0092
:1022000000213000FEF7DAF8A2B2054B1868290069
:10221000FEF71CF9C043C00F70BDC046380C00204B
:102220000C0C0020F8B50C0015001E0001B2074F81
:10223000802212013800FEF7B7F833002A0021008F
:102240003800FEF7DDF80120F8BDC046380C00204C
:10225000F8B5DE4657464E464546E0B52D4D2A6A4E
:102260008023DB0113432B622B4B9A462B4B9B465F
:1022700053465A465A802A4CD122A35C01218946F2
:102280008B43884641460B43DBB2A354193AA35C07
:102290000F273B4040263343DBB2A354FFF75EFBDE
:1022A000020020492048FEF711F92A6A80231B0208
:1022B00013432B6253465A465A805522A35C494623
:1022C0008B4341460B43DBB2A3541B3AA35C1F4034
:1022D0003E43F6B2A654FFF741FB0200134C1449EB
:1022E0002000FEF7F3F8134D002229000E48FEF7F8
:1022F00025F9002229002000FEF720F90A48FEF700
:1023000005F92000FEF702F93CBC90469946A2462A
:10231000AB46F8BD00040040000C00401640000031
:1023200000440041003800421C0B0020780B0020C4
:10233000003C004288130000F8B5194A136A402196
:102340000B431362174A184B5A800022174918484A
:10235000FEF7E2FA174BCC215A5C0124A243012775
:102360003A43D2B25A54B622985C0F26B0430225A3
:102370002843C0B298541832995CA1433943C9B27A
:102380009954B7215A5CB2432A43D2B25A540A49EB
:102390000748FEF7F5FA0648FEF7E0FAF8BDC04632
:1023A0000004004011400000000C004000180042F2
:1023B000100C002000440041080C002010B5FEF76E
:1023C0004FFBFFF7EFFBFFF745FDFFF723FEFFF79E
:1023D000BDFEFFF73DFFFFF7AFFF04492820FDF7E3
:1023E00029FFFFF797FBFFF707FD10BDFB1A000061
:1023F000024B187800221A707047C046B40A0020B9
:1024000070B5060008282FD884000134E400651C4C
:10241000FF351021280000F06BFD280000F036FD8C
:102420000028FAD180239B00E0181F2100F060FDF6
:102430000123B340DB431BB20D490A881A400A80CE
:102440000C490A8813400B80720000210A4BD152BC
:102450000A4B00229A55C0239B00E01800F016FD9D
:102460000028F8D1013070BD01204042FBE7C04692
:10247000B60A0020B80A0020C40A0020BC0A0020C6
:10248000F0B5C64600B584B005000E0090461F00AA
:10249000082800D992E0012969D0002900D190E0F4
:1024A000042900D98DE07B0700D58DE0002F04D0F2
:1024B000012E69D0022E00D16DE02800FFF7A0FFA9
:1024C000AC000134E4000F233900994349B2314391
:1024D000C9B2200000F00CFD4346002B08D13D4A54
:1024E0001388984601339BB213803B4A934261D0D4
:1024F0008023DB00E0184346190A00F0F9FC43464C
:102500006A46D371D179A023DB00E01800F0F0FC1B
:10251000661CFF360121300000F0EAFC300000F0BC
:10252000B5FC0028FAD10122AA40D24312B22B48AE
:10253000038813401BB201210F40AF403B4303808F
:1025400027490B881A400A806B000021254A9952BE
:10255000254B00225A55C0239B00E01800F096FC42
:102560000028F8D068B204B004BC9046F0BD042244
:1025700003A9F020000100F0EBFC039B002B00D02E
:1025800091E703204042EEE721233B4200D094E74D
:1025900006204042E7E7BB0602D57BB2002B16DAE5
:1025A000FB0600D489E77BB2002B00DA85E7062022
:1025B0004042D8E70D4A074B1A8099E70120404274
:1025C000D1E705204042CEE706204042CBE7062077
:1025D0004042C8E728000020F0FF0000B60A0020B3
:1025E000B80A0020C40A0020BC0A002000C0FFFF77
:1025F00070B50600082829D884000134E4002000C2
:1026000000F044FC0F231840012822D1C0239B0076
:10261000E518280000F03AFC13281DD10134FF34DE
:102620000221200000F064FC200000F02FFC0028B4
:10263000FAD1280000F02AFC142801D1133870BD0B
:102640003000FFF7DDFE04204042F8E70120404261
:10265000F5E705204042F2E703204042EFE70000A3
:1026600070B50600082836D884000134E400200044
:1026700000F00CFC0F23184001282FD1651CFF35FA
:102680000821280000F034FC280000F0FFFB00289F
:10269000FAD101221000B04013490B8883430B800C
:1026A000124B1B8833411A421BD1C0239B00E018F8
:1026B00000F0ECFB00280CD080239B00E01800F019
:1026C000E5FB0307F1D53000FFF79AFE0D204042ED
:1026D00008E0013006E00120404203E005204042CE
:1026E00000E0002070BDC046B80A0020B60A0020F5
:1026F000F0B5C64600B582B0040001911700082865
:1027000000D980E0050083000133DB009846180003
:1027100000F0BCFB0F231840012800D076E0002F0A
:1027200000D176E0C0239B0043440093180000F0E2
:10273000ADFB172802D01C2800D06DE0384B1B8859
:102740002341DB0718D58026B6004644300000F050
:102750009DFBC30606D403071AD4002002B004BCB4
:102760009046F0BD1021300000F0C2FB0122A240D3
:102770002B490B8893430B80F8204001404400F024
:1027800085FB80B2800286B2B7420FD83E000DE0D2
:102790002000FFF735FE0D204042DFE72000FFF765
:1027A0002FFE07204042D9E7BE4213D9200000F097
:1027B0004BFC0700009800F069FB172801D01C288B
:1027C000ECD1184B1B882B41DB07EDD5BE42EBD972
:1027D0000020C3E732000199200000F099FC454633
:1027E0000135FF352021280000F082FB280000F091
:1027F0004DFB0028FAD10122A24009490B8813435E
:102800000B803000AAE701204042A7E705204042A4
:10281000A4E70E204042A1E7072040429EE7C046C1
:10282000B80A0020B60A0020F0B5C64600B582B04E
:10283000009001911400082864D806008700013731
:10284000FF00380000F022FB0F23184001285CD164
:10285000002C5DD0F0235B01F81800F017FB80B26C
:10286000800283B298469C420FD8A0460DE00098A3
:10287000FFF7C6FD0720404240E00098FFF7C0FD8B
:10288000072040423AE0002C24D1009D280000F0AF
:102890000DFC0400C0239B00F81800F0F7FA17287D
:1028A0000FD01C28E9D1002C14D1280000F0CCFB5B
:1028B0000500F8235B01F81800F0E8FA8002854271
:1028C000D5D0154B1B883341DB07DCD5002CDAD182
:1028D000002013E0A04500D844462200019900984A
:1028E00000F049FC0137FF374021380000F000FBC1
:1028F000380000F0CBFA0028FAD1200002B004BC66
:102900009046F0BD01204042F8E705204042F5E73F
:102910000E204042F2E7C046B60A0020F0B5DE467F
:1029200000B584B00190039193461C000AAB1F8848
:10293000082800D995E0050083000133DE0030004F
:1029400000F0A4FA0F230340023BDBB2022B00D9B4
:102950008AE05B46002B00D189E023781B02627875
:102960009B181B02A2789B181B02E2789B18002B75
:1029700034D0002F04D1300000F088FA430779D515
:10298000C0239B009C46B44463460293604600F01B
:102990007DFA422803D0222801D032286DD10422AA
:1029A0002100C0231B01F01800F012FB390A80231C
:1029B0005B01F01800F09CFAF9B288235B01F01873
:1029C00000F096FAF8235B01F01800F05FFA80B28D
:1029D000800287B2BB450BD85F4609E0300000F0AB
:1029E00055FA4307C5D40C2040424BE0A74211D909
:1029F000019800F029FB0400029800F047FA002833
:102A00003ED0224B1B882B41DB07EFD5A742EDD9E7
:102A1000002037E03A000399019800F079FB741C1C
:102A2000FF342021200000F063FA200000F02EFA8D
:102A30000028FAD180239B00F418200000F026FA29
:102A4000C30608D40307F5D50821200000F050FA8A
:102A50000D20404216E01021200000F049FA380015
:102A600010E0012040420DE0052040420AE00E2027
:102A7000404207E00B20404204E00720404201E0D2
:102A80000420404204B004BC9346F0BDB60A0020C6
:102A9000F0B5DE46474680B585B00500009190460A
:102AA0000193082800D91BE1070083000133DE00F1
:102AB000300000F0EBF983460F230340023BDBB20A
:102AC000022B00D90FE14346002B00D10EE16B0031
:102AD000894A9B5A002B15D0002407235A461340DD
:102AE000032B00D1BDE0042B00D181E0022B1ED0CE
:102AF0002100280000F072FB6B007F4A9C5226E008
:102B0000002CEAD1280000F0D1FA0400C0239B0079
:102B1000F01800F0BBF9002800D1EAE0774B1B88E1
:102B20003B41DB07ECD5002CEAD1002029E06B000B
:102B3000714A9B5A002B29D06B006F4A9C5AA045C2
:102B400000D2444622000099280000F014FB013610
:102B5000FF364021300000F0CBF9300000F096F94C
:102B60000028FAD1644A69008B5A1B1B9BB28B5216
:102B7000002B00D1B0E0624A535D01210B43535555
:102B8000200005B00CBC90469B46F0BD082202A96F
:102B9000280000F0F0FA741CFF344021200000F0FF
:102BA000A7F9200000F072F90028FAD102AB1B78D7
:102BB000019A137002AB5B78537002AB9B789370F1
:102BC00002ABDB78D37002AB1B791B0202AA5279ED
:102BD0009B180C9A138002AB9B791B0202AAD27934
:102BE0009B186A0044498B528022454B5A55A3E7F3
:102BF0006B00414A9B5A002B0BD06B003E4A9C5AFB
:102C0000A04500D2444622000099280000F0B3FA03
:102C10009DE7022202A9280000F0ADFA741CFF34DF
:102C20004021200000F064F9200000F02FF9002876
:102C3000FAD102AB1B781B0202AA52789B189BB2F6
:102C4000023B9BB26A002C4953522E4A934203D84E
:102C500080222B4B5A55D0E72800FFF7D1FB2A489A
:102C60008FE76B00244A9B5A002B0BD06B00224A43
:102C70009C5AA04500D2444622000099280000F04A
:102C80007AFA64E7062202A9280000F074FA741C9C
:102C9000FF344021200000F02BF9200000F0F6F86E
:102CA0000028FAD102AB1B78019A137002AB5B7853
:102CB000537002AB9B78937002ABDB78D37002AB9E
:102CC0001B791B0202AA52799B186A000A498B528F
:102CD00080220B4B5A55C9E70022094B5A554FE742
:102CE000012040424DE7052040424AE70E20404285
:102CF00047E70420404244E7C40A0020B60A002007
:102D0000BC0A0020EA05000017FCFFFF70B50400B4
:102D10001500082800D9A6E00C2900D9A6E08900F2
:102D2000574B5B589F4680000130C00000F0AEF862
:102D30000F2398432870012070BD80000130C0002F
:102D4000B0235B019C46604400F0A0F8287001208D
:102D5000F2E780000130C000A8235B019C4660447C
:102D600000F094F828700120E6E784000134E400C4
:102D700090235B01E01800F089F886B23602B6B203
:102D800098235B01E01800F081F880B236182E809D
:102D90000120D1E780000130C000C0231B019C4608
:102DA00060440422290000F0D3F80120C4E7840025
:102DB0000134E40080235B01E01800F067F886B27C
:102DC0003602B6B288235B01E01800F05FF880B2EB
:102DD00036182E800120AFE784000134E400200083
:102DE00000F054F80F231840012842D1BC239B0166
:102DF000E01800F04BF8288001209DE700F024F94E
:102E00002880012098E700F051F92880012093E7FD
:102E100080000130C000C0239B009C46604400F04D
:102E200035F82870012087E780000130C00000F0ED
:102E30002DF8C30705D46400124BE35A2B80012000
:102E40007AE7200000F032F92880012074E7800042
:102E50000130C00000F01AF801280DD00A4B1B5DAC
:102E60002B70012068E70120404265E702204042C4
:102E700062E7052040425FE7052040425CE7C0462C
:102E8000A8F30000C40A0020BC0A002030B583B0BB
:102E90000400164DEB6898476B6998476B6A002BE6
:102EA00016D0124B9B6A002B12D0220C01A8027084
:102EB000220A42708470032198470C4CE3699847BA
:102EC0000500A369984723699847280003B030BDDF
:102ED000064D200CC0B22B6A9847200AC0B22B6A5C
:102EE00098472B6AE0B29847E7E7C0462C000020DD
:102EF00070B582B004000E00144DEB6898476B6902
:102F0000984704200443AB6A002B0FD0220C01A881
:102F10000270220A42708470C670042198470B4CDC
:102F2000A36998472369984702B070BD074D200CEC
:102F3000C0B22B6A9847200AC0B22B6A9847E0B209
:102F40002B6A98472B6A30009847E8E72C0000204E
:102F5000F0B583B004000F0016001C4DEB689847D5
:102F60006B6998476B6A002B17D0184B9B6A002B34
:102F700013D0220C01A80270220A4270847003212F
:102F80009847124B5B6A3100380098470F4CA36991
:102F900098472369984703B0F0BD0C4D200CC0B290
:102FA0002B6A9847200AC0B22B6A98472B6AE0B276
:102FB0009847002406E03D19044BDB6998472870C8
:102FC0000134A4B2B442F6D3E0E7C0462C0000209E
:102FD000F0B583B004000F0016001A4DEB68984757
:102FE0006B69984704200443AB6A002B13D0220C72
:102FF00001A80270220A4270847003219847114B85
:103000009B6A3100380098470E4CA36998472369A2
:10301000984703B0F0BD0B4D200CC0B22B6A984707
:10302000200AC0B22B6A98472B6AE0B29847002466
:1030300005E0044B1B6A385D98470134A4B2B442E2
:10304000F7D3E1E72C000020F0B5C64600B5070035
:10305000002501E0A54225D0BB000133DB009846E6
:103060008026B60146443000FFF710FF84B22402E8
:10307000A4B284239B019C46E0444046FFF706FF30
:1030800080B22418A4B2002CE4D03000FFF7FEFE7A
:1030900080B2000285B24046FFF7F8FE80B22D18DC
:1030A000ADB2D7E7280004BC9046F0BDF0B5C646E7
:1030B00000B50700002501E0A54225D0BB00013383
:1030C000DB0098469826B60146443000FFF7DEFE46
:1030D00084B22402A4B29C239B019C46E044404657
:1030E000FFF7D4FE80B22418A4B2002CE4D0300044
:1030F000FFF7CCFE80B2000285B24046FFF7C6FE65
:1031000080B22D18ADB2D7E7280004BC9046F0BDC0
:10311000F0B583B00091141E01D103B0F0BD86005C
:10312000751CED0090239B019C46AC4463460193C3
:103130006046FFF7ABFE80B2000287B29422920194
:10314000944665442800FFF7A1FE80B2381887B284
:103150003B02B01CC000181822000099FFF738FF8E
:10316000E419A4B2210A0198FFF7C2FEE1B22800D7
:10317000FFF7BEFED1E7F0B583B00091141E01D178
:1031800003B0F0BD8600751CED00A0239B019C469A
:10319000AC44634601936046FFF778FE80B20002BC
:1031A00087B2A4229201944665442800FFF76EFE80
:1031B00080B2381887B23B02F01CC00018182200F9
:1031C0000099FFF7C5FEE419A4B2210A0198FFF7A0
:1031D0008FFEE1B22800FFF78BFED1E7F8B50C00B7
:1031E00087000137FF00A0239B01FE183000FFF786
:1031F0004DFE80B2000285B2A4239B019C46674429
:103200003800FFF743FE80B22D18ADB22C19A4B2DE
:10321000210A3000FFF76CFEE1B23800FFF768FECC
:10322000F8BD70477047704770470078C0B270476C
:10323000017070470020704770477047704700006A
:10324000002805D0002903D0044B586199617047CC
:10325000024B034A5A61034A9A61F8E72C000020A6
:103260002732000029320000084B1B889B05FBD544
:10327000002805D0002903D0044BD861196270479B
:10328000024B034ADA61034A1A62F8E72C00002075
:103290003532000039320000084B1B889B05FBD5F6
:1032A000002805D0002903D0044B5862996270476A
:1032B000024B034A5A62034A9A62F8E72C00002044
:1032C0003B3200003D320000F0B587B090273F014F
:1032D000062201A93800FFF73BFE80267600042273
:1032E00005A93000FFF734FEA025ED00042204A953
:1032F0002800FFF72DFEF0242401042203A920005A
:10330000FFF726FE80210020FFF7F2FD0020FFF7E7
:10331000BDFD062201A93800FFF75AFE042205A9C7
:103320003000FFF755FE042204A92800FFF750FEE5
:10333000042203A92000FFF74BFE07B0F0BD70B5D3
:1033400006000D00FFF7C0FF002E1BD00022002357
:10335000072B07DCF15C8A1852B2102A34DC0133E7
:103360005BB2F5E700240BE0A0000130C000F823B9
:103370005B019C466044315DFFF7BAFD013464B2E5
:10338000072CF1DD002D0BD000220023072B09DCD8
:10339000E95C8A1852B2102A19DC01335BB2F5E7F6
:1033A000002010E000240BE0A0000130C000F0235A
:1033B0005B019C466044295DFFF79AFD013464B2CD
:1033C000072CF1DD002070BD01204042FBE7012009
:1033D0004042F8E710B5B824A4012000FFF756FDDD
:1033E0007F2101402000FFF783FD2000FFF74EFD05
:1033F000802149420143C9B22000FFF779FD10BD89
:1034000010B504000622010090200001FFF7E0FD46
:1034100021000E31042280204000FFF7D9FD210059
:103420000A310422A020C000FFF7D2FDA11D042212
:10343000F0200001FFF7CCFDA27C064B1A70E27C65
:103440005A70227D9A70627DDA70A27D024B1A70EA
:1034500010BDC046D80A0020D40A002010B50400D0
:103460000622010090200001FFF772FD21000E31BD
:10347000042280204000FFF76BFD21000A31042266
:10348000A020C000FFF764FDA11D0422F020000170
:10349000FFF75EFD064B1A78A2745A78E2749A78A8
:1034A0002275DB786375034B1B78A37510BDC0468E
:1034B000D80A0020D40A002010B504003A230200E4
:1034C0009A4309D10020FFF7E1FC0443E1B2002058
:1034D000FFF70EFD002010BD01204042FBE710B5B4
:1034E0000020FFF7D3FC10BD10B504000178D820F0
:1034F0004001FFF7FDFC6188090AC8204001FFF781
:10350000F7FCA178D0204001FFF7F2FC10BD70B5A8
:103510000500D8204001FFF7B9FC2870C820400101
:10352000FFF7B4FC80B2000284B2D0204001FFF764
:10353000ADFC80B224186C8070BD000010B50C008A
:10354000052820D88000114B1B589F460800FFF724
:1035500057FF002010BD0800FFF780FF0020F9E7AB
:103560000878FFF7A9FFF5E7FFF7B9FF2070002003
:10357000F0E70800FFF7B8FF0020EBE70800FFF7CF
:10358000C6FF0020E6E701204042E3E7DCF300004D
:1035900043781B02007818437047C3781B02827877
:1035A00013431B02427813431B02007818437047F1
:1035B0000170090A4170704701700B0A43700B0CCF
:1035C0008370090EC170704700207047002070475B
:1035D00002394369023B994204D2836A40894843D5
:1035E000181870470020FCE770B506000D000800B1
:1035F0001A30FFF7CDFF04003378032B00D070BDE5
:1036000028001430FFF7C4FF00042043F7E770B52B
:1036100006000C00150091B220001A30FFF7C8FF19
:103620003378032B00D070BD290C20001430FFF735
:10363000BFFFF8E710B50468002C1ED02200511C13
:103640001378202B02D90A003A2BF8D13A2B02D05A
:103650000023180010BD23781A00303AD2B2092A8C
:1036600006D80234A14201D0012302E0303B00E041
:103670000123002B04DC0160EBE701235B42E8E758
:1036800001235B42E5E770B504000D00002818D067
:103690000368002B17D01A78002A05D109200028CA
:1036A00015D123682B6070BD8188DA88914201D0E2
:1036B0000920F4E7587801F00FFAC30705D509206F
:1036C000EDE70920EBE70920E9E70020E7E7002321
:1036D000E8E770B504000379002B01D1002070BD2C
:1036E0000500303540780123E26A290001F0BEFA76
:1036F000002814D100232371E26A236AD31AA16936
:103700008B420ED2E378022B01D00020E7E752185B
:103710006078013B290001F0A9FA0020DFE70120D1
:10372000DDE70020DBE770B505000E00C36A8B42C1
:1037300013D0FFF7CEFF041E01D0200070BD29007A
:10374000303168780123320001F058FA002802D0A5
:10375000013401267642EE62EFE70024EDE7000037
:1037600070B5040000230371013BC362FFF7DBFF68
:10377000002801D0042070BD2D4BE018FFF708FF92
:1037800005003023E35CEB2B08D0E92B06D0E82BB7
:1037900004D0284B9D4248D00320ECE7254B9D42A6
:1037A00039D020003B30FFF7F3FE3D23E15C431EA0
:1037B0000342EED1204B9842EBD901339842E8D82E
:1037C0000029E6D04B1E0B42E3D120003E30FFF72C
:1037D000DFFE0028DDD04023E35C013B012BD8D87D
:1037E00020004130FFF7D4FE0028D2D02000433023
:1037F000FFF7CEFE7F2806D820005030FFF7CDFE21
:103800000E4B9842C5D920004630FFF7C1FE002874
:10381000BFD00020AFE7082209492000823003F022
:1038200001FE0028BDD10020A5E70220A3E7C04685
:103830002E02000055AA0000FF010000FFFF00005B
:1038400074F4000070B584B005000E000021FFF78D
:1038500087FF022816D02AD8002E28D000240BE09B
:103860002B0030332001C730FF301818FFF795FECA
:10387000A3006A4698500134032CF1D9002E03D0DE
:10388000741E0DE00024F7E7340009E02800FFF77C
:1038900067FF002E0BD1012809D90134032C06D86B
:1038A000A3006A4699580029F0D10320F1E704B03B
:1038B00070BD0000F0B5DE4657464E464546E0B5C1
:1038C00083B00E00150000230B60FFF7B3FE002845
:1038D00000DA1EE18000A04BC458002C00D120E18A
:1038E000346001239D432378002B0DD0607801F0D4
:1038F000F3F8C30708D4002D00D114E1430701D524
:103900000A2007E1002005E100232370607801F020
:10391000EDF8C30701D50320FCE0002D03D04307D9
:1039200001D50A20F6E000212000FFF78BFF0428D4
:1039300000D1FAE0012801D90D20EBE0E66A200071
:103940003B30FFF725FE80239B00984201D00D20DD
:10395000E0E020004630FFF71BFE8246002804D13D
:1039600020005430FFF719FE82465346A3614023DE
:10397000E35CE3705A1ED2B2012A01D90D20C9E0DE
:1039800052465A4391463D23E35C98466381002B9F
:1039900000D1CCE0013B4246134201D00D20B9E0FA
:1039A00020004130FFF7F4FD07000190208103075C
:1039B00000D0BEE020004330FFF7EAFD051E04D131
:1039C00020005030FFF7E9FD050020003E30FFF7F2
:1039D000DFFD8346002800D1ADE04B465B443F0944
:1039E000BFB2DF19BD4200D2A7E0E81B414601F09B
:1039F00001FD002800D1A2E0584B984275D9002360
:103A00009846574B984201D802239846554B984206
:103A100001D8012398464346002B00D191E0851C34
:103A20006561E6615B46F3182362F719A7624246B7
:103A3000032A5DD120005A30FFF7AAFD002800D0EC
:103A400081E0019B002B00D07FE020005C30FFF77D
:103A5000A4FD6062AD00444B9C4665446D0AAA45D6
:103A600000D276E001235B422361E360813363711E
:103A70004346032B2FD120006030FFF789FD01283A
:103A800029D1711C2000FFF74EFE002823D100230E
:103A90006371364BE018FFF77BFD354B98421AD126
:103AA00020003030FFF779FD324B984213D1852347
:103AB0009B00E018FFF771FD2F4B98420BD1862336
:103AC0009B00E018FFF769FD206187239B00E01849
:103AD000FFF763FDE06043462370284A13880133F3
:103AE0009BB21380E380002014E00323984688E70C
:103AF000019A002A2BD04B4463624346022B01D12A
:103B00006D00A8E703236B435B08012215405D1994
:103B1000A1E70B2003B03CBC90469946A246AB46B9
:103B2000F0BD0C20F6E70020F4E70120F2E70D20BD
:103B3000F0E70D20EEE70D20ECE70D20EAE70D2081
:103B4000E8E70D20E6E70D20E4E70D20E2E70D2091
:103B5000E0E70D20DEE7C046DC0A0020F5FFFF0F9E
:103B6000F5FF0000F50F0000FF0100002E0200002D
:103B700055AA00005252614172724161E00A002070
:103B8000F0B5D6464F464646C0B506000C001700B5
:103B9000012900D888E04369994201D3022584E0D5
:103BA0000378022B4ED0032B61D0012B01D00225CC
:103BB0007BE04B08984688444346590A036A9C4672
:103BC0006144FFF7B0FD051E6FD130239A46B24421
:103BD0002F3B434499464346DB05DB0D534401220A
:103BE000144022D0002159560E320A403901FF20DC
:103BF000000101400A43D2B21A70012333714B46CF
:103C0000590A336A9C4661443000FFF78CFD051E5B
:103C10004BD14B46DB05DB0D5344002C07D03F094D
:103C2000FFB21F70012333713FE0FAB2E4E70022D4
:103C30009A560F218A433F0A79B20F270F40174344
:103C4000FFB2EEE7090A036A9C466144FFF76BFD89
:103C5000051E2AD1300030306400FF235B001C4079
:103C6000B9B20019FFF7A4FC012333711DE0C909A3
:103C7000036A9C466144FFF756FD051E15D13F01BE
:103C80003F0933003033A400FE22520014401C19B7
:103C90002000FFF782FC010F090739432000FFF7DE
:103CA0008BFC0123337100E0022528001CBC9046E8
:103CB0009946A246F0BDF8B50C000568012967D900
:103CC0006B69994266D22B78022B33D0032B47D0F5
:103CD000012B01D001205EE04E088E19710A2B6A7B
:103CE0009C4661442800FFF71EFD002802D00120F9
:103CF000404250E0771CF305DB0DEB1830331E78A3
:103D0000790A2B6A9C4661442800FFF70CFD0028C5
:103D100002D0012040423EE0FF05FF0DED19303595
:103D2000287800023043E30701D5000933E000059D
:103D3000000D30E0090A2B6A9C4661442800FFF719
:103D4000F2FC002802D00120404224E0280030305C
:103D50006400FF256D002C400019FFF719FC1AE0E4
:103D6000C9092B6A9C4661442800FFF7DCFC002847
:103D700002D0012040420EE028003030A400FE2393
:103D80005B001C400019FFF708FC0001000902E07D
:103D9000012000E00120F8BDF0B5C64600B50600E0
:103DA0000C000768264B994203D9022004BC9046B8
:103DB000F0BDCB0601D00220F8E731618568002D07
:103DC00003D13B78022B00D97D6A002D0DD1630908
:103DD0003A89934201D30220E8E77B6AB3617561B7
:103DE000B369002B1DD10220E0E77B895B02984676
:103DF00001E04346E41A44450DD329003000FFF7A3
:103E00005AFF0500431C16D0012816D97B69984239
:103E1000EFD30220CAE729003800FFF7D9FBB061D1
:103E2000DDE7620A9B18B3613037E405E40D3C1905
:103E3000F4610020BAE70120B8E70220B6E7C046E7
:103E4000FFFF1F00F8B5CE46474680B506008846FE
:103E50000768002907D1FD68002D10D07B699D42BD
:103E60000ED301250CE0FFF726FF012800D874E0EF
:103E7000431C62D07B6998425FD3454600E0012530
:103E80003869002859D0454506D0002399464B464D
:103E9000002B37D12C002CE06B1C99467B6999458F
:103EA00001D30223994649463000FFF704FF012859
:103EB00043D0431C41D00028E9D0FB68012B05D931
:103EC0007A69934205D300239946E0E70023994697
:103ED000DDE71D0000239946D9E721003000FFF7F8
:103EE000EAFE00280DD0012827D0431C25D0AC4283
:103EF00037D001347B699C42EFD3012D2FD90224A6
:103F0000EBE7A1460122524249463800FFF738FE4E
:103F1000002802D14346002B13D1002817D14B466D
:103F2000FB603A697B69023B9A4201D8013A3A61E7
:103F30007B79012213437B7148460CBC904699461D
:103F4000F8BD4A4641463800FFF71AFEE5E701286A
:103F500001D00120F1E70238EFE70120EDE7484604
:103F6000EBE74846E9E7F8B507000C0011000568E3
:103F7000012C2ED96B699C4201D302202AE0002A31
:103F80000AD0012252422800FFF7FAFD002803D090
:103F900020E0340096421DD221003800FFF78BFE4E
:103FA000061E18D0012818D0431C18D0002221006A
:103FB0002800FFF7E5FD00280CD12B696A69911EE6
:103FC0008B42E6D201332B616B7901210B436B717C
:103FD000DFE70220F8BD0020FCE70220FAE701201D
:103FE000F8E7F8B506000C00FFF773FB002801D0D6
:103FF0000120F8BD21003000FFF7EAFA0700F06267
:1040000035003035802292000021280003F072FA3A
:10401000002400E0013473899C4207D2E2197078D1
:104020000123290000F022FE0028F3D07089241A11
:10403000601E8441E0B2DCE7F0B5CE4600B582B048
:10404000040001910768056920352F4B9D4201D975
:1040500000238361A369002B04D1042002B004BCB7
:104060009146F0BDEE05F60D11D10133A3616169F2
:10407000002907D16B093A89934208D30023A36131
:104080000420EBE76B0A7A89013A1A4205D02561D0
:104090003037BF19E7610020E0E72000FFF70BFE93
:1040A00081460300012825D9013325D07B69984238
:1040B00018D3019B002B02D1A3610420CEE76169D4
:1040C0002000FFF7BFFE8146031E01D10720C5E790
:1040D000012813D0013313D001003800FFF781FF0E
:1040E00000280FD14B46636149463800FFF770FA4C
:1040F000A061CCE70220B1E70120AFE70220ADE7E5
:104100000120ABE70120A9E7FFFF1F0070B5050004
:1041100006680021FFF740FE041E07D0200070BD96
:1041200000212800FFF788FF041EF7D1A96930009D
:10413000FFF7F9FA041EF1D1E8690378002B0ED0DD
:10414000C27A3F231340AB71C37A1B07E8D429001E
:1041500020310B2203F066F90028E1D1DEE70424C8
:10416000DCE7F8B505000E0004680021FFF714FE37
:10417000002818D1002708E00137B74213D00121E9
:104180002800FFF759FF00280DD1A9692000FFF78B
:10419000CAFA002807D1EB691B78E52BECD0002B7D
:1041A000EAD00027EBE7042800D0F8BD0330FCE795
:1041B000F0B5DE4657464E464546E0B583B0019021
:1041C0008A460B68984603002022944663449B4627
:1041D000153A2021180003F08DF900270026082346
:1041E0009946751C43469C5D202C1BD92F2C13D05F
:1041F0005C2C11D02E2C01D0B9451FD84B460B2B6F
:1042000066D02E2C15D0062003B03CBC90469946B3
:10421000A246AB46F0BD013543465B5D2F2BFAD07D
:104220005C2BF8D0454453461D60002F37D1062043
:10423000EAE72E0008270B239946D2E763B2002B4A
:1042400016DB2000FFF7C0F9002816D002364346DF
:104250005D5D2800FFF7BAF900283BD04B46013BD3
:104260009F4239D27B1C5A46D455D5540237B8E701
:104270007F231C401A4B1C5DE3E72100194803F023
:10428000EFF900282AD12300613BDBB2192B01D8BA
:10429000203CE4B25B46DC5501372E00A1E7202329
:1042A000019AD35CE52B06D0202C09D92B78202B42
:1042B0000CD8042205E00522C53B0199CA54F3E756
:1042C00004222B230199CA5400209DE70022F8E71D
:1042D000062099E7062097E7062095E7062093E752
:1042E000F4F3000080F4000030B583B004000191C5
:1042F000056801E001330193019B1A782F2AF9D058
:104300005C2AF7D00022A2601B781F2B1CD901A9C0
:104310002000FFF74DFF00281DD12000FFF7F6FE1B
:104320002B23E35C002818D15B0714D4A379DB06A8
:1043300019D52B0030332269D105C90D5918280031
:10434000FFF752F9A060E2E780322B23E25400210C
:104350002000FFF721FD03B030BD0428FBD15B072F
:10436000F9D40520F7E70520F5E770B505000668E4
:104370000121FFF7F6FE041E01D0200070BDA969DF
:104380003000FFF7D0F9041EF7D120220021E869A0
:1043900003F0B0F8E869290020310B2203F068F837
:1043A00001233371E9E7000070B50500FFF791F9CB
:1043B000041E0AD12B78032B09D068780022002133
:1043C00000F09EFC002800D00124200070BD6B7915
:1043D000012BF2D12E0030368022920000213000D5
:1043E00003F088F81249134BE818FFF7E1F8124977
:1043F0003000FFF7E1F885239B00E8180F49FFF72D
:10440000DBF886239B00E8182969FFF7D5F8872396
:104410009B00E818E968FFF7CFF8EB695A1CEA62DD
:1044200068780123310000F021FC00236B71C4E7A0
:1044300055AA00002E020000525261417272416181
:1044400030B585B0019000911400039103A8FFF7E7
:10445000F1F800281DDB83000F4A9A58002A03D088
:1044600000210D4D59511170019B002B07D0587040
:104470000023019A13708000074B019AC250002C50
:1044800001D1002006E0002201A96846FFF712FAD8
:1044900000E00B2005B030BDDC0A0020F0B5CE46B0
:1044A000474680B591B0070003911600002800D15F
:1044B000E3E03F2515402A0004A903A8FFF7FAF915
:1044C000041E05D0002C00D1D8E000233B60D5E0CD
:1044D000049B0593039905A8FFF706FF041E04D16A
:1044E0002B2305AAD356002B3EDB1C23334200D1DD
:1044F00089E0002C3FD0042C38D008231D43EDB2B6
:10450000002C01D12B0741D4002C09D12B0702D557
:1045100040231D43EDB2049BDB6A3B620C9B7B6234
:10452000002CCFD1049B99460C9B98461900484615
:10453000FFF75AF80600B86040461C30FFF72DF828
:104540008046F8604B463B60DB88BB803D740023AF
:104550007B74FB617B61AB06B4D50028B2D0786177
:104560004B465D896D0264E00634BEE705A8FFF79F
:10457000FCFE0400C1E705AB9B7911221A4203D16E
:104580007307BDD50824BBE70724B9E70C9B01934B
:104590003D4E18000E303100FFF70EF80C9B0193D2
:1045A000180016303100FFF707F8049B0C9E31000D
:1045B00001931800FFF718F881462023F3720C9A34
:1045C0000292002202990198FFF721F80C981C3002
:1045D0000021FEF7F1FF049B01221A714A46002ACE
:1045E00092D0DE6A0022494605A8FFF7BCFC041EF3
:1045F0008AD131000498FFF796F804004B46013B3E
:10460000049AD36080E7002C00D07DE705AB9B794E
:10461000DA0607D4B20700D476E7DB0700D473E7E5
:10462000072471E704246FE702240DE043465B1B77
:104630009846002C0CD1A8450AD931003800FFF764
:104640003AFB06000128EFD9731CEFD10124EDE7F6
:10465000BE61002C00D035E74346DB0500D131E7D1
:1046600031000498FEF7B4FF002804D043465B0AEB
:10467000C318FB6126E7022424E70924200011B0B7
:104680000CBC90469946F0BD00006655F0B5DE467C
:1046900057464E464546E0B585B005000C0017006C
:1046A000994600234A461360009003A9FEF7EBFFEA
:1046B000061E06D16E7C002E03D12B7C9B0708D4EE
:1046C0000726300005B03CBC90469946A246AB4652
:1046D000F0BD6B69DA19934200D9DF43A0465FE071
:1046E00000210098FFF7AEFB6BE0A9690098FFF787
:1046F000A9FB66E002236B740226E2E701236B74D8
:104700000126DEE7FEF7E5FF00286AD001236B747F
:104710000126D6E702236B740226D2E701236B74CD
:104720000126CEE7504630304902414480229200B3
:1047300002F09EFE00235246137178E06B69EA682E
:10474000934276D25B46EB616B69DC05E40D802316
:104750009B001C1BA74200D23C00E9690398FEF7AE
:10476000E2FF002872D1039830306B69DB05DB0D66
:10477000C0182200414602F07BFE0123039A137108
:104780003F1B4B461B681B194A461360A0446B69CC
:104790009C4664446C61EB689C4200D21C00EC6057
:1047A000002F57D06B69DA05CED15A0A039949898F
:1047B000013911408A460FD1002B96D1A8680028F4
:1047C0008ED0002846D0012894D0431C96D0A861F2
:1047D000AB68002B00D1A8600398C36AEA699342D2
:1047E00090D0039B0193A9691800FEF7F1FE002801
:1047F00090D0504483467C0AA0D053461B19019A9E
:104800005289934201D95346D41A019B5878230008
:104810005A46414600F02AFA002800D07EE7039B62
:104820009A46DB6A5A46991A8C4200D97AE76402A2
:10483000A6E70198FEF74DFF002803D1039B5A46D7
:10484000DA627FE701236B7401263AE701236B7478
:10485000012636E72B7C402213432B7431E70000FE
:1048600030B583B0040001A9FEF70DFF002802D186
:10487000237C5B0601D403B030BD216A0198FEF7AA
:1048800052FF0028F7D1656AEB7A20221343EB72BE
:10489000A26829002068FEF7BAFE28001C30E168F3
:1048A000FEF78AFE280016300949FEF785FE28002B
:1048B00012300021FEF77CFE0123019A13711000D3
:1048C000FFF772FD237C402293432374D3E7C04655
:1048D0000000665510B582B00400FFF7C1FF002844
:1048E00001D002B010BD01A92000FEF7CCFE0028C7
:1048F000F7D100232360F4E710B589B2FDF70EFC71
:1049000010BD00B583B080221203C023DB059A617D
:1049100001216B46D81DFFF7EFFF03B000BD10B5B6
:10492000040080B2FBF734FC013C002CFCD110BD2C
:1049300030B583B00A4C002C0DD06B46DD1D012133
:104940002800FFF7D9FF2B78FF2B04D06420FFF756
:10495000E6FF013CEFE72000441EA04103B030BD5C
:104960008813000010B582B080221203C023DB053B
:104970005A6101216B46D81DFFF7BEFFFFF7D8FF34
:10498000041E03D00124200002B010BDFFF7B9FFC0
:10499000F9E7F0B583B006000F00FA25AD00002D51
:1049A0000CD001AC01212000FFF7A6FF2378FF2BDC
:1049B00004D16420FFF7B3FF013DF0E701AB1B78A2
:1049C000FE2B02D0002003B0F0BD39003000FFF70D
:1049D00093FF022101A8FFF78FFF0120F3E710B535
:1049E00089B2FDF7A7FB10BD30B583B004000D0000
:1049F00043B2002B09DB0C2C10D0FFF782FFFFF72E
:104A0000B1FF00280AD1FF202FE07F231C400021A6
:104A10003720FFF7E9FF012827D8ECE7402323439D
:104A20006A4613702B0E53702B0C93702B0AD370A5
:104A30001571002C1BD00123082C1AD06A46537123
:104A400006216846FFF7CBFF0C2C14D00A246B46D6
:104A5000DD1D01212800FFF74FFF287843B2002B0E
:104A600003DA013CE4B2002CF1D103B030BD952350
:104A7000E2E78723E2E701216B46D81DFFF73CFF01
:104A8000E4E730B583B005000C00FFF751FF0028C4
:104A900001D103B030BD01A804700121FFF79FFFD1
:104AA000FD2C14D0802189002800FFF798FF01AC6D
:104AB00002212000FFF720FF01212000FFF71CFF4B
:104AC00022781F231340052B03D00020E1E70120AB
:104AD000DFE70120DDE70000002802D1024B187853
:104AE00070470120FCE7C04658000020F0B583B0B5
:104AF000002803D00324200003B0F0BD0A30FBF7E8
:104B000053FB0A2405E0012101A8FFF7F5FE013C53
:104B1000E4B2002CF7D100210020FFF765FF06006A
:104B20000700012809D0334B1C7063425C41E4B29A
:104B3000314B1C70FFF7E5FEDDE7D5214900082069
:104B4000FFF752FF012815D00021A920FFF74CFFE5
:104B500001283ED9FA25AD00002D3DD000213000BE
:104B6000FFF742FF002837D0FA208000FFF7D7FE7A
:104B7000013DF1E701AD04212800FFF7BDFEAB7850
:104B8000012BD0D101ABDB78AA2BCCD1FA25AD001B
:104B9000002D0CD08021C905A920FFF725FF002892
:104BA00005D0FA208000FFF7BAFE013DF0E7002DA6
:104BB000B9D000213A20FFF717FF0028B3D101AC8C
:104BC00004212000FFF798FE23785B060FD51824F8
:104BD000A9E7A9260827BDE7002DA4D080218900D8
:104BE0001020FFF701FF00289DD13C009BE708241F
:104BF00099E7C046E20A002058000020F8B50D00F1
:104C000017001C00FFF768FFC30701D50320F8BD9C
:104C1000154B1B78DB0600D47F02012C1CD9122611
:104C200039003000FFF7E0FE00280FD18021890015
:104C30002800FFF7AEFE002806D080239B009C468C
:104C40006544013C002CF1D1122E07D0FFF759FE2C
:104C5000601E8441E0B2DAE71126E1E700210C2072
:104C6000FFF7C2FEF2E7C046E20A002070B50D0071
:104C700016001C00FFF730FFC30701D5032070BDED
:104C80001E4B1B78DA0600D47602012C21D00C22B0
:104C90001A422CD131001920FFF7A6FE002812D1AC
:104CA000FC212800FFF7EDFE002806D080239B00A2
:104CB0009C466544013C002CF2D1FD210020FFF709
:104CC000E0FE002818D0FFF71CFE601E8441E0B211
:104CD000D5E731001820FFF787FE0028F3D1FE2129
:104CE0002800FFF7CEFE0028EDD00024EBE72100DE
:104CF0009720FFF779FECDE70124E4E7E20A0020E0
:104D000030B585B00C001500FFF7E6FEC30703D5EC
:104D10000324200005B030BD012C0BD0002C03D0A3
:104D2000032C51D0042452E0FFF71CFE002851D17F
:104D300001244CE000210920FFF756FE002801D095
:104D4000012444E010216846FFF723FE002843D0E9
:104D50006B461B789B09012B24D06B465A790F2395
:104D600013406A46927AD2099B186A46517A4900E2
:104D700006220A409B18DBB20233DBB26A46127A83
:104D800092096946C9798900521869468979890268
:104D9000C0200001014052180132093B9A402A60AC
:104DA000002414E06B465B7A6A46127A12029B1862
:104DB0006A46D2791204FC2189030A409B18013308
:104DC0009B022B60002402E080232B600024FFF76D
:104DD00098FD9EE70024FAE70124F8E7F0B5D9B082
:104DE000FDF7ECFADB49DC48FEF72AFADB49DC4840
:104DF000FEF73AFADB49DC48FEF74EFAFEF7EAFA2C
:104E00006420FBF7D1F9D9480100FEF798FAD84C95
:104E10002000FEF7F5FA21000020FEF78FFBC023EB
:104E2000DB058022D2039A61802252009A6101320E
:104E3000FF329A61FF21B0204001FEF759F8FF21AF
:104E4000C0204001FEF754F8002198204001FEF7F1
:104E50004FF80121A0204001FEF74AF80024072C5A
:104E600051D90A20FCF794FE0022C249C248FFF73C
:104E7000E7FA0A22C149C248FFF710FB002809D10E
:104E8000BF4C57AB0B22BF492000FFF7FFFB2000B0
:104E9000FFF720FD13A8FBF76DF9C023DB05802287
:104EA0009C582032B8498A5890215B5853401C4086
:104EB000544013A8FBF765F9E30550D48022D203D0
:104EC000C023DB059A61FDF793FA01284DD0AF4B63
:104ED000187880000130C000C0239B009C466044CD
:104EE000FDF7D4FF002873D0A84B1878800001305C
:104EF000C00080239B009C466044FDF7C7FFC306AB
:104F000072D10524D9E0A0000130C000B0239B017C
:104F10009C4660440421FDF7EBFF9D4D80239B00E0
:104F200000938023DB01482205212800FCF7A9FD1E
:104F300098492800FCF75DFD00212800FCF74DFD95
:104F400000212800FCF797FDE0212800FCF77BFDFD
:104F500000212800FCF771FD0134E4B27FE78022D4
:104F6000D203C023DB055A61ADE7894C8021C9011A
:104F70002000FCF756FD2000FCF71CFD0220FBF78B
:104F800013F92000FCF71DFD834D2880A021C901E5
:104F90002000FCF746FD2000FCF70CFD0220FBF78B
:104FA00003F92000FCF70DFD040068800023E85E93
:104FB00001F036FF794A7A4B01F068F901F0FCFF05
:104FC000784B1860200000F0DDFD774B18607EE71D
:104FD000764B1A886D4C207880230221FDF750FA19
:104FE0002078FDF705FB7FE7684B1878FEF75EF841
:104FF000041E86D080231B01984200D91C00802209
:10500000120100216A4802F075FA604E307814AB44
:10501000009317AB22006649FDF73AFD654F3A88C9
:10502000654D287801230221FDF72AFA28783B886C
:10503000009317AB22005E49FDF770FC30788000CA
:105040000130C00080239B009C4660441F21FDF777
:105050004FFF56E7B2B25949C9192000FDF748FB86
:105060001420FBF7A1F8BF19554B9F4217D8554E96
:10507000F61B8023DB009E42ECD91E00EAE7524972
:105080004B4802F033FD002849D02F224F49200021
:10509000FDF72EFB4E4A4F492000FDF729FB20006B
:1050A000FDF7DEFA2000FDF7ABF92800FDF7EEFE74
:1050B000002800D16BE10134E4B2072C00D9E9E605
:1050C0001094A5000135ED00C0239B009C4665446B
:1050D0002800FDF7DBFE1728E7D112AA04212000E3
:1050E000FDF714FE2000FDF7E1FF060080231B0101
:1050F000984200D91E002E4F802212010021380054
:1051000002F0F8F9320039002000FDF78DFB32493A
:10511000380002F0EBFC0028B1D00027A4E72F49AB
:10512000234802F0E3FC002864D00E3006000A2079
:10513000FCF72EFD2A4B2B4A2B49300002F066FA71
:1051400001222A4B1A70423229492000FDF7D0FA79
:10515000A5E7C0469B1F0000911F0000F91F00003B
:10516000D51F0000BD1F0000A51F0000800000200B
:10517000680000207CF400005814002014FA00009D
:10518000901600201CFA0000004400415C00002042
:1051900088160020FFFF00008C16002086FAF3F32B
:1051A000FA21633F9C000020640000205A00002088
:1051B000580C00205E000020E30A0020D8FB00000D
:1051C000AE1D0000AF1D000030FA000044FA0000E0
:1051D0008205000090F4000028FA000074FA000034
:1051E000980000206000002084FA0000E50A0020FA
:1051F00094FA00006C496D4802F078FC002840D019
:105200006B4B1E686B4B1F68391C301C00F09AFBFF
:10521000119001230F930E9300230D93664B1B787F
:105220000C93664B1B780B93654B1B780A93381CC9
:1052300001F070FE08900991301C01F06BFE0690A1
:105240000791119801F066FE049005915D4B186876
:1052500001F060FE029003915B4B186801F05AFE6A
:1052600000900191594A8021490017A802F08CF959
:1052700017A802F0A7FA82B217A92000FDF738FAA2
:105280000DE75349494802F031FC002800D106E7F8
:105290000D3017AB14AA4F4902F0B8F94E4914A8C3
:1052A00002F04CFA002820D10A30FCF771FC4B497F
:1052B00017A802F043FA002808D1C023DB0580229A
:1052C00052009A610132FF329A611AE0444917A8EC
:1052D00002F034FA002814D1C023DB0580225200EA
:1052E0005A610132FF325A610BE03E4914A802F0C4
:1052F00025FA00280BD03C4914A802F01FFA002818
:105300002BD0412239492000FDF7F2F9C7E60A30D7
:10531000FCF73EFC314917A802F010FA00280CD126
:105320000122264B1A70254B1B78002B0FD08022B0
:10533000D200C023DB059A61E3E7294917A802F0F0
:10534000FDF90028EFD100221C4B1A70EBE78022F8
:10535000D200C023DB055A61D3E70A30FCF718FC02
:105360001E4917A802F0EAF9002806D10122144BC1
:105370001A700122114B1A70C3E7194917A802F0DD
:10538000DDF90028F5D100220D4B1A70F1E7109BD2
:105390005B00174A9A5A002301212000FDF770F89C
:1053A0002000FDF725F986E6D8FA0000580C002009
:1053B000640000209C000020E40A0020E50A002090
:1053C0007F0000209800002060000020E8FA000024
:1053D0009CFB0000ACFB0000C4FB0000C8FB00000D
:1053E000CCFB0000D0FB0000D4FB000094FA0000CE
:1053F00088000020002243088B4274D303098B42AB
:105400005FD3030A8B4244D3030B8B4228D3030C94
:105410008B420DD3FF22090212BA030C8B4202D336
:105420001212090265D0030B8B4219D300E0090A5E
:10543000C30B8B4201D3CB03C01A5241830B8B4267
:1054400001D38B03C01A5241430B8B4201D34B0350
:10545000C01A5241030B8B4201D30B03C01A5241B5
:10546000C30A8B4201D3CB02C01A5241830A8B423A
:1054700001D38B02C01A5241430A8B4201D34B0223
:10548000C01A5241030A8B4201D30B02C01A524187
:10549000CDD2C3098B4201D3CB01C01A524183093B
:1054A0008B4201D38B01C01A524143098B4201D375
:1054B0004B01C01A524103098B4201D30B01C01AA0
:1054C0005241C3088B4201D3CB00C01A524183081A
:1054D0008B4201D38B00C01A524143088B4201D347
:1054E0004B00C01A5241411A00D2014652411046A7
:1054F0007047FFE701B5002000F0F0F802BDC0469C
:105500000029F7D076E7704703460B437FD400228B
:1055100043088B4274D303098B425FD3030A8B4247
:1055200044D3030B8B4228D3030C8B420DD3FF22B1
:10553000090212BA030C8B4202D31212090265D07F
:10554000030B8B4219D300E0090AC30B8B4201D332
:10555000CB03C01A5241830B8B4201D38B03C01A79
:105560005241430B8B4201D34B03C01A5241030BF0
:105570008B4201D30B03C01A5241C30A8B4201D3A1
:10558000CB02C01A5241830A8B4201D38B02C01A4C
:105590005241430A8B4201D34B02C01A5241030AC3
:1055A0008B4201D30B02C01A5241CDD2C3098B42A8
:1055B00001D3CB01C01A524183098B4201D38B0125
:1055C000C01A524143098B4201D34B01C01A5241C8
:1055D00003098B4201D30B01C01A5241C3088B420D
:1055E00001D3CB00C01A524183088B4201D38B00F8
:1055F000C01A524143088B4201D34B00C01A52419A
:10560000411A00D201465241104670475DE0CA0F70
:1056100000D04942031000D34042534000229C4630
:1056200003098B422DD3030A8B4212D3FC2289013A
:1056300012BA030A8B420CD3890192118B4208D310
:10564000890192118B4204D389013AD0921100E072
:105650008909C3098B4201D3CB01C01A5241830986
:105660008B4201D38B01C01A524143098B4201D3B3
:105670004B01C01A524103098B4201D30B01C01ADE
:105680005241C3088B4201D3CB00C01A5241830858
:105690008B4201D38B00C01A5241D9D243088B42AE
:1056A00001D34B00C01A5241411A00D20146634651
:1056B00052415B10104601D34042002B00D54942B5
:1056C000704763465B1000D3404201B5002000F0F4
:1056D00005F802BD0029F8D016E770477047C046AC
:1056E000002B11D1002A0FD1002900D1002802D0AF
:1056F0000021C943081C07B4024802A140180290C7
:1057000003BDC046D9FFFFFF03B4684601B5029848
:1057100000F058F8019B9E4602B00CBC7047C04692
:10572000F0B5CE46474615042D0C2E0080B5070473
:10573000140C3F0C9946030C7E435D43674363435F
:105740007F19340CE4199C46A54203D980235B02DF
:105750009846C4444B46514343433604360C250C0B
:1057600024046544A4195918491920000CBC90461A
:105770009946F0BD10B50023002802D001F00EFDBF
:10578000431C180010BDC04670B500220C4B04002D
:105790000D0001F0CFFC002804D12000290001F009
:1057A0000BFB70BD064B00222000290000F0EEFF2D
:1057B00001F002FB80231B069C466044F1E7C046D3
:1057C0000000E041F0B557464E464546DE46E0B59E
:1057D000040083B00D00924699468B422FD82CD0FE
:1057E0004946504601F0CEFC29000600200001F099
:1057F000C9FC331A9846203B9B4600D574E05346BB
:105800005A4693401F005346424693401E00AF4203
:1058100029D826D05B46A41BBD41002B00DA79E0D5
:10582000002200230092019301235A4693400193E2
:10583000012342469340009319E08242D0D90022CE
:105840000023009201930C9B002B01D01C605D6033
:105850000098019903B03CBC90469946A246AB46DD
:10586000F0BDA342D6D90022002300920193434603
:10587000002BE8D0FB0772081A4346467B080EE06F
:10588000AB4201D1A2420CD8A41A9D410120241997
:105890006D410021013E24184D41002E06D0AB423F
:1058A000EED9013E24196D41002EF8D15B460098D7
:1058B000019900196941002B22DB2B005A46D34085
:1058C0002A004446E2401C005B461500002B2CDBFE
:1058D00026009E40330026004746BE403200801A14
:1058E000994100900191AEE7424620239B1A52460F
:1058F000DA40414613004A468A4017001F4382E7B8
:10590000424620239B1A2A0046469A402300F34031
:105910001343D5E74246202300219B1A0022009121
:1059200001920122DA40019282E7424620232600BA
:105930009B1ADE402F00B446974066463B00334337
:10594000C9E7C046F8B557464E464546DE46E0B57F
:105950004702460088467F0A360EC40F002E47D005
:10596000FF2E24D0FB008027FF041F43002399460D
:105970009A467F3E43465D025800DB0F6D0A000EDB
:10598000984643D0FF283BD0EB0080250022ED0451
:105990001D437F383618731C41469B464B46614079
:1059A00013430F2B64D875489B00C3589F46002FA4
:1059B00042D108239946063BFF269A46DAE741463C
:1059C000022A28D0032A00D1CEE0012A00D0ACE080
:1059D000114000200022CCB24002D205400AE40768
:1059E000104320433CBC90469946A246AB46F8BDC6
:1059F000002F15D104239946033B00269A46B9E7A8
:105A0000FF200222002DC5D00322C3E7002D19D1AB
:105A100000200122BEE70124FF220C400020DBE72A
:105A2000380001F091FB7626431F9F400023764209
:105A3000361A99469A469DE70C239946093BFF265C
:105A40009A4697E7280001F07FFB431F9D4076238D
:105A50005B42181A00229DE780200024C003FF2229
:105A6000BAE73D005246ABE73D0021005246A7E7AA
:105A70003B0C9C462A04120C2B0C14006046654615
:105A80003F043F0C7C4342435D437B43270C9B1800
:105A9000FF18BA4203D980235B029C466544240464
:105AA0003A04240C121993015C1EA3413F0C920E80
:105AB0007D191A43AD0115432B0104D501235E4620
:105AC0006A081D40154332007F32002A25DD6B072E
:105AD00004D00F232B40042B00D004352B0103D519
