S02800005053555F4554485F436F6E74726F6C6C65725F7332315F6173796E635F7365722E73726563E6
S214000000E03800200901000005010000050100009D
S21400001000000000000000000000000000000000DB
S21400002000000000000000000000000005010000C5
S21400003000000000000000000501000005010000AF
S214000040050100000501000005010000AD0F0000DD
S214000050910D0000050100000501000005010000EB
S2140000600501000005010000050100001114000054
S2140000700501000005010000050100000501000063
S2140000800501000005010000050100003D1B000001
S214000090511B0000050100000501000005010000DD
S2140000A00501000010B5064C2378002B07D1054B40
S2140000B0002B02D0044800E000BF0123237010BDCF
S2140000C0300A002000000000485D0100084B10B513
S2140000D0002B03D00749084800E000BF0748036824
S2140000E0002B00D110BD064B002BFBD09847F9E73C
S2140000F000000000340A0020485D0100485D010051
S21400010000000000FEE7000010B5124A124B9A42AB
S21400011009D0114B0F4A03E011681960043304320A
S2140001200E498B42F8D30E4B02E000221A600433CD
S2140001300C4A9342F9D30C4AFF210C4B8B43936035
S2140001400B4A516880230B4353600A4B98470A4B6F
S2140001509847FEE7485D010000000020300A0020B6
S214000160300A0020E018002000ED00E0000000004B
S21400017000400041C1870000595A0000EFF3108389
S214000180036072B6BFF35F8F7047BFF35F8F03687D
S21400019083F310887047000010B5044B1C68044BAE
S2140001A0984701002000034B984710BD4C0A0020DA
S2140001B0410C0000750C000010B5044B1C68044B85
S2140001C0984701002000034B984710BD4C0A0020BA
S2140001D0590C0000750C000070B50125002407E0DE
S2140001E00D4AB358002B00D0984770BD013AD5B2DF
S2140001F0AC42FAD82B195B10DAB2002AF5D1FF21EF
S2140002000B40DE000449891949688142E8D0EDD2E6
S2140002100132D4B2ECE7C046500A002010B50023E5
S214000220002B03D00748084B984710BD074AD90053
S21400023050180124644244600020885001339BB269
S214000240EEE7C046D9010000B50C0000500A0020B9
S214000250F0B5C64600B584B001900023002B10D040
S2140002600023984600291BD04346002B46D1002B7E
S21400027024D1DA002A4C1259002A18D00133DBB2F6
S214000280F5E7DC00264A121952680198824202D02D
S2140002900133DBB2E2E7224BE15001239846E1E767
S2140002A04346002B35D001981E4B98472DE0DD00C5
S2140002B029516519019A6A6001229046002201E0E0
S2140002C00132D2B21900114318D11549DC000C19BD
S2140002D06768D400091949688F42F1D24C1CEFD0E8
S2140002E002A98C460E4FD1007918644641C941C414
S2140002F0DD007D19614611C911C5E1E74346002BB3
S2140003000AD001210198074B984704B004BC9046D8
S214000310F0BD0D204042F8E70D204042F5E7C0460C
S214000320500A0020450D000010B584B01438848BA8
S21400033001AB1C8014000292064A5A8003911900F1
S214000340054B9847002802D1200004B010BD0400D9
S214000350FAE7C0460080FFFF4915000010B584B0DC
S2140003601438848B01AB1C8014000292064A5A8013
S21400037003911900054B9847002802D1200004B0CD
S21400038010BD0400FAE7C0460180FFFF49150000D3
S21400039070B504000D00431E9841C0B25E220749A6
S2140003A0074B984729002000064B9847002803D1A2
S2140003B0054BA361054B636170BDC0463026010046
S2140003C0A10A0000251400005D03000029030000B8
S2140003D010B5014B984710BDD11400008905890D52
S2140003E08023DB001A400A438283100070471430D3
S2140003F0086000207047000070B504000D0016006D
S21400040000280ED000290AD0012034220649074BC6
S21400041098472368320029002000984770BD0020C6
S214000420F3E70020F1E7C0464C260100A10A0000D1
S21400043070B504000D00160000280ED000290AD062
S21400044001203D220649074B984763683200290081
S2140004502000984770BD0020F3E70020F1E7C04673
S2140004604C260100A10A000070B504000D0000280B
S21400047017D0002913D0012040220B490B4B984778
S2140004806560201D29000A4B9847002806DB094BAB
S214000490A382094B2361094BE360002070BD002056
S2140004A0EAE70020E8E7C04660260100A10A00004F
S2140004B0651700000080FFFF6D0500003105000095
S2140004C010B50400431E9841C0B257220349044B9E
S2140004D09847201D034B984710BDC0466026010074
S2140004E0A10A00002119000030B587B004000D00F5
S2140004F0002815D0002911D00120B32209490A4B43
S21400050098472B6803936B680493AB680193059335
S214000510201D03A9054B984707B030BD0020ECE727
S2140005200020EAE760260100A10A00005919000031
S21400053070B584B004000E001500431E9841C0B28A
S214000540A3220749074B984720000C380023029344
S2140005500196039501A9044B984704B070BDC046A8
S21400056060260100A10A0000E904000070B584B00E
S21400057004000E001500431E9841C0B287220749AA
S214000580074B984720000C380296002301930395EA
S21400059001A9044B984704B070BDC0466026010010
S2140005A0A10A0000E904000070B504000D00002850
S2140005B00CD0002908D00120BD220549054B9847DC
S2140005C00C342C60002070BD0020F5E70020F3E717
S2140005D060260100A10A0000F8B50668002E02D0C9
S2140005E0330000250CE0104B984718E09F68BC4687
S2140005F06444A41A01348F68BC420BD21D001B68E9
S214000600002B07D05C689442F0D8A41A9F68BC46BA
S2140006106444F0E7B34203D02800044B9847F8BD83
S214000620014B9847FBE7C046C10A0000ED0A0000F0
S214000630F8B50500446903695E1C0661037EDB07A6
S21400064002D4037E9B070AD52B7E02221343DBB21D
S2140006502B76F8BD6F69E368200098473C00002CB5
S214000660F7D06368F31AA2689342F2D32F001437C8
S2140006703800064B9847237C012BEBD1666032008E
S21400068021003800024B9847E4E7C046F50A000010
S214000690D905000070B504000D00002812D000290E
S2140006A00ED001203B220849084B9847290020001D
S2140006B0074B984700232361064B2360002070BD3C
S2140006C00020EFE70020EDE77C260100A10A0000ED
S2140006D0E10E00003106000010B50400431E9841EC
S2140006E0C0B253220749084B98472000074B98474B
S2140006F0002804D12000064B9847002010BD11208A
S2140007004042FBE77C260100A10A0000950F00008E
S2140007103D0F000070B582B004000D00002826D002
S214000720002922D001207A221F49204B9847237E99
S21400073001221343DBB2237626001436290030004C
S2140007401B4B9847002814D123696B602269290047
S2140007503000184B9847237E012293432376237E4E
S2140007609B0712D4002002B070BD0020DBE70020FB
S214000770D9E7237E0122934323767E320A4900205E
S2140007800A4B984712204042EDE701A80A4B9847CB
S214000790237E0222934323762000084B984701A825
S2140007A0074B98470020DEE77C260100A10A0000E0
S2140007B0A90A0000D90500007D010000A70F00006F
S2140007C08B01000010B5083800230363436A002B32
S2140007D000D0984710BD10B5083800230363C36ADD
S2140007E0002B00D0984710BD10B504002C30044BE9
S2140007F09847236A083C002B01D02000984710BD7C
S214000800A10B000070B504000E00150000281DD0D6
S21400081000291DD0002A1DD100203C22FF3210499D
S214000820104B98474423E25A0833E35A9A4213D1AE
S214000830A6644C23E5520022083BE252433B236366
S21400084020000830084B9847280070BD0020E4E7D9
S2140008500020E2E70120E0E71C204042F5E7C04622
S21400086094260100A10A00009F13000070B5040042
S2140008700200083A4423D35A4C21525A93420DD0D0
S2140008800200016C083A5D1C44201552C95C200029
S214000890044B98472000044B984770BD034B98477D
S2140008A0FBE7C046971300009F130000A713000045
S2140008B0F0B585B004000D001600002817D00029FA
S2140008C017D0002A17D10020AC2252001249134B31
S2140008D0984703A8124B9847343420000194114BD4
S2140008E09847070003A8104B984700240BE0002009
S2140008F0EAE70020E8E70120E6E70134A4B2691839
S21400090001980A4B98472100A74201D9B442F4D374
S214000910200005B0F0BDC04694260100A10A0000E4
S2140009207D010000E10B00008B010000550B00006C
S214000930F8B504000D0016001F00002826D0002978
S21400094026D0002A26D0002B26D100203A22154990
S214000950154B9847200034303A003100134B984727
S21400096000281BD1200008302900114B984700288A
S2140009700BD1104B6360104B2360104BA360104BE1
S214000980E360104B2361104B6361F8BD0020DDE788
S2140009900020DBE70020D9E70120D7E70D20404202
S2140009A0F3E7C04694260100A10A0000090B0000E8
S2140009B0F9120000B1080000050800006D080000EC
S2140009C0E9070000C5070000D707000010B50400BF
S2140009D0431E9841C0B261220449054B9847200047
S2140009E00830044B9847002010BDC04694260100EE
S2140009F0A10A00008513000070B504000D00002851
S214000A000BD0002907D0012077220549054B9847CF
S214000A102C60002070BD0020F6E70020F4E7C046FA
S214000A2094260100A10A000070B505000E0014000F
S214000A30431E9841C0B283221649174B9847012E91
S214000A4011D0002E04D0022E18D00D20404209E00E
S214000A50AC62621E9441E2B22800083001210F4BBE
S214000A609847002070BD6C62621E9441E2B2280076
S214000A7008300221094B98470020F3E7EC62621E1B
S214000A809441E2B2280008300321044B9847002026
S214000A90E8E7C04694260100A10A0000B113000052
S214000AA0002800D100BE70470368002B03D08B429D
S214000AB003D01B68F9E7002070470120FCE7000020
S214000AC070B504000D00064B984701235840C0B28D
S214000AD039220449044B984723682B60256070BD73
S214000AE0A90A0000B4260100A10A000003680B60F2
S214000AF0016070470368002B03D01A680260180074
S214000B0070470020FCE7000070B504000E001500DA
S214000B10002812D0002912D0002A12D10020282244
S214000B200A490B4B98476B1E2B420CD1636000237F
S214000B30A360E3602660002070BD0020EFE7002081
S214000B40EDE70120EBE70D204042F5E7D426010053
S214000B50A10A000070B504000D00002816D0002978
S214000B6012D0012040220C490C4B9847A368E2683B
S214000B709A420DD0626813402268D35C2B70A3683B
S214000B800133A360002070BD0020EBE70020E9E7FA
S214000B900A204042F7E7C046D4260100A10A00001A
S214000BA070B504000D00431E9841C0B251220A4998
S214000BB00A4B98476368E26813402268D554E36896
S214000BC0A2689A1A61688A4201D9591AA16001334B
S214000BD0E360002070BDC046D4260100A10A0000D4
S214000BE010B50400431E9841C0B267220349044B67
S214000BF09847E068A368C01A10BDC046D426010016
S214000C00A10A00000300064A1268002A04D0044A1B
S214000C101068C318136070470249014A1160F6E76E
S214000C20580A0020E0380020012040427047802308
S214000C309B014B60002070470120704700207047E2
S214000C4010B503011B1A58011D301E21014B984791
S214000C5010BDC0466D63000010B503011B1A580195
S214000C6002300321024B98476423584310BDC04608
S214000C706D6300000139FDD87047000010B5084AC2
S214000C80536806210B435360064B9847064B98471C
S214000C900820064CA047064B9847F720A04710BDF3
S214000CA000400041A50E0000411A0000490E000059
S214000CB08D1A0000204B5B78DB09FBD11E4B5B785E
S214000CC0DB09FBD11C4B1B789B070AD500221A4B6D
S214000CD01A70194B5B78DB09FBD1174B5B78DB0985
S214000CE0FBD10122144B1A70134B5B78DB09FBD146
S214000CF0114B5B78DB09FBD10F4B00229A705A60D0
S214000D005A619A61DA611A7802210A43D2B21A70DD
S214000D10094B5B78DB09FBD1084B102280215A5027
S214000D20BFF34F8FBFF36F8F0131FF315A501A60F8
S214000D30034B1860002070470018004000E100E0F8
S214000D405C0A00200023002B0BD0FF22FF2A17D0BE
S214000D5000290FD1012393400B4A936013610020B2
S214000D607047282802D00133DBB2ECE7DA00074BE5
S214000D70D25CEBE701239340034AD3600020EFE701
S214000D800D204042ECE7C046001800401027010046
S214000D9070B582B0264B1A69D9680A400192019A4A
S214000DA01A61244B1868431E9841C0B2D2222249C9
S214000DB0224B984701256D422EE00139CEB2B04253
S214000DC00ED832185210D1B2FF231340DB001C4A53
S214000DD09B5CA34203D0F0DA0131C8B2EFE72825C6
S214000DE06B1C03D0134B1B68280098470122A240B7
S214000DF0019B934301930198124B9847013844B2E4
S214000E00631C02D001260020D9E7094B1A69D9686D
S214000E100A400192019A1A61019B002B05D00198A5
S214000E20084B9847013844B2EAE702B070BDC046A6
S214000E30001800405C0A0020F8260100A10A000005
S214000E4010270100ED660000C30709D5114B80226C
S214000E5052009A60104A5A600E4B5B78DB09FBD151
S214000E60830709D50B4B0222FF329A600B4A5A6061
S214000E70084B5B78DB09FBD1030709D5054B042239
S214000E80FF329A60064A5A60024B5B78DB09FBD158
S214000E907047C046000C0040000701000106010034
S214000EA003030100064B1A7AD2B21A725A7AD2B2E9
S214000EB05A729A7AD2B29A72DA7AD2B2DA727047E2
S214000EC00004004010B50400C3681B7ADB0706D593
S214000ED00368002B00D09847E36801221A7210BD01
S214000EE070B504000D00431E9841C0B23022104970
S214000EF0104B9847E56001232B80AB7ADB09FCD1C9
S214000F00E268937ADB09FCD180331380937ADB099D
S214000F10FCD1E26893690A239361937ADB09FCD1DA
S214000F200133E268D371044B1C60002070BDC046DC
S214000F3018270100A10A0000600A002010B5041E50
S214000F4020D0C368002B1BD0012067220E490F4B10
S214000F50984708220E4B1A60E26813690023136153
S214000F60937ADB09FCD1E268937ADB09FCD113881B
S214000F7002210B439BB21380937ADB09FCD110BD90
S214000F800020E2E70020E0E718270100A10A0000A1
S214000F9000E100E0C268937ADB09FCD113885B08A5
S214000FA001201840704770470020704710B5024B6C
S214000FB01868024B984710BD600A0020C50E000056
S214000FC0024B9C466044800AC0B2704700F8FFBDE2
S214000FD010B583699A7BD20702D55A7BD2070ED406
S214000FE09A7B920702D55A7B92070DD49A7B5207BA
S214000FF004D51A8A52070CD0084A1A8210BD01225C
S2140010001A7303689847F9E702221A7383689847A9
S214001010F4E74268198BC9B29047EFE70780FFFFF5
S21400102010B5024B98470730C0B210BDC10F000084
S214001030034B984200D07047024B1960FBE7C0464E
S21400104000180042640A0020038ADB0B08D10368FC
S214001050022213430360038ADB0BFCD10020704797
S21400106004204042FBE7000010B50A4B98470300F7
S2140010700020002806D0084A08490020084B984758
S214001080002010BD02010749525C9342F9D001309E
S214001090C0B2EEE7C10F00004E020000302701008C
S2140010A0A10A00006427010010B50400194B9847F8
S2140010B0238ADB0BFCD1238ADB0BFCD123689B073E
S2140010C007D500232360238ADB0BFCD1238ADB0BA6
S2140010D0FCD101232360238ADB0BFCD1238ADB0BA4
S2140010E0FCD102010C4B9B185B682360238ADB0B48
S2140010F0FCD10201084B9B189B686360238ADB0BBC
S214001100FCD10001044B181883896381837B23720A
S214001110002010BD691000006427010010B50B4BBD
S214001120984702000020002806D0094A09490020F6
S214001130094B9847002010BD43001B18D900074BE9
S214001140CB5C9A42F7D00130C0B2ECE7C10F00008A
S2140011508A03000030270100A10A00004C27010086
S21400116070B505000469431E9841C0B25C4A5D49EB
S2140011705D4B984763685D4A13406360238ADB0BC8
S214001180FCD12A8852006B8801210B401343DBB246
S2140011902375238ADB0BFCD12E69554AB37BDBB261
S2140011A01800511E002A02D00A009B07F6D0238A98
S2140011B0DB0BFCD1238A9BB2C20750D59A0710D509
S2140011C00122A2736A88802149010A436A806A88DC
S2140011D048490A406A80DB0700D47CE0052040428C
S2140011E063E05B070BD4686800282DD16B881BB2C0
S2140011F0002B20DB6B883F4A13406B8055E06B6802
S214001200002B04DD6B888022520113436B806B88B1
S2140012101BB2002B06DB6B88364A13406B8002201D
S214001220404242E06268C0239B0213436360238A05
S214001230DB0BFCD1EFE76268C0239B0213436360BD
S214001240238ADB0BFCD1D5E7AB681B782376AB682B
S2140012500133AB606B68013B6B60002025E08207C2
S2140012603CD56A68002A31D05B072FD4013A6A6001
S214001270002A07D162688023DB0213436360238A57
S214001280DB0BFCD16B68002B07D16B881BB2002BE5
S2140012900CDB6B88174A13406B80AB685A1CAA603D
S2140012A0227E1A700223A373002070BD6368114A61
S2140012B013406360238ADB0BFCD16268C0239B0269
S2140012C013436360238ADB0BFCD1E2E70223A3739C
S2140012D002204042E9E704204042E6E70020E4E737
S2140012E0A905000030270100A10A0000FFFFFBFF50
S2140012F0FFFF0000FFFEFFFF70B506000C00431E58
S2140013009841C0B2B1221949194B98472000194B91
S2140013109847051E01D0280070BDB461310020003A
S214001320154B98472000154B984743B2002B0ADB15
S2140013301F21014001228A408021114C6250BFF3D8
S2140013404F8FBFF36F8F002B07DB1F210140012259
S2140013508A40C02149000A4C6250002BDBDB1F2369
S21400136018401E3B8340064A1360D4E7302701002E
S214001370A10A0000A9100000311000002110000092
S21400138000E100E08269136802210B431360138AB0
S214001390DB0BFCD17047836989B219837047836978
S2140013A001225A737047836902225A7370470000FD
S2140013B070B504000D001600431E9841C0B284228A
S2140013C092001149114B9847002D09D0022D07D0E5
S2140013D0012D0FD1A369002E13D004225A7309E001
S2140013E0A369002E07D101221A73A369002E05D126
S2140013F002221A7370BD01225A73F6E702225A734C
S214001400F8E704221A73F5E730270100A10A000066
S21400141010B5024B1868024B984710BD640A0020AE
S214001420D10F000070B506000C000800234B98474B
S21400143005003000431E9841C0B2214A2149224B84
S21400144098473461238ADB0BFCD1238ADB0BFCD163
S21400145023689B0707D500232360238ADB0BFCD178
S214001460238ADB0BFCD101232360238ADB0BFCD110
S214001470238ADB0BFCD16B005B19DA00134B9B183D
S2140014805B68022293432360238ADB0BFCD16B004C
S2140014905B19DA000D4B9B189B686360238ADB0B95
S2140014A0FCD10A4A6B005819C100080051188989F6
S2140014B061811218138AF381002070BD1D1100008F
S2140014C0FF04000030270100A10A00004C2701009D
S2140014D0F8B506000469184D431E9841C0B2A6220E
S2140014E0D2002900154FB8473069431E9841C0B254
S2140014F0134A2900B8472368022213432360238A2D
S214001500DB0BFCD104200F49238ADB0BFCD1228A9B
S214001510120903331340012B08D001390029F3DCEC
S2140015200138002804D010232382ECE70020F8BD01
S21400153006204042FBE7C04630270100A10A000013
S21400154031050000FFFF0000F8B505000E00046935
S214001550431E9841C0B27B4A7B497C4FB8472869F6
S214001560431E9841C0B27A4A7749B8473000431EB6
S2140015709841C0B2774A7449B8476B88DB0500D5F6
S214001580DCE0728880235B009C461A4372802A0047
S214001590310089C989C26268634613436360238A3F
S2140015A0DB0BFCD128006C4B9847002800D17DE06F
S2140015B06B886A4A13406B80F8BD0520404286E07F
S2140015C073881BB2002B04DB6B88644A13406B8065
S2140015D0F2E76268C0239B0213436360238ADB0B37
S2140015E0FCD1F1E75B070BD4686800282DD16B8827
S2140015F01BB2002B20DB6B88584A13406B8055E0EB
S2140016006B68002B04DD6B888022520113436B80CD
S2140016106B881BB2002B06DB6B88504A13406B802E
S2140016200220404242E06268C0239B02134363608C
S214001630238ADB0BFCD1EFE76268C0239B021343CF
S2140016406360238ADB0BFCD1D5E7AB681B78237677
S214001650AB680133AB606B68013B6B60002025E034
S2140016608A0769D56A68002A5ED05B075CD4013AAF
S2140016706A60002A07D162688023DB021343636036
S214001680238ADB0BFCD16B68002B07D16B881BB25F
S214001690002B39DB6B88314A13406B80AB685A1CD1
S2140016A0AA60227E1A700223A37300206B88DB05D3
S2140016B000D481E72F692A4ABB7BDBB21900501E93
S2140016C0002A00D179E702009B07F5D00020002809
S2140016D000D075E7238ADB0BFCD1238A9BB2CA07AE
S2140016E0BED59A0700D47DE70122A2736A888021BE
S2140016F049010A436A806A8818490A406A80DB07FB
S21400170017D505204042D1E76368144A134063604A
S214001710238ADB0BFCD16268C0239B021343636001
S214001720238ADB0BFCD1B5E70223A37302204042D9
S214001730BCE704204042B9E70020B7E70620404255
S2140017403AE7C046C305000030270100A10A0000A2
S214001750C4050000C505000061110000FFFEFFFF84
S214001760FFFF000070B506000C000800624B9847AB
S2140017700023012B0BD81901604A5218D27B9042E5
S21400178002D00133DBB2F4E75C4B5D1800E00025C5
S214001790002E00D16AE0002C00D165E00120584AF6
S2140017A05849594B9847002D00D1A2E0238ADB0BFD
S2140017B0FCD1238ADB0BFCD123689B0707D50023CB
S2140017C02360238ADB0BFCD1238ADB0BFCD10123AD
S2140017D02360238ADB0BFCD1238ADB0BFCD134602D
S2140017E02B786A7812021A43AB781B041A43EB78FC
S2140017F01B0613431C221340082B39D0002C00D1A3
S21400180073E0002D00D16EE00120404A3D493E4B7A
S21400181098472B786A7812021A43AB781B041A434F
S214001820EB781B0613433A4A13402360238ADB0BEC
S214001830FCD12B796A7912021A43AB791B041A433E
S214001840EB791B061343334A13408022920213435C
S21400185063602B7BA3726B7B23722B795B0746D16D
S21400186001233371002070BD002098E7002096E722
S214001870002C36D0002D32D00120274A2149224B99
S21400188098472B786A7812021A43AB781B041A43DF
S214001890EB781B0613431E4A13402360238ADB0B98
S2140018A0FCD12B796A7912021A43AB791B041A43CE
S2140018B0EB791B061343194A134363602B7A6A7A43
S2140018C012021A43AB7A1B041A43EB7A1B06134325
S2140018D063616B7B2372238ADB0BFCD1BDE70020A0
S2140018E0CBE70020C9E700208FE700208DE7022322
S2140018F0B7E70D204042B6E7C10F0000742701008D
S214001900CB08000030270100A10A00009A0800005A
S214001910FCFEFFFFBF3FFDFFAB08000040000200DB
S21400192010B5041E0DD00368002B08D00120064A0F
S2140019300649074B98472068064B984710BD00207D
S214001940F5E70020F3E7C046320900003027010023
S214001950A10A00004910000070B588B00D000468A8
S2140019600B6803934B68049300230593069306794C
S214001970002814D0002C10D001202D4A2D492E4BC3
S2140019809847238ADB0B4FD1238ADB0BFCD12368D5
S2140019909B0718D41420404244E00020EDE70020C6
S2140019A0EBE7002226E05878000201430233039357
S2140019B00132059289B221830598AB68984202D31A
S2140019C0069A934229D9A37BDBB25A07E9D5228B24
S2140019D092B20499002908D0481C04900A70012E7F
S2140019E003D9881C0490120A4A70069A01920132A2
S2140019F006920122002ADFD10699059A9142DBD38E
S214001A00DB07D9D5039B002B05D0591C0391197809
S214001A10012EC8D8CCE70949CAE7A37B9B07FCD0B0
S214001A200323A37308B070BD04204042FAE7C04603
S214001A30290A000030270100A10A0000FF0100006B
S214001A400F4B196A090C1A6A920F920709040D487F
S214001A5001400A430C490A431A629A6902210A4362
S214001A609A611A7F1D310A401A77054BDB681B07FF
S214001A70FBD5034A136A80210B4313627047C046A6
S214001A80000800400000FF0F0203000002221B4B6C
S214001A909A841A4BDB68DB06FBD5194A174BDA62C9
S214001AA0184B1B689B0E3F2B20D09B028022920077
S214001AB01343124A936202239384938C5B0718D5D0
S214001AC00E4BDA68D0231340D02BF9D10B4A938CF7
S214001AD080210B439BB293840B4B5B78DB09FBD1D5
S214001AE0064A936902218B4393617047FC23DB010E
S214001AF0DFE7024BDB68DB06FBD5E7E700080040C4
S214001B000000010424608000000C004070B5050051
S214001B100469A37BDB0705D50123A3730368002BA9
S214001B2000D09847637B9B0706D50223A3736B6898
S214001B30002B01D02800984770BD000010B5024B5E
S214001B401868024B984710BD680A00200D1B00005D
S214001B5010B5024B1868024B984710BD6C0A00205F
S214001B600D1B0000704700000022014B1A707047E2
S214001B709E0A00200122014B1A707047980A002026
S214001B8080221204C023DB05DA61704770B5134A61
S214001B90936920210B439361114A124B5A80124BD2
S214001BA098470200114C12492000124B98471249E0
S214001BB0802212018A60114BCB6001230B74104DFA
S214001BC0AA60104AEA602B7420000F4EB047290026
S214001BD02000B04720000D4B984770BD0004004021
S214001BE002430000000C0040A90F0000F00E002089
S214001BF00014004095060000700A0020751B0000C7
S214001C00840A0020811B000015070000D90600008A
S214001C1030B5A1B0802269462148224B984700285B
S214001C203CDD00230BE0204A1278D2B200211F4C84
S214001C30A15401241E4A14701E4A117001338342B7
S214001C402CDA6A46D25C1B490978002909D10D2A8C
S214001C5007D00A2A05D0012416490C700024124920
S214001C600C70144909780029E8D00D2ADBD00A2A1E
S214001C70D9D00D490978C9B27E2908D80A4D2978E5
S214001C80C9B24C1CE4B22C70084C6254D6E7002152
S214001C90084A11700131084A1170CFE721B030BDF3
S214001CA0A00E0020310400009C0A0020E40D002055
S214001CB09B0A00209D0A00209A0A002070B5C024C6
S214001CC0E4058025AD04A561014B9847656170BDAC
S214001CD0B901000010B50220034B9847034A137859
S214001CE00133DBB2137010BDBD1C0000990A002042
S214001CF0F0B5DE4657464E464546E0B5C022D2050C
S214001D0080239B0353619360904B8021C9059962A1
S214001D108F4999625524185D012188431855802003
S214001D2080023F3410510C3C1051A8208024E4055A
S214001D301C50884C1C50D1255C5D8C435C5580241F
S214001D40A14694619460844C9C62C0273F069F62C3
S214001D508A3D5C5D8C435C558024640054619460CD
S214001D607E4C9C629F6201355C5D8C435C55802492
S214001D70A400A44654619460794C9C629F6201352D
S214001D805C5D8C435C558024E400A24654619460FC
S214001D90744C9C629F6201355C5D8C435C5580246C
S214001DA024015460704C9C62704C9C624B24A0468C
S214001DB01C5DA34604245D46A543AB4645465E46E9
S214001DC05E555D5D8D43AB4645465E465E55802559
S214001DD02D0295619560664D9D629F624F25AB46CC
S214001DE05D5D8D43A8465D4646465E5580252D04BE
S214001DF0556195608025ED059D625E4D9D62572577
S214001E00AB465D5D8D43A8465D4646465E5541350C
S214001E1066465651103D5651514D1D501F50C9250E
S214001E205F5D8F435F5584275546D551524D1D50F3
S214001E304E4D1D50CA25AC465D5DA543A846654679
S214001E4046465E555D5D8D43A846654646465E55EC
S214001E5080252D01D551444D1D50444D1D50CB2598
S214001E60AC465D5DA543A846654646465E555D5D47
S214001E708D43A846654646465E558025ED0355616A
S214001E8095608025ED059D623C4D9D625625A846D1
S214001E905D5D8D43AC46454666465E5580256D04C1
S214001EA0556195608025ED059D62354D9D625825EE
S214001EB0A8465D5D8D43AC46454666465E55802524
S214001EC0AD04556195608025ED059D622D4E9E62A0
S214001ED059255E5D8E435E554026D6512A4E1E50CD
S214001EE0224D1D50C6269D5DA5439D559D5D8D4387
S214001EF09D55A63ED651254E1E501C4D1D50C5263E
S214001F009D5DA5439D559D5D8D439D55B53ED65122
S214001F101F4E1E50154D1D50C4269D5DA5439D5554
S214001F209D5D8D439D554D46D5511A4A1A500F4A10
S214001F301A50C722985CA0439854985C88439854DB
S214001F403CBC90469946A246AB46F0BD00440041D4
S214001F50200000C0020000C08000004000010040D9
S214001F60000200400004004000080240000002C0DA
S214001F7000800040800000C000040240400000C016
S214001F80000100C0000200C04000024020000240E5
S214001F90100002408000024010B5114A114B5A80D2
S214001FA0802149008423C022D205D1500E4BA8229E
S214001FB00E4999500E499950C8215A5C0420824314
S214001FC05A545A5C033882430243D2B25A541439E4
S214001FD05A5C0F2082435A54064B984710BDC046A1
S214001FE003410000000C0040004400410001024094
S214001FF0000002C01D020000F0B5DE4657464E4601
S214002000C0B53B4A136A04218A460B431362394A19
S214002010394B5A8039493A483A4B99469847C02531
S214002020ED0510236B61AB60374C384BA362C023C1
S2140020301B069B46A3624422A35C0127BB430126E2
S2140020403343DBB2A354123AA35C0F20834303212D
S2140020508C4661460B43DBB2A35420236B61AB6016
S2140020602B4BA3625B46A36245239B46E35CBB43C4
S2140020703343DBB259466354A35C36390B403021F8
S2140020808B4659460B43DBB2A35440236B60214B6F
S214002090A362214BA3624623E25C51468A43E25484
S2140020A0E25CBA433243D2B2E2543322A35C8343A7
S2140020B061460B43DBB2A35410491148C847174981
S2140020C00F48174B98470E48164B984780231B031C
S2140020D0AB61AB608023DB05A362134BA362532284
S2140020E0A35CBB43A3541CBC91469A46A346F0BDD2
S2140020F0000400400D400000000C004000080042B4
S214002100800E0020690400000044004110000040DA
S2140021102000004040000240000002C0E00D002009
S214002120A9050000C1040000080000C0002804D172
S2140021308022C023DB055A6170478022C023DB055E
S2140021409A61F9E710B50020014B984710BDC046CC
S2140021502D21000010B50120014B984710BDC04648
S2140021602D21000010B503000A0003490868190075
S214002170024B984710BDC046E00D00203104000019
S21400218010B503000A00034908681900024B984777
S21400219010BDC046E00D0020F903000010B582B067
S2140021A06B46DC1D00232370044B186801222100B7
S2140021B0034B9847207802B010BDC046E00D0020C3
S2140021C03104000000B583B06B46D91D0870034B80
S2140021D018680122024B984703B000BDE00D0020AE
S2140021E0F9030000F8B5D6464F4680B5334A136A61
S2140021F020210B431362324A324B5A80324933480D
S214002200334EB047C022D20580235B0253619360F1
S214002210304B8021C9058A4699622F499962502021
S214002220195C0124A1432143C9B219543821585CD2
S2140022300F25AC46A84303273843C0B25854802025
S21400224080025061906050469862244898625120FF
S2140022508246185CA0432043C0B255465855585C89
S214002260423D28403025AA4655462843C0B2585419
S2140022708021C90251601A4A9A621A4A9A62522208
S214002280995C042081439954995CA1432143C9B2C7
S214002290995439215A5C604682433A43D2B25A5422
S2140022A009490A48B04710490848104B984707485C
S2140022B00F4B98470CBC91469A46F8BD0004004068
S2140022C010400000000C004000140042680E002081
S2140022D06904000000440041010000C0020000C084
S2140022E000000240040002C0640E0020A9050000A1
S2140022F0C104000010B503000A000349086819006D
S214002300024B984710BDC046640E00203104000002
S21400231010B503000A00034908681900024B9847E5
S21400232010BDC046640E0020F9030000F8B51E4A32
S214002330136A10210B4313621C4B1D4A5A801D4A18
S2140023405A801D4C1D4920001D4B98471D4B4C20A4
S214002350195C042291431954195C0126B1430125E6
S2140023602943C9B219541638195C0F27B9430227F6
S2140023703943C9B219544D215F5C97435F545A5C88
S214002380B2432A43D2B25A541A5C3E390A4020213C
S2140023900A43D2B21A540C4920000C4B984720002E
S2140023A00B4B9847F8BDC04600040040000C0040A8
S2140023B00F4000000C4300000C0F002000100042ED
S2140023C091030000004400419C0E0020EF03000033
S2140023D0D103000070B50D00140001B28022120176
S2140023E00548064B9847A2B2054B18682900054BCE
S2140023F09847C043C00F70BD0C0F0020DD030000DF
S2140024009C0E0020F9030000014B1878C0B27047FC
S2140024109B0A002070B5144B1B78002B04D00022BA
S214002420114B1A70022070BD104B1B78002B01D187
S2140024300020F8E70E4C227801320E4D29000E4B94
S21400244098478022002128000C4B98470023074A13
S214002450137023700A4AD36313640A4A1370024A3D
S21400246013700120DFE7C0469A0A00209B0A00206E
S2140024709C0A0020E40D002055880000D988000042
S214002480A00E00209D0A0020F0B585B0264A136AEB
S21400249040210B431362254A254B5A80254C0023C6
S2140024A000938033244A25492000254DA847254B14
S2140024B0CC215A5C01208446824301273A43D2B29B
S2140024C05A54B622985C0F26B04302252843C0B261
S2140024D098541832995C604681433943C9B299547E
S2140024E0B7215A5CB2432A43D2B25A541649200046
S2140024F0164B9847164A01212000164DA847164A43
S21400250000212000A847154A02212000A8470122E2
S2140025100F2169440748124B98470028F7D1054811
S214002520104B984705B0F0BD000400401140000075
S214002530000C0040A00E0020E40D00200018004211
S2140025403109000000440041980E0020F9090000FF
S214002550691B0000290A0000111C0000D51C0000A1
S21400256031040000CD09000010B50A4B98470A4B0D
S21400257098470A4B98470A4B98470A4B98470A4B86
S21400258098470A4928200A4B98470A4B98470A4B0F
S214002590984710BD7D0C0000F11C0000F91F0000DC
S2140025A0E52100002D23000089240000651B0000A3
S2140025B0510200008D1B0000991F000010B504009A
S2140025C0144B9847C0B2002800D110BD0122124B10
S2140025D01A7082B2114B18682100114B9847114BA4
S2140025E00D4A1278002A02D0013B002BF8D10122B6
S2140025F0094B1A70094B186801320B49084B98476B
S214002600084B054A1278002ADFD0013B002BF8D190
S214002610DBE7C046B58D00009E0A0020980E00201D
S214002620F9030000A08601003C29010010B5140043
S2140026300122064B1A70A2B2054B1868054B984744
S214002640024B1B78002BFBD1200010BD9E0A0020F9
S214002650980E0020F903000000207047F0B5DE4613
S21400266057464E464546E0B587B005A8304B9B46D4
S2140026709847C025ED058026AC592E4B9A46A023D8
S214002680994653464A46985890239846EB584340F6
S2140026901C40444005A8284FB8472020044023008B
S2140026A05C1EA341019304A8D847AC59524649463C
S2140026B0525841466B5853401C40544004A8B847F3
S2140026C03440601E8441E0B24000019B0343019306
S2140026D003A8D847AC5952464946525841466B580B
S2140026E053401C40544003A8B84740200440631E93
S2140026F09C41E4B2A400019B1C4302A8D847A859F9
S21400270053464A469B584246AD585D4005405D409C
S21400271002A8B84710202840431E9841C0B2C00007
S214002720204307B03CBC90469946A246AB46F0BD57
S2140027307D010000004400418B010000024B187828
S21400274000221A707047C046980A002070B506002E
S21400275008282FD884000134E400651CFF351021BA
S2140027602800164B98472800154B98470028FAD1A2
S21400277080239B00E0181F21104B98470123B3408D
S214002780DB431BB20F490A881A400A800E490A88A2
S21400279013400B80720000210C4BD1520C4B0022D0
S2140027A09A55C0239B00E018054B98470028F8D19F
S2140027B0013070BD01204042FBE7C046D132000028
S2140027C06D320000A00A0020A20A0020AC0A0020F9
S2140027D0A40A0020F0B5CE46474680B585B0060070
S2140027E00D0091461F00082800D991E0012969D004
S2140027F0002900D18FE0042900D98CE07B0700D5A2
S2140028008CE0002F04D0012D69D0022D00D16CE0A1
S2140028103000454B9847B4000134E4000F233900DC
S214002820994349B22943C9B22000404B98474B46CA
S214002830002B08D13E4A1388994601339BB2138079
S2140028403C4A934260D08023DB00E0184B46190ACE
S214002850364B984698474B466A46D371D179A023A3
S214002860DB00E018C047651CFF3501212800C04783
S2140028702800314B98470028FAD10122B240D243B3
S21400288012B22E48038813401BB201210F40B740F6
S2140028903B4303802A490B881A400A8073000021B4
S2140028A0284A9952284B00229A55C0239B00E018CC
S2140028B0214B98470028F8D070B205B00CBC904663
S2140028C09946F0BD042203A9F02000011F4B98474B
S2140028D0039B002B00D091E703204042EDE7212325
S2140028E03B4295D106204042E7E7BB0602D57BB2C5
S2140028F0002B16DAFB0600D48AE77BB2002B00DA40
S21400290086E706204042D8E7114A094B1A809AE724
S21400291001204042D1E705204042CEE70620404253
S214002920CBE706204042C8E74D270000D132000022
S21400293000000020F0FF00006D320000A00A00201A
S214002940A20A0020AC0A0020A40A002031330000AE
S21400295000C0FFFF70B50600082829D8840001349F
S214002960E4002000174B98470F231840012822D177
S214002970C0239B00E5182800124B984713281DD14A
S2140029800134FF34022120000F4B984720000D4BE6
S21400299098470028FAD128000A4B9847142801D1F6
S2140029A0133870BD3000094B984704204042F8E7C2
S2140029B001204042F5E705204042F2E7032040426E
S2140029C0EFE7C0466D320000D13200004D27000010
S2140029D070B50600082836D884000134E4002000CC
S2140029E01D4B98470F23184001282FD1651CFF3533
S2140029F008212800194B98472800174B98470028AD
S214002A00FAD101221000B04015490B8883430B8091
S214002A10144B1B8833411A421BD1C0239B00E0187D
S214002A200D4B984700280CD080239B00E0180A4BDB
S214002A3098470307F1D530000B4B98470D204042CE
S214002A4008E0013006E00120404203E00520404255
S214002A5000E0002070BDC0466D320000D13200009C
S214002A60A20A0020A00A00204D270000F0B5C646A6
S214002A7000B582B0040001911700082800D980E054
S214002A80050083000133DB0098461800434B984747
S214002A900F231840012800D076E0002F00D176E002
S214002AA0C0239B004344009318003C4B98471728CC
S214002AB002D01C2800D06DE0394B1B882341DB0771
S214002AC018D58026B60046443000344B9847C306D7
S214002AD006D403071AD4002002B004BC9046F0BD0A
S214002AE0102130002F4B98470122A2402C490B881A
S214002AF093430B80F82040014044284B984780B20F
S214002B00800286B2B7420FD83E000DE02000264B6A
S214002B1098470D204042DFE72000234B98470720C8
S214002B204042D9E7BE4213D92000204B9847070001
S214002B3000981A4B9847172801D01C28ECD11C4B3C
S214002B401B882B41DB07EDD5BE42EBD90020C3E73F
S214002B50320001992000174B984745460135FF354E
S214002B60202128000F4B984728000C4B9847002838
S214002B70FAD10122A2400A490B8813430B80300089
S214002B80AAE701204042A7E705204042A4E70E201E
S214002B904042A1E7072040429EE7C0466D32000053
S214002BA0A20A0020D13200004D2700002934000080
S214002BB0A00A002001350000F0B5C64600B582B078
S214002BC0009001911400082864D806008700013799
S214002BD0FF003800344B98470F23184001285CD17B
S214002BE0002C5DD0F0235B01F8182F4B984780B27D
S214002BF0800283B298469C420FD8A0460DE000980B
S214002C002A4B98470720404240E00098274B9847B9
S214002C10072040423AE0002C24D1009D2800244B97
S214002C2098470400C0239B00F8181F4B98471728A6
S214002C300FD01C28E9D1002C14D128001D4B984732
S214002C400500F8235B01F818174B98478002854269
S214002C50D5D0194B1B883341DB07DCD5002CDAD1E5
S214002C60002013E0A04500D84446220001990098B1
S214002C70124B98470137FF3740213800104B9847D2
S214002C803800094B98470028FAD1200002B004BC4F
S214002C909046F0BD01204042F8E705204042F5E7A7
S214002CA00E204042F2E7C0466D3200004D2700007D
S214002CB09534000029340000A00A00207935000071
S214002CC0D1320000F0B5DE4600B584B00190039125
S214002CD093461C000AAB1F88082800D994E005001C
S214002CE083000133DE003000524B98470F23034029
S214002CF0023BDBB2022B00D989E05B46002B00D1F9
S214002D0088E023781B0262789B181B02A2789B1827
S214002D101B02E2789B18002B33D0002F04D1300022
S214002D20444B9847430778D5C0239B009C46B44441
S214002D306346029360463F4B9847422803D02228BA
S214002D4001D032286CD104222100C0231B01F018C8
S214002D50394B9847390A80235B01F018374CA04757
S214002D60F9B288235B01F018A047F8235B01F0183E
S214002D70304B984780B2800287B2BB450BD85F467F
S214002D8009E030002B4B98474307C6D40C2040423E
S214002D904BE0A74211D90198294B984704000298A6
S214002DA0244B984700283ED0264B1B882B41DB0738
S214002DB0EFD5A742EDD9002037E03A0003990198F5
S214002DC0214B9847741CFF34202120001B4B98474A
S214002DD02000184B98470028FAD180239B00F4184F
S214002DE02000144B9847C30608D40307F5D50821DE
S214002DF02000124B98470D20404216E0102120007C
S214002E000E4B9847380010E0012040420DE00520A8
S214002E1040420AE00E20404207E00B20404204E019
S214002E200720404201E00420404204B004BC934620
S214002E30F0BDC0466D320000B1330000D132000054
S214002E4029340000A00A002001350000F0B5DE4657
S214002E50474680B585B00500009190460193082846
S214002E6000D91BE1070083000133DE003000914BE0
S214002E70984783460F230340023BDBB2022B00D960
S214002E800FE14346002B00D10EE16B008A4A9B5AA5
S214002E90002B15D0002407235A461340032B00D1DD
S214002EA0BDE0042B00D181E0022B1ED021002800BB
S214002EB0824B98476B00804A9C5226E0002CEAD151
S214002EC028007F4B98470400C0239B00F018794BDE
S214002ED09847002800D1EAE07A4B1B883B41DB0785
S214002EE0ECD5002CEAD1002029E06B00724A9B5AF0
S214002EF0002B29D06B00704A9C5AA04500D244464D
S214002F00220000992800704B98470136FF36402172
S214002F1030006E4B98473000664B98470028FAD131
S214002F20654A69008B5A1B1B9BB28B52002B00D143
S214002F30B0E0674A535D01210B435355200005B0AE
S214002F400CBC90469B46F0BD082202A928005E4BAA
S214002F509847741CFF34402120005C4B98472000A3
S214002F60544B98470028FAD102AB1B78019A13708D
S214002F7002AB5B78537002AB9B78937002ABDB7846
S214002F80D37002AB1B791B0202AA52799B180C9ACB
S214002F90138002AB9B791B0202AAD2799B186A00A7
S214002FA045498B5280224A4B5A55A3E76B00424A4A
S214002FB09B5A002B0BD06B003F4A9C5AA04500D270
S214002FC044462200009928003F4B98479DE702227E
S214002FD002A928003C4B9847741CFF34402120006F
S214002FE03A4B98472000334B98470028FAD102AB5B
S214002FF01B781B0202AA52789B189BB2023B9BB21C
S2140030006A002D495352334A934203D88022304BEC
S2140030105A55D0E72800304B984730488FE76B006A
S214003020254A9B5A002B0BD06B00234A9C5AA0457E
S21400303000D24446220000992800234B984764E7B4
S214003040062202A92800204B9847741CFF34402112
S21400305020001E4B98472000164B98470028FAD1B0
S21400306002AB1B78019A137002AB5B78537002AB0D
S2140030709B78937002ABDB78D37002AB1B791B0294
S21400308002AA52799B186A000B498B528022104B79
S2140030905A55C9E700220E4B5A554FE701204042C9
S2140030A04DE7052040424AE70E20404247E704200D
S2140030B0404244E76D320000AC0A0020F1350000C3
S2140030C095340000A00A002079350000D1320000B7
S2140030D0A40A0020EA0500004D27000017FCFFFFA9
S2140030E0F8B504001500082800D9A4E00C2900D97A
S2140030F0A4E08900564B5B589F4680000130C00014
S214003100544B98470F23984328700120F8BD800041
S2140031100130C000B0235B019C4660444D4B98478D
S21400312028700120F2E780000130C000A8235B0170
S2140031309C466044474B984728700120E6E7840089
S2140031400134E40090235B01E018424FB84786B292
S2140031503602B6B298235B01E018B84780B236183C
S2140031602E800120D2E780000130C000C0231B0162
S2140031709C46604404222900374B98470120C5E747
S21400318084000134E40080235B01E018314FB84727
S21400319086B23602B6B288235B01E018B84780B222
S2140031A036182E800120B1E784000134E4002000A8
S2140031B0284B98470F231840012842D1BC239B0177
S2140031C0E018244B9847288001209FE7234B984718
S2140031D0288001209AE7224B98472880012095E70F
S2140031E080000130C000C0239B009C466044194B01
S2140031F098472870012089E780000130C000154BF1
S2140032009847C30705D46400164BE35A2B80012069
S2140032107CE72000124B98472880012076E7800044
S2140032200130C0000B4B984701280DD00E4B1B5D9C
S2140032302B7001206AE70120404267E702204042E7
S21400324064E70520404261E7052040425EE7C0464D
S214003250942701006D32000031330000293400004D
S21400326095340000AC0A0020A40A002030B583B0D4
S2140032700400164DEB6898476B6998476B6A002BFD
S21400328016D0124B9B6A002B12D0220C01A802709B
S214003290220A42708470032198470C4CE3699847D1
S2140032A00500A369984723699847280003B030BDF6
S2140032B0064D200CC0B22B6A9847200AC0B22B6A73
S2140032C098472B6AE0B29847E7E7C046040000201C
S2140032D070B582B004000E00144DEB6898476B6919
S2140032E0984704200443AB6A002B0FD0220C01A899
S2140032F00270220A42708470C670042198470B4CF4
S214003300A36998472369984702B070BD074D200C03
S214003310C0B22B6A9847200AC0B22B6A9847E0B220
S2140033202B6A98472B6A30009847E8E7040000208D
S214003330F0B583B004000F0016001C4DEB689847EC
S2140033406B6998476B6A002B17D0184B9B6A002B4B
S21400335013D0220C01A80270220A42708470032146
S2140033609847124B5B6A3100380098470F4CA369A8
S21400337098472369984703B0F0BD0C4D200CC0B2A7
S2140033802B6A9847200AC0B22B6A98472B6AE0B28D
S2140033909847002406E03D19044BDB6998472870DF
S2140033A00134A4B2B442F6D3E0E7C04604000020DD
S2140033B0F0B583B004000F0016001A4DEB6898476E
S2140033C06B69984704200443AB6A002B13D0220C89
S2140033D001A80270220A4270847003219847114B9C
S2140033E09B6A3100380098470E4CA36998472369BA
S2140033F0984703B0F0BD0B4D200CC0B22B6A98471F
S214003400200AC0B22B6A98472B6AE0B2984700247D
S21400341005E0044B1B6A385D98470134A4B2B442F9
S214003420F7D3E1E704000020F8B5CE46474680B55E
S2140034308046002601E0A64224D043469D00013582
S214003440ED0080239B019946A9444846104FB84793
S21400345084B22402A4B284239B019C4665442800BF
S214003460B84780B22418A4B2002CE4D04846084FCF
S214003470B84780B2000286B22800B84780B2361835
S214003480B6B2D8E730000CBC90469946F8BDC046A8
S2140034906D320000F8B5CE46474680B58046002619
S2140034A001E0A64224D043469D000135ED00982356
S2140034B09B019946A9444846104FB84784B2240257
S2140034C0A4B29C239B019C4665442800B84780B262
S2140034D02418A4B2002CE4D04846084FB84780B25F
S2140034E0000286B22800B84780B23618B6B2D8E7CF
S2140034F030000CBC90469946F8BDC0466D320000C0
S214003500F0B5D64600B582B00091141E03D102B0C5
S21400351004BC9246F0BD8600751CED0090239B010E
S2140035209C46AC44634601936046104A92469047D8
S21400353080B2000287B29422920194466544280025
S214003540D04780B2381887B23B02B01CC0001818AB
S21400355022000099064B9847E419A4B2210A019864
S214003560044EB047E1B22800B047D0E76D32000005
S214003570B1330000D1320000F0B5D64600B582B0B7
S2140035800091141E03D102B004BC9246F0BD860022
S214003590751CED00A0239B019C46AC44634601933A
S2140035A06046104A9246904780B2000287B2A42234
S2140035B09201944665442800D04780B2381887B2F6
S2140035C03B02F01CC000181822000099064B9847D2
S2140035D0E419A4B2210A0198044EB047E1B22800CB
S2140035E0B047D0E76D32000031330000D132000022
S2140035F0F0B583B00C0087000137FF00A0239B01C5
S2140036009C46BC446346019360460C4EB04780B26D
S214003610000285B2A4229201944667443800B0475F
S21400362080B22D18ADB22C19A4B2210A0198044D0F
S214003630A847E1B23800A84703B0F0BD6D320000DD
S214003640D132000070477047704770470078C0B2AC
S214003650704701707047002070477047704770478A
S214003660002805D0002903D0044B586199617047A3
S214003670024B034A5A61034A9A61F8E704000020A5
S214003680493600004B360000084B1B889B05FBD5CF
S214003690002805D0002903D0044BD8611962704772
S2140036A0024B034ADA61034A1A62F8E70400002074
S2140036B0573600005B360000084B1B889B05FBD581
S2140036C0002805D0002903D0044B58629962704741
S2140036D0024B034A5A62034A9A62F8E70400002043
S2140036E05D3600005F360000F0B587B0062201A9FF
S2140036F090200001174CA04780277F00042205A9D0
S2140037003800A047A026F600042204A93000A047EF
S214003710F0252D01042203A92800A04780210020BF
S2140037200D4B984700200D4B9847062201A9902084
S21400373000010B4CA047042205A93800A04704222C
S21400374004A93000A047042203A92800A04707B018
S214003750F0BDC04631330000D13200006D320000AB
S214003760B133000070B506000D00244B9847002EBC
S2140037701BD000220023072B07DCF15C8A1852B20C
S214003780102A34DC01335BB2F5E700240BE0A0001E
S2140037900130C000F8235B019C466044315D184B45
S2140037A09847013464B2072CF1DD002D0BD00022BF
S2140037B00023072B09DCE95C8A1852B2102A19DCB0
S2140037C001335BB2F5E7002010E000240BE0A00018
S2140037D00130C000F0235B019C466044295D084B25
S2140037E09847013464B2072CF1DD002070BD01203B
S2140037F04042FBE701204042F8E7C046E9360000B9
S214003800D132000070B5B824A4012000074EB0479E
S2140038107F2101402000064DA8472000B0478021A8
S21400382049420143C9B22000A84770BD6D3200006E
S214003830D132000070B5040006220100902000017D
S2140038400F4DA84721000E31042280204000A847D3
S21400385021000A310422A020C000A847A11D04228E
S214003860F0200001A847A27C064B1A70E27C5A7032
S214003870227D9A70627DDA70A27D034B1A7070BD4D
S214003880B1330000C00A0020BC0A002070B5040056
S21400389006220100902000010F4DA84721000E319E
S2140038A0042280204000A84721000A310422A020DC
S2140038B0C000A847A11D0422F0200001A847074B1E
S2140038C01A78A2745A78E2749A782275DB7863754F
S2140038D0034B1B78A37570BD31330000C00A00206F
S2140038E0BC0A002010B504003A2302009A4309D10E
S2140038F00020064B98470443E1B20020044B98474B
S214003900002010BD01204042FBE7C0466D3200009B
S214003910D132000010B50020014B984710BDC046BC
S2140039206D32000070B505000178D8204001064CC5
S214003930A0476988090AC8204001A047A978D02076
S2140039404001A04770BDC046D132000070B50500EA
S214003950D8204001074EB0472870C8204001B04725
S21400396080B2000284B2D0204001B04780B2241852
S2140039706C8070BD6D32000010B50C00052820D894
S2140039808000114B1B589F460800104B984700209C
S21400399010BD08000E4B98470020F9E708780D4B3D
S2140039A09847F5E70C4B984720700020F0E7080092
S2140039B00A4B98470020EBE70800094B9847002081
S2140039C0E6E701204042E3E7C8270100353800005B
S2140039D08D380000E5380000153900002539000054
S2140039E04D39000043781B02007818437047C378AF
S2140039F01B02827813431B02427813431B02007893
S214003A00184370470170090A4170704701700B0A2D
S214003A1043700B0C8370090EC1707047002070470E
S214003A200020704702394369023B994204D2836AF8
S214003A3040894843181870470020FCE770B5060018
S214003A400D0008001A30074B984704003378032B04
S214003A5000D070BD28001430024B98470004204365
S214003A60F7E7C046E539000070B506000C00150003
S214003A7091B220001A30064B98473378032B00D0BB
S214003A8070BD290C20001430014B9847F8E7C0465B
S214003A90053A000070B504000D0000234B728369E0
S214003AA0002B2ED00021002305E0092A0ED068182E
S214003AB04372013113000A2B0DD85A1CE069C35C0F
S214003AC0202BF7D0052BF0D1E033EEE768182E2632
S214003AD046720131EBE7691800234B72E369DA7A24
S214003AE03F2313402B72E0691C30064B9847286032
S214003AF0E0691630044EB047E880E0691830B047F9
S214003B00A88070BDEF390000E539000010B50468E4
S214003B10002C1ED02200511C1378202B02D90A003C
S214003B203A2BF8D13A2B02D00023180010BD237888
S214003B301A00303AD2B2092A06D80234A14201D07D
S214003B40012302E0303B00E00123002B04DC01608F
S214003B50EBE701235B42E8E701235B42E5E7000071
S214003B6070B504000D00002818D00368002B17D08D
S214003B701A78002A05D10920002815D123682B6061
S214003B8070BD8188DA88914201D00920F4E7587820
S214003B90064B9847C30705D50920EDE70920EBE754
S214003BA00920E9E70020E7E70023E8E70D570000D3
S214003BB070B504000379002B01D1002070BD05000C
S214003BC0303540780123E26A29000E4EB0470028BF
S214003BD014D100232371E26A236AD31AA1698B42A7
S214003BE00ED2E378022B01D00020E7E75218607867
S214003BF0013B2900034CA0470020DFE70120DDE75A
S214003C000020DBE7C5580000F8B505000E00C36AC3
S214003C108B4213D00A4B9847041E01D02000F8BDF3
S214003C2029003031687801233200064FB847002853
S214003C3002D0013401267642EE62EFE70024EDE77B
S214003C40B13B00004558000070B504000023037126
S214003C50013BC362304B9847002801D0042070BD5A
S214003C602E4BE0182E4B984705003023E35CEB2BD9
S214003C7008D0E92B06D0E82B04D02A4B9D4248D02A
S214003C800320ECE7274B9D4239D020003B30244BE5
S214003C9098473D23E15C431E0342EED1224B9842F7
S214003CA0EBD901339842E8D80029E6D04B1E0B42E8
S214003CB0E3D120003E301A4B98470028DDD0402341
S214003CC0E35C013B012BD8D820004130144B9847C9
S214003CD00028D2D020004330114B98477F2806D8C2
S214003CE020005030114B9847114B9842C5D9200000
S214003CF046300B4B98470028BFD00020AFE708227D
S214003D000C49200082300C4B98470028BDD100207B
S214003D10A5E70220A3E7C046093C00002E020000EB
S214003D20E539000055AA0000FF010000EF39000049
S214003D30FFFF0000602801000988000070B584B00D
S214003D4005000E000021194B9847022816D02AD8E5
S214003D50002E28D000240BE02B0030332001C73083
S214003D60FF301818124B9847A3006A469850013443
S214003D70032CF1D9002E03D0741E0DE00024F7E7C3
S214003D80340009E02800094B9847002E0BD1012883
S214003D9009D90134032C06D8A3006A46995800298D
S214003DA0F0D10320F1E704B070BDC046493C0000E6
S214003DB0EF390000F0B5DE4657464E464546E0B5BC
S214003DC083B00E00150000230B60A24B9847002816
S214003DD000DA1DE18000A04BC458002C00D11FE182
S214003DE0346001239D432378002B0DD060789B4BD5
S214003DF09847C30708D4002D00D113E1430701D527
S214003E000A2006E1002004E1002323706078944B2A
S214003E109847C30701D50320FBE0002D03D04307D6
S214003E2001D50A20F5E0002120008E4B9847042893
S214003E3000D1F9E0012801D90D20EAE0E66A200069
S214003E403B30894B984780239B00984201D00D2039
S214003E50DFE020004630844B98478246002804D195
S214003E6020005430814B984782465346A361402336
S214003E70E35CE3705A1ED2B2012A01D90D20C8E0D5
S214003E8052465A4391463D23E35C98466381002B95
S214003E9000D1CBE0013B4246134201D00D20B8E0F2
S214003EA020004130704B984707000190208103079F
S214003EB000D0BDE0200043306B4B9847051E04D170
S214003EC020005030694B9847050020003E30664B76
S214003ED098478346002800D1ACE04B465B443F0938
S214003EE0BFB2DF19BD4200D2A6E0E81B4146604BD8
S214003EF09847002800D1A1E05E4B984274D9002371
S214003F0098465D4B984201D8022398465B4B9842F0
S214003F1001D8012398464346002B00D190E0851C2B
S214003F206561E6615B46F3182362F719A7624246AD
S214003F30032A5CD120005A304B4B9847002800D00B
S214003F4080E0019B002B00D07EE020005C30474BD9
S214003F5098476062AD004A4B9C4665446D0AAA4588
S214003F6000D275E001235B422361E3608133637115
S214003F704346032B2ED1200060303B4B9847012848
S214003F8028D1711C20003F4B9847002822D10023DF
S214003F9063713D4BE018344B98473C4B984219D11F
S214003FA020003030314B9847394B984212D1852348
S214003FB09B00E0182D4B9847364B98420AD1862333
S214003FC09B00E018294DA847206187239B00E01836
S214003FD0A847E060434623702F4A138801339BB2FC
S214003FE01380E380002014E00323984689E7019AB3
S214003FF0002A2BD04B4463624346022B01D16D004E
S214004000A9E703236B435B08012215405D19A2E76D
S2140040100B2003B03CBC90469946A246AB46F0BD8A
S2140040200C20F6E70020F4E70120F2E70D20F0E789
S2140040300D20EEE70D20ECE70D20EAE70D20E8E77F
S2140040400D20E6E70D20E4E70D20E2E70D20E0E78F
S2140040500D20DEE70D3B0000C40A00200D570000CF
S214004060215700003D3D0000E5390000EF39000013
S2140040706D630000F5FFFF0FF5FF0000F50F000071
S214004080FF010000093C00002E02000055AA0000B7
S2140040905252614172724161C80A0020F0B5D6469C
S2140040A04F464646C0B506000C001700012900D84A
S2140040B088E04369994201D3022584E00378022B05
S2140040C04ED0032B61D0012B01D002257BE04B089C
S2140040D0984688444346590A036A9C4661443D4BC9
S2140040E09847051E6FD130239A46B2442F3B43446F
S2140040F099464346DB05DB0D53440122144022D08B
S214004100002159560E320A403901FF2000010140B5
S2140041100A43D2B21A70012333714B46590A336AE6
S2140041209C46614430002B4B9847051E4BD14B46AE
S214004130DB05DB0D5344002C07D03F09FFB21F7090
S214004140012333713FE0FAB2E4E700229A560F21CA
S2140041508A433F0A79B20F270F401743FFB2EEE7B4
S214004160090A036A9C4661441A4B9847051E2AD1E1
S214004170300030306400FF235B001C40B9B20019E9
S214004180154B9847012333711DE0C909036A9C4605
S2140041906144104B9847051E15D13F013F09330077
S2140041A03033A400FE22520014401C1920000B4B92
S2140041B09847010F090739432000094B9847012308
S2140041C0337100E0022528001CBC90469946A246A2
S2140041D0F0BDC046093C0000053A0000EF3900007B
S2140041E00D3A0000F8B50C000568012967D96B691F
S2140041F0994266D22B78022B33D0032B47D0012B63
S21400420001D001205EE04E088E19710A2B6A9C468A
S214004210614428002C4B9847002802D001204042D9
S21400422050E0771CF305DB0DEB1830331E78790A67
S2140042302B6A9C4661442800234B9847002802D0EE
S214004240012040423EE0FF05FF0DED19303528788D
S21400425000023043E30701D5000933E00005000DF6
S21400426030E0090A2B6A9C4661442800164B9847A2
S214004270002802D00120404224E0280030306400AC
S214004280FF256D002C400019104B98471AE0C9090D
S2140042902B6A9C46614428000B4B9847002802D0A6
S2140042A0012040420EE028003030A400FE235B00D0
S2140042B01C400019064B98470001000902E0012047
S2140042C000E00120F8BDC046093C0000E5390000CA
S2140042D0EF390000F0B5C64600B506000C000768CA
S2140042E0264B994203D9022004BC9046F0BDCB066B
S2140042F001D00220F8E731618568002D03D13B78B4
S214004300022B00D97D6A002D0DD163093A899342AC
S21400431001D30220E8E77B6AB3617561B369002BBD
S2140043201DD10220E0E77B895B02984601E0434608
S214004330E41A44450DD329003000114B9847050078
S214004340431C16D0012816D97B699842EFD3022069
S214004350CAE7290038000B4B9847B061DDE7620AD0
S2140043609B18B3613037E405E40D3C19F461002076
S214004370BAE70120B8E70220B6E7C046FFFF1F00F5
S214004380E5410000253A0000F8B5CE46474680B520
S214004390060088460768002907D1FD68002D10D062
S2140043A07B699D420ED301250CE0404B98470128BF
S2140043B000D874E0431C62D07B6998425FD34546C0
S2140043C000E001253869002859D0454506D000236D
S2140043D099464B46002B37D12C002CE06B1C994697
S2140043E07B69994501D302239946494630002F4BF5
S2140043F09847012843D0431C41D00028E9D0FB68E9
S214004400012B05D97A69934205D300239946E0E744
S21400441000239946DDE71D0000239946D9E72100D1
S2140044203000224B984700280DD0012827D0431C87
S21400443025D0AC4237D001347B699C42EFD3012DA6
S2140044402FD90224EBE7A146012252424946380002
S214004450174B9847002802D14346002B13D100285B
S21400446017D14B46FB603A697B69023B9A4201D8FA
S214004470013A3A617B79012213437B7148460CBCB2
S21400448090469946F8BD4A4641463800084B98473C
S214004490E5E7012801D00120F1E70238EFE7012027
S2140044A0EDE74846EBE74846E9E7C046E541000049
S2140044B09D400000F8B507000C0011000568012CAF
S2140044C02ED96B699C4201D302202AE0002A0AD02A
S2140044D0012252422800164B9847002803D020E0BD
S2140044E0340096421DD221003800124B9847061E13
S2140044F018D0012818D0431C18D00022210028000C
S2140045000B4B984700280CD12B696A69911E8B4289
S214004510E6D201332B616B7901210B436B71DFE728
S2140045200220F8BD0020FCE70220FAE70120F8E7A9
S2140045309D400000E5410000F0B583B006000C0089
S214004540154B9847002802D0012003B0F0BD21008B
S2140045503000124B98470700F06230239C46B44464
S2140045606346019380229200002160460C4B9847D8
S214004570002400E0013473899C4207D2E219707867
S21400458001230199074DA8470028F3D07089241A03
S214004590601E8441E0B2D8E7B13B0000253A000037
S2140045A0D9880000C5580000F0B5CE4600B582B0E8
S2140045B0040001910768056920352F4B9D4201D9FB
S2140045C000238361A369002B04D1042002B004BC3D
S2140045D09146F0BDEE05F60D11D10133A361616978
S2140045E0002907D16B093A89934208D30023A361B7
S2140045F00420EBE76B0A7A89013A1A4205D0256156
S2140046003037BF19E7610020E0E720001B4B9847D2
S21400461081460300012825D9013325D07B699842BD
S21400462018D3019B002B02D1A3610420CEE7616959
S2140046302000134B98478146031E01D10720C5E78B
S214004640012813D0013313D0010038000D4B9847D2
S21400465000280FD14B466361494638000A4B9847FD
S214004660A061CCE70220B1E70120AFE70220ADE76A
S2140046700120ABE70120A9E7FFFF1F00E54100008E
S2140046808943000039450000253A000070B5050052
S21400469006680021134B9847041E07D0200070BD03
S2140046A000212800104B9847041EF7D1A969300056
S2140046B00E4B9847041EF1D1E8690378002B0ED004
S2140046C0C27A3F231340AB71C37A1B07E8D4290094
S2140046D020310B22064B98470028E1D1DEE7042460
S2140046E0DCE7C046D5420000A9450000093C0000B2
S2140046F009880000F8B505000E0004680021114B7B
S2140047009847002818D1002708E00137B74213D091
S214004710012128000C4B984700280DD1A9692000DC
S2140047200A4B9847002807D1EB691B78E52BECD09D
S214004730002BEAD00027EBE7042800D0F8BD0330B2
S214004740FCE7C046D5420000A9450000093C000031
S21400475070B505000E000468042005E0002128005E
S214004760134B984700281ED1A96900291BD02000AA
S214004770104B9847002816D1EB691A78002A11D0FA
S214004780D97A3F230B40AB71E52AE7D02E2AE5D035
S2140047900F2BE3D020229343083B5A425341B342A7
S2140047A0DCD100E00420002801D00023AB6170BDFE
S2140047B0A9450000093C0000F0B5DE4657464E46C7
S2140047C04546E0B583B001908A460B6898460300DC
S2140047D02022944663449B46153A20211800424BFB
S2140047E098470027002608239946751C43469C5D7B
S2140047F0202C1BD92F2C13D05C2C11D02E2C01D0A2
S214004800B9451FD84B460B2B66D02E2C15D006204C
S21400481003B03CBC90469946A246AB46F0BD013577
S21400482043465B5D2F2BFAD05C2BF8D045445346AD
S2140048301D60002F37D10620EAE72E0008270B233D
S2140048409946D2E763B2002B16DB2000274B984729
S214004850002816D0023643465D5D2800244B984754
S21400486000283BD04B46013B9F4239D27B1C5A4620
S214004870D455D5540237B8E77F231C401D4B1C5D2A
S214004880E3E721001C481D4B984700282AD1230047
S214004890613BDBB2192B01D8203CE4B25B46DC5509
S2140048A001372E00A1E72023019AD35CE52B06D022
S2140048B0202C09D92B78202B0CD8042205E00522C1
S2140048C0C53B0199CA54F3E704222B230199CA5425
S2140048D000209DE70022F8E7062099E7062097E7E4
S2140048E0062095E7062093E7D98800001D3A0000C9
S2140048F0213A0000E02701006C280100518C0000DE
S21400490030B583B004000191056801E001330193DE
S214004910019B1A782F2AF9D05C2AF7D00022A260D1
S2140049201B781F2B1CD901A92000164B984700287E
S2140049301DD12000144B98472B23E35C002818D188
S2140049405B0714D4A379DB0619D52B003033226914
S214004950D105C90D591828000C4B9847A060E2E70E
S21400496080322B23E25400212000094B984703B0E5
S21400497030BD0428FBD15B07F9D40520F7E70520F6
S214004980F5E7C046B94700008D4600003D3A0000F6
S214004990D542000070B50500066801210C4B98470B
S2140049A0041E01D0200070BDA9693000094B98474D
S2140049B0041EF7D120220021E869074B9847E869D2
S2140049C0290020310B22054B984701233371E9E774
S2140049D0F5460000093C0000D98800005588000014
S2140049E0F8B505001F4B9847041E0AD12B78032BF9
S2140049F009D06878002200211B4B9847002800D079
S214004A0001242000F8BD6B79012BF2D12E00303640
S214004A108022920000213000144B98471449154B11
S214004A20E818154B984715493000154FB8478523A9
S214004A309B00E8181349B84786239B00E8182969A5
S214004A40B84787239B00E818E968B847EB695A1C03
S214004A50EA626878012331000B4EB04700236B7181
S214004A60C7E7C046B13B000069590000D98800007E
S214004A7055AA00002E020000053A0000525261417D
S214004A800D3A000072724161C558000030B585B01D
S214004A90019000911400039103A8124B9847002838
S214004AA01DDB8300104A9A58002A03D000210E4DC1
S214004AB059511170019B002B07D058700023019AA2
S214004AC013708000084B019AC250002C01D10020C0
S214004AD006E0002201A96846044B984700E00B2038
S214004AE005B030BD0D3B0000C40A0020B53D0000F7
S214004AF0F0B5CE46474680B591B007000391160044
S214004B00002800D1E2E03F2515402A0004A903A8AA
S214004B10724B9847041E05D0002C00D1D7E0002326
S214004B203B60D4E0049B0593039905A86C4B98471B
S214004B30041E04D12B2305AAD356002B3EDB1C23D0
S214004B40334200D188E0002C3FD0042C38D0082314
S214004B501D43EDB2002C01D12B0741D4002C09D106
S214004B602B0702D540231D43EDB2049BDB6A3B6254
S214004B700C9B7B62002CCFD1049B99460C9B9846DD
S214004B8019004846574B98470600B86040461C3008
S214004B90554B98478046F8604B463B60DB88BB80A9
S214004BA03D7400237B74FB617B61AB06B4D50028A3
S214004BB0B2D078614B465D896D0263E00634BEE78D
S214004BC005A84A4B98470400C1E705AB9B7911221C
S214004BD01A4203D17307BDD50824BBE70724B9E7FB
S214004BE00C9B0193424E18000E303100414B984604
S214004BF098470C9B0193180016303100C047049B61
S214004C000C9E310001931800364B984781462023AE
S214004C10F3720C9A0292002202990198364B98473A
S214004C200C981C300021C047049B01221A714A468A
S214004C30002A93D0DE6A0022494605A82F4B9847E3
S214004C40041E8BD1310004982D4B984704004B4628
S214004C50013B049AD36081E7002C00D07EE705ABC9
S214004C609B79DA0607D4B20700D477E7DB0700D4CF
S214004C7074E7072472E7042470E702240DE0434635
S214004C805B1B9846002C0CD1A8450AD93100380089
S214004C901C4B984706000128EFD9731CEFD101245E
S214004CA0EDE7BE61002C00D036E74346DB0500D1B9
S214004CB032E731000498144B9847002804D0434646
S214004CC05B0AC318FB6127E7022425E709242000B6
S214004CD011B00CBC90469946F0BDC046B53D0000EC
S214004CE0014900003D3A0000EF39000095490000F8
S214004CF0000066550D3A0000693A0000B544000011
S214004D00093C0000E5410000253A0000F0B5DE460B
S214004D1057464E464546E0B585B005000C00904621
S214004D209A46002352461360009003A94F4B9847BB
S214004D30061E06D16E7C002E03D12B7CDB0708D422
S214004D400726300005B03CBC90469946A246AB46C6
S214004D50F0BDEB686A699B1A434500D29846A146A7
S214004D60B346464642E0A9690098414B98474BE057
S214004D7002236B740226E4E701236B740126E0E746
S214004D8002236B740226DCE701236B740126D8E746
S214004D9040024844303180229200364B98475CE00F
S214004DA04346EB616B69DC05E40D80239B001C1B0E
S214004DB0A64200D23400E96903982F4B9847002892
S214004DC04DD1039930316B69DB05DB0DC918220024
S214004DD04846284B9847361B53461B681B195246B5
S214004DE01360A1446B699C4664446C61002E3AD003
S214004DF06B69DA05D6D15A0A03994F89013F1740E5
S214004E0007D1002BAFD1A8680128B1D9431CB3D075
S214004E10A861039B0193A9691800184B98470028BE
S214004E20AED08046B844740ABAD03B19019A52896B
S214004E30934200D9D41B019B58782300424649462A
S214004E400F4FB84700289FD103990B79002B04D049
S214004E50CB6A4246981A84429AD86402BBE701237A
S214004E606B7401266DE75E466BE7C046613B00004B
S214004E70E541000055880000093C0000253A000086
S214004E8045580000F0B5DE4657464E464546E0B566
S214004E9085B005000C0017009A46002352461360A2
S214004EA0009003A96A4B9847061E06D16E7C002E1A
S214004EB003D12B7C9B0708D40726300005B03CBCEA
S214004EC090469946A246AB46F0BD6B69DA19934206
S214004ED000D9DF43A146B3465EE0002100985D4B53
S214004EE0984769E0A96900985A4B984764E00223FE
S214004EF06B740226E1E701236B740126DDE7564B4F
S214004F009847002868D001236B740126D5E7022352
S214004F106B740226D1E701236B740126CDE73000BF
S214004F20303049024944802292004C4B9847002377
S214004F30337174E06B69EA68934272D24346EB6160
S214004F406B69DC05E40D80239B001C1BA74200D286
S214004F503C00E9690398424B984700286ED10398B5
S214004F6030306B69DB05DB0DC018220049463B4B31
S214004F7098470123039A13713F1B53461B681B195E
S214004F8052461360A1446B699C4664446C61EB68AE
S214004F909C4200D21C00EC60002F53D06B69DA05EF
S214004FA0CED15A0A03994E89013E16400FD1002BE6
S214004FB098D1A868002890D0002843D0012896D021
S214004FC0431C98D0A861AB68002B00D1A86003985A
S214004FD0C36AEA69934292D0039B0193A9691800B9
S214004FE0204B9847002892D08046B0447C0AA1D037
S214004FF03319019A5289934200D9941B019B587821
S214005000230042464946184EB047002800D082E7A3
S214005010039EF36A4246991A8C4200D97FE76402DF
S214005020AAE701980C4B9847002803D1039B4246F9
S214005030DA6283E701236B7401263EE701236B7473
S21400504001263AE75E462B7C402213432B7434E756
S214005050613B000089430000B13B0000558800001A
S214005060093C0000253A0000C558000070B582B023
S214005070040001A9184B9847002802D1237C5B0640
S21400508001D402B070BD216A0198144B98470028DD
S214005090F7D1656AEB7A20221343EB72A2682900E7
S2140050A020680F4B984728001C30E1680D4EB0472B
S2140050B0280016300C49B0472800123000210B4B50
S2140050C098470123019A13711000094B9847237CD7
S2140050D0402293432374D4E7613B0000093C000060
S2140050E0693A00000D3A000000006655053A0000D7
S2140050F0E149000010B582B00400074B984700282D
S21400510001D002B010BD01A92000044B984700282A
S214005110F7D100232360F4E76D500000613B0000E8
S21400512030B585B0051E019130D0002203A901A834
S214005130184B9847041E04D0002C28D000232B6060
S21400514025E0039B2B6001992800134B9847041E0B
S2140051500DD12B23EB56002B07DBAB79DB060AD5EC
S214005160E96903980D4B9847A860002C05D0042CDD
S214005170E2D10134E0E70524F7E7039BDB88AB8048
S21400518000212800064B98470400F0E70924200079
S21400519005B030BDB53D0000014900003D3A0000B5
S2140051A0D542000010B582B0040001A9034B984711
S2140051B0002801D10023236002B010BD613B00002F
S2140051C070B582B005000E0001A9124B9847041E68
S2140051D00AD1002E0BD0002128000F4B9847042838
S2140051E000D00400002C08D0200002B070BD0021C2
S2140051F028000A4B98470400F6E731002800084BC1
S214005200984700212800074B98470428ECD0040054
S214005210EAE7C046613B000051470000D542000067
S214005220953A0000A945000010B500220749084835
S214005230084B9847002804D00748084B984700209A
S21400524010BD0748054B98470120F9E7F8310100E3
S214005250CC0A00208D4A0000AC280100318A0000EC
S2140052608C28010070B58CB004000E0015003222A8
S214005270010002A80E4B984700280DD101AB2A006A
S214005280310002A80B4EB047002802D1019B9D4278
S21400529009D002A8084B984721000848084B9847B1
S2140052A000200CB070BD02A8034B98470120F8E719
S2140052B0F14A0000854E0000F5500000A8290100C4
S2140052C06D89000010B5074B1B78002B00D110BD70
S2140052D00548064B98470022024B1A700448054BB7
S2140052E09847F4E7240D0020FC0C0020F550000041
S2140052F07C280100318A0000F0B583B004000D0060
S21400530016001F001C4B1B78002B0DD1012201003C
S2140053101A481B4B9847002815D10122164B1A70C5
S21400532021001848184B984701AB32002900134853
S214005330164DA847002815D1019B3B60002B09D0CD
S214005340002003B0F0BD210011480F4B9847012004
S2140053504042F6E70F4B984721000F480A4B984704
S2140053600020EEE721000D48074B9847094B984769
S21400537001204042E5E7C046240D0020FC0C00203A
S214005380F14A0000402901006D8900000D4D000023
S21400539054290100C5520000702901008C29010023
S2140053A010B592B00400010007A8174B98470028D4
S2140053B024D121001548164B984705E0019A0D2187
S2140053C069441448124B984701A907A8124B9847FE
S2140053D000280DD101AB5B7A002B09D001AB1B7AFC
S2140053E0DB06EBD50D2169440C48094B9847EBE7E3
S2140053F007A80B4B9847012012B010BD21000948A2
S214005400034B98470020F7E721510000C42801000D
S2140054106D890000F4280100C1510000E828010051
S214005420A55100000C29010030B5224CA54404000B
S214005430012201002048214B9847002833D1210043
S2140054401F48204B984701AB8022920002A91A48B9
S2140054501D4CA04700281ED1019B002B1BD000240A
S21400546004E01368581C106019700134019B9C42BC
S214005470E9D2164B186802AB195D82689368013B47
S2140054809360002BEDDA9569AB4201DB0A29E8D17F
S2140054900F4B9847E9E708480E4B984701208323AF
S2140054A09B009D4430BD21000B48064B98470020CA
S2140054B0F5E7C046F4FDFFFFFC0C0020F14A0000B3
S2140054C02C2901006D8900000D4D00008000002091
S2140054D071CF0000F55000005429010010B589B2C4
S2140054E0014B984710BDC046F522000000B583B0BA
S2140054F080221203C023DB059A6101216B46D81D6A
S214005500014B984703B000BDDD54000010B5040001
S21400551080B2034B9847013C002CFCD110BDC0461E
S2140055209901000030B583B00A4C002C0DD06B46B4
S214005530DD1D01212800084B98472B78FF2B04D04F
S2140055406420064B9847013CEFE72000441EA0412C
S21400555003B030BD88130000DD5400000D55000078
S21400556010B582B080221203C023DB055A610121E8
S2140055706B46D81D064B9847064B9847041E03D02B
S2140055800124200002B010BD034B9847F9E7C0463F
S214005590DD54000025550000ED540000F0B583B042
S2140055A006000F00FA25AD00002D0CD001AC01213D
S2140055B020000D4B98472378FF2B04D164200B4B1B
S2140055C09847013DF0E701AB1B78FE2B02D0002088
S2140055D003B0F0BD39003000034CA047022101A8FB
S2140055E0A0470120F4E7C046DD5400000D5500003A
S2140055F010B589B2014B984710BDC0461123000074
S21400560030B583B004000D0043B2002B09DB0C2C30
S21400561010D0224B9847224B984700280AD1FF20EB
S2140056202FE07F231C4000213720FFF7E9FF0128E9
S21400563027D8ECE7402323436A4613702B0E53709B
S2140056402B0C93702B0AD3701571002C1BD00123E2
S214005650082C1AD06A46537106216846114B9847A3
S2140056600C2C14D00A246B46DD1D012128000E4B9D
S2140056709847287843B2002B03DA013CE4B2002CAA
S214005680F1D103B030BD9523E2E78723E2E701219D
S2140056906B46D81D044B9847E4E7C046ED5400001F
S2140056A061550000F1550000DD54000030B583B0B0
S2140056B005000C00124B9847002801D103B030BDFE
S2140056C001A8047001210F4B9847FD2C13D08021B0
S2140056D0890028000B4B984701AC022120000A4D98
S2140056E0A84701212000A84722781F231340052B36
S2140056F003D00020E2E70120E0E70120DEE7C04615
S21400570025550000F1550000DD540000002802D1A8
S214005710024B187870470120FCE7C0463000002096
S214005720F0B583B0002803D00324200003B0F0BDFA
S2140057300A303D4B98470A2405E0012101A83B4B5F
S2140057409847013CE4B2002CF7D100210020384BEA
S214005750984706000700012809D0364B1C706342A4
S2140057605C41E4B2344B1C70344B9847DDE7D521DE
S214005770490008202E4B9847012815D00021A92063
S2140057802B4B984701283ED9FA25AD00002D3DD079
S21400579000213000264B9847002837D0FA2080009A
S2140057A0274B9847013DF1E701AD042128001F4B28
S2140057B09847AB78012BD0D101ABDB78AA2BCCD1A4
S2140057C0FA25AD00002D0CD08021C905A920184B64
S2140057D09847002805D0FA208000194B9847013DCD
S2140057E0F0E7002DB9D000213A20114B9847002849
S2140057F0B3D101AC042120000C4B984723785B06FC
S2140058000FD51824A9E7A9260827BDE7002DA4D0A0
S214005810802189001020064B984700289DD13C0027
S2140058209BE7082499E7C046B9010000DD54000054
S21400583001560000250D002030000020ED54000029
S2140058400D550000F8B50D0017001C00184B9847C2
S214005850C30701D50320F8BD164B1B78DB0600D422
S2140058607F02012C1CD9122639003000124B9847B3
S21400587000280FD1802189002800104B9847002867
S21400588006D080239B009C466544013C002CF1D149
S214005890122E07D00A4B9847601E8441E0B2DAE722
S2140058A01126E1E700210C20034B9847F2E7C0469B
S2140058B00D570000250D0020015600009D550000E4
