:100000000039002009010000050100000501000081
:1000100000000000000000000000000000000000E0
:1000200000000000000000000000000005010000CA
:1000300000000000000000000501000005010000B4
:10004000050100000501000005010000E10E0000AF
:10005000DD0C0000050100000501000005010000A5
:10006000050100000501000005010000611000000D
:100070000501000005010000050100000501000068
:10008000050100000501000005010000FD18000049
:100090003519000005010000050100000501000000
:1000A0000501000010B5064C2378002B07D1054B45
:1000B000002B02D0044800E000BF0123237010BDD4
:1000C000380A00200000000090970100084B10B58E
:1000D000002B03D00749084800E000BF0748036829
:1000E000002B00D110BD064B002BFBD09847F9E741
:1000F000000000003C0A002090970100909701004A
:1001000000000000FEE7C0461449154810B58142C2
:1001100009D0144B984206D2C243D2189208013239
:100120009200114B98471148114B984207D2C24395
:10013000D21892080132920000210E4B9847FF21FD
:100140000D4B0E4A8B4393600D4A7F3953680B4326
:1001500053600C4B98470C4B9847FEE79097010073
:1001600000000020380A0020F9B50000380A0020FD
:10017000001900207DB600000000000000ED00E046
:1001800000400041E9AF00007D8F0000EFF31083D5
:10019000036072B6BFF35F8F7047C046BFF35F8FD7
:1001A000036883F310887047044B10B51C68044B38
:1001B0009847044B01002000984710BD540A0020C6
:1001C000B90B0000ED0B0000044B10B51C68044B8C
:1001D0009847044B01002000984710BD540A0020A6
:1001E000D10B0000ED0B000010B50D4C0122616831
:1001F00004E081420CD0FF225B1008D11300814241
:10020000F7D200239B18591001230029FAD010BD02
:100210005210FCD12368002BF9D09847F7E7C0466D
:10022000580A00200122054B524210B55A600022A4
:1002300003481A60034B984710BDC046580A002077
:10024000E90100002D0C00000D4B10B55A688242E8
:100250000DD0002902D01A68002A02D00D20404299
:1002600010BD196058600121064B9847F8E71960E6
:100270000029F8D100211000024B9847F0E7C04652
:10028000580A0020B10C000010B514001438828BFD
:1002900084B001AB1A80064A03915A801900054BBD
:1002A00002949847002800D1200004B010BDC04639
:1002B0000080FFFFD111000010B514001438828BAC
:1002C00084B001AB1A80064A03915A801900054B8D
:1002D00002949847002800D1200004B010BDC04609
:1002E0000180FFFFD111000070B50400431E98414A
:1002F0000D00C0B20749084B5E2298472900200034
:10030000064B9847002803D1054BA361054B636159
:1003100070BDC0468C5401001D0A0000BD100000D5
:10032000B90200008902000010B5014B984710BDCA
:100330005D110000143008600020704710B503689C
:10034000984710BD70B504000D00160000280DD0B0
:100350000800431E9841C0B23D220549054B98470D
:100360003200290063682000984770BD0020F3E741
:10037000A85401001D0A0000F0B5C6460400431E43
:10038000984100B50F4D104B84B00F0016002900A6
:10039000C0B2A3229846984720000C38431E9841CB
:1003A000B3222900C0B2C04700232000029301A954
:1003B000064B083801970396984704B004BC904652
:1003C000F0BDC046BC5401001D0A00001D1700000E
:1003D000F0B5C6460400431E984100B50F4D104BC2
:1003E00084B00F0016002900C0B2872298469847B3
:1003F00020000C38431E9841B3222900C0B2C047E8
:1004000000232000019301A9064B083802970396A8
:10041000984704B004BC9046F0BDC046BC540100EF
:100420001D0A00001D17000070B504000D00002813
:1004300016D00800431E9841C0B20A490A4B402218
:1004400098476560201D2900084B9847002806DB67
:100450000020074BA382074B2361074BE36070BD6D
:100460000020EAE7BC5401001D0A000095150000B9
:100470000080FFFFD10300007903000010B50400E5
:10048000431E984157220449C0B2044B9847201D8F
:10049000034B984710BDC046BC5401001D0A000024
:1004A000D516000070B504000D0000280BD0080020
:1004B000431E9841C0B2BD220449054B0C349847F5
:1004C0002C60002070BD0020F5E7C046BC54010040
:1004D0001D0A0000F0B545464E46DE465746E0B5DB
:1004E000036983B05D1C9846037E0600446905617C
:1004F000DB0746D4037E9B0743D4002C45D06368BA
:10050000A268EB1A9A4240D814239946274B81449B
:100510009A46274B9B460BE07769E3682000984793
:10052000002F32D07B68BA683C00EB1A93422CD380
:100530004846D047237C012BEED177696560002FB8
:100540002FD03800BC46A26800214746019408E03D
:1005500043445B1B9A420DD903680100002B1BD05A
:10056000180084684368A0469D42F1D24344DB1BD7
:100570009A42F1D8B8466746019C874211D00800DC
:100580000CE00222337E1343337603B03CBC90462A
:100590009946A246AB46F0BDB846019C2100D8471B
:1005A000BAE721004846034B9847B5E7810A0000A7
:1005B000790A0000410A000070B504000D0000280F
:1005C00011D00800431E9841C0B23B220749084B96
:1005D000984729002000074B984700232361064BCA
:1005E0000020236070BD0020EFE7C046D854010012
:1005F0001D0A0000250E0000D504000010B50400FF
:10060000431E98415322C0B2074B08499847200027
:10061000074B9847002804D12000064B984700203C
:1006200010BD11204042FBE71D0A0000D854010014
:10063000C90E0000790E0000F0B5D6464F4646467A
:10064000C0B5040082B08A4600285AD00800431E74
:100650009841C0B2334F344B7A22390099469847BB
:100660000122237E51461343237614239846A04447
:1006700040462E4B01269847002849D1534622690F
:100680005A6063699C46002B3DD05346604699688A
:100690000027B61A0AE08568A9464B449B1A8B428C
:1006A0000DD203680700002B0CD0180043689A4253
:1006B000F1D28568F318A9464B448B42F1D38445A7
:1006C00021D0380051461A4B984701220225237E3B
:1006D000002693432376237E1D420BD001A8154BA1
:1006E0009847237E2000AB432376134B984701A8FD
:1006F000124B9847300002B01CBC90469946A24667
:10070000F0BD0020A6E7514640460D4B9847DCE778
:10071000237E7F22B343237639000020C847133E4F
:10072000E8E7C046D85401001D0A0000250A000071
:10073000790A00008D010000D90E00009D01000023
:10074000410A00000023083810B50363436A002BF8
:1007500000D0984710BDC0460023083810B5036389
:10076000C36A002B00D0984710BDC04610B50400E6
:10077000044B2C309847236A083C002B01D0200002
:10078000984710BD1D0B000070B504000E00150049
:1007900000281CD000291AD01000431E9841C0B276
:1007A0003C220D49FF320D4B984744234C22E05A1E
:1007B000A15A88420DD1A664A55200222000E2521F
:1007C000433B23630830064B9847280070BD002048
:1007D000E6E71C204042F9E7F05401001D0A000042
:1007E000FD0F0000030070B5442104004C20083BBD
:1007F0005A5A185A90420AD0986C551C5D52815C26
:10080000054B200098472000044B984770BD2000FE
:10081000034B9847FAE7C046F50F0000FD0F0000B4
:1008200005100000F0B54746CE4680B50D0083B0F8
:10083000071E904632D0002930D01000431E984148
:10084000C0B2AC2217495200174B9847343701A861
:10085000164B9847164B38009847164B060001A8D0
:100860009847002E1CD04346002B19D0124B013E56
:10087000AE190024994602E00135A0450CD00134A0
:1008800029003800A4B2C847AE42F5D1200003B019
:100890000CBC90469946F0BD4046F8E70020D0E7F2
:1008A0000020F4E7F05401001D0A00008D01000053
:1008B0005D0B00009D010000D50A0000F8B50400A2
:1008C0000D0016001F00002827D0002925D0002A7F
:1008D00023D01800431E9841C0B23A221149124B4E
:1008E000984720003A0031003430104B98470028D8
:1008F00015D12000290008300D4B984700280BD156
:100900000C4B63600C4B23600C4BA3600C4BE360FF
:100910000C4B23610C4B6361F8BD0020DDE70D201B
:100920004042F9E7F05401001D0A0000910A00005E
:10093000050F00002508000089070000E5070000FA
:100940006D070000450700005907000010B50400BE
:10095000431E984161220549C0B2054B98472000CB
:10096000044B08309847002010BDC046F0540100E9
:100970001D0A0000E10F000070B504000D00002802
:100980000AD00800431E9841C0B277220349044BA5
:1009900098472C60002070BD0020F6E7F05401005D
:1009A0001D0A000070B50500431E98410E0014009A
:1009B000C0B283221649174B9847012E1CD0002E37
:1009C0000FD0022E02D00D20404270BDEC622800F4
:1009D000621E94410830E2B203210F4B9847002079
:1009E000F3E7AC622800621E94410830E2B20121B4
:1009F000094B98470020E8E76C622800621E94418A
:100A00000830E2B20221044B98470020DDE7C046DF
:100A1000F05401001D0A00000D100000002800D154
:100A200000BE70470368002B03D106E01B68002B53
:100A300003D09942FAD1012000E000207047C0465F
:100A4000036870B505000C00002B03D106E01B689D
:100A5000002B03D09C42FAD1002000E00120392273
:100A60000349044B98472B6823602C6070BDC04637
:100A7000105501001D0A000003680B6001607047FB
:100A80000368002B01D01A68026018007047C04646
:100A900070B505000E001400002812D0002910D0F7
:100AA0001000431E9841C0B2084B282208499847BD
:100AB000631E1C4007D100206B60AC60EC602E60B0
:100AC00070BD0020F0E70D204042F9E71D0A00004C
:100AD0003055010070B504000D00002815D0080045
:100AE000431E9841C0B240220A4B0B499847A36865
:100AF000E2689A420BD00020626813402268D35CFF
:100B00002B70A3680133A36070BD0020EBE70A20BF
:100B10004042F9E71D0A00003055010070B504009D
:100B2000431E98410D0051220A490B4BC0B2984711
:100B3000E268636813402268D554E368A26861687C
:100B40009A1A8A4201D9591AA16001330020E36040
:100B500070BDC046305501001D0A000010B50400EC
:100B6000431E98416722C0B20349044B9847E0688E
:100B7000A368C01A10BDC046305501001D0A000010
:100B8000044A1368002B03D018181060180070472F
:100B9000014BF9E7600A00200039002001204042A3
:100BA0007047C04680239B0100204B607047C046C1
:100BB000012070470020704710B50301181A40014A
:100BC0001D301E21014B984710BDC046B591000055
:100BD0000301181A400110B5034B02300321984756
:100BE0006423584310BDC046B59100000139FDD8BB
:100BF0007047C046062110B5074A53680B4353603F
:100C0000064B9847064B98470820064CA047064BD2
:100C10009847F720A04710BD00400041050E000096
:100C200039180000B10D00007D1800001D4A5378EE
:100C3000DB09FCD11B4A5378DB09FCD11178890709
:100C400008D51370174A5378DB09FCD1154A53783D
:100C5000DB09FCD10123134A13705378DB09FCD163
:100C6000104A5378DB09FCD1022193705360536121
:100C70009361D36113780B4313700A4A5378DB09ED
:100C8000FCD110228021084B5A50BFF34F8FBFF385
:100C90006F8F0131FF315A501A60044B18600020E9
:100CA0007047C0460018004000E100E0640A0020E0
:100CB000282802D00D2040427047002906D180220A
:100CC000054B52009A6000201A61F5E78022024B22
:100CD0005200DA600020EFE700180040F0B5CE4681
:100CE000474680B52C4B83B01A69D9680A400192F7
:100CF000019A2A491A612A4BD22218689946431E42
:100D00009841284BC0B29847019B002B38D0012650
:100D1000254F264D76420198B847013844B2631CEE
:100D200024D001239846082201200021012307E056
:100D30000133D9B281420CD843185A10D200525D07
:100D40005B10DBB2A24220D0F2DB013BD8B288427A
:100D5000F2D2731C1AD14246A240019B93430193E5
:100D60000198B847013844B2631CDCD10A4B1A69B8
:100D7000D9680A400192019A1A61019B002BCAD1DD
:100D800003B00CBC90469946F0BD28264B46300077
:100D90001B689847DFE7C046001800405455010023
:100DA000640A00201D0A0000359500006C55010002
:100DB000C30708D580230F4A5B0093600E4B536036
:100DC0005378DB09FCD1830708D50223094AFF3396
:100DD00093600A4B53605378DB09FCD1030708D5B5
:100DE0000423044AFF339360054B53605378DB09B7
:100DF000FCD17047000C0040000701000106010013
:100E000003030100064B1A7AD2B21A725A7AD2B28E
:100E10005A729A7AD2B29A72DA7AD2B2DA72704787
:100E20000004004070B50500431E98410C000F4BB4
:100E3000C0B230220E4998470123EC602380A37A88
:100E4000DB09FCD1A37ADB09FCD180332380A37AB0
:100E5000DB09FCD1A3690A23A361A37ADB09FCD1D6
:100E60000133E371034B00201D6070BD1D0A0000BB
:100E700074550100680A002010B5041E1CD0C0681B
:100E8000431E9841C0B267220C4B0D499847082277
:100E90000C4B1A60E268136900231361937ADB0933
:100EA000FCD1937ADB09FCD1022113880B43138018
:100EB000937ADB09FCD110BD0020E4E71D0A000095
:100EC0007455010000E100E0C268937ADB09FCD1AF
:100ED00010888007C00F70477047C04600207047D9
:100EE000074B10B51C68E3681A7AD20707D5226849
:100EF000002A02D020009047E36801221A7210BD38
:100F0000680A0020F0B5C6460600431E98410C0052
:100F10002A4F2B4B00B5C0B2B122390098469847F2
:100F2000284BE518AD0AEDB2042D03D0264A39004E
:100F30000020C047238ADB0BFCD1238ADB0BFCD1CA
:100F40002268920706D52360238ADB0BFCD1238A13
:100F5000DB0BFCD101232360238ADB0BFCD1238A2A
:100F6000DB0BFCD1194B2360238ADB0BFCD1C023A4
:100F70009B026360238ADB0BFCD1154A62812372DA
:100F8000144BB4619C4216D00735EBB22A060ED43E
:100F90001F221A400123802193400F4A5350BFF370
:100FA0004F8FBFF36F8F0131FF315350136000201B
:100FB00004BC9046F0BD094B1E60E5E78C5501006E
:100FC0001D0A000000F8FFBD4E02000004000140B1
:100FD00055D5FFFF0018004200E100E06C0A002038
:100FE0000221826913680B431360138ADB0BFCD167
:100FF0007047C046836989B21983704701228369AB
:101000005A737047022283695A73704770B504009F
:101010001600431E984184220D0092000E4BC0B270
:101020000E49984702232A009A4302D0012D0AD084
:1010300070BDA2690121002E02D111731373F7E76D
:1010400051735373F4E7A3690422002E01D05A733D
:10105000EEE71A73ECE7C0461D0A00008C5501004C
:101060000122144B10B518688369997B0A4202D09B
:10107000597B0A4210D19A7B0121920703D55A7BF2
:10108000520811420CD19A7B520704D51A8A520792
:101090000BD0094A1A8210BD1A7303689847FAE701
:1010A00002221A7383689847F5E7198B4368C9B21F
:1010B0009847F0E76C0A00200780FFFFF8B5204B47
:1010C0000500CB189B0ADBB20C001E4F022B35D05B
:1010D0001D4A390000201D4EB0472800431E98418C
:1010E0001B4AC0B23900B0472C61238ADB0BFCD10C
:1010F000238ADB0BFCD12268920706D52360238A62
:10110000DB0BFCD1238ADB0BFCD101232360238A78
:10111000DB0BFCD1238ADB0BFCD10E4B2360238A33
:10112000DB0BFCD10133FF336360238ADB0BFCD183
:10113000094B00206381D723EB81F8BD034ECCE738
:1011400000F8FFBD8C5501008A0300001D0A000055
:10115000FF0400001400200036370000A622F8B576
:101160000700174E0469D20031000120154DA84731
:101170003869154A431E98413100C0B2A84702227F
:10118000236813432360238ADB0BFCD10420032153
:1011900010250E4A238ADB0BFCD1238A1B090B4046
:1011A000012B07D0013A002AF4D10138002803D0DE
:1011B0002582EEE70020F8BD06204042FBE7C0464E
:1011C0008C5501001D0A000031050000FFFF0000E2
:1011D000F8B5DE4645464E465746E0B50500B34BEA
:1011E0008B4699461900B24B0469B24A01209846D1
:1011F00098472869B04A431E98414946C0B2C04743
:101200005846431E9841AD4AC0B24946C047802364
:101210006A885B001A4200D095E15A4659465288C6
:101220001A434A802A00C1C9C1C26268134363607D
:10123000238ADB0BFCD12F69A14A49460120C04714
:101240007B68A04A13407B603B8ADB0BFCD1012208
:1012500069882B880A405B001343DBB23B753B8AED
:10126000DB0BFCD12969984A8B7B0320DBB204E0BD
:101270008B7B013ADBB2002A01D01842F8D03A8ABF
:10128000D20BFCD1388A013280B21A421BD08307BC
:1012900000D4D4E08023BA7369885B010B436B8070
:1012A0006B888A490B406B800300134058425841B9
:1012B00005386B88854A13406B803CBC9046994644
:1012C000A246AB46F8BD9B0712D56B68002B00D138
:1012D0003CE1420700D539E1013B6B60002B00D1B6
:1012E000BCE0AB685A1CAA603A7E1A700223BB733A
:1012F00000239A460133FF339C46FC3B98468023EB
:10130000DB02032101270220994662466B881342C3
:101310002AD02E696C4AB37BDBB204E0B37B013A7E
:10132000DBB2002A6FD01942F8D0228AD20BFCD14E
:10133000228A92B21F4219D010423FD0A7736B8805
:101340009A46802356465B0133436B806B885F4E21
:1013500033406B8013003B405A425A41531F624650
:101360009A466B881342D4D15046A6E70026B2466F
:101370001842CAD06B68002B00D1A9E0464616423D
:1013800000D0A5E0013B6B60002B0ED14A4663689C
:1013900013436360238ADB0BFCD16B881BB2002BE9
:1013A0003DDB6B88494A13406B80AB685A1CAA60CE
:1013B000227E1A700023A0739A46A6E74346134282
:1013C00000D08AE06B68002B0AD16B881BB2002B1F
:1013D00010DB6B883D4A13406B8000239A4694E7EC
:1013E000AA68013B1678013226766B600023AA605A
:1013F0009A468AE7C02362689B0213436360238A8C
:10140000DB0BFCD1E5E75B465B881BB2002B36DBD0
:1014100005206B882D4A404213406B804DE763687E
:101420002A4A13406360238ADB0BFCD1C023626825
:101430009B0213436360238ADB0BFCD1B1E74307B4
:1014400000D588E06B68002B28D16B881BB2002B7D
:1014500057DB6B881D4A13406B8049E780237A680D
:10146000DB0213437B603B8ADB0BFCD16B881BB236
:10147000002B4FDB6B88154A13406B8031E7C0238C
:1014800062689B0213436360238ADB0BFCD1052057
:101490006B880E4A404213406B800EE7AA68013BFE
:1014A000117801323976AA606B6021E78C55010012
:1014B0001D0A0000C3050000C4050000C5050000AA
:1014C000A9050000FFFFFBFFFFFF0000FFFEFFFF7D
:1014D00002235B42A0739A4617E76B68002B04DD7A
:1014E00080236A885B0113436B806B881BB2002BDF
:1014F00020DB6B88264A13406B8002235B429A46AE
:1015000003E7C0237A689B0213437B603B8ADB0BB3
:10151000FCD19EE77B681E4A13407B603B8ADB0B55
:10152000FCD1C0237A689B0213437B603B8ADB0BB0
:10153000FCD19FE7C02362689B0213436360238A48
:10154000DB0BFCD1D5E706204042B6E602230220A1
:10155000BB734042ADE66B68002B04DD80236A88D4
:101560005B0113436B806B881BB2002B06DB0220F0
:101570006B88074A404213406B809AE6C0237A6822
:101580009B0213437B603B8ADB0BFCD1EFE7C04639
:10159000FFFEFFFFF0B5C646444B00B5CB189B0AD3
:1015A000DBB206000C00002B00D168E0032B00D159
:1015B00071E00025002800D170E020003C4B3D4A3E
:1015C0009846431E98414146C0B23B4FB847002D54
:1015D00000D168E0238ADB0BFCD1238ADB0BFCD132
:1015E0002268920706D52360238ADB0BFCD1238A6D
:1015F000DB0BFCD101232360238ADB0BFCD1238A84
:10160000DB0BFCD12A681C3334601340082B1FD03D
:101610002A4A41460120B8472A68294B13402360D3
:10162000238ADB0BFCD180236A6826499B02114088
:101630000B4363602B7BA3726B7B237207231340E6
:101640005A1E934100200133337104BC9046F0BD13
:101650001D4A41460120B8472A68194B13402360B0
:10166000238ADB0BFCD16A68184B13436360AB68B9
:1016700063616B7B2372238ADB0BFCD1DEE7144DA5
:10168000002E00D099E70A4B0A4A190000200A4FA1
:101690009846B8479EE70E4D1035F1E7054A0449D4
:1016A0000020054B98470D204042CEE700F8FFBDD3
:1016B0008C550100CB0800001D0A00009A080000AC
:1016C000FCFEFFFFBF3FFDFFAB0800004000020033
:1016D000A855010010B5041E14D00068431E98419F
:1016E000C0B20B4A0B4B0C4998472268138ADB0B9C
:1016F0000AD1022113680B431360138ADB0BFCD160
:10170000002010BD0020ECE704204042F9E7C0466D
:10171000320900001D0A00008C550100F8B5CE46C4
:10172000474680B50B6804689946037920009846BF
:10173000431E98414D683C4B0E00C0B23B4A3C49A9
:101740009847238ADB0B68D1238ADB0BFCD1236803
:101750009B0765D54346002200200421012B33D985
:1017600001239C46A37BDBB2194216D0238B9BB28C
:10177000002D03D02B701B0A6B7002350132B36849
:101780009842EFD39342EDD80322A37B1A42FCD0B8
:10179000A2730CBC90469946F8BD9042EFD86746BC
:1017A0001F42ECD04B46002B0CD01B7898464B4682
:1017B00047465B781B023B430227B846C1440130D1
:1017C0002383DCE71B4BFAE701239C46A37BDBB2B8
:1017D00019420FD0238B9BB2002D01D02B70013505
:1017E0000132B3688342F1D89A42CDD2A37BDBB2F7
:1017F0001942EFD19042F4D867461F42F1D04B46D0
:10180000002B08D001274B46B8461B78C1449BB239
:1018100001302383E5E7074BFAE704204042B8E7AD
:1018200014204042B5E7C0461D0A0000290A000006
:101830008C550100FF0100000D4B0E481A6A196A11
:101840000240890F0C48890701430A4302211A62AA
:101850009A690A439A611F22197F0A4008211A7760
:10186000DA681142FCD080211A6A0A431A62704772
:10187000000800400000FF0F0203000002231021B7
:101880001A4A9384D3681942FCD0194BD362194B7E
:101890001B689B0E3F2B26D080229B029200134395
:1018A000124A1021936202239384938C5B0713D511
:1018B000D021D3680B40D02BFBD180210B4A938CD5
:1018C0000B4393840C4A5378DB09FCD10221074A6D
:1018D00093698B4393617047D3681942EDD1D36804
:1018E0001942F9D0E9E7FC23DB01D9E70008004001
:1018F0000000010424608000000C00400C4B70B517
:101900001D6801232C69A27B134205D0A3732B68A9
:10191000002B01D028009847637B9B0706D5022344
:10192000A3736B68002B01D02800984770BDC04698
:10193000700A00200C4B70B51D6801232C69A27B36
:10194000134205D0A3732B68002B01D028009847C1
:10195000637B9B0706D50223A3736B68002B01D022
:101960002800984770BDC046740A0020F8B50E4C98
:10197000170020816181A3816082A1820E00618AAB
:10198000A28A0A4B050089B292B2094898470023FF
:10199000E7812382002F04D0B42F02D0A680E580F7
:1019A00001E0A580E680F8BD6C0F002031B7000093
:1019B000A8610100014B18607047C046840F0020E9
:1019C000014B18607047C046680F002070B5264B69
:1019D0009C88844200D3DC88DC89A4B25A2C38D09D
:1019E00034D9B42C21D087256D00AC421CD15C8940
:1019F000013C241A0800A1B21C8AA4B2012C20D0F8
:101A0000002C0BD0022C05D0032C0DD11C89013CDD
:101A1000201A80B25C89013C611A89B21C89A042FB
:101A200002D85B8999421AD970BD1C89013C201AE1
:101A30005C8980B2013C611A1C8A89B2A4B2012C73
:101A4000DED11C89013C201A80B2E7E7002CD3D0FC
:101A5000EAE71C89013C641A0100A0B2CCE7034B01
:101A60001B689847E0E7C0466C0F0020680F002015
:101A7000F0B55746DE4645464E461C00E0B5072702
:101A800087B0019310AB039010001A8811AB9346F6
:101A90001A8804910292A288203817407B1E9F4129
:101AA000D308FB1807000D00E188AA464F435F43A7
:101AB00023689C4605936744002900D1D6E0824BF9
:101AC00098469946039E0025002A4AD1C2E04B461B
:101AD0009B88B34201D34B46DB884B46DB899BB2E4
:101AE0005A2B00D1D1E000D89FE0B42B00D1DFE029
:101AF000872149008B4229D14B46504659890139EB
:101B0000891B89B24B461B8A9BB2012B00D196E000
:101B1000002B0DD0022B06D0032B17D14B461B896F
:101B2000013B181A80B24B465B89013B591A89B2B6
:101B30004B461B89834209D34B465B898B4205D3B5
:101B4000624B029A1B689847019B9A88073C634244
:101B50005C4101350136ADB23F19B6B2954200D3B2
:101B600073E007245A4B2C4039789B4542D08023A0
:101B700023410B42ABD143469B88B34201D343463A
:101B8000DB884346DB899BB25A2B00D175E03DD9F7
:101B9000B42B00D181E0872149008B42D6D1434646
:101BA000504659890139891B89B243461B8A9BB229
:101BB000012B34D0002B0DD0022B06D0032BC5D126
:101BC00043461B89013B181A80B243465B89013B9F
:101BD000591A89B243461B898342B7D343465B896E
:101BE0008B42B3D3394B5A461B6805939847019BE8
:101BF0009A88ABE7802323410B42A7D0029A354B4A
:101C0000514630009847019B9A889FE7002B9DD151
:101C100043461B8A51469BB23000012BCAD1434632
:101C20001B89013B181A80B2D4E7002B8ED14B469A
:101C30001B8A51469BB23000012B00D068E74B460F
:101C40001B89013B181A80B272E7530700D0013795
:101C5000019BD988534604981B1A50460133013022
:101C600080B29BB282468B4200D22BE707B03CBCCD
:101C700090469946A246AB46F0BD43461889534666
:101C80000138C01A80B231008FE74B46188953469D
:101C90000138C01A80B2310034E7434618895989A7
:101CA000534601380139801BC91A80B289B27CE7DA
:101CB0004B4618895989534601380139801BC91A86
:101CC00080B289B21EE7C0466C0F0020680F00206A
:101CD000FFFF0000CD190000F0B557464E46DE4626
:101CE0004546E0B585B098460EAB1B88274E03935A
:101CF0000FAB1B8881469B46B3888A4617009842E3
:101D000000D8F3883A78002A38D043465546998857
:101D10004C46029715E04346DB88F088EB18834277
:101D200001DD55464C46B3889C4202D8F3889D425B
:101D300011D9029B641801331A780293A4B2002AC5
:101D40001CD0B38860189842E5DD4346DB884C46DA
:101D50005D19ADB2E1E75B460193039B2900009357
:101D6000200043460A4FB84743469988029B6418AF
:101D700001331A780293A4B2002AE2D105B03CBC28
:101D800090469946A246AB46F0BDC0466C0F002077
:101D9000711A0000F0B5DE4657464E4645466F20A4
:101DA000FD23E0B59DB06844C024802780250370E2
:101DB0009A469423E4052D027F02FE4EE75001214E
:101DC00065619946B0476E201223684403709823DA
:101DD0000121E75065619846B0476D20534668443D
:101DE000A56103704B460121E7506561B047B123FF
:101DF0001BA8037043460121E7506561B0476B2083
:101E0000AE236844A56103704B460121E75065612C
:101E1000B0476A20B323684403704B460121E75062
:101E20006561B0476920F12368440370434601218E
:101E3000E7506561B047CA231AA8A56103704B46F5
:101E40000121E7506561B04767207F236844037034
:101E50009B4643460121E7506561B0476620A023B9
:101E60006844A56103704B460121E7506561B047A6
:101E7000652074236844037043460121E75065617F
:101E8000B047152319A8A56103704B460121E750FF
:101E90006561B0476320002368449A460370434657
:101EA0000121E7506561B04762205B466844A56147
:101EB000037043460121E7506561B04761207523F7
:101EC0006844A56103704B460121E7506561B04746
:101ED000534618A8037043460121E7506561B04797
:101EE0005F205B466844A561037043460121E750CB
:101EF0006561B0475E20A1236844A56103704B462D
:101F00000121E7506561B0475D2053466844037086
:101F100043460121E7506561B047A22317A8A56198
:101F200003704B460121E7506561B0475B20534683
:101F30006844037043460121E7506561B0475A2069
:101F4000B5236844A56103704B460121E7506561E4
:101F5000B047592053466844037043460121E75077
:101F60006561B047AB2316A8A56103704B460121FC
:101F7000E7506561B047572001236844037043462A
:101F80000121E7506561B0475620B1236844A5613F
:101F900003704B460121E7506561B047552032235D
:101FA0006844037043460121E7506561B047BE2392
:101FB00015A8A56103704B460121E7506561B04744
:101FC00053200523684403709B4643460121E75094
:101FD0006561B0475220A6236844A56103704B4653
:101FE0000121E7506561B0475120C1236844037067
:101FF0004B460121E7506561B047882314A8037060
:102000009A4643460121E7506561B0474F20A0231F
:102010006844A561037043460121E7506561B047FC
:102020004E2053466844A561037043460121E750A2
:102030006561B0474D20C7236844A56103704B46D6
:102040000121E7506561B0470F2313A803709A463A
:1020500043460121E7506561B0474B20B8236844EF
:10206000A56103704B460121E7506561B0474A20E6
:1020700002236844037043460121E7506561B0477D
:10208000492003236844A561037043460121E750BA
:102090006561B047042312A8A5610370434601217E
:1020A000E7506561B04747205B466844A56103700F
:1020B00043460121E7506561B04746200623684446
:1020C000A561037043460121E7506561B047452093
:1020D00007236844A561037043460121E750656109
:1020E000B047082311A8A561037043460121E750BA
:1020F0006561B047432009236844A56103704346E6
:102100000121E7506561B04742200A236844A56178
:10211000037043460121E7506561B04741200B231E
:102120006844A561037043460121E7506561B047EB
:102130000C2310A8A561037043460121E750656197
:10214000B0473F200D236844A56103704346012139
:10215000E7506561B0473E200E236844A5610370D7
:1021600043460121E7506561B0473D20534668442E
:10217000A561037043460121E7506561B047102314
:102180000FA8A561037043460121E7506561B04780
:102190003B2011236844A561037043460121E750A9
:1021A0006561B0473A2012236844A5610370434635
:1021B000012101E0C52F0000E7506561B0473920DB
:1021C00013236844A561037043460121E75065610C
:1021D000B04715230EA8A561037043460121E750BF
:1021E0006561B047372017236844A56103704346F3
:1021F0000121E7506561B047362019236844A56185
:10220000037043460121E7506561B04735201B2329
:102210006844A561037043460121E7506561B047FA
:102220001D230DA8A561037043460121E750656198
:10223000B04733201F236844A56103704346012142
:10224000E7506561B047322021236844A5610370DF
:1022500043460121E7506561B0473120232368449C
:10226000A561037043460121E7506561B04725230E
:102270000CA8A561037043460121E7506561B04792
:102280002F2027236844A561037043460121E750AE
:102290006561B0472E202A236844A5610370434638
:1022A0000121E7506561B0472D202D236844A561C9
:1022B000037043460121E7506561B04730230BA806
:1022C000A561037043460121E7506561B0472B20AB
:1022D00033236844A561037043460121E7506561DB
:1022E000B0472A2036236844A56103704346012184
:1022F000E7506561B047292039236844A561037020
:1023000043460121E7506561B0473C230AA8A56117
:10231000037043460121E7506561B04727203F2302
:102320006844A561037043460121E7506561B047E9
:10233000262042236844A561037043460121E750EB
:102340006561B047252045236844A5610370434675
:102350000121E7506561B047482309A8A5610370D2
:1023600043460121E7506561B04723204C23684470
:10237000A561037043460121E7506561B047222003
:1023800050236844A561037043460121E75065610D
:10239000B047212054236844A561037043460121BE
:1023A000E7506561B047582308A8A561037043460C
:1023B0000121E7506561B0471F205C236844A56197
:1023C000037043460121E7506561B0471E2060233A
:1023D0006844A561037043460121E7506561B04739
:1023E0001D2064236844A561037043460121E75022
:1023F0006561B047682307A8A561037043460121C2
:10240000E7506561B0471B206C236844A5610370E9
:1024100043460121E7506561B0471A2070236844A4
:10242000A561037043460121E7506561B04719205B
:1024300074236844A561037043460121E750656138
:10244000B047782306A8A561037043460121E750F1
:102450006561B04717207D236844A561037043463A
:102460000121E7506561B047162082236844A561C9
:10247000037043460121E7506561B047152087236B
:102480006844A561037043460121E7506561B04788
:102490008C2305A8A561037043460121E7506561BF
:1024A000B047132091236844A5610370434601217E
:1024B000E7506561B047122096236844A561037018
:1024C00043460121E7506561B04711209B236844D2
:1024D000A561037043460121E7506561B047A02321
:1024E00004A8A561037043460121E7506561B04728
:1024F0000F20A5236844A561037043460121E750DE
:102500006561B0470E20AA236844A5610370434665
:102510000121E7506561B0470D20AF236844A561F4
:102520009A46037043460121E7506561B047B423E2
:1025300003A8A5619B46037043460121E7506561EE
:10254000B0470B205B466844A56103704B460121F0
:10255000E7506561B0470A20A023684403704346F2
:102560000121E7506561B0470920B5236844A561A2
:10257000037043460121E7506561B047552302A827
:10258000A561037043460121E7506561B0476B4682
:10259000D81DB623A56103704B460121E750656144
:1025A000B0476B46981D0123037043460121E75055
:1025B0006561B0476B46581D5346A56103704B4695
:1025C0000121E7506561B0471DB03CBC904699467B
:1025D000A246AB46F0BDC04670B5C0248026E405D7
:1025E000360382B00E4DA6616420A8476661642060
:1025F000A8476420A661A8470A4B9847C820A84767
:102600006B468022D81DAF23520203701B3BE25061
:1026100080231B0263610121034B984702B070BD08
:10262000C9010000951D0000C52F0000F0B5DE4671
:1026300057464E464546E0B5C3B06B468046C0257A
:10264000D81D802715238026ED0536027F020370F2
:102650007F33374CEF5001216E619A46A0476B469D
:10266000981D002303709B4698230121EF506E6153
:102670009946A0476B46581D7F23AE6103704B46B9
:102680000121EF506E61A047752301A8AE61037070
:1026900053460121EF506E61A0476B46D81C5B4644
:1026A00003704B460121EF506E61A0476B46981CAA
:1026B0007F23AE6103704B460121EF506E61A0474E
:1026C0006B46581C5C23AE61037053460121EF50EA
:1026D0006E61A0474B46EF50434641465A100F23C8
:1026E000C9111A400B401B0112031A4343461B0B2E
:1026F0001B0213431A041A436E6102AB42A904C3BE
:102700008B42FCD180258021013D490002A8ADB259
:10271000A047002DF7D18022C0231202DB059A6169
:1027200043B03CBC90469946A246AB46F0BDC0467D
:10273000C52F0000F0B5DE4657464E464546E0B58B
:1027400085B002AB8146C024981C802615238025C5
:10275000E4052D02760203707F332F4F00928846E6
:10276000E650012165619B46B8476A464B46D371E6
:10277000D3790121994602ABD81C4B4603709823AC
:10278000E65065619A46B8474B4603A8013BA561F0
:10279000037053460121E6506561B84702AB581DEE
:1027A0007523A56103705B460121E6506561B8475A
:1027B0006A464346D371D3790121984602AB981DEE
:1027C000434603705346E6506561B84702ABD81DD7
:1027D0004346013BA561037053460121E650656104
:1027E000B84702AB581C5C23A56103705B4601210E
:1027F000E6506561B8475346E6506561009F074E55
:10280000380AB047F8B2B047A56105B03CBC904665
:102810009946A246AB46F0BDC52F0000E12F00004F
:102820000022014B1A707047A60A00200122014BBA
:102830001A707047A00A00208022C0231204DB0512
:10284000DA61704770B5C0248025E405AD04A56148
:102850000220044B9847044A656113780133DBB2C8
:10286000137070BDC9010000A10A0020F0B5DE465A
:1028700057464E464546E0B5A3B0802202A92B48F4
:102880002B4B9847002840DD2A4902AB88462A494D
:1028900018188A4629492A4A00268946C3461BE059
:1028A0000D2C39D00A2C37D001251570214D2970F7
:1028B000117800290DD029787E2931D82978C9B21C
:1028C0004F1C00916946CF71CF7900992F701A4D36
:1028D0006C540133834218D011781C78C9B2002996
:1028E000DED011780029F4D00D2C02D05D460A2CE0
:1028F000E1D14146544609780133C9B266540121F9
:102900004C46217016708342E6D123B03CBC904601
:102910009946A246AB46F0BD11780029E9D1D8E727
:102920000121084C16702170D3E7C04648100020E2
:1029300045030000A40A00208C0F0020A30A0020F9
:10294000A50A0020A20A00207047C04670B5C02426
:102950008025E405AD04A561014B9847656170BD14
:10296000C9010000C0228023F0B5DE4657464E461E
:1029700045468024D2059B03E0B5B74953615525F0
:102980009360B64BE4059C6299620121585DD126A3
:102990008843585580203F35800250510C3D50519E
:1029A000A820AF4D1C501D509D5D47278D439D5560
:1029B000802595619560AB4D9D62C0252D069D6279
:1029C000DE5D8E43DE558026760056619660A64E0B
:1029D00001379E629D628025DE5DAD008E43DE552F
:1029E000AC4655619560A14D01379D62C0252D060D
:1029F0009D628025DE5DED008E43DE55A946556162
:102A00009560C0259A4E2D069E629D6280250137F5
:102A1000DE5D2D018E43DE555560964D04269D6288
:102A20004B25954FA8469F625D5DB543AB46454635
:102A30005E465E555D5D8D43AB4645465E465E55E2
:102A400080252D02956195608C4D9D62C0252D06D7
:102A50009D624F25AA465D5D8D43A8465546464674
:102A60005E5580252D0455619560854D9C629D6263
:102A70005725AB465D5D8D43A8465D4646465E558F
:102A8000664641355651AB46103D5651774D1D5067
:102A9000C0252D061D50C925A8465D5D8D43AC4659
:102AA000454666465E554E46453DAC465651754DCB
:102AB00004261D50CA251F50A8465D5DB543A94692
:102AC00045464E465E555D5D8D43A94645464E469C
:102AD0005E558026654636015651664D04261D50CA
:102AE000CB251F50A8465D5DB543A94645464E46D9
:102AF0005E555D5D8D43A94645464E465E55802533
:102B0000ED0355619560604D9C629D625625A94616
:102B10005D5D8D43A8464D4646465E5580256D0455
:102B200055619560594D9C629D625825A9465D5D31
:102B30008D43A8464D4646465E558025AD045561F9
:102B40009560534D9C629D625925A9465D5D8D43FC
:102B5000A8464D4646465E55193DA846654646463A
:102B600056514C4D3C3E1D50C6251F50A8465D5D3C
:102B7000B543A94645464E465E555D5D8D43A94623
:102B800045464E465E55A63DA846654646465651C4
:102B9000414D1C3E1D50C5251F50A8465D5DB543E7
:102BA000A94645464E465E555D5D8D43A946454660
:102BB0004E465E55B53DA846654646465651374D8C
:102BC0000C3E1D50C4251F50A8465D5DB543A94667
:102BD00045464E465E555D5D8D43A94645464E468B
:102BE0005E556546802656512D4D7C3E1D501F502A
:102BF000C727DD5DB543DD558025DE5D2D028E43A3
:102C0000DE55956195601D4D56469D62C0252D0689
:102C10009D6255465D5D8D439D5580255E466D02E6
:102C20009551103E95511F4D1C501D50D025585D9B
:102C300088435855802000039061906053201A4AC1
:102C40009C629A621A5C8A431A543CBC904699462C
:102C5000A246AB46F0BDC046200000C00044004183
:102C6000020000C08000004000010040000200405F
:102C70000004004000080240000002C00080004044
:102C8000800000C000040240400000C0000100C0FD
:102C9000000200C04000024020000240100002403C
:102CA00080000240010000C0080000C0F8B5DE4608
:102CB00057464E4645460421E0B53C4A3C4F136A10
:102CC0008A460B4313623B4A3B4B38005A803B4BCE
:102CD000C025994619003A4BED05984698470121C1
:102CE00010238C466B61374CAB60374B4422A36298
:102CF000C023012661461B06A3629B46A35C0F20EE
:102D0000B3430B430321DBB2A354123AA35C8343C6
:102D10000B43DBB2A35420236B61AB602B4B6146AA
:102D2000A3625B46A36245239B46E35CB3430B432C
:102D30005946DBB26354A35C153903400B43A354DB
:102D400040236B60224B5146A362224BA362462371
:102D5000E25C8A436146E254E25CB2430A43D2B287
:102D6000E25433220321A35C83430B43DBB2A3541D
:102D700049463800C04718493800184B9847380072
:102D8000174B984780231B03AB61AB608023532212
:102D9000DB05A362134BA362A35CB343A3543CBC07
:102DA00090469946A246AB46F8BDC0460004004096
:102DB000281000200D400000000C004000080042D8
:102DC00029040000004400411000004020000040A1
:102DD00040000240000002C0880F0020A50400004F
:102DE0007D040000080000C0C0238022DB055A617A
:102DF0007047C046C0238022DB059A617047C046F9
:102E000010B5044B0A001B6801001800024B9847DC
:102E100010BDC046880F00204503000010B5044BCC
:102E20000A001B6801001800024B984710BDC046FD
:102E3000880F00203D03000010B582B06B46DC1DFA
:102E400000232370044B012218682100034B98478C
:102E5000207802B010BDC046880F00204503000056
:102E600000B583B06B46D91D034B0870012218686A
:102E7000024B984703B000BD880F00203D030000BF
:102E8000F8B5DE4657464E4645462021E0B50127B7
:102E9000374A384C136A384E0B431362374A384B63
:102EA00031005A80374B20009B469847C022802330
:102EB00080215020B846D2055B0253619360324BAB
:102EC000C90599628A463149B9469962195C4D46ED
:102ED000B94347463943C9B2195438210F27585CC2
:102EE000BC46B84303273843C0B258548020800200
:102EF0005061906050469862254898625120824601
:102F0000185CA843454628435546C0B25855654607
:102F1000585C28402135284358548021C90251600B
:102F20001C4A04209A621C4A9A625222995C81438C
:102F300048469954995C814340460143C9B299542B
:102F4000392160465A5C82433A43D2B25A54200037
:102F50003100D84711492000114B98472000114BF0
:102F600098473CBC90469946A246AB46F8BDC04641
:102F70000004004010100020001400421040000027
:102F8000000C00402904000000440041010000C082
:102F9000020000C000000240040002C00C1000202B
:102FA000A50400007D04000010B5044B0A001B6856
:102FB00001001800024B984710BDC0460C100020BD
:102FC0004503000010B5044B0A001B6801001800FF
:102FD000024B984710BDC0460C1000203D03000076
:102FE00000B583B06B46D91D034B087001221868E9
:102FF000024B984703B000BD0C1000203D030000B9
:10300000F0B5C646102100B51D4A1E4C136A2000BB
:103010000B4313621C4B1D4A1D495A801D4A012750
:103020005A801D4B98474C20042201261B4B362505
:10303000195C91431954195CB9433143C9B219540D
:103040000F21585D884688430D39084358554D2057
:10305000195C9143195441461A5CBA433243D2B2C7
:103060001A545A5D200011402022114359550C4931
:103070000C4B984720000C4B984704BC9046F0BD81
:1030800000040040B4100020000C00400F4000007D
:10309000001000420C430000E9020000004400411F
:1030A000441000203503000029030000014B18786C
:1030B000C0B27047A30A0020F0B5C64600B5134D54
:1030C0002B78002B06D0002302242B70200004BC98
:1030D0009046F0BD0E4E00243378002BF6D00D4BF9
:1030E0000D4F98463A78190001320C4B98470C4B1B
:1030F00080220021404698470A4B3470DC631C64F0
:10310000094B3C701C702C700134DFE7A20A0020D0
:10311000A30A00208C0F0020A40A0020F9B50000AB
:103120007DB6000048100020A50A00204021F0B51F
:10313000274A284C136A85B00B431362264A274B53
:1031400027495A800023274A0093274D80332000C7
:10315000A847CC2101200127244B0F265A5C0225C9
:1031600082433A43D2B25A54B6228446985CB04362
:103170002843C0B2985460461832995C8143394361
:10318000C9B29954B7215A5C2000B2432A43D2B243
:103190005A54174B17499847174D184A01212000D8
:1031A000A847174A00212000A847164A02212000FC
:1031B000A847154D0F236B44012219002000A84792
:1031C0000028F7D12000114B984705B0F0BDC0464C
:1031D000000400404810002011400000000C004096
:1031E000001800428C0F0020BD0800000044004180
:1031F0007909000040100020A509000021280000E6
:103200006D28000045280000450300004D0900001E
:10321000F0B5C6462C4B00B598472C4B98472C4B25
:1032200098472C4B98472C4B98472C4B98472C4948
:103230002C4B2820984720212B4A2C4F936901269C
:103240000B4393612A4B7B802A4B98472A4C020000
:103250002A4920002A4B984780232A4D2A491B01DE
:10326000AB608B60294B2A4AEB602A4B2000CA6076
:1032700098460E742E74984729002000C0472000FD
:10328000254B9847254B8021C0227B808423490011
:10329000D205D150A822224B22490420995022491C
:1032A0009950C8215A5C82435A545A5C0338B2433D
:1032B00002435A5414395A5C0E3082435A541B4B01
:1032C000984704BC9046F0BDF50B0000652900004E
:1032D000AD2C0000812E0000013000002D310000D7
:1032E000492900004902000000040040000C004091
:1032F00002430000DD0E0000981000200014004082
:10330000B90500008C0A0020780A00203928000046
:103310002D28000039060000FD05000003410000D3
:103320000044004100010240000002C025020000EC
:1033300070B5134B05009847C0B2002800D170BD8E
:103340000123104E104C82B2290030680F4D2370BB
:10335000A8470F4B02E0013B002B02D02278002A45
:10336000F9D10123306802220A492370A847084B8B
:1033700002E0013B002BE2D02278002AF9D1DEE7FF
:103380009DBB000040100020A60A00203D03000065
:10339000A086010028890100012370B5064C1500A4
:1033A0002370064B92B21868054B98472378002B80
:1033B000FCD1280070BDC046A60A002040100020A5
:1033C0003D03000000207047F0B5DE4657464E46EC
:1033D0004546E0B5304B87B005A8C0259B469847C9
:1033E0008023ED05E8589A462C4B90279946A02358
:1033F00098464B4642469A58EB59294E534018403E
:10340000504005AA01901000B04704AA1000D84708
:1034100052464146AC584A465258EB5953401C401C
:10342000544004AA1000B04703AA1000D8475246DF
:103430004146AB584A465158EA594A4013404B401E
:1034400003A908000093B047E0090124009A204036
:10345000930923409B0040001843019B5B092340D4
:103460001843009002A8D84752464146AB584A46F6
:103470005058ED5945401D40454002A8B047280925
:103480002040009BC000184307B03CBC90469946C2
:10349000A246AB46F0BDC0468D010000004400418D
:1034A0009D0100000022024B18781A707047C04638
:1034B000A00A002001221F4B70B51F491A701F4837
:1034C0001F4B98471F492048204B984720492148C7
:1034D000214B9847214B98476420214B984721481E
:1034E000214B01009847214B9847214C5A3060727C
:1034F000204B20009847204B210000209847B02007
:103500001E4DFF214001A847C020FF214001A847D0
:10351000982000214001A847A02001214001A84790
:10352000174C184E200004212034A847B442F9D18A
:10353000012070BD290B0020F52D0000E92D0000B1
:10354000814D0000612E0000392E0000A54D0000C5
:103550001D2E0000012E0000D14D0000AD500000D6
:10356000C9010000340000202D4F0000C9330000C5
:103570001C000020DD500000FD4D0000194A000035
:10358000082C0000082D0000C223F0B55746DE4687
:103590004E4645469B009C46E0B5D64CDDB02078B3
:1035A000D54F40016044B847002800D117E182237D
:1035B0009B009C46207840016044B847C30600D079
:1035C000B7E0CE4B05269B46CD4B9946CD4B4D469D
:1035D0009A46CD4B9946A9444846B847172839D052
:1035E0008021CA4B89021B78012B2ED0C022942344
:1035F000D205D1508022C64B92031B78012B20D0DC
:10360000C023DB055A614846B84700280ED0022384
:103610009C460136F6B2E3442035082ED9D15DB080
:103620003CBC90469946A246AB46F0BD5B460121A4
:103630005A8930000023B74CA0473000B64B98475A
:10364000E5E7C023DB059A61DDE7C0229733D205A9
:10365000D150CFE718AA0421B04B30009847300072
:10366000AF4B9847041EBBD08022AE4B120118000E
:1036700098460021AC4B98478023221C1B019C429A
:1036800000D9B7E0414692B23000A84B9847A8490C
:103690004046A84CA047002800D1AEE0A64BA74862
:1036A00098470023A64A1392A64A90464A4699464E
:1036B0005B46149215934A46A34B9B1A9B46802364
:1036C0001B019B4500D99B466A4640215B46521828
:1036D00013806B4640229B181A889C4B30004B4449
:1036E0001900139B984701E00120D0473000C047E4
:1036F00004002800B84780028442F5D1944BD94495
:103700009945D8D9149B9946159B9B463000914BFF
:10371000984702E001207B4B98473000C0470400E7
:103720002800B84780028442F4D130008A4B984781
:1037300056E720787A4B9847051E00D141E7802351
:103740001B019846774E1A0000213000764B9847AF
:103750002A1C454500D9424606A98C4646236344A7
:10376000207892B20093310018AB7C4CA04719AA84
:103770007B4930007B4DA847012800D136E100236A
:103780009846794B794C99461CAA79493000A8474C
:10379000012800D18DE077493000C847002800D1CA
:1037A000A1E04346002B01D1734B2360734B744E51
:1037B0000221328898461878564D0123A847714D4A
:1037C000714B287020009847434682B2187833889E
:1037D000210000936D4C6E4BA0472870F1E66D4BB5
:1037E00020781A88022180234A4DA84720784A4B26
:1037F0009847DCE6684B1A8844E768494046A0478A
:10380000109000280FD04C4B654898474C4B2F2206
:10381000644930001C009847634A64493000A0475F
:10382000484B984672E762494046A047002800D1BD
:1038300005E1604B1C68604B1B681A1C01230F9349
:103840000E93109B101C0D935C4B10921B780C93E5
:103850002F4B1B780B932D4B1B780A93584B984694
:10386000984708900991201CC047564B0690079135
:103870001099201C9847C04704900591524B186836
:10388000C04702900391514B1868C04700900191C6
:1038900080214F4A49004F4B1CA898471CA83A4B1F
:1038A00098471CA982B23000254B9847254B984673
:1038B0002CE749491CA8C847002800D1A6E0474981
:1038C0001CA8C847002800D065E71B4B4448984710
:1038D000444B1A6822609B88A38026493000C84761
:1038E000002800D062E7404B1A8822809B78A370A2
:1038F0005CE7C0460E000020BD4900003C000020EF
:10390000A81F0000C901000000E4FFFF33000020F1
:103910002A0B0020C53B00004D3E00007D48000002
:10392000C14B0000D41000207DB6000029420000E9
:10393000F8670100C5BE0000F5B70000006801008F
:1039400031400000654B0000AF1D0000E069010040
:10395000AE1D0000213F0000B53D0000E545000020
:1039600050670100F5B80000E5B90000A80A002082
:103970008C670100F067010065727200280B00205F
:1039800010000020D41800209DBB0000114400004E
:10399000080000200C000020CA610100146801002A
:1039A000286801003C68010082050000CC6101002C
:1039B0006C6801001800002050000020290B002036
:1039C00035AC0000059700004C00002014000020DA
:1039D0007C6801002DB8000098670100C4670100F1
:1039E000CC670100E867010074670100574B584934
:1039F00019A899469847002813D0564919A8C847CE
:103A000000281AD00023544C9846BDE6534B544826
:103A10009847544B1A6822609A88A2809B79A371B8
:103A20005BE751484D4B9847504B4B4C1A882280CE
:103A30009B78A37001239846A6E64D48F2E74D49CE
:103A40004046A04700281DD04B4B4C4998464C4C53
:103A500042464C4B0E30A04743464B4C1868A0479B
:103A6000484B109011911868A047109A119B009034
:103A700001914649464888470123464A4649137002
:103A8000432210E745494046A047002800D10DE7F2
:103A90001CAB19AA42493A4C0D30A04719A91CAADF
:103AA00040483A4B9847404919A8404CA047002845
:103AB0002FD03F4919A8A047002817D03D4919A881
:103AC000A047002802D041223349ECE63A4B0330AC
:103AD00098473A491CA8A047030058425841384B20
:103AE0002C4A1870012313704122EDE7324B03304A
:103AF000984732491CA8A04743424341254A1370C6
:103B00008022C023D200DB0500281AD19A6141220D
:103B1000DAE70330284B9847284B1CA81900984631
:103B2000A0478022C0235200DB0500280CD19A61F7
:103B300041461CA8A0478022C0239200DB05002834
:103B4000E4D05A614122BFE75A61F1E7E5B90000CC
:103B50006067010078670100A80A0020F5B700003F
:103B6000A0670100BC670100646701007467010081
:103B70007C6701002C690100140000203C690100F1
:103B8000F5B800004C00002035AC000031B7000053
:103B90004C6901002A0B0020586901009C69010052
:103BA000AC690100C4690100D069010015BB0000C7
:103BB000D8690100DC6901004D290000D4690100C9
:103BC00033000020F0B557464E46DE464546E0B588
:103BD00087B00700894600929A46082800D9D2E0AB
:103BE000012900D192E0002900D186E0042900D902
:103BF00083E053465B0700D5A2E05346002B00D17B
:103C0000B8E04B46012B00D19DE0022B00D18AE0A9
:103C100053466A46137113795BB2019308239846A1
:103C20007801804443465D1CFF35584B1021280025
:103C30009B469847564C2800A0470028FBD1060019
:103C4000802080001F214044D8470123BB40DB4334
:103C50001BB21A0002934F4B4E491B8813400B8036
:103C60004D4B1B8813404C4A13804C4A7B00D65264
:103C7000C026039300234A4AB600D3554644300079
:103C8000A0470028FBD10F230199404699434B469A
:103C90001943C9B2D847009B002B5FD0190ADBB289
:103CA00099468020C0004044D847A020C00040442E
:103CB0004946D84701212800D8472800A0470028B6
:103CC000FBD1012255462A40BA40324B02991B884B
:103CD0000B4013432F4A13802F4B2F4A1B880B4056
:103CE00013802E4B039A985200232D4AD35530004F
:103CF000A0470028FBD078B201E00520404207B081
:103D00003CBC90469946A246AB46F0BDF020254B00
:103D10000001042205A998470320059B4042002B7F
:103D200000D066E7EBE753469B0602D45346DB061A
:103D30000DD56A46534604211371515600290BDBF9
:103D400006204042DBE7212352461342F8D06A4660
:103D5000534604211371515601915FE712491348EC
:103D60000A88531C9BB2834207D00B80D3B2110A3E
:103D7000994696E70021019150E70D4B0B80EF2308
:103D8000FF2199468DE701204042B8E7194A00001B
:103D9000BD4900002C0B00202E0B0020380B00200A
:103DA000300B0020754A000054000020F0FF000096
:103DB00000C0FFFFF8B54746CE46804680B50828CC
:103DC00034D846010836771C1A4BFF3710213800CB
:103DD00099469847184D3800A847041EFBD1802308
:103DE0009B00F0181F21C847424601239340DB4344
:103DF00012491BB20A881A400A8011490A881340E6
:103E00000B8043465A000F4B4146D45200220E4BC2
:103E10005A54C0239B009C4666443000A8470028A3
:103E2000FBD101300CBC90469946F8BD01204042C0
:103E3000F8E7C046194A0000BD4900002C0B0020DD
:103E40002E0B0020380B0020300B0020F0B54F4621
:103E5000D6464646C0B5070008282BD84601083686
:103E60003000294CA0470F23184001281CD1C02343
:103E70009B009846B0444046A047132817D1751CB4
:103E8000FF35224B02212800994698472800A04779
:103E90000028FBD14046A04714280ED113381CBC83
:103EA00090469946A246F0BD05204042F7E7032020
:103EB0004042F4E701204042F1E710212800C847C2
:103EC0002800A04782460028FAD180239B00F018E2
:103ED0001F21C8470123BB40DB430D491BB20A88A1
:103EE0001A400A800B490A8813400B8051460A4B3E
:103EF0007A00D1520022094BDA554046A0470028EB
:103F0000FBD10438CBE7C046BD490000194A000088
:103F10002C0B00202E0B0020380B0020300B002033
:103F2000F0B54E46DE4657464546E0B5814683B07D
:103F3000082800D96DE0460108363000364CA0470D
:103F40000F231840012861D1751CFF350821280076
:103F5000324B98472800A0470028FBD10122494650
:103F600013008B40DB431BB2190001932C4B9A4684
:103F70001B880B4051460B8049462A4B9B461B88A9
:103F80000B411A4214D1C0239B00F718013BFF3BA1
:103F90009C46F93BFF3B6644984604E03000A0474E
:103FA000434603420BD13800A0470028F6D1013028
:103FB00003B03CBC90469946A246AB46F0BD1021EA
:103FC0002800164B98472800A04780460028FAD1C1
:103FD0001F21124B300098475B465946019A1B88B7
:103FE00013400B8053461B884146134052461380B2
:103FF0004B465A000C4BD152002249460B4B5A54A7
:104000003800A0470028FBD10D38D1E705204042F9
:10401000CEE701204042CBE7BD490000194A00002D
:104020002E0B00202C0B0020380B0020300B002022
:10403000F0B54E464546DE465746E0B583B006002D
:1040400001911500082800D9ACE0400108306E4C01
:1040500007000090A0470F231840012800D0A4E0DB
:10406000002D00D1A4E0C0239B0038009C46604492
:104070008046A047172802D01C2800D084E0634B5C
:1040800001271B8833411F423CD1F822520194463C
:10409000009B63441800A0478002071C80B2A8421E
:1040A00000D92F1C0123B3409946594BBFB29A4601
:1040B000584B9B463000D84705004046A04717287C
:1040C00001D01C2835D153464A461B881A422DD0B0
:1040D000BD4223D3019930004F4B3A009847009DD1
:1040E00020210135FF3528004C4B98472800A04778
:1040F0000028FBD14A46454B38001B881343434AEE
:1041000013800CE0802292009446009B63441800C8
:104110009946A047C3063AD403074CD4002003B005
:104120003CBC90469946A246AB46F0BDBD42C1D3C9
:10413000D0E7009B10215F1CFF37384B38009B46AF
:1041400098473800A047051EFBD180229200944674
:10415000009B1F2163441800D8474B465246DB435F
:10416000514612881BB21A400A80284A128813400E
:10417000264A13802A4B7200D5520022294B9A55A9
:104180004046A0470028FBD107204042C7E7B74080
:10419000224B1021484698471C4B1C4A1B88BB43A6
:1041A000138072E701204042B9E705204042B6E79C
:1041B0000E204042B3E7009F184B0137FF37102114
:1041C00038009B4698473800A047051EFBD11F21A9
:1041D0004846D8470123B340DB430D491BB20A8848
:1041E0001A400A80094A12881340084A13800C4B6F
:1041F0007200D55200220B4B9A554046A04700282A
:10420000FBD10D388BE7C046BD4900002E0B0020C6
:104210002C0B0020654B00001D4C0000194A0000CB
:10422000380B0020300B0020F0B54E46DE465746D6
:104230004546E0B585B0060002911400082800D973
:10424000CBE040010830694D07000190A8470F23DB
:104250001840012800D0C3E0002C00D1C3E0F023B7
:104260005B019C4638006044A8478002031C80B272
:10427000A04252D8C021019A9BB289008C46039378
:104280001300634498460123B3409946584B9A461D
:104290001300F8225201944663440093554B9B4609
:1042A0003000D04704004046A84717280CD01C28EF
:1042B00035D1002C10D1504B3000984707000098A2
:1042C000A8478002874258D05B464A461B881A425C
:1042D00020D0002C00D17EE0039A271C944200D904
:1042E000171CBFB202993000444B3A009847019C1A
:1042F00040210134FF342000414B98472000A8475B
:104300000028FBD1380005B03CBC90469946A24637
:10431000AB46F0BD002CC3D0DEE7231CAAE7019B0F
:1043200010215F1CFF37364B38009A4698473800FB
:10433000A8470028FBD1802292009446019B0400EC
:10434000634418001F21D0474B46DB4329491BB269
:104350000A881A400A802B490A8813400B802A4B8E
:104360007200D45200224446284B9A552000A84798
:104370000028FBD107204042C5E7019B10215F1CAC
:10438000FF371F4B38009A4698473800A847002847
:10439000FBD1802292009446019B040063441800E4
:1043A0001F21D0474B46DB4312491BB20A881A40F3
:1043B0000A8014490A8813400B80134B7200D452B0
:1043C00000224446114B9A552000A8470028FBD1F3
:1043D0000720404297E7002095E70120404292E7FE
:1043E000052040428FE70E2040428CE7BD49000087
:1043F000C14B00002C0B0020654B0000914C0000CD
:10440000194A00002E0B0020380B0020300B002032
:10441000F0B5454657464E46DE46E0B583B0984671
:104420000CAB0700019116001D88082800D9C3E0D5
:10443000430108331800654C0093A0470F23184030
:104440000238022800D9BAE0002E00D1BAE0434673
:104450001A785B7812029A1843469B7812029B18CE
:104460004246D2781B02D318002B00D193E0002DD6
:1044700000D186E0C02292009446009B634418005D
:104480009946A04742280CD0EF231840222808D094
:104490000720404203B03CBC90469946A246AB463A
:1044A000F0BDC02000018446009B04226344180034
:1044B0004146474B98478023009A5B0110009C4679
:1044C000290A6044434B98478823E9B2009D5B0169
:1044D0009C4628003F4B60449847F8235B019C466C
:1044E00028006044A0478002031C80B2B04250D82C
:1044F0009EB20123BB409846374B38009A46374B53
:104500009B46D04705004846A047002836D05B466A
:1045100042461B881A4228D0AE4244D8019938003E
:104520002F4B32009847009B20215D1CFF3528004F
:10453000284B98472800A0470028FBD180229200F2
:104540009446009B102763441D000823984602E010
:104550004346034229D12800A0470742F8D028004B
:1045600010211C4B9847300094E7AE42D6D9380052
:10457000D04705004846A0470028C8D10420404243
:1045800088E70098A047430700D573E70B20404217
:1045900080E7331CACE70098A047430700D566E7E7
:1045A0000C20404276E7002074E728000821094BE0
:1045B00098470D2040426DE7012040426AE7052000
:1045C000404267E70E20404264E7C046BD49000014
:1045D000ED4A0000194A0000654B00002C0B00203A
:1045E0001D4C0000F0B557464E46DE464546E0B548
:1045F00089B006000391170004920593082800D99A
:10460000C1E0440108342000914D0194A8470F23D4
:104610000340023B0290022B00D910E1002F00D191
:1046200011E18C4A73000093D35A002B52D1C0235E
:104630009B009C460123B3409846874B64449946AF
:10464000864B27009B463000C84704003800A84727
:10465000002800D193E05B4642461B881A4200D1F5
:1046600088E0271E00D192E00723029A1340032B13
:104670004AD0042B00D1B7E0A246022B35D1754BAE
:10468000009A9B5A002B44D1754B06AF390030007D
:1046900008229A469847019C724B0134FF3440210E
:1046A0002000994698472000A8470028FBD1059A8A
:1046B0003B7813707B785370BB789370FB78D37022
:1046C0003A797B7912029B18129A1380BA79FB7996
:1046D00012027EE007220240032A15D0042A18D0D5
:1046E000022A16D0002300279A465F4B390030007B
:1046F0009847584B009A019C9F525A4B0134994657
:104700005A4BFF34984618E0524B009A9B5A002BA4
:1047100040D0534A019C9246524A01349146534A32
:10472000FF349046049A171C9A4200D91F1CBFB24E
:104730003A0003993000D047BA4640212000C847CC
:104740002000A8470028FBD14249009A8B5ADF1B62
:10475000BFB28F52002F03D04346985D0123184308
:1047600043469855504609B03CBC90469946A246EF
:10477000AB46F0BD002C00D165E7270074E70423A9
:104780005B429A46EEE701235B429A46EAE7002342
:104790009A46E7E7324B06AF3900300006229A46C8
:1047A0009847019C2F4B0134FF344021200099464B
:1047B00098472000A8470028FBD1059A3B78137042
:1047C0007B785370BB789370FB78D3703A797B79A0
:1047D00012029B1800991F4A9BB25352234A9046DB
:1047E000802241468A559DE71A4B009A9B5A002B1E
:1047F00000D08EE71A4B06AF3900300002229A46ED
:104800009847019C174B0134FF3440212000994602
:1048100098472000A8470028FBD17B783A78023BD4
:1048200012029B1800990B4A9BB25352104A9342B2
:10483000D4D9104B300098470F4B9A4692E7052386
:104840005B429A468EE70E235B429A468AE7C04651
:10485000BD490000380B0020C14B00002C0B00208C
:10486000914C0000194A0000054D0000300B00205B
:10487000EA050000B53D000017FCFFFFF8B5040095
:104880001500082800D97FE00C2900D979E0414BB8
:1048900089005B589F4620003F4B984728800120A5
:1048A000F8BDC22344019B00E0183C4B9847287098
:1048B0000120F5E74001394B08309847C307EAD497
:1048C000374B6400E35A01202B80E9E740010830B0
:1048D000324B984701285AD0324B01201B5D2B7078
:1048E000DEE7440120002D4B083098470F23984302
:1048F00028700120D4E72C4B40019C46274B604494
:10490000984728700120CBE74001284BF5E790231A
:1049100044015B010834E018204FB8479823060093
:104920005B01E018B8473602301828800120B7E74D
:104930001F4B40019C460422604429001D4B9847B0
:104940000120ADE7802344015B010834E018134FD8
:10495000B84788230600E3E74401083420000F4EDF
:10496000B0470F231840012811D1BC239B01E01848
:10497000B0472880012093E70F4B984728800120FB
:104980008EE7022040428BE70120404288E7052065
:10499000404285E790870100C14B0000BD490000FF
:1049A000380B0020300B002008160000081500000E
:1049B000080C0000754A0000654B000030B5154C2E
:1049C00083B0E3680500984763699847636A002BE2
:1049D00014D0A36A002B11D001A82A0C02702A0A55
:1049E0004270857003219847E36998470500A369E1
:1049F000984723699847280003B030BD280C236AE4
:104A0000C0B29847280A236AC0B29847E8B2236A1E
:104A10009847E9E75800002070B5154C82B0E3686C
:104A200005000E009847636998470420A36A054370
:104A3000002B0ED001A82A0C02702A0A4270857041
:104A4000C67004219847A36998472369984702B024
:104A500070BD280C236AC0B29847280A236AC0B2E6
:104A60009847E8B2236A98473000236A9847EAE7F4
:104A700058000020F0B51C4D83B0EB6807000C0017
:104A8000160098476B6998476B6A002B14D0AB6A85
:104A9000002B11D001A83A0C02703A0A42708770BC
:104AA00003219847310020006B6A9847AB6998470B
:104AB0002B69984703B0F0BD380CC0B22B6A9847F9
:104AC000380AC0B22B6A9847F8B22B6A9847002E72
:104AD000ECD0013EB6B20136A619EB6998472070BA
:104AE0000134B442F9D1E1E758000020F0B51C4C84
:104AF00083B0E36806000D00170098476369984784
:104B00000420A36A0643002B11D001A8320C0270C6
:104B1000320A427086700321984739002800A36A40
:104B20009847A36998472369984703B0F0BD300CB4
:104B3000C0B2236A9847300AC0B2236A9847F0B2DD
:104B4000236A9847002FECD0013FBEB20136AE1960
:104B50002878236A01359847B542F9D1E1E7C04684
:104B60005800002080239B01F0B54001C6469846BE
:104B700001330830FF3307009C4600B5804467448A
:104B800000250E4E01E0A54213D04046B04700027A
:104B900084B23800B0472418A4B2002CF3D04046A9
:104BA000B047000285B23800B0472D18ADB2A5421B
:104BB000EBD1280004BC9046F0BDC046BD490000C2
:104BC00098239B01F0B54001C64698460133083052
:104BD000FF3307009C4600B58044674400250E4E15
:104BE00001E0A54213D04046B047000284B238002D
:104BF000B0472418A4B2002CF3D04046B0470002BE
:104C000085B23800B0472D18ADB2A542EBD12800CF
:104C100004BC9046F0BDC046BD490000F0B54F460B
:104C2000D64646468946C0B5141E26D09023850038
:104C30006E1CF6009B01F718124B38009A469847F5
:104C400094239B019C46804666443000D0474346EF
:104C50001B02181883B29846A81C22001D02C0002F
:104C6000444440194946084BA4B29847210A3800E9
:104C7000064DA847E1B23000A8471CBC90469946B3
:104C8000A246F0BDBD490000ED4A0000194A0000EF
:104C9000F0B54F46D64646468946C0B5141E26D0C6
:104CA000A02385006E1CF6009B01F718124B3800FC
:104CB0009A469847A4239B019C4680466644300050
:104CC000D04743461B02181883B29846E81C2200BE
:104CD0001D02C000444440194946084BA4B29847FD
:104CE000210A3800064DA847E1B23000A8471CBC95
:104CF00090469946A246F0BDBD490000754A0000A5
:104D0000194A0000A023F0B5C646400108309B01B7
:104D1000C7180E4B00B50600380098460C0098479F
:104D2000A4239B019C46664405003000C0472D0229
:104D300024182C19A4B23800054D210AA8473000C8
:104D4000E1B2A84704BC9046F0BDC046BD49000092
:104D5000194A00007047C0460078C0B27047C0468C
:104D600001707047002070477047C0467047C046CA
:104D70007047C0467047C0467047C0467047C0463F
:104D8000002805D0002903D0034B99615861704772
:104D900002490348F8E7C04658000020554D00007E
:104DA0007D4D0000074B1A88920500D4FEE70028CD
:104DB00004D0002902D01962D86170470249034823
:104DC000F9E7C04658000020694D0000654D00001D
:104DD000074B1A88920500D4FEE7002804D000296A
:104DE00002D099625862704702490348F9E7C04609
:104DF000580000206D4D0000714D000070B50C0092
:104E0000052800D981E0424B80001B589F46D820DE
:104E1000404D09784001A847C82061884001090A2F
:104E2000A847D020A1784001A847002070BDD82015
:104E3000394E4001B0472070C8204001B0470500FE
:104E4000D0204001B0472D02281860800020EDE7F7
:104E50009020324D06220001A847210080200E310B
:104E600004224000A8472100A0200A310422C000EB
:104E7000A847F02004220001A11DA847A27C284BCE
:104E800000201A70E27C5A70227D9A70627DDA707E
:104E9000A27D244B1A70C9E79020234D0622000101
:104EA000A847210080200E3104224000A84721009D
:104EB000A0200A310422C000A847F02004220001EB
:104EC000A11DA847164B00201A78A2745A78E274E4
:104ED0009A782275DB786375124B1B78A375A5E76A
:104EE0000C783A2322009A430FD10B4B00209847AD
:104EF0000443E1B20020074B9847002096E70020CA
:104F0000054B98472070002090E7012040428DE734
:104F1000C4870100194A0000BD490000ED4A0000A5
:104F20004C0B0020480B0020754A0000F0B5C64627
:104F30000400902000B586B0554E062200010D00F9
:104F400004A9B0478020042201A94000B047A02056
:104F5000042202A9C000B047F020042203A90001E6
:104F6000B047802100204B4EB0474B4B0020984764
:104F700090204A4F062204A90001B847802004224D
:104F800001A94000B847A020042202A9C000B847E8
:104F9000F020042203A90001B847002C37D0237861
:104FA0005AB2102A00DD6FE062789B18DBB25AB269
:104FB000102A69DCA2789B18DBB25AB2102A63DC93
:104FC000E2789B18DBB25AB2102A5DDC22799B187A
:104FD000DBB25AB2102A57DC62799B18DBB25AB2A4
:104FE000102A51DCA2799B18DBB25AB2102A4BDC92
:104FF000E2799B185BB2102B46DC294B294F98466F
:10500000217838002037B04701344745F8D1002DCA
:1050100035D02B785AB2102A36DC6A789B18DBB26E
:105020005AB2102A30DCAA789B18DBB25AB2102A86
:105030002ADCEA789B18DBB25AB2102A24DC2A79DF
:105040009B18DBB25AB2102A1EDC6A799B18DBB2BD
:105050005AB2102A18DCAA799B18DBB25AB2102A6D
:1050600012DCEA799B185BB2102B0DDC0E4C0D4F55
:10507000297820002034B0470135BC42F8D1002007
:1050800006B004BC9046F0BD01204042F8E7C0469F
:10509000754A0000194A0000BD490000ED4A0000B1
:1050A00008200000081F0000081E000070B5B8248A
:1050B000A401084E2000B0477F21074D0140200089
:1050C000A8472000B047802149420143C9B22000CF
:1050D000A84770BDBD490000194A000070B5010025
:1050E00004009020104D06220001A84721008020D6
:1050F0000E3104224000A8472100A0200A310422DA
:10510000C000A847F020A11D04220001A847A27CEE
:10511000064B1A70E27C5A70227D9A70627DDA70BA
:10512000A27D034B1A7070BDED4A00004C0B0020AD
:10513000480B002070B504003F4BC05C3F4B0002A1
:10514000E55CFF3BFF3BE35C0543EB2B09D01833E9
:10515000DBB2012B05D93A4BE818431E98410230C7
:1051600070BD384B9D424BD03C23E25C013BE35C7D
:10517000120213433D22A15C5A1E03201342EFD1B9
:10518000802292009342EBD10029E4D04B1E1942B9
:10519000E1D13F23E25C013BE35C12021343DAD02E
:1051A0004023E35C013B012BD5D84223E25C013B69
:1051B000E35C12021343CED04423E25C013BE35C88
:1051C000120213437F2B11D85223E25C2300523387
:1051D0005B781B0213435122A25C1B021343502233
:1051E000A25C1B021343184A9342B4D94723002000
:1051F000E25C013BE35C120213438342ABD0AFE7B6
:105200002000124B082212498230984703000020E8
:10521000002BA5D03C23E25C013BE35C120213436C
:105220003D22A15C5A1E134203D180229200934278
:10523000AAD0022094E7C0462F0200002E020000F0
:10524000AB55FFFF55AA0000FFFF0000ADB5000001
:105250005C880100C26AF8B504000D008A422BD0B8
:10526000060003793036002B0DD131006078012320
:105270002A00124EB047002801D1E562F8BD012591
:1052800001206D42F9E70123407831000C4FB84707
:1052900003000120002BF1D12371E26A236AA16986
:1052A000D31A8B42E1D2E378022BDED15218607818
:1052B000013B3100B847D8E70020DFE7958B0000BD
:1052C000858C000070B503790400002B0BD1237886
:1052D000032B24D0374B6078002200219847431ECF
:1052E0009841C0B270BD0600303601234078E26AB2
:1052F0003100314DA84703000120002BF2D123716A
:10530000E26A236AA169D31A8B42E0D2E378022BC6
:10531000DDD152186078013B3100A847D7E76379A7
:10532000012BD7D1250080223035920000212800A2
:10533000224B9847552233218520214B8000E2548F
:10534000204B5532E254DE3BFF3B7A3AA354013204
:10535000A3540F330132A3540F3262543F3121540E
:105360001948215419496254194AA3542369013236
:10537000A354184A190AA154174A190CA154174AE0
:105380001B0EA354E3680132A354154A190AA15411
:10539000144A190CA154144A1B0EA354E3692900A2
:1053A0005A1CE26201236078034DA8470023637111
:1053B00090E7C046198E0000858C00007DB6000085
:1053C0002E0200002F02000015020000160200004D
:1053D00017020000190200001A0200001B02000060
:1053E0001D0200001E0200001F020000F0B54E4624
:1053F000DE46574645460023E0B5066883B00B609D
:10540000002E32D0330002E02B003A2C2AD01C7838
:105410005D1C202CF8D8CA4B1C68002C27D0012515
:105420002378AA430C601600002B0BD06078C54B84
:105430009847054206D10025002E0BD0430709D519
:105440000A2507E0002360782370BF4B98470325A7
:10545000C3070ED5280003B03CBC90469946A2462F
:10546000AB46F0BDB41CA54225D00B25F2E70C25B8
:10547000F0E7002E01D04307E2D4012725000023E6
:105480007F4230352371E7626078013300222900C2
:10549000AE4EB0478046002817D1AD4BE0622000E9
:1054A00099469847022800D1CAE004280ED0012866
:1054B00023D90D25CEE734780B25302CCAD10360D3
:1054C0009F4B1C68002CAAD1D1E7E7620125C1E7F8
:1054D000434623715B46E762013309D060780123BC
:1054E0005A462900B047002800D05CE15B46E362E1
:1054F0002000C847012800D9EAE03C23E25C013BD8
:10550000E35C1202134380221BB292009342D0D17B
:105510004723BB3AE35CFF3AA25C1B021A43904666
:10552000131E0FD15633E25C230056335B781B0207
:1055300013435522A25C1B0213435422A25C1B029C
:105540001A4390464346A3614023E35CE66A5A1E31
:10555000E370012AADD842465A433D23E15C9246AE
:105560008BB26381002BA4D04B1E1942A1D14223E0
:105570004122E35CA25C1B021A4313009146228184
:105580001B0796D144234322E35CA05C1B02184313
:105590000ED15223E25C230052335B781B0213438B
:1055A0005122A05C1B02013A0343A05C1B0218437A
:1055B0003F233E22E35CA55C1B021D4300D178E73C
:1055C0004B461F097F195744B84200D271E7614B1F
:1055D000C01B9847604B421E9A4200D969E75F4B57
:1055E000984200D9FFE05E4B984200D9EBE04B4671
:1055F00075190230E661F61960612562A662002B1A
:1056000000D156E7012243001B1855445B081040A7
:1056100065621818534B9C466044400A804500D28E
:1056200047E701235B422361E360813363712270AA
:105630004D4A0025138801339BB21380E38009E7AC
:10564000FC235B00E25C2300F933FF335B781B0231
:105650001343F822FF32A25C1B021343FB225200C9
:10566000A25C1B021A4382239B009346E25CE31870
:105670005B781B0213433D4A1B02A25C13433C4A66
:105680001B02A25C1A4386239B009246E25CE3184D
:105690005B781B021343374A1B02A25C1343364A52
:1056A0001B02A25C1A438A239B000092E25CE3186F
:1056B0005B781B021343314A1B02A25C1343304A3E
:1056C0001B02A25C1A435B460192002B00D0FFE64E
:1056D0005346002B23D1009B002B53D1019B002B61
:1056E00000D1E6E61A0000230127237113007F4250
:1056F000E762013309D06078012329009046B04762
:10570000002800D0E1E64346E3622000C8470128B4
:1057100000D8F2E6042800D1D8E60D259AE6002349
:105720000127237153467F42E762013346D06078F8
:10573000012352462900B04700283DD0E762CAE75E
:10574000500B0020518A0000658A0000958B0000F4
:1057500035510000B5910000F4FFFF0FF5FF000088
:10576000F50F0000FF010000540B002007020000AD
:1057700006020000170200001602000027020000C7
:1057800026020000002301272371009B7F42E7626D
:1057900001330CD060780123009A2900B04700281B
:1057A00003D0E7629AE7E76292E7009BE36220009A
:1057B000C847012892D8A0E65346E3622000C847B4
:1057C000012888D899E64B4675190230E661F6192A
:1057D00060612562A662002B00D16AE655446562CD
:1057E0004000022216E75B2302307519F719606149
:1057F000E6612562A762E25C013BE35C12021343AF
:1058000000D056E64B46002B00D052E65E33E25CF9
:1058100023005E335B7880001B0213435D22A25C91
:105820001B0213435C22A25C1B0213436362394BCD
:10583000C3185B0A984500D23BE601235B42236113
:10584000E360813363711F3BE25C013BE35C120266
:105850001343012B01D00322E9E6711C20002E4BDB
:1058600098470322002800D0E1E64B4663712B4B9A
:10587000E15C2B4B0902E35C0B432A491BB28B42D0
:1058800000D0D4E63223E25C0133E35C26491B02FC
:1058900013433122A25C1B0213433022A25C1B0281
:1058A000134303228B4200D0C1E6204BE15CE31896
:1058B0005B781B020B431E491B02615C0B43852175
:1058C0008900615C1B020B431A498B4200D0AEE693
:1058D000194BE15CE3185B781B020B4317491B0271
:1058E000615C0B4386218900615C1B020B432361D1
:1058F000134BE15CE3185B781B020B4311491B025D
:10590000615C0B4387218900615C1B020B43E360F0
:105910008DE6C046FF010000555200002F02000036
:105920002E02000055AAFFFF5252614116020000EC
:1059300015020000727241611A0200001902000093
:105940001E0200001D020000F0B54546DE46574627
:105950004E46E0B5037883B004000D009046022B5C
:1059600000D19CE0032B69D00220012B06D003B0AC
:105970003CBC90469946A246AB46F0BD226A4E0812
:10598000914673180193E26A5B0A9944914500D1EC
:105990001BE1270023793037002B00D0A6E0BA4660
:1059A0003900607801234A46914FB847002800D05B
:1059B000E8E04B46E362019BDE055F1C0123F60D28
:1059C0001D405644AB46002D00D1E0E00F22317857
:1059D0001140424612010A4332702371236A7E0A43
:1059E0009C46E26A6644B24200D1FCE06078012342
:1059F0005146804DA847002800D0C6E0E26A236ADD
:105A0000A1692071D31A8B4203D2E378022B00D113
:105A1000E3E06078012332005146754DA847002825
:105A200000D0AFE05B46FF05FF0DE6625744002B58
:105A300000D1BAE043461B09DBB2BDE0036ACE09E0
:105A40009C46C26A6644B346964200D1C1E0070054
:105A500003793037002B7BD1B946390060780123B8
:105A60005A46634FB847002800D08BE05B46E3629C
:105A7000FE2243465200AD0015404D44EA781B011A
:105A800012091B0912071A43130A6B70130CAB702F
:105A900001232A70120EEA700020237167E7036A5F
:105AA0000E0A9C46C26A6644B346964200D188E01C
:105AB000070003793037002B32D1B94639006078BE
:105AC00001235A464A4FB84700285BD15B46E36240
:105AD000FF236D005B001D4043464D442B70434641
